:020000040000FA
:100000000C94DC000C94F9000C94F9000C94F900A9
:100010000C94F9000C94F9000C94F9000C94F9007C
:100020000C94F9000C9460030C94F9000C94F90002
:100030000C94F9000C94F9000C94F9000C94F9005C
:100040000C945B020C94F9000C94A5020C9421030F
:100050000C94F9000C94F9000C94F9000C94F9003C
:100060000C94F9000C94F9006E616E00696E6600E4
:1000700000407A10F35A00A0724E18090010A5D45F
:10008000E80000E87648170000E40B54020000CABC
:100090009A3B000000E1F505000080969800000002
:1000A00040420F000000A086010000001027000061
:1000B0000000E803000000006400000000000A00E7
:1000C000000000000100000000002C76D888DC67EA
:1000D0004F0823DFC1DFAE59E1B1B796E5E3E45342
:1000E000C63AE651997696E8E6C28426EB898C9B5F
:1000F00062ED407C6FFCEFBC9C9F40F2BAA56FA5FF
:10010000F490055A2AF75C936B6CF9676DC11BFC80
:10011000E0E40D47FEF520E6B500D0ED902E03009B
:10012000943577050080841E080000204E0A0000E8
:1001300000C80C333333330F986E12831141EF8DA7
:100140002114893BE65516CFFEE6DB18D1844B38E7
:100150001BF77C1D901DA4BBE424203284725E2218
:100160008100C9F124ECA1E53D276364696E6F70DD
:10017000737578585B65666745464700616E006E2B
:1001800066696E69747900CDCCCC3D0AD7233C17E3
:10019000B7D13877CC2B329595E6241FB14F0A00A2
:1001A0000020410000C84200401C4620BCBE4CCA92
:1001B0001B0E5AAEC59D740011241FBECFEFD8E0B0
:1001C000DEBFCDBF14E0A0E0B1E0EEEEFEE302C082
:1001D00005900D92A235B107D9F726E0A2E5B4E06B
:1001E00001C01D92AA3AB207E1F70E94720B0C946B
:1001F000751F0C94000081E090E09093F7028093CB
:10020000F602089581E090E09093CA048093C904B7
:10021000089581E090E090936504809364040895CC
:1002200020915C0430915D04232B81F490935D0454
:1002300080935C0470935B0460935A048091C100C6
:1002400080628093C10090E080E0089581E090E0BA
:1002500008954091660450916704CA01FA01208113
:100260004F5F5F4F2032C9F3909367048093660419
:10027000211102C090E080E00895E0916604F091C1
:100280006704009731F090936704809366040C94A0
:1002900029019E2F8F2F2191222339F02032C9F777
:1002A0009093660480936704F2CF909366048093E2
:1002B000670490E080E00895E8E1F1E040E050E07C
:1002C00066EC72EC81E0E837F80709F4089583855D
:1002D0008F5F83878B3068F0A081B181AA0FBB1F2D
:1002E000AA0FBB1FAE57BA4F4D935D936D937C938E
:1002F00013973C96E7CF5A985E9808955A985E9A5D
:1003000089B185FB882780F990E008954091D60453
:100310005091D7046091D8047091D90404C07695A7
:100320006795579547958A95D2F788E040FF88EF03
:1003300041FF14C0885F42FF13C0885F43FF12C0B3
:10034000885F44FF11C0885045FF10C0885046FFA9
:100350000FC0885047FF0EC0885008958850EBCFDB
:100360008850ECCF8850EDCF885FEECF885FEFCF1D
:10037000885FF0CF885F0895CF93DF93EC011092F0
:1003800053041092520463ED71E0CE010E941001FB
:10039000892BC9F78091520490915304892BD1F392
:1003A000DF91CF91089581E090E090935304809382
:1003B00052040895806680937C0087EC80937A00D5
:1003C00080917A0086FDFCCF8091790090E00895BD
:1003D00029E030E041E050E02150310909F408956E
:1003E000F894BA01682379235E985A98672B79F0BC
:1003F00065E36A95F1F700005E9AEBEDF0E0319766
:10040000F1F700C000007894440F551FE5CFE3E0FA
:10041000F1E03197F1F700C000005E9AFAE1FA9539
:10042000F1F700C0F0CF5A9A8DE790E0019721F1E3
:100430002AE02A95F1F700C04D9BF8CF5E985A98B4
:100440008FEC97E00197F1F700C000005A9AEFE3B4
:10045000F1E03197F1F700C0000089B182958695EF
:10046000877091E08927817090E0EFE8F6E031979E
:10047000F1F700C00000089580E090E008950E9428
:100480005C015598569A529A0E947E01892B81F000
:100490008FE39CE90197F1F700C000000E9413026E
:1004A00031E020E0892B09F030E0832F922F08956E
:1004B00081E090E008951F920F920FB60F921124E1
:1004C0002F933F938F939F93AF93BF938091A606F3
:1004D0009091A706A091A806B091A9063091A50613
:1004E00023E0230F2D3758F50196A11DB11D209350
:1004F000A5068093A6069093A706A093A806B0939E
:10050000A9068091A1069091A206A091A306B091A0
:10051000A4060196A11DB11D8093A1069093A20689
:10052000A093A306B093A406BF91AF919F918F9122
:100530003F912F910F900FBE0F901F90189526E8B6
:10054000230F0296A11DB11DD2CF1F920F920FB69D
:100550000F9211242F933F934F935F936F937F9349
:100560008F939F93AF93BF93CF93EF93FF9380911C
:10057000C00084FD4BC08091C00083FD47C08091C6
:10058000C00082FB222720F930E0C091C600809194
:10059000580490915904BC016F5F7F4FE0915E0455
:1005A000F0915F046E177F07B4F4409157044A300E
:1005B00011F0009781F040916204509163047093B0
:1005C000590460935804840F951FDC01CC93460FA7
:1005D000571FDA011C92232BE1F01092590410925C
:1005E0005804C0E0C0935704FF91EF91CF91BF91A1
:1005F000AF919F918F917F916F915F914F913F91BB
:100600002F910F900FBE0F901F90189521E030E0B2
:10061000BCCFEF2B39F3CA3029F710925F04109248
:100620005E046091580470915904E0916004F09167
:10063000610450E040E08091620490916304099568
:10064000D1CF1F920F920FB60F9211242F933F9389
:100650004F935F936F937F938F939F93AF93BF93CA
:10066000EF93FF93E0915C04F0915D048081882317
:10067000C1F03196F0935D04E0935C048093C60072
:10068000FF91EF91BF91AF919F918F917F916F916A
:100690005F914F913F912F910F900FBE0F901F9040
:1006A00018958091C1008F7D8093C10010925D04E8
:1006B00010925C04E0915A04F0915B040995E0CF3C
:1006C0001F920F920FB60F9211242F933F934F93C7
:1006D0005F936F937F938F939F93AF93BF93CF93CA
:1006E000EF93FF93809156048F5F8093560456B129
:1006F00080915D058823D9F030915C05E32FEF7779
:10070000F0E0E552FB4F40812091CB0481E090E086
:10071000022E01C0880F0A94EAF752FF94C0842B7E
:1007200080832F5F283009F491C02093CB0426B139
:1007300020729091000181E0890F80930001863042
:1007400069F08A3059F0392F3F7E3E3039F09B7F77
:10075000923121F08B3111F0833241F490915504A4
:100760009595211120E8922B90935504883209F039
:100770003FC0C091550480916A0490916B04AC0114
:100780004F5F5F4F60917004709171044617570777
:10079000B4F4209154042A3011F0009781F0209194
:1007A0006E0430916F0450936B0440936A04820F7F
:1007B000931FFC01C083240F351FF9011082672BA2
:1007C000A9F0CA3099F410927104109270046091EB
:1007D0006A0470916B04E0916C04F0916D0450E038
:1007E00040E080916E0490916F040995C093540489
:1007F000809156048A30A9F41092560480917005B5
:1008000090917105A0917205B09173050196A11D9B
:10081000B11D8093700590937105A0937205B093FC
:100820007305FF91EF91CF91BF91AF919F918F9100
:100830007F916F915F914F913F912F910F900FBEDC
:100840000F901F901895809584236ACF1092CB0447
:100850003F5F30935C056BCFAFE0B0E0E2E3F4E0E4
:100860000C94681B6C011B015A01FC011782168253
:10087000838181FF48C39E012F5F3F4F4901F601ED
:100880009381F10193FD859193FF81911F0188234D
:1008900009F4E7C2853239F493FD859193FF819184
:1008A0001F01853239F4B60190E00E94E51C350144
:1008B0005301E5CFF12C512C00E0003238F48B329B
:1008C00009F190F48032F9F0833209F107FD34C068
:1008D00020ED280F2A3020F506FF1BC0FAE0FF9E0E
:1008E000200D1124F22E05C08D3279F0803371F77E
:1008F0000160F10193FD859193FF81911F018111A9
:10090000DCCF1AC002600460F4CF0860F2CF00614F
:10091000F0CF3AE0539E200D1124522E0062E9CF11
:100920008E3221F406FD9DC20064E3CF8C3611F4B3
:100930000068DFCF8836E9F29BEB980F933008F020
:100940005FC00061805E06FD02C046E0F42E102FFD
:100950001F73853609F05BC0106417FF61C08F2DCF
:100960009BE39F1508F48BE344244394480E27E04F
:100970003501F4E06F0E711CF50160817181828197
:100980009381042DA4010E949F1B5C01F981FC87C7
:10099000F0FF03C00DE2F3FF07C00BE211FD04C03E
:1009A000012F047012FD00E22C852C70E22E09F458
:1009B00057C00111ABC2F3E0E12CF515A0F483E0C0
:1009C000E52CE81A13FD08C0B60180E290E00E9411
:1009D000E51CEA94E110F8CF002329F0B601802F3E
:1009E00090E00E94E51C3C8528E6A22E20E0B22E75
:1009F00033FD04C09CE6A92E90E0B92E107122C0F0
:100A00009BE9980F933008F033C10F7E9CCF863658
:100A100011F41068A2CFFF2009F49FCFFA949DCF64
:100A2000E7E02F2DEF1518F427E037E0F32E412CE7
:100A30009FCF11118052B60190E00E94E51C8FEF0C
:100A4000A81AB80AF50184918111F3CFEE2009F4B8
:100A50002FCFB60180E290E00E94E51CEA94F6CF29
:100A600017FF6FC04A0CFC85F4FF04C08A818133F4
:100A700009F44A9414140CF086C028E0241510F4EC
:100A800088E0482E85E090E017FF06C0C501B7FE5C
:100A900002C090E080E0019601110196FF2031F044
:100AA0002F2D30E02F5F3F4F820F931F58161906EE
:100AB00019F014F0E52CE81A812F897011F4E11077
:100AC00067C0002329F0B601802F90E00E94E51C4A
:100AD00013FD02C0E11063C017FF7CC08501B7FEA3
:100AE00002C010E000E0C501841991092C016F2DAE
:100AF00070E0EE27FF27E61BF70BFF87EE870F3F1F
:100B0000100729F4B6018EE290E00E94E51CA016C1
:100B1000B1060CF44BC0401651060CF047C0F5016D
:100B2000E01BF10BE80DF91D8181015011092E85A3
:100B30003F8502171307E4F1B60190E00E94E51C1F
:100B4000DECF16FD9FCFEF2DF0E0EA15FB0534F068
:100B50003CEFA3163FEFB3060CF010683296E80D99
:100B6000F91D01C0FA94FF2019F082918033D1F36E
:100B700017FF88CF442443944F0CFA141B0431F020
:100B80002CF0FA187FCF442443947CCFF12C7ACFF9
:100B9000B60180E290E00E94E51CEA9490CFB60195
:100BA00080E390E00E94E51CEA9494CF80E3BDCFFF
:100BB000A016B10641F49A81963350F4953319F496
:100BC0003C8534FF05C0B60190E00E94E51C3ECF95
:100BD00081E3F9CF8A81813319F09C859F7E9C87C0
:100BE000B60190E00E94E51CFF20A9F0B6018EE25C
:100BF00090E00E94E51CF394F394E2E001E00E0F14
:100C0000E80DF92DF11D8081B60190E00E94E51CF0
:100C1000E02F0F11F3CF85E690E014FF02C085E4CA
:100C200090E0B6010E94E51CB7FC06C0A114B10417
:100C3000C1F4EC85E4FF15C0B194A194B1088DE234
:100C4000B60190E00E94E51C80E32AE0A216B10400
:100C500054F4B60190E00E94E51CB601C501C096AF
:100C6000B4CF8BE2EDCF8F5FFAE0AF1AB108EDCFD2
:100C70008336C9F0833771F1833509F05BC03501E4
:100C8000F2E06F0E711CF501A080B1806F2D70E055
:100C900006FD02C06FEF7FEFC5010E94931C9D8788
:100CA0008C8700680DC0350132E0630E711CF501C0
:100CB0008081898321E030E03D872C8754010F77C4
:100CC00003FD06C02C853D855216130609F0A8F4D5
:100CD000E52C2BC0350132E0630E711CF501A080BC
:100CE000B1806F2D70E006FD02C06FEF7FEFC50190
:100CF0000E949E1C9D878C87E2CFB60180E290E027
:100D00000E94E51C5A94DECFF50107FD859107FF8F
:100D100081915F01B60190E00E94E51CE110EA9428
:100D20008C859D8501979D878C87EC85FD85EF2BB4
:100D300059F78CCE843619F0893609F074C0350124
:100D400007FF66C0F4E06F0E711CF50160817181D0
:100D500082819381102F1F7697FF08C09095809510
:100D6000709561957F4F8F4F9F4F10682AE030E05C
:100D7000A4010E942D1DA82EA818BA2C012F16FF21
:100D80000AC00E7FAF1438F414FF04C012FD02C075
:100D9000012F0E7EBF2C04FF8EC0FE01EA0DF11D57
:100DA0008081803309F080C0097EF02FF870EF2E2B
:100DB00003FD90C000FF8AC0FA2CB51410F4F50CA6
:100DC000FB1804FF8DC0B60180E390E00E94E51C93
:100DD00002FF09C088E790E001FF02C088E590E0CB
:100DE000B6010E94E51CAF1408F486C0AA940A2D2F
:100DF00010E00F5F1F4F080D191DF80182918F0140
:100E0000B60190E00E94E51C80169106B1F71ECE57
:100E1000F2E06F0E711CF50160817181072E000CEC
:100E2000880B990B97CF102F8537A9F41F7E2AE0E6
:100E300030E0350117FF2FC0F4E06F0E711CF50193
:100E40006081718182819381A4010E942D1DA82E51
:100E5000A8181F7792CF197F8F36D1F048F48835C4
:100E600091F0F601868197812F96E2E10C94841B24
:100E7000803739F08837A9F714FD146020E130E09D
:100E8000D8CF1061F9CF04FD166020E132E0D1CF58
:100E900028E030E0CECFF2E06F0E711CF5016081EA
:100EA000718190E080E0D0CF02FD02C0B3947DCF8D
:100EB000B394B3947ACF802F867809F476CFF6CFA7
:100EC000B60180E290E00E94E51CB394B514C0F333
:100ED000E12C77CFE52CEB18B51408F472CFF8CFDE
:100EE000802F867809F47FCF8BE201FF80E207FD37
:100EF0008DE2B60190E075CFB60180E390E00E94EC
:100F0000E51CFA9470CF8FEF9FEFAECF24E0E12C79
:100F1000251508F063CD84E053CD20FD09C0FC0108
:100F200023FD05C022FF02C0738362835183408387
:100F3000089544FD17C046FD1DC0DB01FC01AA0F4A
:100F4000BB1FEE1FFF1F1094D1F76A0F7B1F8E1F70
:100F50009F1F660F771F881F991F620F711D811DCC
:100F6000911D089533E0660F771F881F991F315038
:100F7000D1F7F3CF34E0F7CF0F931F93CF93DF93E5
:100F80008C01C8010E94A91CEC0197FD08C00E94B9
:100F9000771C892BB1F7B801CE010E94151DCE0137
:100FA000DF91CF911F910F910895B0E0A0E0EBED9C
:100FB000F7E00C946E1B7C018B016A01D22F0E941A
:100FC000A91C9C0133272B32310521F02D3231052C
:100FD00079F4D0680150110931F480E0CDB7DEB763
:100FE000ECE00C948A1BC7010E94A91C97FDF5CF69
:100FF000CD2FCD7F2D2F207309F58033F9F45801C3
:1010000081E0A81AB10891F0C7010E94A91C97FDC0
:101010000DC0282F2F7D283569F4C26402501109B4
:1010200029F0C7010E94A91C97FF08C0812C912CB0
:1010300054011BC0D6FF2BC0C2608501812C912CAE
:10104000540120ED280F283028F1C4FD09C02A30B2
:1010500008F1C6FF05C02F7D3FEE320F3630C8F0D5
:10106000B7010E94151DC1FFB8CFC7FF08C0B094DB
:10107000A09490948094811C911CA11CB11C2C2FD5
:10108000B501A401C6010E948D0781E0A7CFC2610E
:10109000D4CF27504C2FC501B4010E9499074B01B2
:1010A0005C01C2600150110901F3C7010E94A91C33
:1010B00097FFC7CFD8CFA0E2B0E0E1E6F8E00C940C
:1010C0006C1B5C014B017A01CE0101966C0180E240
:1010D000F60111928A95E9F7F501B381890130E0B3
:1010E00020E0612C712CA0E041E050E0F801B3FD5C
:1010F0008591B3FF8191982F8F01811107C010E076
:1011000000E0C801A096EEE00C94881B8E3519F41F
:101110002115310541F1A21713064CF48D3549F123
:101120008D3229F4711006C0772473941DC0772086
:1011300009F465C0E92FE695E695E695EC0DFD2DE1
:10114000F11D892F8770BA0101C0660F8A95EAF7F1
:101150008081682B6083691651F0961510F49F5FAB
:10116000E9CF9150E7CFA1E02F5F3F4FBFCF712C68
:10117000FBCF772019F08E8180628E83AA2359F0ED
:10118000F6019E012F5D3F4F8081809580833196CF
:10119000E217F307C9F777247394C5010E94A91CCD
:1011A00097FD16C0E82FE695E695E695EC0DFD2D2A
:1011B000F11D208130E0AC014770552702C0359504
:1011C00027954A95E2F720FD06C0B5010E94151D3E
:1011D000772071F094CFE114F10429F0F7018083B6
:1011E000C70101967C0191E0891A9108712CA9F63A
:1011F000E114F10409F485CFF701108282CFE82FC2
:10120000E695E695E695EC0DFD2DF11D982F97706E
:10121000BA0101C0660F9A95EAF79081692B608345
:10122000682EA2CF2F923F924F925F926F927F9241
:101230009F92AF92BF92CF92DF92EF92FF920F9365
:101240001F93CF93DF936C018B011A010E94A91C9D
:10125000EC0199278B32910521F08D97C9F0B12CC3
:1012600020C0B12C01501109B1F480E0DF91CF9181
:101270001F910F91FF90EF90DF90CF90BF90AF90B4
:101280009F907F906F905F904F903F902F90089528
:1012900030E8B32EE7CFC6010E94A91CEC0197FDF0
:1012A000E4CFCE010E94801C8936910509F4C0C0AC
:1012B0008E36910509F4ACC0412C512C3201F12C31
:1012C000E12C2C2F20539B2C2A3008F0CFC068949F
:1012D00091F88B2D8870B2FEB0C0811103C0EFEF82
:1012E000EE1AFE0A0150110931F0C6010E94A91C34
:1012F000EC0197FFA0C091FEB8CF8C2F8F7D853475
:1013000009F042C05801E1E0AE1AB10809F4ADCFCE
:10131000C6010E94A91CEC0197FDA7CF99278B322B
:10132000910521F08D9761F4689494F85801F2E0EA
:10133000AF1AB10809F499CFC6010E94A91CEC01AB
:10134000CE01C0970A9708F090CF10E000E0B801F6
:10135000110F880B990B2C2F205340E20E94990704
:101360008B0121E0A21AB10839F0C6010E94A91C24
:10137000EC01C0970A9758F394FE03C011950195AC
:101380001109E00EF11E8501012B31F0D7FD04C0DB
:10139000B601CE010E94151DC301B2010E946D1A53
:1013A000C3EBD1E0F7FE05C0F194E194F108CBE97D
:1013B000D1E06E01E8E1CE1AD10800E210E067C08A
:1013C0000150110971F0C6010E94A91C3C0197FD52
:1013D00008C00E94801CF816E9F0B601C3010E9403
:1013E000151DC258D14009F040CF80E090E0A0E840
:1013F000BFE7BC01CD019B2C97FC90582114310410
:1014000029F0F101608371838283938381E02ECF81
:10141000CCE7D1E02196FE013197F490F110D0CFC6
:10142000CF57D14011F780E090E0A0ECBFE7E1CFCB
:10143000CFE7D1E0EFCFB92C44CF882319F0F1E00A
:10144000EF1AF10840E2C301B2010E9499072B0193
:101450003C0128E9421629E95206620629E1720692
:1014600008F440CF8B2D8660982E3CCF2E3F09F09C
:1014700042CFB3FC40CF689493F834CFFE0125915E
:101480003591459154910E94AA1AE01AF10AE0168A
:10149000F106A0F7249716950795CC15DD05B9F749
:1014A000ABCFB0E0A0E0E7E5FAE00C946C1B5C0188
:1014B000EB014A01FC0117821682612CF5010381C0
:1014C000FE0103FD859103FF8191182FEF01882311
:1014D000E9F090E00E94771C892B21F0C5010E9461
:1014E000BC07ECCF153241F4FE0103FD159103FF5B
:1014F0001191EF01153269F4C5010E94A91C97FDF5
:1015000096C01817D9F2B5010E94151D862D90E0DE
:1015100092C0712C1A3239F403FD159103FF119119
:10152000EF0177247394F12CE12C20ED210F2A3068
:1015300050F171FE38C0E114F10441F31836B9F1ED
:101540001C3609F43FC0112309F3612F70E08AE6CD
:1015500091E00E94881C892BC9F2D12CC12C70FC0F
:1015600006C0F401C080D180C40102964C011E3631
:1015700091F5F5014681578170E060E0272DC601A5
:101580000E948D079BCF689471F8B70190E080E0CE
:1015900040E20E9499077B01FE0103FD159103FFC4
:1015A0001191EF01C2CFEE24EA94FE2CC7CFFE01C9
:1015B00003FD159103FF1191EF01183609F0C3CF18
:1015C000689473F8689472F8FE0103FD159103FFA7
:1015D0001191EF01B8CF1336D1F471FC03C0EE24A2
:1015E000E394F12CC5010E94A91C97FD20C0C114F1
:1015F000D10429F0F6018083C60101966C0191E0C7
:10160000E91AF10879F770FC59CF639457CF1B356D
:10161000B9F49E01A601B701C5010E945B08EC0167
:10162000892B89F7F5018381807309F46FCF8FEFE0
:101630009FEF61106BCFCDB7DEB7EEE00C94881B47
:10164000C5010E94BC0797FDF2CF1F3609F447C0C1
:1016500090F4143609F440C0193621F0183581F49D
:10166000689476F8272DA601B701C5010E94D50719
:101670008111C9CFD7CF1337D1F040F4103781F3A0
:10168000A601B701C5010E941209F2CF153721F159
:10169000183731F3F5CFC114D10429F0F6010083D6
:1016A000C60101966C0191E0E91AF10871F0C501DB
:1016B0000E94A91C8C0197FD08C00E94771C892BF1
:1016C00051F3B501C8010E94151DC114D10409F4DC
:1016D0009ACFF601108297CF689475F8C3CF6894BB
:1016E00074F8C0CFCF93DF93CDB7DEB76B970FB64B
:1016F000F894DEBF0FBECDBF789484B5826084BD00
:1017000084B5816084BD85B5826085BD85B5816005
:1017100085BD80916E00816080936E001092810083
:10172000809181008260809381008091810081603E
:1017300080938100809180008160809380008091FF
:10174000B10084608093B1008091B000816080938B
:10175000B00080917A00846080937A0080917A0052
:10176000826080937A0080917A00816080937A0011
:1017700080917A00806880937A001092C100109264
:10178000630410926204109261041092600410923B
:101790005F0410925E0410925D0410925C0410923B
:1017A0005B0410925A0480E18093C4001092C5003B
:1017B00088E98093C10082E38093B30081E0809345
:1017C000700083E08093B0008BE08093B1005F985D
:1017D00028982998579A209A219A2A982B982C98D9
:1017E000229A239A249A80E680937C0087E880934B
:1017F0007A005B9A5C9A2D9A0E943F02E091030165
:10180000F0910401EE0FFF1FEE0FFF1FEE57FA4F8E
:1018100080E090E0A6ECB2EC80839183A283B38356
:10182000E0910A01F0910B01EE0FFF1FEE0FFF1F79
:10183000EE57FA4F80839183A283B383E091110125
:10184000F0911201EE0FFF1FEE0FFF1FEE57FA4F40
:1018500080839183A283B383109265041092640401
:1018600069E071E08AE093E00E941001892BC1F7E2
:101870008091640490916504892BD1F3009101015A
:10188000109102010115110509F0C3C08091C9042E
:101890009091CA04892B09F458C288E193E00E9410
:1018A000BC0188E794E00E94BC011092B30510923D
:1018B000B20588E794E090936704809366040E94E1
:1018C00029017C01009709F49CC069E273E00E9441
:1018D0001F1F892B09F095C0CE010A969F938F9305
:1018E00002969F938F9381E393E09F938F93FF9250
:1018F000EF920E945C1F0FB6F894DEBF0FBECDBF03
:10190000029709F41FC18091B2059091B3058061DF
:101910009093B3058093B20571E4C72E73E0D72E80
:1019200090E080E00E943D017C01009709F01BC11E
:101930008091680490916904019690936904809362
:1019400068040B970CF084C10330110509F4B3C18E
:101950000CF083C10130110509F493C10230110567
:1019600009F49CC18E859F85A889B9898093B605A5
:101970009093B705A093B805B093B9050F5F1F4FBB
:101980000630110569F690E080E00E943D018C016F
:10199000009779F042E050E065E473E00E94111F87
:1019A000892B09F0A2C181E090E09093CF0580934C
:1019B000CE0590E080E00E943D018C01009779F017
:1019C00042E050E065E473E00E94111F892B09F0AA
:1019D000A4C181E090E09093D1058093D0058091DF
:1019E000B2059091B30581719927892B21F410924A
:1019F00069041092680440916804509169045B8FF7
:101A00004A8F6A8D7B8D672B21F410927704109298
:101A1000760410920201109201011092CA041092F1
:101A2000C9048091700590917105A0917205B091E3
:101A300073058093720490937304A0937404B0931D
:101A400075048091700490917104892BB1F488E73A
:101A500094E090936F0480936E0482E091E0909301
:101A60006D0480936C0410926B0410926A0481E5FB
:101A700090E090937104809370048091B2059091EE
:101A8000B30581719927892B09F4E8C1549886E040
:101A900090E00E94DA01BC01990F880B990B0E941B
:101AA0006F1A20E030E04FE753E40E94001E20E070
:101AB00030E040EA50E40E94AA1A26E636E646EBF9
:101AC00050E40E94AA1A6093AE057093AF0580930C
:101AD000B0059093B10520E030E040E051E40E9471
:101AE000FB1D87FFBDC15398609170057091710512
:101AF000809172059091730528EE33E040E050E04C
:101B00000E94C31E3093D3052093D20502E815E04E
:101B10006EEAE62E65E0F62ED8016D917D918D91ED
:101B20009D918D0120E030E046EC52EC0E94FB1DBF
:101B3000882311F40C94371AE016F10669F7259AF8
:101B40000C94381A2C853D854CE3429FC001439F7D
:101B5000900D11242A853B85820F931F9093B50524
:101B60008093B405D9CE44E050E067E373E00E946F
:101B7000111F0097D9F42091B2053091B305A80147
:101B8000445051094230510510F084E090E0822B1E
:101B9000932B9093B3058093B20540E050E066EC40
:101BA00072EC4E875F87688B798BCECE44E050E035
:101BB0006CE373E0C7010E94111F892B91F480919F
:101BC000B2059091B30588609093B3058093B205F8
:101BD00060E070E084EC92EC6E877F87888B998B55
:101BE000B3CE81E090E08C0F9D1F9F938F93DF9287
:101BF000CF92FF92EF920E945C1F0F900F900F9078
:101C00000F900F900F900197D1F08091B2059091B5
:101C1000B30580619093B3058093B2058091680409
:101C200090916904019690936904809368040B97DE
:101C30000CF48ACE60E070E082EC92ECCDCF29818A
:101C40003A814B815C812E873F87488B598B7CCEB4
:101C500040E050E060EC72ECA4CF04301105C1F11B
:101C60000530110509F07ECE2E853F8548895989BA
:101C70002093CA053093CB054093CC055093CD05F6
:101C80007DCE2E853F85488959892093BA053093AA
:101C9000BB054093BC055093BD0570CE4E855F8556
:101CA000688979894093BE055093BF056093C0054C
:101CB0007093C10563CE6E857F858889998960930D
:101CC000C2057093C3058093C4059093C50556CE95
:101CD0008E859F85A889B9898093C6059093C7058D
:101CE000A093C805B093C90549CE43E050E068E42D
:101CF00073E0C8010E94111F892B29F41092CF05AF
:101D00001092CE0556CE8091B2059091B3058061B8
:101D10009093B3058093B2054CCE43E050E068E465
:101D200073E0C8010E94111F892B29F41092D1057C
:101D30001092D00554CE8091B2059091B305806188
:101D40009093B3058093B2054ACEC0907005D090B1
:101D50007105E0907205F090730580917204909186
:101D60007304A0917404B0917504A7019601281B17
:101D7000390B4A0B5B0BCA01B90128EE33E040E096
:101D800050E00E94C31E253131050CF476CEC0927E
:101D90007204D0927304E0927404F092750400917E
:101DA000760410917704053011050CF066CE0F5FB4
:101DB0001F4F10937704009376048CE493E00E9405
:101DC000BC010530110509F058CE80E693E00E9471
:101DD000BC0181E090E09093B3058093B20580E070
:101DE00090E0AEEBB2EC8093B6059093B705A0936C
:101DF000B805B093B9058093BA059093BB05A0933D
:101E0000BC05B093BD058093BE059093BF05A0931C
:101E1000C005B093C1058093C2059093C305A093FC
:101E2000C405B093C5058093C6059093C705A093DC
:101E3000C805B093C9058093CA059093CB05A093BC
:101E4000CC05B093CD0581EA9FEF9093CF058093A9
:101E5000CE059093D1058093D0050FCE549A17CE1E
:101E6000539A42CEC0905C0580915B05C81A609081
:101E7000050150900C012090130148E1342E57E0E9
:101E8000452ECC2011F40C94651A70905B05E72D5B
:101E9000EF77F0E0E552FB4F80812091DA04422F8A
:101EA000022E000C550B90E027FF25C0519541955F
:101EB000510902C0959587954A95E2F7092E000CC5
:101EC000AA0BBB0B8093D6049093D704A093D8049D
:101ED000B093D904285F2093DA04F090DA040091DB
:101EE000D4041091D504F3E1FF15E4F073947092DB
:101EF0005B05CA94C6CFB0E0A0E0022E04C0880FF4
:101F0000991FAA1FBB1F0A94D2F74091D604509183
:101F1000D7046091D8047091D904842B952BA62BFB
:101F2000B72BD0CF0115110509F45CC003301105A2
:101F3000D0F680E00E948601E82E81E00E948601B2
:101F4000D82E82E00E9486016D2D0D2C000C770B9F
:101F500077FF03C07195619571092E2D0E2C000C31
:101F6000330B37FF03C0319521953109482F082ED7
:101F7000000C550B57FF03C051954195510962174D
:101F800073070CF471C0641775070CF473C08D2DC2
:101F900091E00230110509F49FC089320CF46CC045
:101FA0008091D3048F5F8093D30489E0890F40919F
:101FB000D6045091D7046091D8047091D90404C01C
:101FC00076956795579547958A95D2F74093D604AD
:101FD0005093D7046093D8047093D90437EFF30E6D
:101FE000F91A3FC08091D6049091D704A091D804EB
:101FF000B091D904AC01BD01769567955795479589
:102000008A019B010E771127222733270E301105F5
:1020100021053105E9F4E1E0E093D3042AE0B69527
:10202000A795979587952A95D1F78093D604909395
:10203000D704A093D804B093D90486EF8F0D809372
:10204000DA0421E030E03093D5042093D40445CF66
:102050004093D6045093D7046093D8047093D90466
:10206000FA94F092DA0439CF241735071CF08E2D3C
:1020700090E08FCF92E08DCF883D0CF0D9C0809159
:10208000D3048B3008F4D4C04FEF4093D20489E0DE
:10209000890F4091D6045091D7046091D804709173
:1020A000D90404C076956795579547958A95D2F7D8
:1020B0004093D6045093D7046093D8047093D90406
:1020C00057EFF50EF91AF092DA0462E070E07093BF
:1020D000D5046093D40401CF28E2280F213508F4F9
:1020E000A7C02091D20427FD13C0E22FE595E59506
:1020F000E5950E2E000CFF0BE453FB4F408150E0A2
:10210000440F551F31E018160CF030E0432B40838C
:102110002F5F2093D20489E0890F4091D60450911B
:10212000D7046091D8047091D90404C0769567955E
:10213000579547958A95D2F74093D6045093D70484
:102140006093D8047093D90477EFF70EF91AF092E0
:10215000DA04203309F0C1CE4091D104ECECF4E074
:1021600094E68CE7319128E0582F517080FB8795D9
:1021700087F95111832537FD9827330F2150A1F797
:10218000A1EDB4E0AE17BF0769F7491351C08091C4
:10219000CC04853409F04CC08091D004853608F019
:1021A00047C08091CE04682F677070E0762F662755
:1021B0009091CF04690F711D9B01285C310929376B
:1021C0003540B0F5807782958F708F5F8615A9F1C5
:1021D0008515B1F182112CC082E090E0489E9001FB
:1021E000499E300D1124F901ED5FFE4F7F01008102
:1021F0001181000F111F000F111F0E571A4F605948
:102200007140072E000C880B990B0E946F1A20E07A
:1022100030E040E251E40E94001ED8016D937D93AE
:102220008D939C931397F70183829482A582B68243
:102230001092D5041092D40450CE90E080E0CECF1E
:1022400081E090E0CBCFF80183819481A581B681B4
:10225000A5019401281B390B4A0B5B0BCA01B9017C
:1022600028EE33E040E050E00E94C31E29353240A2
:102270008CF0D801ED91FC91EE0FFF1FEE0FFF1FC8
:10228000EE57FA4F20E030E046EC52EC20833183E9
:1022900042835383095F1F4FE016F106A1F683E0E6
:1022A00090E00E94DA0110E000E0853D910564F4C1
:1022B00002E010E0853991053CF401E010E083373D
:1022C000910514F403E010E087E090E00E94DA0149
:1022D000853D91052CF4853991050CF43CC20860CC
:1022E00010937D0500937C056091700570917105D8
:1022F0008091720590917305C0906005D090610542
:10230000E0906205F09063056C197D098E099F09C4
:1023100028EE33E040E050E00E94C31E2531310535
:102320000CF401C32090B6053090B7054090B80575
:102330005090B9058090BA059090BB05A090BC055F
:10234000B090BD0520E030E04EEB52ECC201B1018F
:102350000E94FB1D18160CF009C220E030E04EEB85
:1023600052ECC501B4010E94FB1D18160CF0FCC113
:1023700020E030E043E453E4C201B1010E94961E24
:1023800018160CF4EFC1FF24F39420E030E045E28E
:1023900053E4C501B4010E94961E18160CF0F12CEE
:1023A0008F2D8A8B20E030E04EEB52ECC501B4015A
:1023B0000E94FB1D1816B4F420E030E04DE453E415
:1023C000C201B1010E94961EEE24E39418165CF03F
:1023D00020E030E04AE253E4C501B4010E94961EB9
:1023E00018160CF0E12C20E030E04EEB52ECC2016C
:1023F000B1010E94FB1D1816E4F420E030E04EEB22
:1024000052ECC501B4010E94FB1D181694F420E0A3
:1024100030E040E251E4C501B4010E948F1D9B01F0
:10242000AC0177247394C201B1010E94961E181664
:102430000CF0712C2090820530908305409084052B
:102440005090850520E030E046EC52ECC201B1012D
:102450000E94FB1D20E030E04EEB52EC882309F493
:1024600088C1C501B4010E94FB1D18160CF016C2EC
:102470006801B4E0CB22DD2402FD10C220E030E090
:1024800040E952E4C201B1010E94FB1D87FF0EC06A
:102490006624639420E030E04AEF52E4C501B401C1
:1024A0000E94961E18160CF0612CC62C6C2C20E095
:1024B00030E04EEB52ECC501B4010E94FB1D181632
:1024C0000CF4D1C1F12C6CC180915E0590915F0537
:1024D000892BB1F40E943F02892B19F00E947B01E5
:1024E000DECE81E090E090935F0580935E050E94D0
:1024F0001302892B89F40E947B010E945C01CFCEDC
:102500000E947E01892B09F4CACE8FE39CE90197D2
:10251000F1F700C00000EBCF8CEC90E00E94E801E6
:1025200084E490E00E94E8019FEFA3EDB0E39150B6
:10253000A040B040E1F700C0000008E111E078E7FA
:10254000872E71E0972E1E01EAE02E0E311C8016B8
:10255000910621F2D8011A968C91882309F468C05B
:102560000E941302892B39F285E590E00E94E80170
:102570007801B2E0EB0EF11C6801EAE0CE0ED11C4E
:10258000D7018D917D0190E00E94E801CE14DF0417
:10259000B9F78EEB90E00E94E801FE0131967F01D1
:1025A00050E040E029E030E081E090E019C0F8948C
:1025B0005A985E98B0E1BA95F1F75A9A6AE46A952A
:1025C000F1F700C069B1AFEBB0E01197F1F700C0CF
:1025D0000000789465FF02C0482B592B880F991F83
:1025E0002150310921F7D7014D937D012A163B0671
:1025F000B9F66985AF01485F5F4F80E04E175F070E
:10260000D1F4681751F1F80183858A3018F10190EF
:10261000F081E02DEE0FFF1FEE0FFF1FEE57FA4F78
:1026200020E030E046EC52EC208331834283538338
:10263000045F1F4F8CCF919128E030E0782F7927ED
:10264000869570FF02C0BCE88B2796952150310912
:10265000A9F7D4CF8F5F8387EBCF6A81862F90E075
:10266000982F88276981680F792F711D072E000C1C
:10267000880B990B0E946F1A20E030E040E85DE380
:102680000E94AA1A20E030E040E151E40E94AA1A18
:1026900020E030E040EA50E40E94001E20E030E0FC
:1026A00040E052E40E948F1D6B017C01F801A08084
:1026B000B180AA0CBB1CAA0CBB1CF501EE57FA4F4B
:1026C000408051806280738020E030E046EC52EC24
:1026D000C301B2010E94FB1D882391F120E030E08C
:1026E00040EA50E4C301B2010E948F1D9B01AC017E
:1026F000C701B6010E94961E181654F420E030E07F
:1027000040E05FE3C701B6010E948F1D6B017C01B1
:1027100020E030E040EA50E4C301B2010E948E1D87
:10272000A70196010E94961E181654F420E030E08E
:1027300040E05FE3C701B6010E948E1D6B017C0182
:10274000F501EE57FA4FC082D182E282F382D801BE
:102750001B961C926DCF8337910514F00460C0CD99
:102760000C60BECD81E01DCE1A8A3CCE1A8AE12CC7
:1027700060CEC501B4010E94FB1D18160CF08EC07E
:1027800002FD8CC0FF24F39420E030E04CE852E4DA
:10279000C501B4010E94961E18160CF0F12C612C94
:1027A0006801E2E0CE22DD2481E001FD43C02090FB
:1027B000C6053090C7054090C8055090C90520E077
:1027C00030E04EEB52ECC201B1010E94FB1D181625
:1027D0000CF066C020E030E04EEB52ECC501B401D5
:1027E0000E94FB1D18160CF05BC003FF59C020E0CF
:1027F00030E04AEA52E4C201B1010E94961E181666
:10280000C4F420E030E044EC52E4C201B1010E9483
:10281000FB1D87FF0EC04424439420E030E04AEFC4
:1028200052E4C501B4010E94961E18160CF0412C0A
:10283000C42C8C2DA8014170552700FF33C0F11026
:1028400005C0FA89FF2391F1662081F1942F2A892E
:10285000222379F1442309F411C231E020E0E11090
:1028600031C030E02FC020E030E04CE952E4C2013A
:10287000B1010E94FB1D87FF25CE20E030E040E043
:1028800050E4C201B1010E948F1DFF24F394A50101
:1028900094010E94FB1D87FD83CF14CE612C12CEC4
:1028A00080E0C8CF41E050E06110D0CF4E2D50E025
:1028B000CDCF31E020E0E11001C030E0911102C045
:1028C0007110DFC190E050937B0540937A0590939F
:1028D0007905809378053093760520937705452B0D
:1028E00009F4D2C1299A8091780590917905892BB4
:1028F00009F4CCC1289A8091760590917705892BAF
:1029000009F4C6C12A9A8091700590917105A09131
:102910007205B09173058093600590936105A09353
:102920006205B0936305C0907005D0907105E0908A
:102930007205F09073058091660590916705A091EE
:102940006805B0916905A7019601281B390B4A0B50
:102950005B0BCA01B90128EE33E040E050E00E9471
:10296000C31E253131055CF181E090E00E94DA015F
:102970008C01909365058093640590E080E00E944F
:10298000DA0121E030E00038110514F030E020E0F9
:10299000309381052093800521E030E0803E910551
:1029A00014F030E020E030937F0520937E05C09244
:1029B0006605D0926705E0926805F09269058091FE
:1029C0006E0590916F05892B11F180916A059091A8
:1029D0006B05A0916C05B0916D05A7019601281BB0
:1029E000390B4A0B5B0BCA01B90128EE33E040E01A
:1029F00050E00E94C31E2B3031054CF08BE793E072
:102A00000E94BC0110926F0510926E055F98609154
:102A10007005709171058091720590917305009118
:102A20006A0510916B0520916C0530916D05601B56
:102A3000710B820B930B28EE33E040E050E00E94D4
:102A4000C31E293532400CF4BAC04090B6055090F0
:102A5000B7056090B8057090B90520E030E04EEB06
:102A600052ECC301B2010E94FB1D18160CF012C1FA
:102A70008091BA059091BB05A091BC05B091BD05B0
:102A80008A8B9B8BAC8BBD8B20E030E04EEB52EC05
:102A9000BC01CD010E94FB1D18160CF0FBC020915B
:102AA00092053091930540919405509195052E8B98
:102AB0003F8B488F598F20E030E046EC52EC6E8916
:102AC0007F89888D998D0E94FB1D882309F4E2C0BF
:102AD000C0909605D0909705E0909805F0909905E4
:102AE00020E030E046EC52ECC701B6010E94FB1D2D
:102AF000882309F4CFC080908A0590908B05A09020
:102B00008C05B0908D0520E030E046EC52ECC5011C
:102B1000B4010E94FB1D882309F4BCC020E030E012
:102B200040EA51E4C301B2010E948F1D9B01AC0138
:102B30006A897B898C899D890E94961E18160CF0E3
:102B4000A9C020E030E040E251E4C501B4010E9498
:102B50008F1D9B01AC01C701B6010E94FB1D87FFC1
:102B600099C020E030E040E251E4C701B6010E9484
:102B70008F1D9B01AC016E897F89888D998D0E9484
:102B8000961E18160CF086C087E993E00E94BC01DF
:102B900081E090E090936F0580936E055F9A80913D
:102BA000700590917105A0917205B09173058093A5
:102BB0006A0590936B05A0936C05B0936D058091A9
:102BC000F6029091F702892B09F44EC080917005AE
:102BD00090917105A0917205B091730540919D0689
:102BE00050919E0660919F067091A006841B950BE4
:102BF000A60BB70B89389341BCF180919B0690914D
:102C00009C068130910509F460C08230910509F479
:102C10007DC0892B49F51092F7021092F6021F929F
:102C20008AE08F931F928DE08F9387E392E09F93CA
:102C30008F9386EF93E09F938F9384ED95E09F931E
:102C40008F930E94391F6BEF70E084ED95E00E9436
:102C5000100181E090E090939C0680939B060FB654
:102C6000F894DEBF0FBECDBF80E090E0892B11F459
:102C70000C943E0C0E9400000C943E0C31E020E0CD
:102C80001FCE81E090E01FCE29982DCE289833CE1C
:102C90002A9839CE8091CE059091CF05892B09F0E5
:102CA0008ECF20E030E040EC50E46091AE057091B2
:102CB000AF058091B0059091B1050E94961E18163F
:102CC0000CF07DCF80EC93E061CF1092F702109270
:102CD000F6021F928AE08F931F928DE08F9388E710
:102CE00091E09F938F9386EF93E09F938F9384ED72
:102CF00095E09F938F930E94391F6BEF70E084EDF6
:102D000095E00E94100182E090E0A5CF2091D205CD
:102D10003091D305ECE3F0E0C901BF010E949B1E96
:102D20009F938F93CB01BF010E949B1E9F938F9314
:102D3000C90160E17EE00E949B1E7F936F931F920A
:102D40001F928DEF93E09F938F9384ED95E09F9377
:102D50008F930E94391F0FB6F894DEBF0FBECDBF10
:102D6000F12CE12CE4EDAE2EE5E0BE2EF1E3CF2E0A
:102D7000F4E0DF2E92E0E916F10409F453C0A3E079
:102D8000EA16F10409F457C0B1E0EB16F10409F4B6
:102D900040C09090B6058090B7057090B8056090DF
:102DA000B905F50101900020E9F78F0101501109E3
:102DB0008091B20569E174E080FD10C020E030E050
:102DC00046EC52ECD401F3016B2F782D8F2F962D0A
:102DD0000E94FB1D811138C061E274E0C8010E94AD
:102DE0000A1FFFEFEF1AFF0A24E0E216F10411F6C2
:102DF0008091CE059091CF05823A3FEF93070CF476
:102E000044C021E033E0892B09F041C02CEF32E0CF
:102E10003EC09090BA058090BB057090BC05609054
:102E2000BD05BFCF9090C6058090C7057090C805BE
:102E30006090C905B6CF9090CA058090CB05709080
:102E4000CC056090CD05ADCF20E030E044EC52ECF5
:102E5000D401F3016B2F782D8F2F962D0E94FB1D2F
:102E600069E274E0882309F4B9CF6F927F928F9260
:102E70009F92DF92CF921F930F930E94391F0FB63C
:102E8000F894DEBF0FBECDBFACCF28EF32E084EDAB
:102E900095E0DC010D900020E9F7CD013F932F93E1
:102EA00029E334E03F932F9301979F938F930E94E0
:102EB000391F8091D0059091D1050F900F900F9000
:102EC0000F900F900F9028EF32E0823ABFEF9B07F0
:102ED00034F021E033E0892B11F42CEF32E004EDE3
:102EE00015E0F80101900020E9F7CF013F932F93FF
:102EF00029E334E03F932F9301979F938F930E9490
:102F0000391FD8010D900020E9F7CD011F921F92C3
:102F10001F921F925DE3E52E54E0F52EFF92EF9293
:102F200001979F938F930E94391FF8010190002011
:102F3000E9F78F018091B1058F938091B0058F9350
:102F40008091AF058F938091AE058F93FF92EF92A2
:102F5000015011091F930F930E94391F0FB6F89467
:102F6000DEBF0FBECDBFF12CE12C64EDA62E65E0D7
:102F7000B62E7BE4C72E74E0D72EF7013197E930E7
:102F8000F10568F4EA53F84E0C94E21EBB19C4191B
:102F9000CD19D619DF19E819F119FA19031A909009
:102FA0008205809083057090840560908505F50109
:102FB00001900020E9F78F010150110920E030E075
:102FC00046EC52ECD401F3016B2F782D8F2F962D08
:102FD0000E94FB1D811120C264E474E0C8010E94BC
:102FE0000A1F5FEFE51AF50A6AE0E616F10409F038
:102FF000C4CF809180059091810520E033E0892B3A
:1030000011F425E033E084ED95E0DC010D90002023
:10301000E9F7CD013F932F9329E334E03F932F93BA
:1030200001979F938F930E94391F0F900F900F90DD
:103030000F900F900F9080917E0590917F0520E07A
:1030400033E0892B11F425E033E084ED95E0FC01B9
:1030500001900020E9F7CF013F932F9329E334E05B
:103060003F932F9301979F938F930E94391F8091D5
:103070007C050F900F900F900F900F900F9020E015
:1030800033E080FD02C025E033E084ED95E0DC0113
:103090000D900020E9F7CD013F932F9329E334E011
:1030A0003F932F9301979F938F930E94391F809195
:1030B0007C050F900F900F900F900F900F9020E0D5
:1030C00033E081FD02C025E033E084ED95E0FC01B2
:1030D00001900020E9F7CF013F932F9329E334E0DB
:1030E0003F932F9301979F938F930E94391F809155
:1030F0007C050F900F900F900F900F900F9020E095
:1031000033E082FD02C025E033E084ED95E0DC0190
:103110000D900020E9F7CD013F932F9329E334E090
:103120003F932F9301979F938F930E94391F809114
:103130007C050F900F900F900F900F900F9020E054
:1031400033E083FD02C025E033E084ED95E0FC012F
:1031500001900020E9F7CF013F932F9329E334E05A
:103160003F932F9301979F938F930E94391F0F9046
:103170000F900F900F900F900F9080917A05909183
:103180007B0520E033E0892B11F425E033E084ED6A
:1031900095E0DC010D900020E9F7CD013F932F93DE
:1031A00029E334E03F932F9301979F938F930E94DD
:1031B000391F0F900F900F900F900F900F908091EC
:1031C00078059091790520E033E0892B11F425E012
:1031D00033E004ED15E0F80101900020E9F7CF019C
:1031E0003F932F9349E3E42E44E0F42EFF92EF92B5
:1031F00001979F938F930E94391FD8010D90002053
:10320000E9F78D0185E093E09F938F93FF92EF9212
:10321000015011091F930F930E94391F0FB6F894A4
:10322000DEBF0FBECDBF809176059091770520E07F
:1032300033E0892B11F425E033E004ED15E0D801EB
:103240000D900020E9F7CD013F932F9329E3E22E63
:1032500024E0F22EFF92EF9201979F938F930E94AA
:10326000391FF80101900020E9F7CF0135E0C32EA6
:1032700033E0D32EDF92CF92FF92EF9201979F938C
:103280008F930E94391FD8010D900020E9F7CD01DE
:10329000DF92CF92FF92EF9201979F938F930E94BC
:1032A000391FF090AA05E090AB05D090AC05C09016
:1032B000AD05F80101900020E9F78F0101501109D7
:1032C0000FB6F894DEBF0FBECDBF20E030E046EC75
:1032D00052ECD701F6016B2F7A2F8F2F9E2F0E9471
:1032E000FB1D8111A9C064E474E0C8010E940A1F9B
:1032F00084ED95E0DC010D900020E9F7CD011F92EF
:103300002AE02F931F922DE02F9328EF33E03F9375
:103310002F9301979F938F930E94391F1092F7026A
:103320001092F6028091700590917105A09172053E
:10333000B091730580939D0690939E06A0939F067F
:10334000B093A0066BEF70E084ED95E00E94100151
:10335000809174059091750501960FB6F894DEBFC3
:103360000FBECDBF8431910509F478C090937505E7
:103370008093740579CC9090860580908705709035
:1033800088056090890513CE90908A0580908B0502
:1033900070908C0560908D050ACE90908E0580907F
:1033A0008F05709090056090910501CE90909205E8
:1033B000809093057090940560909505F8CD90905D
:1033C0009605809097057090980560909905EFCDCF
:1033D00090909A0580909B0570909C0560909D054B
:1033E000E6CD90909E0580909F057090A00560901E
:1033F000A105DDCD9090A2058090A3057090A40555
:103400006090A505D4CD9090A6058090A7057090FA
:10341000A8056090A905CBCD6F927F928F929F9265
:10342000DF92CF921F930F930E94391F0FB6F8942B
:10343000DEBF0FBECDBFD5CDCF92DF92EF92FF9210
:103440008BE494E09F938F931F930F930E94391FF7
:103450000FB6F894DEBF0FBECDBF4ACF10927505F0
:103460001092740510929C0610929B06FDCB259835
:103470008090700590907105A0907205B0907305D2
:10348000C501B40128EE33E040E050E00E94C31EC5
:10349000C90168E770E00E94AF1E60FD02C00C9495
:1034A000641280915D0581110C94320F10925C05BD
:1034B0001092CB0410925B051092DA041092D5049E
:1034C0001092D40481E080935D0503E011E0E8E10F
:1034D000EE2EE1E0FE2E0C944C11E89409C097FB0F
:1034E0003EF490958095709561957F4F8F4F9F4FDB
:1034F0009923A9F0F92F96E9BB279395F69587951F
:1035000077956795B795F111F8CFFAF4BB0F11F4E1
:1035100060FF1BC06F5F7F4F8F4F9F4F16C0882388
:1035200011F096E911C0772321F09EE8872F762FBE
:1035300005C0662371F096E8862F70E060E02AF0FF
:103540009A95660F771F881FDAF7880F96958795EB
:1035500097F908950E94BD1A0C942E1B0E94201BFF
:1035600038F00E94271B20F0952311F00C94171BB4
:103570000C941D1B11240C94621B0E943F1B70F3C2
:10358000959FC1F3950F50E0551F629FF001729F08
:10359000BB27F00DB11D639FAA27F00DB11DAA1F17
:1035A000649F6627B00DA11D661F829F2227B00D64
:1035B000A11D621F739FB00DA11D621F839FA00DEF
:1035C000611D221F749F3327A00D611D231F849F3F
:1035D000600D211D822F762F6A2F11249F57504096
:1035E0009AF0F1F088234AF0EE0FFF1FBB1F661F11
:1035F000771F881F91505040A9F79E3F510580F0DA
:103600000C94171B0C94621B5F3FE4F3983ED4F3B9
:10361000869577956795B795F795E7959F5FC1F77D
:10362000FE2B880F911D9695879597F9089597F928
:103630009F6780E870E060E008959FEF80EC089558
:1036400000240A9416161706180609060895002481
:103650000A9412161306140605060895092E0394FB
:10366000000C11F4882352F0BB0F40F4BF2B11F46F
:1036700060FF04C06F5F7F4F8F4F9F4F089557FDCE
:103680009058440F551F59F05F3F71F04795880FD0
:1036900097FB991F61F09F3F79F087950895121667
:1036A00013061406551FF2CF4695F1DF08C0161613
:1036B00017061806991FF1CF8695710561050894C4
:1036C0000895E894BB2766277727CB0197F90895DB
:1036D0002F923F924F925F926F927F928F929F9222
:1036E000AF92BF92CF92DF92EF92FF920F931F9310
:1036F000CF93DF93CDB7DEB7CA1BDB0B0FB6F894C1
:10370000DEBF0FBECDBF09942A88398848885F8400
:103710006E847D848C849B84AA84B984C884DF8071
:10372000EE80FD800C811B81AA81B981CE0FD11D55
:103730000FB6F894DEBF0FBECDBFED01089528305F
:1037400008F027E03327DA01990F311D87FD9160DA
:1037500000966105710539F432602E5F3D9330E3C8
:103760002A95E1F708959F3F30F080387105610593
:1037700009F03C5F3C5F3D93913008F08068911DFB
:10378000DF93CF931F930F93FF92EF92192F987FA0
:103790009695E92F96959695E90FFF27E653FF4FEB
:1037A00099273327EE24FF24A701E7010590089409
:1037B000079428F4360FE71EF81E491F511D660FA7
:1037C000771F881F991F0694A1F70590079428F486
:1037D000E70EF81E491F561FC11D770F881F991F3E
:1037E000661F0694A1F70590079428F4F80E491F68
:1037F000561FC71FD11D880F991F661F771F06947C
:10380000A1F70590079420F4490F561FC71FD81F32
:10381000990F661F771F881F0694A9F7849110954A
:10382000177041F0D695C79557954795F794E7944B
:103830001A95C1F7E0E7F0E068941590159135917D
:103840006591959105907FE27395E118F10A430B1C
:10385000560BC90BD009C0F7E10CF11E431F561FD0
:10386000C91FD01D7EF4703311F48A95E6CFE89419
:10387000015030F0080F0AF40027021708F4202F37
:103880002395022F7A3328F079E37D932A95E9F77F
:1038900010C07D932A9589F606949795679537957C
:1038A00017951794E118F10A430B560BC90BD00971
:1038B00098F023957E9173957A3308F070E37C93AA
:1038C0002013B8F77E9170617D9330F0839571E39A
:1038D0007D9370E32A95E1F71124EF90FF900F910B
:1038E0001F91CF91DF91992787FD909508959111B0
:1038F0000C948B1D803219F089508550C8F70895BB
:103900009111089581548A5108F4805E855A089572
:10391000FC010590061621F00020D9F7C00108959A
:103920003197CF010895FC0105906150704001105E
:10393000D8F7809590958E0F9F1F0895FC016150D8
:10394000704001900110D8F7809590958E0F9F1FC1
:103950000895CF93DF93EC012B8120FF1AC026FF3F
:103960000CC02F7B2B838E819F8101969F838E833A
:103970008A8190E0DF91CF91089522FF18C0E881FD
:10398000F9818081082E000C990B009729F42062A0
:103990002B838FEF9FEFEECF3196F983E8832E8153
:1039A0003F812F5F3F4F3F832E839927E3CFEA85E7
:1039B000FB85099597FFF3CF2B81019621F080E2DB
:1039C000822B8B83E6CF80E1FBCF0F931F93CF93A6
:1039D000DF93182F092FEB018B8181FD09C01FEFA9
:1039E0000FEF812F902FDF91CF911F910F910895AD
:1039F00082FF14C02E813F818C819D812817390759
:103A00003CF4E881F981CF01019699838883108382
:103A10008E819F8101969F838E83E3CFE885F98510
:103A2000812F0995892BA1F3DACFFB01238120FF98
:103A300011C026FD0FC08F3F980771F082832F7D44
:103A400020642383268137812150310937832683DF
:103A5000992708958FEF9FEF0895FA01AA2728303C
:103A600051F1203181F1E8946F936E7F6E5F7F4F4B
:103A70008F4F9F4FAF4FB1E03ED0B4E03CD0670FC7
:103A8000781F891F9A1FA11D680F791F8A1F911D1A
:103A9000A11D6A0F711D811D911DA11D20D009F46A
:103AA00068943F912AE0269F11243019305D3193AC
:103AB000DEF6CF010895462F4770405D4193B3E095
:103AC0000FD0C9F7F6CF462F4F70405D4A3318F03C
:103AD000495D31FD4052419302D0A9F7EACFB4E0ED
:103AE000A6959795879577956795BA95C9F70097A5
:103AF0006105710508959B01AC010A2E0694579546
:103B0000479537952795BA95C9F7620F731F841F9C
:103B1000951FA01D08959927882708955058BB2701
:103B2000AA270E94A61D0C942E1B0E94201B38F071
:103B30000E94271B20F039F49F3F19F426F40C94BF
:103B40001D1B0EF4E095E7FB0C94171BE92F0E9458
:103B50003F1B58F3BA17620773078407950720F0D5
:103B600079F4A6F50C94611B0EF4E0950B2EBA2F98
:103B7000A02D0B01B90190010C01CA01A001112473
:103B8000FF27591B99F0593F50F4503E68F11A161F
:103B9000F040A22F232F342F4427585FF3CF4695B0
:103BA00037952795A795F0405395C9F77EF41F16D2
:103BB000BA0B620B730B840BBAF09150A1F0FF0F9C
:103BC000BB1F661F771F881FC2F70EC0BA0F621F88
:103BD000731F841F48F4879577956795B795F79578
:103BE0009E3F08F0B0CF9395880F08F09927EE0F0D
:103BF0009795879508950E94721E08F481E00895B4
:103C00000E94141E0C942E1B0E94271B58F00E9429
:103C1000201B40F029F45F3F29F00C94171B511131
:103C20000C94621B0C941D1B0E943F1B68F399238C
:103C3000B1F3552391F3951B550BBB27AA276217A8
:103C40007307840738F09F5F5F4F220F331F441FB5
:103C5000AA1FA9F335D00E2E3AF0E0E832D09150E9
:103C60005040E695001CCAF72BD0FE2F29D0660FD6
:103C7000771F881FBB1F261737074807AB07B0E819
:103C800009F0BB0B802DBF01FF2793585F4F3AF01F
:103C90009E3F510578F00C94171B0C94621B5F3FFC
:103CA000E4F3983ED4F3869577956795B795F795A5
:103CB0009F5FC9F7880F911D9695879597F908958D
:103CC000E1E0660F771F881FBB1F62177307840729
:103CD000BA0720F0621B730B840BBA0BEE1F88F738
:103CE000E0950895990F0008550FAA0BE0E8FEEF44
:103CF00016161706E807F907C0F012161306E407B0
:103D0000F50798F0621B730B840B950B39F40A26A8
:103D100061F0232B242B252B21F408950A2609F486
:103D2000A140A6958FEF811D811D08950E94721EEE
:103D300008F48FEF0895AA1BBB1B51E107C0AA1F0F
:103D4000BB1FA617B70710F0A61BB70B881F991F3C
:103D50005A95A9F780959095BC01CD01089597FBE0
:103D6000072E16F4009407D077FD09D00E949B1E01
:103D700007FC05D03EF4909581959F4F089570956E
:103D800061957F4F0895052E97FB1EF400940E94C5
:103D9000DA1E57FD07D00E94E81E07FC03D04EF440
:103DA0000C94DA1E50954095309521953F4F4F4F1A
:103DB0005F4F089590958095709561957F4F8F4FD7
:103DC0009F4F0895EE0FFF1F0590F491E02D099489
:103DD000A1E21A2EAA1BBB1BFD010DC0AA1FBB1F0F
:103DE000EE1FFF1FA217B307E407F50720F0A21B81
:103DF000B30BE40BF50B661F771F881F991F1A94EE
:103E000069F760957095809590959B01AC01BD0117
:103E1000CF010895FB01DC0101900D920020E1F734
:103E20000895FB01DC014150504030F08D9101902C
:103E3000801919F40020B9F7881B990B0895FB012C
:103E400051915523A9F0BF01DC014D914517411156
:103E5000E1F759F4CD010190002049F04D91401552
:103E60004111C9F3FB014111EFCF81E090E00197CF
:103E70000895AEE0B0E0EFE3FFE10C94761B0D890E
:103E80001E8986E08C831A8309838FEF9FE79E83C8
:103E90008D83AE01475E5F4F6F89788DCE010196AD
:103EA0000E942C042F813885020F131FF801108205
:103EB0002E96E4E00C94921BAEE0B0E0E2E6FFE167
:103EC0000C94781B85E08C838B899C899A838983E9
:103ED000AE01495E5F4F6D897E89CE0101960E94D9
:103EE000510A2E96E2E00C94941BF894FFCFFF0148
:103EF0000000000100000000010002000000000AB4
:103F0000000300000000020028F926EC0200008AED
:103F1000010A030028922BEC0200005D010A040054
:103F200022548024000000D2010A050028E81CEC7D
:103F3000020000DF010A060022B78C240000008383
:103F4000010A0700282E38EC02000015010A0800BB
:103F5000284004EC02000060010A090028C53FEC7B
:103F600002000095010A723A202F2F20643A683A25
:103F70006D3A7320202020436F6C6C5420205374C2
:103F80006F72542020417578315420204175783269
:103F90005420506D702055704C20205661632020B5
:103FA0005670762054317374202054326E64202071
:103FB000546261732020546F7574202054586368D4
:103FC0004920545863684D20545863684F20544822
:103FD0006F744F20545261645220544854625220EE
:103FE000483173742048326E6420417761792048EB
:103FF0005475622053773320205377342020526148
:104000006474204854756220417578462046446D9A
:104010007020423173742042326E64202054726FDB
:104020006F74202000723A202F2F20557074696D14
:1040300065202020207C20202020546865726D613E
:104040006C20436F6E74726F6C6C6572204F757468
:1040500070757473202020207C20202020202020B8
:104060002020202020202020202020202020202050
:1040700020202052616469616E7420436F6E7472F7
:104080006F6C6C657220496E7075747320202020EF
:104090002020202020202020202020202020202020
:1040A00020202020202020207C202020202053772A
:1040B0006974636865732020202020207C202020E4
:1040C0002020436F6E74726F6C6C6572204F757434
:1040D000707574732020202020207C204578747215
:1040E00061207C000100203F2000202E2000204F76
:1040F0004E2000202E202000643A20494E495420B2
:10410000444F4E450A00643A20746865726D616CD4
:104110002072656376200052554E54494D45002566
:10412000643A2564004F50454E00534852540025D0
:104130006C66004F4E004F464600643A2074686536
:10414000726D616C2074696D656F75740A00643AF4
:1041500020746865726D616C206D6178206661699C
:104160006C20636F756E740A00643A20616E746926
:104170002D736970686F6E2063697263536F6C6131
:10418000723D300A00643A20616E74692D73697063
:10419000686F6E2063697263536F6C61723D31208A
:1041A00064756520746F2074656D70730A00643ADD
:1041B00020616E74692D736970686F6E2063697217
:1041C00063536F6C61723D312064756520746F209C
:1041D00070756D70206F666620616E642073756EF9
:1041E0006E790A0025732563256300723A20253312
:1041F0002E33643A25322E32643A25322E32643A16
:1042000025322E326420002020203F202020002054
:104210004F50454E2020002053484F525420002537
:1042200020362E316620002573200025342E31667D
:1042300020002020203F20200025352E3166200040
:107800000C94343C0C94513C0C94513C0C94513CE1
:107810000C94513C0C94513C0C94513C0C94513CB4
:107820000C94513C0C94513C0C94513C0C94513CA4
:107830000C94513C0C94513C0C94513C0C94513C94
:107840000C94513C0C94513C0C94513C0C94513C84
:107850000C94513C0C94513C0C94513C0C94513C74
:107860000C94513C0C94513C11241FBECFEFD8E036
:10787000DEBFCDBF11E0A0E0B1E0ECE9FFE702C060
:1078800005900D92A230B107D9F712E0A2E0B1E065
:1078900001C01D92AD30B107E1F70E942D3D0C945F
:1078A000CC3F0C94003C982F959595959595959582
:1078B000905D8F708A307CF0282F295A8091C0000B
:1078C00085FFFCCF9093C6008091C00085FFFCCF60
:1078D0002093C6000895282F205DF0CF982F809127
:1078E000C00085FFFCCF9093C6000895EF92FF92F1
:1078F0000F931F93EE24FF2487018091C00087FD22
:1079000017C00894E11CF11C011D111D81E4E8164B
:1079100082E4F8068FE0080780E0180770F3E09132
:107920000401F091050109958091C00087FFE9CF1E
:107930008091C6001F910F91FF90EF9008950E94D3
:10794000763C982F8091C00085FFFCCF9093C600B5
:1079500091362CF490330CF09053892F089597555D
:10796000892F08951F930E949F3C182F0E949F3CCF
:107970001295107F810F1F9108951F93182F882350
:1079800021F00E94763C1150E1F71F9108951F935A
:10799000182F0E94763C803249F0809103018F5F5E
:1079A000809303018530C1F01F9108958091C0003C
:1079B00085FFFCCF84E18093C6008091C00085FFE5
:1079C000FCCF1093C6008091C00085FFFCCF80E102
:1079D0008093C6001F910895E0910401F091050184
:1079E00009951F9108950E94763C803241F0809164
:1079F00003018F5F80930301853081F008958091AA
:107A0000C00085FFFCCF84E18093C6008091C00058
:107A100085FFFCCF80E18093C6000895E0910401CA
:107A2000F09105010995089540E951E08823A1F0FE
:107A30002D9A28EE33E0FA013197F1F721503040CA
:107A4000D1F72D9828EE33E0FA013197F1F7215064
:107A50003040D1F7815061F708953F924F925F9285
:107A60006F927F928F929F92AF92BF92CF92DF924E
:107A7000EF92FF920F931F93CF93DF93000080E16B
:107A80008093C4001092C50088E18093C10086E015
:107A90008093C2005098589A259A81E00E94143D24
:107AA00024E1F22E9EE1E92E85E9D82E0FE0C02ECA
:107AB00010E1B12EAA24A394B1E49B2EA6E58A2E50
:107AC000F2E57F2EE0E26E2E79E4572E63E5462E36
:107AD00050E5352E0E94763C8033B1F18133B9F107
:107AE000803409F46FC0813409F476C0823409F41B
:107AF00085C0853409F488C0803531F1823521F1A3
:107B0000813511F1853509F485C0863509F48DC0BC
:107B1000843609F496C0843709F403C1853709F423
:107B200072C1863709F466C0809103018F5F80932C
:107B30000301853079F6E0910401F0910501099582
:107B40000E94763C803351F60E94F33CC3CF0E94E2
:107B5000763C803249F78091C00085FFFCCFF092DF
:107B6000C6008091C00085FFFCCF9092C600809136
:107B7000C00085FFFCCF8092C6008091C00085FFC9
:107B8000FCCF7092C6008091C00085FFFCCF609250
:107B9000C6008091C00085FFFCCF5092C600809146
:107BA000C00085FFFCCF4092C6008091C00085FFD9
:107BB000FCCF3092C6008091C00085FFFCCFB09210
:107BC000C60088CF0E94763C863808F4BDCF0E945C
:107BD000763C0E94F33C7ECF0E94763C803809F4CC
:107BE0009CC0813809F40BC1823809F43CC1883942
:107BF00009F48FC080E00E94C73C6CCF84E10E94F2
:107C0000BD3C0E94F33C66CF85E00E94BD3C0E94D3
:107C1000F33C60CF0E94763C809306010E94763C44
:107C2000809307010E94F33C55CF0E94763C80333D
:107C300009F41DC183E00E94BD3C80E00E94C73C66
:107C400049CF0E94763C809309020E94763C809343
:107C5000080280910C028E7F80930C020E94763C79
:107C6000853409F415C18091080290910902892B8D
:107C700089F000E010E00E94763CF801E85FFE4FDA
:107C800080830F5F1F4F80910802909109020817AF
:107C9000190788F30E94763C803209F045CF809125
:107CA0000C0280FF01C16091060170910701660F0F
:107CB000771F7093070160930601A0910802B091AD
:107CC00009021097C9F0E8E0F1E09B01AD014E0F09
:107CD0005F1FF999FECF32BD21BD819180BDFA9A17
:107CE000F99A2F5F3F4FE417F50799F76A0F7B1F4B
:107CF00070930701609306018091C00085FFFCCF5F
:107D0000F092C6008091C00085FFFCCFB092C60003
:107D1000E1CE83E00E94C73CDDCE82E00E94C73CFA
:107D2000D9CE0E94763C809309020E94763C8093D3
:107D300008028091060190910701880F991F909386
:107D40000701809306010E94763C853409F4A6C0A1
:107D500080910C028E7F80930C020E94763C8032D0
:107D600009F0B8CE8091C00085FFFCCFF092C6002C
:107D7000609108027091090261157105B9F140E046
:107D800050E080910C02A82FA170B82FB27011C0E2
:107D9000BB2309F45CC0E0910601F0910701319624
:107DA000F0930701E09306014F5F5F4F46175707B7
:107DB000E8F4AA2369F3F999FECF209106013091E6
:107DC000070132BD21BDF89A90B58091C00085FFB2
:107DD000FCCF9093C6002F5F3F4F30930701209355
:107DE00006014F5F5F4F4617570718F38091C00099
:107DF00085FDE5CE8091C00085FFF8CFE0CE81E023
:107E00000E94C73C67CE0E94763C803209F08CCE3F
:107E10008091C00085FFFCCFF092C6008091C00029
:107E200085FFFCCFE092C6008091C00085FFFCCFAB
:107E3000D092C6008091C00085FFFCCFC092C600E2
:107E40008091C00085FFFCCFB092C60043CEE09188
:107E50000601F091070194918091C00085FFFCCF4D
:107E60009093C6009CCF80E10E94C73C33CE0E9415
:107E7000763C0E94763C182F0E94763C112309F430
:107E800083C0113009F484C08FE00E94C73C22CE29
:107E900080910C02816080930C02E5CE80910C02EF
:107EA000816080930C0259CF809107018823880F4D
:107EB000880B8A2180930B02809106019091070123
:107EC000880F991F90930701809306018091080203
:107ED00080FF09C080910802909109020196909359
:107EE000090280930802F894F999FECF1127E091D6
:107EF0000601F0910701C8E0D1E08091080290915D
:107F00000902103091F40091570001700130D9F34B
:107F100003E000935700E89500915700017001308D
:107F2000D9F301E100935700E89509901990009169
:107F3000570001700130D9F301E000935700E89534
:107F40001395103498F011270091570001700130FB
:107F5000D9F305E000935700E895009157000170B0
:107F60000130D9F301E100935700E895329602976A
:107F700009F0C7CF103011F00296E5CF112480919F
:107F8000C00085FFB9CEBCCE8EE10E94C73CA2CD19
:0E7F900085E90E94C73C9ECDF894FFCF80008B
:00000001FF
