:020000040000FA
:100000000C94DC000C94F9000C94F9000C94F900A9
:100010000C94F9000C94F9000C94F9000C94F9007C
:100020000C94F9000C9460030C94F9000C94F90002
:100030000C94F9000C94F9000C94F9000C94F9005C
:100040000C945B020C94F9000C94A5020C9421030F
:100050000C94F9000C94F9000C94F9000C94F9003C
:100060000C94F9000C94F9006E616E00696E6600E4
:1000700000407A10F35A00A0724E18090010A5D45F
:10008000E80000E87648170000E40B54020000CABC
:100090009A3B000000E1F505000080969800000002
:1000A00040420F000000A086010000001027000061
:1000B0000000E803000000006400000000000A00E7
:1000C000000000000100000000002C76D888DC67EA
:1000D0004F0823DFC1DFAE59E1B1B796E5E3E45342
:1000E000C63AE651997696E8E6C28426EB898C9B5F
:1000F00062ED407C6FFCEFBC9C9F40F2BAA56FA5FF
:10010000F490055A2AF75C936B6CF9676DC11BFC80
:10011000E0E40D47FEF520E6B500D0ED902E03009B
:10012000943577050080841E080000204E0A0000E8
:1001300000C80C333333330F986E12831141EF8DA7
:100140002114893BE65516CFFEE6DB18D1844B38E7
:100150001BF77C1D901DA4BBE424203284725E2218
:100160008100C9F124ECA1E53D276364696E6F70DD
:10017000737578585B65666745464700616E006E2B
:1001800066696E69747900CDCCCC3D0AD7233C17E3
:10019000B7D13877CC2B329595E6241FB14F0A00A2
:1001A0000020410000C84200401C4620BCBE4CCA92
:1001B0001B0E5AAEC59D740011241FBECFEFD8E0B0
:1001C000DEBFCDBF13E0A0E0B1E0E8E0FCE302C099
:1001D00005900D92A63CB107D9F726E0A6ECB3E056
:1001E00001C01D92A231B207E1F70E940A0B0C94E4
:1001F000021E0C94000081E090E09093F602809340
:10020000F502089581E090E09093340480933304E4
:10021000089581E090E09093CF038093CE030895FA
:100220002091CC033091CD03232B81F49093CD0307
:100230008093CC037093CB036093CA038091C10079
:1002400080628093C10090E080E0089581E090E0BA
:1002500008954091D0035091D103CA01FA01208141
:100260004F5F5F4F2032C9F39093D1038093D00347
:10027000211102C090E080E00895E091D003F09158
:10028000D103009731F09093D1038093D0030C9465
:1002900029019E2F8F2F2191222339F02032C9F777
:1002A0009093D0038093D103F2CF9093D0038093A7
:1002B000D10390E080E00895E7E1F1E040E050E014
:1002C00066EC72EC81E0E737F80709F4089583855E
:1002D0008F5F83878B3068F0A081B181AA0FBB1F2D
:1002E000AA0FBB1FAA51BB4F4D935D936D937C9397
:1002F00013973C96E7CF5A985E9808955A985E9A5D
:1003000089B185FB882780F990E0089540914004E9
:1003100050914104609142047091430404C0769569
:100320006795579547958A95D2F788E040FF88EF03
:1003300041FF14C0885F42FF13C0885F43FF12C0B3
:10034000885F44FF11C0885045FF10C0885046FFA9
:100350000FC0885047FF0EC0885008958850EBCFDB
:100360008850ECCF8850EDCF885FEECF885FEFCF1D
:10037000885FF0CF885F0895CF93DF93EC011092F0
:10038000C7031092C60363ED71E0CE010E94100115
:10039000892BC9F78091C6039091C703892BD1F3AC
:1003A000DF91CF91089581E090E09093C70380930F
:1003B000C6030895806680937C0087EC80937A0062
:1003C00080917A0086FDFCCF8091790090E00895BD
:1003D00029E030E041E050E02150310909F408956E
:1003E000F894BA01682379235E985A98672B79F0BC
:1003F00065E36A95F1F700005E9AEBEDF0E0319766
:10040000F1F700C000007894440F551FE5CFE3E0FA
:10041000F1E03197F1F700C000005E9AFAE1FA9539
:10042000F1F700C0F0CF5A9A8DE790E0019721F1E3
:100430002AE02A95F1F700C04D9BF8CF5E985A98B4
:100440008FEC97E00197F1F700C000005A9AEFE3B4
:10045000F1E03197F1F700C0000089B182958695EF
:10046000877091E08927817090E0EFE8F6E031979E
:10047000F1F700C00000089580E090E008950E9428
:100480005C015598569A529A0E947E01892B81F000
:100490008FE39CE90197F1F700C000000E9413026E
:1004A00031E020E0892B09F030E0832F922F08956E
:1004B00081E090E008951F920F920FB60F921124E1
:1004C0002F933F938F939F93AF93BF9380910E068B
:1004D00090910F06A0911006B091110630910D0673
:1004E00023E0230F2D3758F50196A11DB11D209350
:1004F0000D0680930E0690930F06A0931006B093FE
:1005000011068091090690910A06A0910B06B09100
:100510000C060196A11DB11D8093090690930A0651
:10052000A0930B06B0930C06BF91AF919F918F9152
:100530003F912F910F900FBE0F901F90189526E8B6
:10054000230F0296A11DB11DD2CF1F920F920FB69D
:100550000F9211242F933F934F935F936F937F9349
:100560008F939F93AF93BF93CF93EF93FF9380911C
:10057000C00084FD4BC08091C00083FD47C08091C6
:10058000C00082FB222720F930E0C091C600809194
:10059000D4039091D503BC016F5F7F4FE091DA03E4
:1005A000F091DB036E177F07B4F44091C9034A3022
:1005B00011F0009781F04091D8035091D9037093C6
:1005C000D5036093D403840F951FDC01CC93460FB1
:1005D000571FDA011C92232BE1F01092D5031092E1
:1005E000D403C0E0C093C903FF91EF91CF91BF91B5
:1005F000AF919F918F917F916F915F914F913F91BB
:100600002F910F900FBE0F901F90189521E030E0B2
:10061000BCCFEF2B39F3CA3029F71092DB031092CD
:10062000DA036091D4037091D503E091D603F09181
:10063000D70350E040E08091D8039091D903099509
:10064000D1CF1F920F920FB60F9211242F933F9389
:100650004F935F936F937F938F939F93AF93BF93CA
:10066000EF93FF93E091CC03F091CD038081882339
:10067000C1F03196F093CD03E093CC038093C60094
:10068000FF91EF91BF91AF919F918F917F916F916A
:100690005F914F913F912F910F900FBE0F901F9040
:1006A00018958091C1008F7D8093C1001092CD0379
:1006B0001092CC03E091CA03F091CB030995E0CFEF
:1006C0001F920F920FB60F9211242F933F934F93C7
:1006D0005F936F938F939F93AF93BF93EF93FF932A
:1006E0003091C8033F5F3093C80369B18091C7045C
:1006F0008823D1F04091C604E42FEF77F0E0EB5B64
:10070000FB4F50812091350481E090E0022E01C022
:10071000880F0A94EAF763FF2EC0852B80832F5F32
:10072000283061F1209335043A30A9F41092C803BF
:100730008091D4049091D504A091D604B091D704AF
:100740000196A11DB11D8093D4049093D504A0936C
:10075000D604B093D704FF91EF91BF91AF919F91D1
:100760008F916F915F914F913F912F910F900FBE9D
:100770000F901F90189580958523D0CF1092350447
:100780004F5F4093C604D0CFAFE0B0E0EAECF3E0B7
:100790000C94F5196C011B015A01FC011782168299
:1007A000838181FF48C39E012F5F3F4F4901F601BE
:1007B0009381F10193FD859193FF81911F0188231E
:1007C00009F4E7C2853239F493FD859193FF819155
:1007D0001F01853239F4B60190E00E94721B350189
:1007E0005301E5CFF12C512C00E0003238F48B326C
:1007F00009F190F48032F9F0833209F107FD34C039
:1008000020ED280F2A3020F506FF1BC0FAE0FF9EDE
:10081000200D1124F22E05C08D3279F0803371F74E
:100820000160F10193FD859193FF81911F01811179
:10083000DCCF1AC002600460F4CF0860F2CF006120
:10084000F0CF3AE0539E200D1124522E0062E9CFE2
:100850008E3221F406FD9DC20064E3CF8C3611F484
:100860000068DFCF8836E9F29BEB980F933008F0F1
:100870005FC00061805E06FD02C046E0F42E102FCE
:100880001F73853609F05BC0106417FF61C08F2DA0
:100890009BE39F1508F48BE344244394480E27E020
:1008A0003501F4E06F0E711CF50160817181828168
:1008B0009381042DA4010E942C1A5C01F981FC870C
:1008C000F0FF03C00DE2F3FF07C00BE211FD04C00F
:1008D000012F047012FD00E22C852C70E22E09F429
:1008E00057C00111ABC2F3E0E12CF515A0F483E091
:1008F000E52CE81A13FD08C0B60180E290E00E94E2
:10090000721BEA94E110F8CF002329F0B601802F82
:1009100090E00E94721B3C8528E6A22E20E0B22EB9
:1009200033FD04C09CE6A92E90E0B92E107122C0C0
:100930009BE9980F933008F033C10F7E9CCF863629
:1009400011F41068A2CFFF2009F49FCFFA949DCF35
:10095000E7E02F2DEF1518F427E037E0F32E412CB8
:100960009FCF11118052B60190E00E94721B8FEF51
:10097000A81AB80AF50184918111F3CFEE2009F489
:100980002FCFB60180E290E00E94721BEA94F6CF6E
:1009900017FF6FC04A0CFC85F4FF04C08A818133C5
:1009A00009F44A9414140CF086C028E0241510F4BD
:1009B00088E0482E85E090E017FF06C0C501B7FE2D
:1009C00002C090E080E0019601110196FF2031F015
:1009D0002F2D30E02F5F3F4F820F931F58161906BF
:1009E00019F014F0E52CE81A812F897011F4E11048
:1009F00067C0002329F0B601802F90E00E94721B8F
:100A000013FD02C0E11063C017FF7CC08501B7FE73
:100A100002C010E000E0C501841991092C016F2D7E
:100A200070E0EE27FF27E61BF70BFF87EE870F3FEF
:100A3000100729F4B6018EE290E00E94721BA01606
:100A4000B1060CF44BC0401651060CF047C0F5013E
:100A5000E01BF10BE80DF91D8181015011092E8574
:100A60003F8502171307E4F1B60190E00E94721B64
:100A7000DECF16FD9FCFEF2DF0E0EA15FB0534F039
:100A80003CEFA3163FEFB3060CF010683296E80D6A
:100A9000F91D01C0FA94FF2019F082918033D1F33F
:100AA00017FF88CF442443944F0CFA141B0431F0F1
:100AB0002CF0FA187FCF442443947CCFF12C7ACFCA
:100AC000B60180E290E00E94721BEA9490CFB601DA
:100AD00080E390E00E94721BEA9494CF80E3BDCF44
:100AE000A016B10641F49A81963350F4953319F467
:100AF0003C8534FF05C0B60190E00E94721B3ECFDA
:100B000081E3F9CF8A81813319F09C859F7E9C8790
:100B1000B60190E00E94721BFF20A9F0B6018EE2A0
:100B200090E00E94721BF394F394E2E001E00E0F58
:100B3000E80DF92DF11D8081B60190E00E94721B35
:100B4000E02F0F11F3CF85E690E014FF02C085E49B
:100B500090E0B6010E94721BB7FC06C0A114B1045C
:100B6000C1F4EC85E4FF15C0B194A194B1088DE205
:100B7000B60190E00E94721B80E32AE0A216B10445
:100B800054F4B60190E00E94721BB601C501C096F4
:100B9000B4CF8BE2EDCF8F5FFAE0AF1AB108EDCFA3
:100BA0008336C9F0833771F1833509F05BC03501B5
:100BB000F2E06F0E711CF501A080B1806F2D70E026
:100BC00006FD02C06FEF7FEFC5010E94201B9D87CD
:100BD0008C8700680DC0350132E0630E711CF50191
:100BE0008081898321E030E03D872C8754010F7795
:100BF00003FD06C02C853D855216130609F0A8F4A6
:100C0000E52C2BC0350132E0630E711CF501A0808C
:100C1000B1806F2D70E006FD02C06FEF7FEFC50160
:100C20000E942B1B9D878C87E2CFB60180E290E06B
:100C30000E94721B5A94DECFF50107FD859107FFD4
:100C400081915F01B60190E00E94721BE110EA946D
:100C50008C859D8501979D878C87EC85FD85EF2B85
:100C600059F78CCE843619F0893609F074C03501F5
:100C700007FF66C0F4E06F0E711CF50160817181A1
:100C800082819381102F1F7697FF08C090958095E1
:100C9000709561957F4F8F4F9F4F10682AE030E02D
:100CA000A4010E94BA1BA82EA818BA2C012F16FF67
:100CB0000AC00E7FAF1438F414FF04C012FD02C046
:100CC000012F0E7EBF2C04FF8EC0FE01EA0DF11D28
:100CD0008081803309F080C0097EF02FF870EF2EFC
:100CE00003FD90C000FF8AC0FA2CB51410F4F50C77
:100CF000FB1804FF8DC0B60180E390E00E94721BD8
:100D000002FF09C088E790E001FF02C088E590E09B
:100D1000B6010E94721BAF1408F486C0AA940A2D73
:100D200010E00F5F1F4F080D191DF80182918F0110
:100D3000B60190E00E94721B80169106B1F71ECE9C
:100D4000F2E06F0E711CF50160817181072E000CBD
:100D5000880B990B97CF102F8537A9F41F7E2AE0B7
:100D600030E0350117FF2FC0F4E06F0E711CF50164
:100D70006081718182819381A4010E94BA1BA82E97
:100D8000A8181F7792CF197F8F36D1F048F4883595
:100D900091F0F601868197812F96E2E10C94111A69
:100DA000803739F08837A9F714FD146020E130E06E
:100DB000D8CF1061F9CF04FD166020E132E0D1CF29
:100DC00028E030E0CECFF2E06F0E711CF5016081BB
:100DD000718190E080E0D0CF02FD02C0B3947DCF5E
:100DE000B394B3947ACF802F867809F476CFF6CF78
:100DF000B60180E290E00E94721BB394B514C0F378
:100E0000E12C77CFE52CEB18B51408F472CFF8CFAE
:100E1000802F867809F47FCF8BE201FF80E207FD07
:100E20008DE2B60190E075CFB60180E390E00E94BC
:100E3000721BFA9470CF8FEF9FEFAECF24E0E12CBE
:100E4000251508F063CD84E053CD20FD09C0FC01D9
:100E500023FD05C022FF02C0738362835183408358
:100E6000089544FD17C046FD1DC0DB01FC01AA0F1B
:100E7000BB1FEE1FFF1F1094D1F76A0F7B1F8E1F41
:100E80009F1F660F771F881F991F620F711D811D9D
:100E9000911D089533E0660F771F881F991F315009
:100EA000D1F7F3CF34E0F7CF0F931F93CF93DF93B6
:100EB0008C01C8010E94361BEC0197FD08C00E94FE
:100EC000041B892BB1F7B801CE010E94A21BCE01F1
:100ED000DF91CF911F910F910895B0E0A0E0E3E77B
:100EE000F7E00C94FB197C018B016A01D22F0E9460
:100EF000361B9C0133272B32310521F02D32310571
:100F000079F4D0680150110931F480E0CDB7DEB733
:100F1000ECE00C94171AC7010E94361B97FDF5CF21
:100F2000CD2FCD7F2D2F207309F58033F9F4580193
:100F300081E0A81AB10891F0C7010E94361B97FD05
:100F40000DC0282F2F7D283569F4C2640250110985
:100F500029F0C7010E94361B97FF08C0812C912CF5
:100F600054011BC0D6FF2BC0C2608501812C912C7F
:100F7000540120ED280F283028F1C4FD09C02A3083
:100F800008F1C6FF05C02F7D3FEE320F3630C8F0A6
:100F9000B7010E94A21BC1FFB8CFC7FF08C0B09421
:100FA000A09490948094811C911CA11CB11C2C2FA6
:100FB000B501A401C6010E94250781E0A7CFC26147
:100FC000D4CF27504C2FC501B4010E9431074B01EB
:100FD0005C01C2600150110901F3C7010E94361B78
:100FE00097FFC7CFD8CFA0E2B0E0E9EFF7E00C94CD
:100FF000F9195C014B017A01CE0101966C0180E286
:10100000F60111928A95E9F7F501B381890130E083
:1010100020E0612C712CA0E041E050E0F801B3FD2C
:101020008591B3FF8191982F8F01811107C010E046
:1010300000E0C801A096EEE00C94151A8E3519F464
:101040002115310541F1A21713064CF48D3549F1F4
:101050008D3229F4711006C0772473941DC0772057
:1010600009F465C0E92FE695E695E695EC0DFD2DB2
:10107000F11D892F8770BA0101C0660F8A95EAF7C2
:101080008081682B6083691651F0961510F49F5F7C
:10109000E9CF9150E7CFA1E02F5F3F4FBFCF712C39
:1010A000FBCF772019F08E8180628E83AA2359F0BE
:1010B000F6019E012F5D3F4F8081809580833196A0
:1010C000E217F307C9F777247394C5010E94361B12
:1010D00097FD16C0E82FE695E695E695EC0DFD2DFB
:1010E000F11D208130E0AC014770552702C03595D5
:1010F00027954A95E2F720FD06C0B5010E94A21B84
:10110000772071F094CFE114F10429F0F701808386
:10111000C70101967C0191E0891A9108712CA9F60A
:10112000E114F10409F485CFF701108282CFE82F92
:10113000E695E695E695EC0DFD2DF11D982F97703F
:10114000BA0101C0660F9A95EAF79081692B608316
:10115000682EA2CF2F923F924F925F926F927F9212
:101160009F92AF92BF92CF92DF92EF92FF920F9336
:101170001F93CF93DF936C018B011A010E94361BE2
:10118000EC0199278B32910521F08D97C9F0B12C94
:1011900020C0B12C01501109B1F480E0DF91CF9152
:1011A0001F910F91FF90EF90DF90CF90BF90AF9085
:1011B0009F907F906F905F904F903F902F900895F9
:1011C00030E8B32EE7CFC6010E94361BEC0197FD35
:1011D000E4CFCE010E940D1B8936910509F4C0C0F1
:1011E0008E36910509F4ACC0412C512C3201F12C02
:1011F000E12C2C2F20539B2C2A3008F0CFC0689470
:1012000091F88B2D8870B2FEB0C0811103C0EFEF52
:10121000EE1AFE0A0150110931F0C6010E94361B78
:10122000EC0197FFA0C091FEB8CF8C2F8F7D853445
:1012300009F042C05801E1E0AE1AB10809F4ADCF9F
:10124000C6010E94361BEC0197FDA7CF99278B3270
:10125000910521F08D9761F4689494F85801F2E0BB
:10126000AF1AB10809F499CFC6010E94361BEC01F0
:10127000CE01C0970A9708F090CF10E000E0B801C7
:10128000110F880B990B2C2F205340E20E9431073D
:101290008B0121E0A21AB10839F0C6010E94361B69
:1012A000EC01C0970A9758F394FE03C0119501957D
:1012B0001109E00EF11E8501012B31F0D7FD04C0AC
:1012C000B601CE010E94A21BC301B2010E94FA180E
:1012D000C3EBD1E0F7FE05C0F194E194F108CBE94E
:1012E000D1E06E01E8E1CE1AD10800E210E067C05B
:1012F0000150110971F0C6010E94361B3C0197FD97
:1013000008C00E940D1BF816E9F0B601C3010E9447
:10131000A21BC258D14009F040CF80E090E0A0E885
:10132000BFE7BC01CD019B2C97FC905821143104E0
:1013300029F0F101608371838283938381E02ECF52
:10134000CCE7D1E02196FE013197F490F110D0CF97
:10135000CF57D14011F780E090E0A0ECBFE7E1CF9C
:10136000CFE7D1E0EFCFB92C44CF882319F0F1E0DB
:10137000EF1AF10840E2C301B2010E9431072B01CC
:101380003C0128E9421629E95206620629E1720663
:1013900008F440CF8B2D8660982E3CCF2E3F09F06D
:1013A00042CFB3FC40CF689493F834CFFE0125912F
:1013B0003591459154910E943719E01AF10AE016CF
:1013C000F106A0F7249716950795CC15DD05B9F71A
:1013D000ABCFB0E0A0E0EFEEF9E00C94F9195C01BE
:1013E000EB014A01FC0117821682612CF501038191
:1013F000FE0103FD859103FF8191182FEF018823E2
:10140000E9F090E00E94041B892B21F0C5010E94A5
:101410005407ECCF153241F4FE0103FD159103FF93
:101420001191EF01153269F4C5010E94361B97FD39
:1014300096C01817D9F2B5010E94A21B862D90E024
:1014400092C0712C1A3239F403FD159103FF1191EA
:10145000EF0177247394F12CE12C20ED210F2A3039
:1014600050F171FE38C0E114F10441F31836B9F1BE
:101470001C3609F43FC0112309F3612F70E08AE69E
:1014800091E00E94151B892BC9F2D12CC12C70FC54
:1014900006C0F401C080D180C40102964C011E3602
:1014A00091F5F5014681578170E060E0272DC60176
:1014B0000E9425079BCF689471F8B70190E080E007
:1014C00040E20E9431077B01FE0103FD159103FFFD
:1014D0001191EF01C2CFEE24EA94FE2CC7CFFE019A
:1014E00003FD159103FF1191EF01183609F0C3CFE9
:1014F000689473F8689472F8FE0103FD159103FF78
:101500001191EF01B8CF1336D1F471FC03C0EE2472
:10151000E394F12CC5010E94361B97FD20C0C11435
:10152000D10429F0F6018083C60101966C0191E097
:10153000E91AF10879F770FC59CF639457CF1B353E
:10154000B9F49E01A601B701C5010E94F307EC01A1
:10155000892B89F7F5018381807309F46FCF8FEFB1
:101560009FEF61106BCFCDB7DEB7EEE00C94151A8C
:10157000C5010E94540797FDF2CF1F3609F447C0FA
:1015800090F4143609F440C0193621F0183581F46E
:10159000689476F8272DA601B701C5010E946D0752
:1015A0008111C9CFD7CF1337D1F040F4103781F371
:1015B000A601B701C5010E94AA08F2CF153721F193
:1015C000183731F3F5CFC114D10429F0F6010083A7
:1015D000C60101966C0191E0E91AF10871F0C501AC
:1015E0000E94361B8C0197FD08C00E94041B892BAA
:1015F00051F3B501C8010E94A21BC114D10409F422
:101600009ACFF601108297CF689475F8C3CF68948B
:1016100074F8C0CFCF93DF93CDB7DEB764970FB622
:10162000F894DEBF0FBECDBF789484B5826084BDD0
:1016300084B5816084BD85B5826085BD85B58160D6
:1016400085BD80916E00816080936E001092810054
:10165000809181008260809381008091810081600F
:1016600080938100809180008160809380008091D0
:10167000B10084608093B1008091B000816080935C
:10168000B00080917A00846080937A0080917A0023
:10169000826080937A0080917A00816080937A00E2
:1016A00080917A00806880937A001092C100109235
:1016B000D9031092D8031092D7031092D603109238
:1016C000DB031092DA031092CD031092CC03109238
:1016D000CB031092CA038FE98093C40081E080930A
:1016E000C50098E99093C10092E39093B300809372
:1016F000700083E08093B0008BE08093B1005F982E
:1017000028982998579A209A219A2A982B982C98A9
:10171000229A239A249A80E680937C0087E880931B
:101720007A005C9A2D9A0E943F02E0910201F091AA
:101730000301EE0FFF1FEE0FFF1FEA51FB4F80E08A
:1017400090E0A6ECB2EC80839183A283B383E09116
:101750000901F0910A01EE0FFF1FEE0FFF1FEA5182
:10176000FB4F80839183A283B383E0911001F091BA
:101770001101EE0FFF1FEE0FFF1FEA51FB4F808399
:101780009183A283B3831092CF031092CE0369E0BA
:1017900071E089E093E00E941001892BC1F78091EC
:1017A000CE039091CF03892BD1F3009100011091CA
:1017B00001010115110509F0BBC08091330490911E
:1017C0003404892B09F46BC210921B0510921A0580
:1017D00082EE93E09093D1038093D0030E9429017D
:1017E0007C01009709F49CC067E173E00E94AC1D86
:1017F000892B09F095C0CE010A969F938F9302968C
:101800009F938F938FE193E09F938F93FF92EF923B
:101810000E94E91D0FB6F894DEBF0FBECDBF029740
:1018200009F43AC180911A0590911B05806190934B
:101830001B0580931A057FE2C72E73E0D72E90E038
:1018400080E00E943D017C01009709F036C1809143
:10185000D2039091D30301969093D3038093D20344
:101860000B970CF09FC10330110509F4CEC10CF0A9
:101870009EC10130110509F4AEC10230110509F411
:10188000B7C18E859F85A889B98980931E059093DD
:101890001F05A0932005B09321050F5F1F4F063051
:1018A000110569F690E080E00E943D018C010097EF
:1018B00079F042E050E063E373E00E949E1D892BC3
:1018C00009F0BDC181E090E0909337058093360523
:1018D00090E080E00E943D018C01009779F042E0A9
:1018E00050E063E373E00E949E1D892B09F0BFC1A5
:1018F00081E090E0909339058093380580911A0536
:1019000090911B0581719927892B21F41092D303A3
:101910001092D2034091D2035091D3035C8B4B8B36
:101920006B897C89672B21F41092E1031092E0030C
:1019300010920101109200011092340410923304AD
:101940008091D4049091D504A091D604B091D7048D
:101950008093DC039093DD03A093DE03B093DF0359
:101960008091DA039091DB03892BB1F482EE93E04E
:101970009093D9038093D80382E091E09093D703AA
:101980008093D6031092D5031092D40381E590E0A2
:101990009093DB038093DA0380911A0590911B05E5
:1019A00081719927892B09F403C2549886E090E04D
:1019B0000E94DA01BC01990F880B990B0E94FC1858
:1019C00020E030E04FE753E40E948D1C20E030E03F
:1019D00040EA50E40E94371926E636E646E950E42C
:1019E0000E943719609316057093170580931805A8
:1019F0009093190582E090E00E94DA01BC01990FF2
:101A0000880B990B0E94FC1820E030E04FE753E46C
:101A10000E948D1C20E030E040EA50E40E9437191B
:101A200026E636E646E950E40E943719609312052F
:101A30007093130580931405909315056091D40459
:101A40007091D5048091D6049091D70428EE33E0AC
:101A500040E050E00E94501D30933B0520933A0532
:101A600006EE14E062E1E62E65E0F62ED8016D91F7
:101A70007D918D919D918D0120E030E046EC52ECFE
:101A80000E94881C882311F40C94C618E016F106F5
:101A900069F7259A0C94C7182C853D854CE3429F25
:101AA000C001439F900D11242A853B85820F931F0F
:101AB00090931D0580931C05BECE44E050E065E286
:101AC00073E00E949E1D0097D9F420911A05309171
:101AD0001B05A801445051094230510510F084E023
:101AE00090E0822B932B90931B0580931A0540E086
:101AF00050E066EC72EC4E875F87688B798BB3CED3
:101B000044E050E06AE273E0C7010E949E1D892B09
:101B100091F480911A0590911B05886090931B05A4
:101B200080931A0560E070E084EC92EC6E877F870A
:101B3000888B998B98CE81E090E08C0F9D1F9F93AE
:101B40008F93DF92CF92FF92EF920E94E91D0F9048
:101B50000F900F900F900F900F900197D1F0809100
:101B60001A0590911B05806190931B0580931A05BF
:101B70008091D2039091D30301969093D3038093E5
:101B8000D2030B970CF46FCE60E070E082EC92EC25
:101B9000CDCF29813A814B815C812E873F87488B4D
:101BA000598B61CE40E050E060EC72ECA4CF043081
:101BB0001105C1F10530110509F063CE2E853F8571
:101BC0004889598920933205309333054093340571
:101BD0005093350562CE2E853F85488959892093DB
:101BE000220530932305409324055093250555CEB7
:101BF0004E855F856889798940932605509327052E
:101C0000609328057093290548CE6E857F85888965
:101C1000998960932A0570932B0580932C059093E6
:101C20002D053BCE8E859F85A889B98980932E0589
:101C300090932F05A0933005B09331052ECE43E04D
:101C400050E066E373E0C8010E949E1D892B29F4D1
:101C500010923705109236053BCE80911A0590916F
:101C60001B05806190931B0580931A0531CE43E0DC
:101C700050E066E373E0C8010E949E1D892B29F4A1
:101C8000109239051092380539CE80911A0590913D
:101C90001B05806190931B0580931A052FCEC09081
:101CA000D404D090D504E090D604F090D70480916D
:101CB000DC039091DD03A091DE03B091DF03A70167
:101CC0009601281B390B4A0B5B0BCA01B90128EEA0
:101CD00033E040E050E00E94501D253131050CF406
:101CE0005BCEC092DC03D092DD03E092DE03F09283
:101CF000DF030091E0031091E103053011050CF0C2
:101D00004BCE0F5F1F4F1093E1030093E0038AE374
:101D100093E00E94BC010530110509F03DCE8EE430
:101D200093E00E94BC0181E090E090931B058093BA
:101D30001A0580E090E0AEEBB2EC80931E05909324
:101D40001F05A0932005B093210580932205909351
:101D50002305A0932405B093250580932605909331
:101D60002705A0932805B093290580932A05909311
:101D70002B05A0932C05B0932D0580932E059093F1
:101D80002F05A0933005B0933105809332059093D1
:101D90003305A0933405B093350581EA9FEF909306
:101DA0003705809336059093390580933805F4CD37
:101DB000549AFCCDD090C6048091C504D81A609086
:101DC000040150900B012090120148E1342E57E09D
:101DD000452EDD2011F40C94F2187090C504E72D07
:101DE000EF77F0E0EB5BFB4F808120914404422FC2
:101DF000022E000C550B90E027FF25C05195419510
:101E0000510902C0959587954A95E2F7092E000C75
:101E1000AA0BBB0B8093400490934104A09342040F
:101E2000B0934304285F20934404F090440400914D
:101E30003E0410913F04F3E1FF15E4F073947092B7
:101E4000C504DA94C6CFB0E0A0E0022E04C0880F2B
:101E5000991FAA1FBB1F0A94D2F7409140045091CA
:101E600041046091420470914304842B952BA62B6E
:101E7000B72BD0CF0115110509F45CC00330110553
:101E8000D0F680E00E948601E82E81E00E94860163
:101E9000C82E82E00E9486016C2D0C2C000C770B62
:101EA00077FF03C07195619571094E2D0E2C000CC2
:101EB000550B57FF03C0519541955109282F082E06
:101EC000000C330B37FF03C031952195310964179E
:101ED00075070CF471C0621773070CF473C08C2D76
:101EE00091E00230110509F49FC089320CF46CC0F6
:101EF00080913D048F5F80933D0489E0890F40917C
:101F0000400450914104609142047091430404C024
:101F100076956795579547958A95D2F740934004F3
:101F200050934104609342047093430437EFF30EDF
:101F3000F91A3FC08091400490914104A09142045D
:101F4000B0914304AC01BD017695679557954795CF
:101F50008A019B010E771127222733270E301105A6
:101F600021053105E9F4E1E0E0933D042AE0B6956E
:101F7000A795979587952A95D1F7809340049093DC
:101F80004104A0934204B093430486EF8F0D8093E5
:101F9000440421E030E030933F0420933E0445CFD9
:101FA000409340045093410460934204709343046F
:101FB000FA94F092440439CF421753071CF08E2D47
:101FC00090E08FCF92E08DCF883D0CF0D9C080910A
:101FD0003D048B3008F4D4C04FEF40933C0489E0BB
:101FE000890F4091400450914104609142047091E6
:101FF000430404C076956795579547958A95D2F71F
:10200000409340045093410460934204709343040E
:1020100057EFF50EF91AF092440462E070E0709305
:102020003F0460933E0401CF28E2280F213508F4D5
:10203000A7C020913C0427FD13C0E22FE595E5954C
:10204000E5950E2E000CFF0BEA5CFB4F408150E043
:10205000440F551F31E018160CF030E0432B40833D
:102060002F5F20933C0489E0890F409140045091F8
:102070004104609142047091430404C076956795D1
:10208000579547958A95D2F7409340045093410461
:10209000609342047093430477EFF70EF91AF092BD
:1020A0004404203309F0C1CE40913B04E6E3F4E060
:1020B00094E68CE7319128E0582F517080FB87958A
:1020C00087F95111832537FD9827330F2150A1F748
:1020D000ABE3B4E0AE17BF0769F7491351C0809175
:1020E0003604853409F04CC080913A04853608F0F6
:1020F00047C080913804682F677070E0762F66279C
:1021000090913904690F711D9B01285C31092937B1
:102110003540B0F5807782958F708F5F8615A9F175
:102120008515B1F182112CC082E090E0489E9001AB
:10213000499E300D1124F901EE5FFE4F7F010081B1
:102140001181000F111F000F111F0A511B4F605901
:102150007140072E000C880B990B0E94FC1820E0A0
:1021600030E040E251E40E948D1CD8016D937D93D4
:102170008D939C931397F70183829482A582B682F4
:1021800010923F0410923E0450CE90E080E0CECFFB
:1021900081E090E0CBCFF80183819481A581B68165
:1021A000A5019401281B390B4A0B5B0BCA01B9012D
:1021B00028EE33E040E050E00E94501D29353240C7
:1021C0008CF0D801ED91FC91EE0FFF1FEE0FFF1F79
:1021D000EA51FB4F20E030E046EC52EC20833183A3
:1021E00042835383095F1F4FE016F106A1F683E097
:1021F00090E00E94DA0110E000E0853D910564F472
:1022000002E010E0853991053CF401E010E08337ED
:10221000910514F403E010E087E090E00E94DA01F9
:10222000853D91052CF4853991050CF43CC208607C
:102230001093E1040093E0046091D4047091D504FC
:102240008091D6049091D704C090CA04D090CB045A
:10225000E090CC04F090CD046C197D098E099F09A3
:1022600028EE33E040E050E00E94501D253131055A
:102270000CF401C320901E0530901F0540902005EE
:10228000509021058090220590902305A090240570
:10229000B090250520E030E04EEB52ECC201B101D8
:1022A0000E94881C18160CF009C220E030E04EEBAA
:1022B00052ECC501B4010E94881C18160CF0FCC138
:1022C00020E030E043E453E4C201B1010E94231D49
:1022D00018160CF4EFC1FF24F39420E030E045E23F
:1022E00053E4C501B4010E94231D18160CF0F12C13
:1022F0008F2D8A8B20E030E04EEB52ECC501B4010B
:102300000E94881C1816B4F420E030E04DE453E439
:10231000C201B1010E94231DEE24E39418165CF063
:1023200020E030E04AE253E4C501B4010E94231DDD
:1023300018160CF0E12C20E030E04EEB52ECC2011C
:10234000B1010E94881C1816E4F420E030E04EEB46
:1023500052ECC501B4010E94881C181694F420E0C8
:1023600030E040E251E4C501B4010E941C1C9B0115
:10237000AC0177247394C201B1010E94231D181689
:102380000CF0712C2090E6043090E7044090E804B3
:102390005090E90420E030E046EC52ECC201B1017B
:1023A0000E94881C20E030E04EEB52EC882309F4B8
:1023B00088C1C501B4010E94881C18160CF016C211
:1023C0006801B4E0CB22DD2402FD10C220E030E041
:1023D00040E952E4C201B1010E94881C87FF0EC08F
:1023E0006624639420E030E04AEF52E4C501B40172
:1023F0000E94231D18160CF0612CC62C6C2C20E0BA
:1024000030E04EEB52ECC501B4010E94881C181656
:102410000CF4D1C1F12C6CC18091C8049091C90415
:10242000892BB1F40E943F02892B19F00E947B0195
:10243000DECE81E090E09093C9048093C8040E94AE
:102440001302892B89F40E947B010E945C01CFCE8C
:102450000E947E01892B09F4CACE8FE39CE9019783
:10246000F1F700C00000EBCF8CEC90E00E94E80197
:1024700084E490E00E94E8019FEFA3EDB0E3915067
:10248000A040B040E1F700C0000007E111E077E7AD
:10249000872E71E0972E1E01EAE02E0E311C801669
:1024A000910621F2D8011A968C91882309F468C00C
:1024B0000E941302892B39F285E590E00E94E80121
:1024C0007801B2E0EB0EF11C6801EAE0CE0ED11CFF
:1024D000D7018D917D0190E00E94E801CE14DF04C8
:1024E000B9F78EEB90E00E94E801FE0131967F0182
:1024F00050E040E029E030E081E090E019C0F8943D
:102500005A985E98B0E1BA95F1F75A9A6AE46A95DA
:10251000F1F700C069B1AFEBB0E01197F1F700C07F
:102520000000789465FF02C0482B592B880F991F33
:102530002150310921F7D7014D937D012A163B0621
:10254000B9F66985AF01485F5F4F80E04E175F07BE
:10255000D1F4681751F1F80183858A3018F10190A0
:10256000F081E02DEE0FFF1FEE0FFF1FEA51FB4F32
:1025700020E030E046EC52EC2083318342835383E9
:10258000045F1F4F8CCF919128E030E0782F79279E
:10259000869570FF02C0BCE88B27969521503109C3
:1025A000A9F7D4CF8F5F8387EBCF6A81862F90E026
:1025B000982F88276981680F792F711D072E000CCD
:1025C000880B990B0E94FC1820E030E040E85DE3A6
:1025D0000E94371920E030E040E151E40E943719B1
:1025E00020E030E040EA50E40E948D1C20E030E022
:1025F00040E052E40E941C1C6B017C01F801A080A9
:10260000B180AA0CBB1CAA0CBB1CF501EA51FB4F04
:10261000408051806280738020E030E046EC52ECD4
:10262000C301B2010E94881C882391F120E030E0B0
:1026300040EA50E4C301B2010E941C1C9B01AC01A2
:10264000C701B6010E94231D181654F420E030E0A3
:1026500040E05FE3C701B6010E941C1C6B017C01D6
:1026600020E030E040EA50E4C301B2010E941B1CAC
:10267000A70196010E94231D181654F420E030E0B3
:1026800040E05FE3C701B6010E941B1C6B017C01A7
:10269000F501EA51FB4FC082D182E282F382D80178
:1026A0001B961C926DCF8337910514F00460C0CD4A
:1026B0000C60BECD81E01DCE1A8A3CCE1A8AE12C78
:1026C00060CEC501B4010E94881C18160CF08EC0A3
:1026D00002FD8CC0FF24F39420E030E04CE852E48B
:1026E000C501B4010E94231D18160CF0F12C612CB9
:1026F0006801E2E0CE22DD2481E001FD43C02090AC
:102700002E0530902F05409030055090310520E087
:1027100030E04EEB52ECC201B1010E94881C181649
:102720000CF066C020E030E04EEB52ECC501B40185
:102730000E94881C18160CF05BC003FF59C020E0F3
:1027400030E04AEA52E4C201B1010E94231D18168A
:10275000C4F420E030E044EC52E4C201B1010E9434
:10276000881C87FF0EC04424439420E030E04AEFE9
:1027700052E4C501B4010E94231D18160CF0412C2F
:10278000C42C8C2DA8014170552700FF33C0F110D7
:1027900005C0FA89FF2391F1662081F1942F2A89DF
:1027A000222379F1442309F40BC131E020E0E11048
:1027B00031C030E02FC020E030E04CE952E4C201EB
:1027C000B1010E94881C87FF25CE20E030E040E068
:1027D00050E4C201B1010E941C1CFF24F394A50126
:1027E00094010E94881C87FD83CF14CE612C12CEE9
:1027F00080E0C8CF41E050E06110D0CF4E2D50E0D6
:10280000CDCF31E020E0E11001C030E0911102C0F5
:102810007110D9C090E05093DF044093DE04909390
:10282000DD048093DC043093DA042093DB04452B31
:1028300009F4CCC0299A8091DC049091DD04892BA5
:1028400009F4C6C0289A8091DA049091DB04892BA0
:1028500009F4C0C02C9A8091D4049091D504A09121
:10286000D604B091D7048093CA049093CB04A0936C
:10287000CC04B093CD04C090D404D090D504E090A3
:10288000D604F090D7048091D0049091D104A09107
:10289000D204B091D304A7019601281B390B4A0B2F
:1028A0005B0BCA01B90128EE33E040E050E00E9422
:1028B000501D253131055CF181E090E00E94DA0184
:1028C0008C019093CF048093CE0490E080E00E942E
:1028D000DA0121E030E00038110514F030E020E0AA
:1028E0003093E5042093E40421E030E0803E91053C
:1028F00014F030E020E03093E3042093E204C0922F
:10290000D004D092D104E092D204F092D30480910A
:10291000F5029091F602892B09F448C080910506D2
:1029200090910606A0910706B0910806C81AD90A28
:10293000EA0AFB0A39E8C31633E1D306BCF18091F9
:102940000306909104068130910509F445C0823058
:10295000910509F462C0892B49F51092F602109294
:10296000F5021F928AE08F931F928DE08F9386E38A
:1029700092E09F938F9389E693E09F938F938CE3EC
:1029800095E09F938F930E94C61D6BEF70E08CE3E0
:1029900095E00E94100181E090E0909304068093FE
:1029A00003060FB6F894DEBF0FBECDBF80E090E007
:1029B000892B11F40C94D50B0E9400000C94D50BBC
:1029C00031E020E025CF81E090E025CF299833CF7A
:1029D000289839CF2C983FCF1092F6021092F5022A
:1029E0001F928AE08F931F928DE08F9387E791E08B
:1029F0009F938F9389E693E09F938F938CE395E069
:102A00009F938F930E94C61D6BEF70E08CE395E05F
:102A10000E94100182E090E0C0CF20913A053091F1
:102A20003B05ECE3F0E0C901BF010E94281D9F9324
:102A30008F93CB01BF010E94281D9F938F93C901E3
:102A400060E17EE00E94281D7F936F931F921F928A
:102A500080E793E09F938F938CE395E09F938F9310
:102A60000E94C61D0FB6F894DEBF0FBECDBFF12C7D
:102A7000E12CECE3AE2EE5E0BE2EF4EACF2EF3E03F
:102A8000DF2E92E0E916F10409F453C0A3E0EA1640
:102A9000F10409F457C0B1E0EB16F10409F440C0A9
:102AA00090901E0580901F05709020056090210574
:102AB000F50101900020E9F78F0101501109809183
:102AC0001A056CE873E080FD10C020E030E046ECB1
:102AD00052ECD401F3016B2F782D8F2F962D0E948D
:102AE000881C811138C064E973E0C8010E94971DF9
:102AF000FFEFEF1AFF0A24E0E216F10411F68091CD
:102B0000360590913705823A3FEF93070CF444C0A5
:102B100020E033E0892B09F041C02BEF32E03EC0CA
:102B200090902205809023057090240560902505E3
:102B3000BFCF90902E0580902F057090300560904B
:102B40003105B6CF909032058090330570903405F2
:102B500060903505ADCF20E030E044EC52ECD4017C
:102B6000F3016B2F782D8F2F962D0E94881C6CE916
:102B700073E0882309F4B9CF6F927F928F929F926E
:102B8000DF92CF921F930F930E94C61D0FB6F89449
:102B9000DEBF0FBECDBFACCF27EF32E08CE395E0B8
:102BA000DC010D900020E9F7CD013F932F932CEA33
:102BB00033E03F932F9301979F938F930E94C61DFD
:102BC00080913805909139050F900F900F900F90DC
:102BD0000F900F9027EF32E0823ABFEF9B0734F05F
:102BE00020E033E0892B11F42BEF32E00CE315E009
:102BF000F80101900020E9F7CF013F932F932CEAD1
:102C000033E03F932F9301979F938F930E94C61DAC
:102C1000D8010D900020E9F7CD01209119052F93DF
:102C2000209118052F93209117052F9320911605B9
:102C30002F9350EBE52E53E0F52EFF92EF92019784
:102C40009F938F930E94C61DF80101900020E9F721
:102C50008F01809115058F93809114058F9380913A
:102C600013058F93809112058F93FF92EF9201507D
:102C700011091F930F930E94C61D0FB6F894DEBF73
:102C80000FBECDBFF12CE12C6CE3A62E65E0B62E75
:102C90007EEBC72E73E0D72EF7013197E930F105AF
:102CA00068F4EB5AF94E0C946F1D4A1853185C18CF
:102CB00065186E1877188018891892189090E60495
:102CC0008090E7047090E8046090E904F5010190B9
:102CD0000020E9F78F010150110920E030E046ECB7
:102CE00052ECD401F3016B2F782D8F2F962D0E947B
:102CF000881C811120C267EB73E0C8010E94971DF8
:102D00005FEFE51AF50A6AE0E616F10409F0C4CFB0
:102D10008091E4049091E5042FEF32E0892B11F4C7
:102D200024E033E08CE395E0DC010D900020E9F72E
:102D3000CD013F932F932CEA33E03F932F930197DC
:102D40009F938F930E94C61D0F900F900F900F902E
:102D50000F900F908091E2049091E3042FEF32E006
:102D6000892B11F424E033E08CE395E0FC01019021
:102D70000020E9F7CF013F932F932CEA33E03F93F4
:102D80002F9301979F938F930E94C61D8091E0041B
:102D90000F900F900F900F900F900F902FEF32E049
:102DA00080FD02C024E033E08CE395E0DC010D906F
:102DB0000020E9F7CD013F932F932CEA33E03F93B6
:102DC0002F9301979F938F930E94C61D8091E004DB
:102DD0000F900F900F900F900F900F902FEF32E009
:102DE00081FD02C024E033E08CE395E0FC0101901A
:102DF0000020E9F7CF013F932F932CEA33E03F9374
:102E00002F9301979F938F930E94C61D8091E0049A
:102E10000F900F900F900F900F900F902FEF32E0C8
:102E200082FD02C024E033E08CE395E0DC010D90EC
:102E30000020E9F7CD013F932F932CEA33E03F9335
:102E40002F9301979F938F930E94C61D8091E0045A
:102E50000F900F900F900F900F900F902FEF32E088
:102E600083FD02C024E033E08CE395E0FC01019097
:102E70000020E9F7CF013F932F932CEA33E03F93F3
:102E80002F9301979F938F930E94C61D0F900F90D1
:102E90000F900F900F900F908091DE049091DF04BF
:102EA0002FEF32E0892B11F424E033E08CE395E03E
:102EB000DC010D900020E9F7CD013F932F932CEA20
:102EC00033E03F932F9301979F938F930E94C61DEA
:102ED0000F900F900F900F900F900F908091DC0447
:102EE0009091DD042FEF32E0892B11F424E033E0E0
:102EF0000CE315E0F80101900020E9F7CF013F93C2
:102F00002F934CEAE42E43E0F42EFF92EF920197C8
:102F10009F938F930E94C61DD8010D900020E9F762
:102F20008D0184E093E09F938F93FF92EF92015085
:102F300011091F930F930E94C61D0FB6F894DEBFB0
:102F40000FBECDBF8091DA049091DB042FEF32E009
:102F5000892B11F424E033E00CE315E0D8010D9047
:102F60000020E9F7CD013F932F932CEAE22E23E0D6
:102F7000F22EFF92EF9201979F938F930E94C61DAE
:102F8000F80101900020E9F7CF0134E0C32E33E0CF
:102F9000D32EDF92CF92FF92EF9201979F938F9360
:102FA0000E94C61DD8010D900020E9F7CD01DF92E7
:102FB000CF92FF92EF9201979F938F930E94C61D2D
:102FC000F0900E05E0900F05D0901005C09011050F
:102FD000F80101900020E9F78F01015011090FB6A7
:102FE000F894DEBF0FBECDBF20E030E046EC52ECDF
:102FF000D701F6016B2F7A2F8F2F9E2F0E94881CEE
:103000008111A9C067EB73E0C8010E94971D8CE392
:1030100095E0DC010D900020E9F7CD011F922AE038
:103020002F931F922DE02F932BE633E03F932F93A6
:1030300001979F938F930E94C61D1092F6021092E3
:10304000F5028091D4049091D504A091D604B0915A
:10305000D7048093050690930606A0930706B093C5
:1030600008066BEF70E08CE395E00E941001809100
:10307000D8049091D90401960FB6F894DEBF0FBE24
:10308000CDBF8431910509F478C09093D904809321
:10309000D8048CCC9090EA048090EB047090EC04FF
:1030A0006090ED0413CE9090EE048090EF04709049
:1030B000F0046090F1040ACE9090F2048090F30442
:1030C0007090F4046090F50401CE9090F604809026
:1030D000F7047090F8046090F904F8CD9090FA0429
:1030E0008090FB047090FC046090FD04EFCD909004
:1030F000FE048090FF047090000560900105E6CD0D
:10310000909002058090030570900405609005057D
:10311000DDCD9090060580900705709008056090C1
:103120000905D4CD90900A0580900B0570900C0590
:1031300060900D05CBCD6F927F928F929F92DF9220
:10314000CF921F930F930E94C61D0FB6F894DEBF57
:103150000FBECDBFD5CDCF92DF92EF92FF928EEB17
:1031600093E09F938F931F930F930E94C61D0FB6FA
:10317000F894DEBF0FBECDBF4ACF1092D904109293
:10318000D804109204061092030610CC2598809063
:10319000D4049090D504A090D604B090D704C50173
:1031A000B40128EE33E040E050E00E94501DC90118
:1031B00068E770E00E943C1D60FF2EC98091C70443
:1031C00081110C94DA0E1092C604109235041092FC
:1031D000C5041092440410923F0410923E0481E012
:1031E0008093C70402E011E0E7E1EE2EE1E0FE2E5D
:1031F0000C94F410E89409C097FB3EF490958095E8
:10320000709561957F4F8F4F9F4F9923A9F0F92FAC
:1032100096E9BB279395F695879577956795B7952A
:10322000F111F8CFFAF4BB0F11F460FF1BC06F5F10
:103230007F4F8F4F9F4F16C0882311F096E911C022
:10324000772321F09EE8872F762F05C0662371F043
:1032500096E8862F70E060E02AF09A95660F771F57
:10326000881FDAF7880F9695879597F908950E9439
:103270004A190C94BB190E94AD1938F00E94B41978
:1032800020F0952311F00C94A4190C94AA19112480
:103290000C94EF190E94CC1970F3959FC1F3950F10
:1032A00050E0551F629FF001729FBB27F00DB11DCA
:1032B000639FAA27F00DB11DAA1F649F6627B00D5A
:1032C000A11D661F829F2227B00DA11D621F739F43
:1032D000B00DA11D621F839FA00D611D221F749F51
:1032E0003327A00D611D231F849F600D211D822F98
:1032F000762F6A2F11249F5750409AF0F1F08823BF
:103300004AF0EE0FFF1FBB1F661F771F881F9150EB
:103310005040A9F79E3F510580F00C94A4190C94DD
:10332000EF195F3FE4F3983ED4F386957795679560
:10333000B795F795E7959F5FC1F7FE2B880F911D15
:103340009695879597F9089597F99F6780E870E0BB
:1033500060E008959FEF80EC089500240A9416160B
:10336000170618060906089500240A941216130673
:10337000140605060895092E0394000C11F4882301
:1033800052F0BB0F40F4BF2B11F460FF04C06F5F1D
:103390007F4F8F4F9F4F089557FD9058440F551FF3
:1033A00059F05F3F71F04795880F97FB991F61F0C7
:1033B0009F3F79F087950895121613061406551F3E
:1033C000F2CF4695F1DF08C0161617061806991FAA
:1033D000F1CF86957105610508940895E894BB279F
:1033E00066277727CB0197F908952F923F924F9246
:1033F0005F926F927F928F929F92AF92BF92CF9285
:10340000DF92EF92FF920F931F93CF93DF93CDB78D
:10341000DEB7CA1BDB0B0FB6F894DEBF0FBECDBF05
:1034200009942A88398848885F846E847D848C84D6
:103430009B84AA84B984C884DF80EE80FD800C81DF
:103440001B81AA81B981CE0FD11D0FB6F894DEBFC2
:103450000FBECDBFED010895283008F027E03327D7
:10346000DA01990F311D87FD9160009661057105A4
:1034700039F432602E5F3D9330E32A95E1F70895E9
:103480009F3F30F080387105610509F03C5F3C5F7B
:103490003D93913008F08068911DDF93CF931F9387
:1034A0000F93FF92EF92192F987F9695E92F96959B
:1034B0009695E90FFF27E653FF4F99273327EE2410
:1034C000FF24A701E70105900894079428F4360F1C
:1034D000E71EF81E491F511D660F771F881F991F91
:1034E0000694A1F70590079428F4E70EF81E491FEB
:1034F000561FC11D770F881F991F661F0694A1F7DD
:103500000590079428F4F80E491F561FC71FD11DB8
:10351000880F991F661F771F0694A1F705900794DF
:1035200020F4490F561FC71FD81F990F661F771F1A
:10353000881F0694A9F784911095177041F0D695CD
:10354000C79557954795F794E7941A95C1F7E0E723
:10355000F0E06894159015913591659195910590DD
:103560007FE27395E118F10A430B560BC90BD009A2
:10357000C0F7E10CF11E431F561FC91FD01D7EF47A
:10358000703311F48A95E6CFE894015030F0080FBB
:103590000AF40027021708F4202F2395022F7A330C
:1035A00028F079E37D932A95E9F710C07D932A9559
:1035B00089F6069497956795379517951794E118AE
:1035C000F10A430B560BC90BD00998F023957E9155
:1035D00073957A3308F070E37C932013B8F77E91EB
:1035E00070617D9330F0839571E37D9370E32A954C
:1035F000E1F71124EF90FF900F911F91CF91DF9190
:10360000992787FD9095089591110C94181C80328C
:1036100019F089508550C8F7089591110895815483
:103620008A5108F4805E855A0895FC0105900616BB
:1036300021F00020D9F7C00108953197CF010895F6
:10364000FC010590615070400110D8F7809590956D
:103650008E0F9F1F0895FC01615070400190011072
:10366000D8F7809590958E0F9F1F0895CF93DF9385
:10367000EC012B8120FF1AC026FF0CC02F7B2B836F
:103680008E819F8101969F838E838A8190E0DF9156
:10369000CF91089522FF18C0E881F9818081082E1A
:1036A000000C990B009729F420622B838FEF9FEF7A
:1036B000EECF3196F983E8832E813F812F5F3F4F14
:1036C0003F832E839927E3CFEA85FB85099597FFF2
:1036D000F3CF2B81019621F080E2822B8B83E6CF02
:1036E00080E1FBCF0F931F93CF93DF93182F092F08
:1036F000EB018B8181FD09C01FEF0FEF812F902F10
:10370000DF91CF911F910F91089582FF14C02E81F8
:103710003F818C819D81281739073CF4E881F9812C
:10372000CF0101969983888310838E819F810196B2
:103730009F838E83E3CFE885F985812F0995892BB7
:10374000A1F3DACFFB01238120FF11C026FD0FC0BA
:103750008F3F980771F082832F7D20642383268119
:1037600037812150310937832683992708958FEFB8
:103770009FEF0895FA01AA27283051F1203181F1F5
:10378000E8946F936E7F6E5F7F4F8F4F9F4FAF4F69
:10379000B1E03ED0B4E03CD0670F781F891F9A1F7C
:1037A000A11D680F791F8A1F911DA11D6A0F711D30
:1037B000811D911DA11D20D009F468943F912AE03C
:1037C000269F11243019305D3193DEF6CF01089524
:1037D000462F4770405D4193B3E00FD0C9F7F6CF55
:1037E000462F4F70405D4A3318F0495D31FD40521D
:1037F000419302D0A9F7EACFB4E0A69597958795B3
:1038000077956795BA95C9F7009761057105089591
:103810009B01AC010A2E069457954795379527953D
:10382000BA95C9F7620F731F841F951FA01D0895D5
:103830009927882708955058BB27AA270E94331C30
:103840000C94BB190E94AD1938F00E94B41920F0F5
:1038500039F49F3F19F426F40C94AA190EF4E0955C
:10386000E7FB0C94A419E92F0E94CC1958F3BA175E
:10387000620773078407950720F079F4A6F50C9486
:10388000EE190EF4E0950B2EBA2FA02D0B01B90105
:1038900090010C01CA01A0011124FF27591B99F0C6
:1038A000593F50F4503E68F11A16F040A22F232FD2
:1038B000342F4427585FF3CF469537952795A79522
:1038C000F0405395C9F77EF41F16BA0B620B730BC9
:1038D000840BBAF09150A1F0FF0FBB1F661F771F3A
:1038E000881FC2F70EC0BA0F621F731F841F48F4EF
:1038F000879577956795B795F7959E3F08F0B0CF78
:103900009395880F08F09927EE0F9795879508955E
:103910000E94FF1C08F481E008950E94A11C0C94F1
:10392000BB190E94B41958F00E94AD1940F029F457
:103930005F3F29F00C94A41951110C94EF190C94C9
:10394000AA190E94CC1968F39923B1F3552391F376
:10395000951B550BBB27AA2762177307840738F0FE
:103960009F5F5F4F220F331F441FAA1FA9F335D05B
:103970000E2E3AF0E0E832D091505040E695001C0F
:10398000CAF72BD0FE2F29D0660F771F881FBB1FC9
:10399000261737074807AB07B0E809F0BB0B802DA7
:1039A000BF01FF2793585F4F3AF09E3F510578F0D3
:1039B0000C94A4190C94EF195F3FE4F3983ED4F3F0
:1039C000869577956795B795F7959F5FC9F7880FA7
:1039D000911D9695879597F90895E1E0660F771FF9
:1039E000881FBB1F621773078407BA0720F0621B8A
:1039F000730B840BBA0BEE1F88F7E0950895990FAF
:103A00000008550FAA0BE0E8FEEF16161706E807A8
:103A1000F907C0F012161306E407F50798F0621BC9
:103A2000730B840B950B39F40A2661F0232B242B9E
:103A3000252B21F408950A2609F4A140A6958FEFBD
:103A4000811D811D08950E94FF1C08F48FEF0895C9
:103A5000AA1BBB1B51E107C0AA1FBB1FA617B707B4
:103A600010F0A61BB70B881F991F5A95A9F78095D0
:103A70009095BC01CD01089597FB072E16F4009494
:103A800007D077FD09D00E94281D07FC05D03EF421
:103A9000909581959F4F0895709561957F4F0895FA
:103AA000052E97FB1EF400940E94671D57FD07D05A
:103AB0000E94751D07FC03D04EF40C94671D5095B1
:103AC0004095309521953F4F4F4F5F4F089590950A
:103AD0008095709561957F4F8F4F9F4F0895EE0FA2
:103AE000FF1F0590F491E02D0994A1E21A2EAA1B64
:103AF000BB1BFD010DC0AA1FBB1FEE1FFF1FA2179E
:103B0000B307E407F50720F0A21BB30BE40BF50B9A
:103B1000661F771F881F991F1A9469F76095709523
:103B2000809590959B01AC01BD01CF010895FB01EB
:103B3000DC0101900D920020E1F70895FB01DC010A
:103B40004150504030F08D910190801919F40020BF
:103B5000B9F7881B990B0895FB0151915523A9F0E2
:103B6000BF01DC014D9145174111E1F759F4CD0139
:103B70000190002049F04D9140154111C9F3FB011E
:103B80004111EFCF81E090E001970895AEE0B0E001
:103B9000ECECFDE10C94031A0D891E8986E08C8300
:103BA0001A8309838FEF9FE79E838D83AE01475E63
:103BB0005F4F6F89788DCE0101960E94C4032F81DB
:103BC0003885020F131FF80110822E96E4E00C9442
:103BD0001F1AAEE0B0E0EFEEFDE10C94051A85E0AF
:103BE0008C838B899C899A838983AE01495E5F4F60
:103BF0006D897E89CE0101960E94E9092E96E2E048
:103C00000C94211AF894FFCF01000000010000007D
:103C100000010002000000000A0003000000000292
:103C20000028F926EC0200008A010A030028922BE2
:103C3000EC0200005D010A04002254802400000010
:103C4000D2010A050028E81CEC020000DF010A0688
:103C50000022B78C2400000083010A0700282E38B8
:103C6000EC02000015010A0800284004EC020000E4
:103C700060010A090028C53FEC02000095010A72A4
:103C80003A202F2F20643A683A6D3A732020202082
:103C9000436F6C6C54202053746F72542020417514
:103CA0007831542020417578325420506D70205561
:103CB000704C20205661632020567076205431735A
:103CC00074202054326E642020546261732020548A
:103CD0006F75742020545863684920545863684DA8
:103CE00020545863684F2054486F744F20545261D9
:103CF0006452205448546252204831737420483230
:103D00006E6420417761792048547562205377337F
:103D10002020537734202052616474204854756207
:103D200020417578462046446D70204231737420DE
:103D300042326E64202054726F6F74202000723AF9
:103D4000202F2F20557074696D65202020207C2045
:103D5000202020546865726D616C20436F6E747210
:103D60006F6C6C6572204F757470757473202020B1
:103D7000207C2020202020202020202020202020E7
:103D80002020202020202020202020205261646933
:103D9000616E7420436F6E74726F6C6C6572204933
:103DA0006E70757473202020202020202020202079
:103DB0002020202020202020202020202020202003
:103DC000207C20202020205377697463686573204D
:103DD00020202020207C2020202020436F6E747221
:103DE0006F6C6C6572204F75747075747320202031
:103DF0002020207C204578747261207C0001002006
:103E00003F2000202E2000204F4E2000202E20207A
:103E100000643A20494E495420444F4E450A00520E
:103E2000554E54494D450025643A2564004F504590
:103E30004E005348525400256C66004F4E004F46CA
:103E40004600643A20746865726D616C2074696D17
:103E5000656F75740A00643A20746865726D616CF0
:103E6000206D6178206661696C20636F756E740ADD
:103E70000025732563256300723A2025332E3364B1
:103E80003A25322E32643A25322E32643A25322EC9
:103E9000326420002020203F20202000204F504569
:103EA0004E2020002053484F525420002520362E0B
:103EB000316620002573200025342E316620002035
:0E3EC00020203F20200025352E3166200000F6
:107800000C94343C0C94513C0C94513C0C94513CE1
:107810000C94513C0C94513C0C94513C0C94513CB4
:107820000C94513C0C94513C0C94513C0C94513CA4
:107830000C94513C0C94513C0C94513C0C94513C94
:107840000C94513C0C94513C0C94513C0C94513C84
:107850000C94513C0C94513C0C94513C0C94513C74
:107860000C94513C0C94513C11241FBECFEFD8E036
:10787000DEBFCDBF11E0A0E0B1E0ECE9FFE702C060
:1078800005900D92A230B107D9F712E0A2E0B1E065
:1078900001C01D92AD30B107E1F70E942D3D0C945F
:1078A000CC3F0C94003C982F959595959595959582
:1078B000905D8F708A307CF0282F295A8091C0000B
:1078C00085FFFCCF9093C6008091C00085FFFCCF60
:1078D0002093C6000895282F205DF0CF982F809127
:1078E000C00085FFFCCF9093C6000895EF92FF92F1
:1078F0000F931F93EE24FF2487018091C00087FD22
:1079000017C00894E11CF11C011D111D81E4E8164B
:1079100082E4F8068FE0080780E0180770F3E09132
:107920000401F091050109958091C00087FFE9CF1E
:107930008091C6001F910F91FF90EF9008950E94D3
:10794000763C982F8091C00085FFFCCF9093C600B5
:1079500091362CF490330CF09053892F089597555D
:10796000892F08951F930E949F3C182F0E949F3CCF
:107970001295107F810F1F9108951F93182F882350
:1079800021F00E94763C1150E1F71F9108951F935A
:10799000182F0E94763C803249F0809103018F5F5E
:1079A000809303018530C1F01F9108958091C0003C
:1079B00085FFFCCF84E18093C6008091C00085FFE5
:1079C000FCCF1093C6008091C00085FFFCCF80E102
:1079D0008093C6001F910895E0910401F091050184
:1079E00009951F9108950E94763C803241F0809164
:1079F00003018F5F80930301853081F008958091AA
:107A0000C00085FFFCCF84E18093C6008091C00058
:107A100085FFFCCF80E18093C6000895E0910401CA
:107A2000F09105010995089540E951E08823A1F0FE
:107A30002D9A28EE33E0FA013197F1F721503040CA
:107A4000D1F72D9828EE33E0FA013197F1F7215064
:107A50003040D1F7815061F708953F924F925F9285
:107A60006F927F928F929F92AF92BF92CF92DF924E
:107A7000EF92FF920F931F93CF93DF93000080E16B
:107A80008093C4001092C50088E18093C10086E015
:107A90008093C2005098589A259A81E00E94143D24
:107AA00024E1F22E9EE1E92E85E9D82E0FE0C02ECA
:107AB00010E1B12EAA24A394B1E49B2EA6E58A2E50
:107AC000F2E57F2EE0E26E2E79E4572E63E5462E36
:107AD00050E5352E0E94763C8033B1F18133B9F107
:107AE000803409F46FC0813409F476C0823409F41B
:107AF00085C0853409F488C0803531F1823521F1A3
:107B0000813511F1853509F485C0863509F48DC0BC
:107B1000843609F496C0843709F403C1853709F423
:107B200072C1863709F466C0809103018F5F80932C
:107B30000301853079F6E0910401F0910501099582
:107B40000E94763C803351F60E94F33CC3CF0E94E2
:107B5000763C803249F78091C00085FFFCCFF092DF
:107B6000C6008091C00085FFFCCF9092C600809136
:107B7000C00085FFFCCF8092C6008091C00085FFC9
:107B8000FCCF7092C6008091C00085FFFCCF609250
:107B9000C6008091C00085FFFCCF5092C600809146
:107BA000C00085FFFCCF4092C6008091C00085FFD9
:107BB000FCCF3092C6008091C00085FFFCCFB09210
:107BC000C60088CF0E94763C863808F4BDCF0E945C
:107BD000763C0E94F33C7ECF0E94763C803809F4CC
:107BE0009CC0813809F40BC1823809F43CC1883942
:107BF00009F48FC080E00E94C73C6CCF84E10E94F2
:107C0000BD3C0E94F33C66CF85E00E94BD3C0E94D3
:107C1000F33C60CF0E94763C809306010E94763C44
:107C2000809307010E94F33C55CF0E94763C80333D
:107C300009F41DC183E00E94BD3C80E00E94C73C66
:107C400049CF0E94763C809309020E94763C809343
:107C5000080280910C028E7F80930C020E94763C79
:107C6000853409F415C18091080290910902892B8D
:107C700089F000E010E00E94763CF801E85FFE4FDA
:107C800080830F5F1F4F80910802909109020817AF
:107C9000190788F30E94763C803209F045CF809125
:107CA0000C0280FF01C16091060170910701660F0F
:107CB000771F7093070160930601A0910802B091AD
:107CC00009021097C9F0E8E0F1E09B01AD014E0F09
:107CD0005F1FF999FECF32BD21BD819180BDFA9A17
:107CE000F99A2F5F3F4FE417F50799F76A0F7B1F4B
:107CF00070930701609306018091C00085FFFCCF5F
:107D0000F092C6008091C00085FFFCCFB092C60003
:107D1000E1CE83E00E94C73CDDCE82E00E94C73CFA
:107D2000D9CE0E94763C809309020E94763C8093D3
:107D300008028091060190910701880F991F909386
:107D40000701809306010E94763C853409F4A6C0A1
:107D500080910C028E7F80930C020E94763C8032D0
:107D600009F0B8CE8091C00085FFFCCFF092C6002C
:107D7000609108027091090261157105B9F140E046
:107D800050E080910C02A82FA170B82FB27011C0E2
:107D9000BB2309F45CC0E0910601F0910701319624
:107DA000F0930701E09306014F5F5F4F46175707B7
:107DB000E8F4AA2369F3F999FECF209106013091E6
:107DC000070132BD21BDF89A90B58091C00085FFB2
:107DD000FCCF9093C6002F5F3F4F30930701209355
:107DE00006014F5F5F4F4617570718F38091C00099
:107DF00085FDE5CE8091C00085FFF8CFE0CE81E023
:107E00000E94C73C67CE0E94763C803209F08CCE3F
:107E10008091C00085FFFCCFF092C6008091C00029
:107E200085FFFCCFE092C6008091C00085FFFCCFAB
:107E3000D092C6008091C00085FFFCCFC092C600E2
:107E40008091C00085FFFCCFB092C60043CEE09188
:107E50000601F091070194918091C00085FFFCCF4D
:107E60009093C6009CCF80E10E94C73C33CE0E9415
:107E7000763C0E94763C182F0E94763C112309F430
:107E800083C0113009F484C08FE00E94C73C22CE29
:107E900080910C02816080930C02E5CE80910C02EF
:107EA000816080930C0259CF809107018823880F4D
:107EB000880B8A2180930B02809106019091070123
:107EC000880F991F90930701809306018091080203
:107ED00080FF09C080910802909109020196909359
:107EE000090280930802F894F999FECF1127E091D6
:107EF0000601F0910701C8E0D1E08091080290915D
:107F00000902103091F40091570001700130D9F34B
:107F100003E000935700E89500915700017001308D
:107F2000D9F301E100935700E89509901990009169
:107F3000570001700130D9F301E000935700E89534
:107F40001395103498F011270091570001700130FB
:107F5000D9F305E000935700E895009157000170B0
:107F60000130D9F301E100935700E895329602976A
:107F700009F0C7CF103011F00296E5CF112480919F
:107F8000C00085FFB9CEBCCE8EE10E94C73CA2CD19
:0E7F900085E90E94C73C9ECDF894FFCF80008B
:00000001FF
