:100000000C94DC000C94F9000C94F9000C94F900A9
:100010000C94F9000C94F9000C94F9000C94F9007C
:100020000C94F9000C9460030C94F9000C94F90002
:100030000C94F9000C94F9000C94F9000C94F9005C
:100040000C945B020C94F9000C94A5020C9421030F
:100050000C94F9000C94F9000C94F9000C94F9003C
:100060000C94F9000C94F9006E616E00696E6600E4
:1000700000407A10F35A00A0724E18090010A5D45F
:10008000E80000E87648170000E40B54020000CABC
:100090009A3B000000E1F505000080969800000002
:1000A00040420F000000A086010000001027000061
:1000B0000000E803000000006400000000000A00E7
:1000C000000000000100000000002C76D888DC67EA
:1000D0004F0823DFC1DFAE59E1B1B796E5E3E45342
:1000E000C63AE651997696E8E6C28426EB898C9B5F
:1000F00062ED407C6FFCEFBC9C9F40F2BAA56FA5FF
:10010000F490055A2AF75C936B6CF9676DC11BFC80
:10011000E0E40D47FEF520E6B500D0ED902E03009B
:10012000943577050080841E080000204E0A0000E8
:1001300000C80C333333330F986E12831141EF8DA7
:100140002114893BE65516CFFEE6DB18D1844B38E7
:100150001BF77C1D901DA4BBE424203284725E2218
:100160008100C9F124ECA1E53D276364696E6F70DD
:10017000737578585B65666745464700616E006E2B
:1001800066696E69747900CDCCCC3D0AD7233C17E3
:10019000B7D13877CC2B329595E6241FB14F0A00A2
:1001A0000020410000C84200401C4620BCBE4CCA92
:1001B0001B0E5AAEC59D740011241FBECFEFD8E0B0
:1001C000DEBFCDBF14E0A0E0B1E0E0E0FFE302C09D
:1001D00005900D92A234B107D9F726E0A2E4B4E06D
:1001E00001C01D92AA39B207E1F70E94830B0C945B
:1001F0007E1F0C94000081E090E09093F7028093C2
:10020000F602089581E090E09093BA048093B904D7
:10021000089581E090E090935504809354040895EC
:1002200020914C0430914D04232B81F490934D0484
:1002300080934C0470934B0460934A048091C100F6
:1002400080628093C10090E080E0089581E090E0BA
:1002500008954091560450915704CA01FA01208133
:100260004F5F5F4F2032C9F3909357048093560439
:10027000211102C090E080E00895E0915604F091D1
:100280005704009731F090935704809356040C94D0
:1002900029019E2F8F2F2191222339F02032C9F777
:1002A0009093560480935704F2CF90935604809312
:1002B000570490E080E00895E8E1F1E040E050E08C
:1002C00066EC72EC81E0E837F80709F4089583855D
:1002D0008F5F83878B3068F0A081B181AA0FBB1F2D
:1002E000AA0FBB1FAE58BA4F4D935D936D937C938D
:1002F00013973C96E7CF5A985E9808955A985E9A5D
:1003000089B185FB882780F990E008954091C60463
:100310005091C7046091C8047091C90404C07695D7
:100320006795579547958A95D2F788E040FF88EF03
:1003300041FF14C0885F42FF13C0885F43FF12C0B3
:10034000885F44FF11C0885045FF10C0885046FFA9
:100350000FC0885047FF0EC0885008958850EBCFDB
:100360008850ECCF8850EDCF885FEECF885FEFCF1D
:10037000885FF0CF885F0895CF93DF93EC011092F0
:1003800043041092420463ED71E0CE010E9410011B
:10039000892BC9F78091420490914304892BD1F3B2
:1003A000DF91CF91089581E090E090934304809392
:1003B00042040895806680937C0087EC80937A00E5
:1003C00080917A0086FDFCCF8091790090E00895BD
:1003D00029E030E041E050E02150310909F408956E
:1003E000F894BA01682379235E985A98672B79F0BC
:1003F00065E36A95F1F700005E9AEBEDF0E0319766
:10040000F1F700C000007894440F551FE5CFE3E0FA
:10041000F1E03197F1F700C000005E9AFAE1FA9539
:10042000F1F700C0F0CF5A9A8DE790E0019721F1E3
:100430002AE02A95F1F700C04D9BF8CF5E985A98B4
:100440008FEC97E00197F1F700C000005A9AEFE3B4
:10045000F1E03197F1F700C0000089B182958695EF
:10046000877091E08927817090E0EFE8F6E031979E
:10047000F1F700C00000089580E090E008950E9428
:100480005C015598569A529A0E947E01892B81F000
:100490008FE39CE90197F1F700C000000E9413026E
:1004A00031E020E0892B09F030E0832F922F08956E
:1004B00081E090E008951F920F920FB60F921124E1
:1004C0002F933F938F939F93AF93BF938091960603
:1004D00090919706A0919806B09199063091950653
:1004E00023E0230F2D3758F50196A11DB11D209350
:1004F00095068093960690939706A0939806B093DE
:1005000099068091910690919206A0919306B091E0
:1005100094060196A11DB11D8093910690939206B9
:10052000A0939306B0939406BF91AF919F918F9142
:100530003F912F910F900FBE0F901F90189526E8B6
:10054000230F0296A11DB11DD2CF1F920F920FB69D
:100550000F9211242F933F934F935F936F937F9349
:100560008F939F93AF93BF93CF93EF93FF9380911C
:10057000C00084FD4BC08091C00083FD47C08091C6
:10058000C00082FB222720F930E0C091C600809194
:10059000480490914904BC016F5F7F4FE0914E0485
:1005A000F0914F046E177F07B4F4409147044A302E
:1005B00011F0009781F040915204509153047093D0
:1005C000490460934804840F951FDC01CC93460FC7
:1005D000571FDA011C92232BE1F01092490410926C
:1005E0004804C0E0C0934704FF91EF91CF91BF91C1
:1005F000AF919F918F917F916F915F914F913F91BB
:100600002F910F900FBE0F901F90189521E030E0B2
:10061000BCCFEF2B39F3CA3029F710924F04109258
:100620004E046091480470914904E0915004F091A7
:10063000510450E040E08091520490915304099598
:10064000D1CF1F920F920FB60F9211242F933F9389
:100650004F935F936F937F938F939F93AF93BF93CA
:10066000EF93FF93E0914C04F0914D048081882337
:10067000C1F03196F0934D04E0934C048093C60092
:10068000FF91EF91BF91AF919F918F917F916F916A
:100690005F914F913F912F910F900FBE0F901F9040
:1006A00018958091C1008F7D8093C10010924D04F8
:1006B00010924C04E0914A04F0914B040995E0CF6C
:1006C0001F920F920FB60F9211242F933F934F93C7
:1006D0005F936F937F938F939F93AF93BF93CF93CA
:1006E000DF93EF93FF93C6B196B1907280910001B2
:1006F0008F3FF1F5911102C01092000180914D05DC
:100700008823D9F030914C05E32FEF77F0E0E553E3
:10071000FB4F40812091BB0481E090E0022E01C09C
:10072000880F0A94EAF7C2FF89C0842B80832F5F69
:10073000283009F486C02093BB04809146048F5F63
:100740008A3009F484C080934604FF91EF91DF91D1
:10075000CF91BF91AF919F918F917F916F915F9159
:100760004F913F912F910F900FBE0F901F901895B2
:1007700021E0280F20930001382F377F353059F0C2
:10078000382F3F7E393039F08B7F813121F02E3187
:1007900011F0223251F480914504869530E8911190
:1007A00001C030E0832B80934504263209F0A6CFA8
:1007B000992309F43FC0D091450480915A04909147
:1007C0005B04AC014F5F5F4F609160047091610406
:1007D00046175707B4F4209144042A3011F00097CB
:1007E00081F020915E0430915F0450935B0440934C
:1007F0005A04820F931FFC01D083240F351FF90187
:100800001082672BA9F0DA3099F4109261041092EB
:10081000600460915A0470915B04E0915C04F09173
:100820005D0450E040E080915E0490915F04099582
:10083000D09344048FEF8093000160CF8095842390
:1008400075CF1092BB043F5F30934C0576CF10926A
:1008500046048091600590916105A0916205B09178
:1008600063050196A11DB11D8093600590936105FC
:10087000A0936205B093630568CFAFE0B0E0E3E416
:10088000F4E00C94711B6C011B015A01FC011782EE
:100890001682838181FF48C39E012F5F3F4F49012C
:1008A000F6019381F10193FD859193FF81911F01E1
:1008B000882309F4E7C2853239F493FD859193FFCB
:1008C00081911F01853239F4B60190E00E94EE1C3F
:1008D00035015301E5CFF12C512C00E0003238F402
:1008E0008B3209F190F48032F9F0833209F107FD7F
:1008F00034C020ED280F2A3020F506FF1BC0FAE097
:10090000FF9E200D1124F22E05C08D3279F0803328
:1009100071F70160F10193FD859193FF81911F01B2
:100920008111DCCF1AC002600460F4CF0860F2CFFE
:100930000061F0CF3AE0539E200D1124522E006248
:10094000E9CF8E3221F406FD9DC20064E3CF8C36E0
:1009500011F40068DFCF8836E9F29BEB980F9330F3
:1009600008F05FC00061805E06FD02C046E0F42E24
:10097000102F1F73853609F05BC0106417FF61C02C
:100980008F2D9BE39F1508F48BE344244394480E7A
:1009900027E03501F4E06F0E711CF5016081718173
:1009A00082819381042DA4010E94A81B5C01F9811E
:1009B000FC87F0FF03C00DE2F3FF07C00BE211FD5F
:1009C00004C0012F047012FD00E22C852C70E22E71
:1009D00009F457C00111ABC2F3E0E12CF515A0F406
:1009E00083E0E52CE81A13FD08C0B60180E290E030
:1009F0000E94EE1CEA94E110F8CF002329F0B60122
:100A0000802F90E00E94EE1C3C8528E6A22E20E07C
:100A1000B22E33FD04C09CE6A92E90E0B92E1071D1
:100A200022C09BE9980F933008F033C10F7E9CCF12
:100A3000863611F41068A2CFFF2009F49FCFFA94F4
:100A40009DCFE7E02F2DEF1518F427E037E0F32EC8
:100A5000412C9FCF11118052B60190E00E94EE1CF4
:100A60008FEFA81AB80AF50184918111F3CFEE2017
:100A700009F42FCFB60180E290E00E94EE1CEA94C8
:100A8000F6CF17FF6FC04A0CFC85F4FF04C08A81C3
:100A9000813309F44A9414140CF086C028E024151C
:100AA00010F488E0482E85E090E017FF06C0C501ED
:100AB000B7FE02C090E080E0019601110196FF2090
:100AC00031F02F2D30E02F5F3F4F820F931F5816CC
:100AD000190619F014F0E52CE81A812F897011F429
:100AE000E11067C0002329F0B601802F90E00E943A
:100AF000EE1C13FD02C0E11063C017FF7CC085012E
:100B0000B7FE02C010E000E0C501841991092C0174
:100B10006F2D70E0EE27FF27E61BF70BFF87EE87B0
:100B20000F3F100729F4B6018EE290E00E94EE1C00
:100B3000A016B1060CF44BC0401651060CF047C08D
:100B4000F501E01BF10BE80DF91D81810150110940
:100B50002E853F8502171307E4F1B60190E00E944D
:100B6000EE1CDECF16FD9FCFEF2DF0E0EA15FB0562
:100B700034F03CEFA3163FEFB3060CF0106832964A
:100B8000E80DF91D01C0FA94FF2019F0829180331D
:100B9000D1F317FF88CF442443944F0CFA141B045D
:100BA00031F02CF0FA187FCF442443947CCFF12C01
:100BB0007ACFB60180E290E00E94EE1CEA9490CFDA
:100BC000B60180E390E00E94EE1CEA9494CF80E3AB
:100BD000BDCFA016B10641F49A81963350F49533F7
:100BE00019F43C8534FF05C0B60190E00E94EE1C6C
:100BF0003ECF81E3F9CF8A81813319F09C859F7EB6
:100C00009C87B60190E00E94EE1CFF20A9F0B6017F
:100C10008EE290E00E94EE1CF394F394E2E001E097
:100C20000E0FE80DF92DF11D8081B60190E00E94B4
:100C3000EE1CE02F0F11F3CF85E690E014FF02C009
:100C400085E490E0B6010E94EE1CB7FC06C0A1143A
:100C5000B104C1F4EC85E4FF15C0B194A194B108CE
:100C60008DE2B60190E00E94EE1C80E32AE0A2161D
:100C7000B10454F4B60190E00E94EE1CB601C50127
:100C8000C096B4CF8BE2EDCF8F5FFAE0AF1AB10818
:100C9000EDCF8336C9F0833771F1833509F05BC03E
:100CA0003501F2E06F0E711CF501A080B1806F2D4F
:100CB00070E006FD02C06FEF7FEFC5010E949C1C33
:100CC0009D878C8700680DC0350132E0630E711C72
:100CD000F5018081898321E030E03D872C87540134
:100CE0000F7703FD06C02C853D855216130609F0CB
:100CF000A8F4E52C2BC0350132E0630E711CF50120
:100D0000A080B1806F2D70E006FD02C06FEF7FEF15
:100D1000C5010E94A71C9D878C87E2CFB60180E2A7
:100D200090E00E94EE1C5A94DECFF50107FD8591FC
:100D300007FF81915F01B60190E00E94EE1CE11077
:100D4000EA948C859D8501979D878C87EC85FD8530
:100D5000EF2B59F78CCE843619F0893609F074C020
:100D6000350107FF66C0F4E06F0E711CF50160816C
:100D7000718182819381102F1F7697FF08C0909513
:100D80008095709561957F4F8F4F9F4F10682AE037
:100D900030E0A4010E94361DA82EA818BA2C012FFD
:100DA00016FF0AC00E7FAF1438F414FF04C012FD02
:100DB00002C0012F0E7EBF2C04FF8EC0FE01EA0D83
:100DC000F11D8081803309F080C0097EF02FF8701A
:100DD000EF2E03FD90C000FF8AC0FA2CB51410F46A
:100DE000F50CFB1804FF8DC0B60180E390E00E9473
:100DF000EE1C02FF09C088E790E001FF02C088E511
:100E000090E0B6010E94EE1CAF1408F486C0AA94CC
:100E10000A2D10E00F5F1F4F080D191DF801829178
:100E20008F01B60190E00E94EE1C80169106B1F78A
:100E30001ECEF2E06F0E711CF50160817181072EEC
:100E4000000C880B990B97CF102F8537A9F41F7EC4
:100E50002AE030E0350117FF2FC0F4E06F0E711C5F
:100E6000F5016081718182819381A4010E94361D08
:100E7000A82EA8181F7792CF197F8F36D1F048F48B
:100E8000883591F0F601868197812F96E2E10C94E6
:100E90008D1B803739F08837A9F714FD146020E1E5
:100EA00030E0D8CF1061F9CF04FD166020E132E0C8
:100EB000D1CF28E030E0CECFF2E06F0E711CF5010B
:100EC0006081718190E080E0D0CF02FD02C0B394D8
:100ED0007DCFB394B3947ACF802F867809F476CF00
:100EE000F6CFB60180E290E00E94EE1CB394B514F8
:100EF000C0F3E12C77CFE52CEB18B51408F472CFD2
:100F0000F8CF802F867809F47FCF8BE201FF80E253
:100F100007FD8DE2B60190E075CFB60180E390E069
:100F20000E94EE1CFA9470CF8FEF9FEFAECF24E0BB
:100F3000E12C251508F063CD84E053CD20FD09C0D8
:100F4000FC0123FD05C022FF02C07383628351832D
:100F50004083089544FD17C046FD1DC0DB01FC0120
:100F6000AA0FBB1FEE1FFF1F1094D1F76A0F7B1F44
:100F70008E1F9F1F660F771F881F991F620F711D9D
:100F8000811D911D089533E0660F771F881F991FFB
:100F90003150D1F7F3CF34E0F7CF0F931F93CF93B6
:100FA000DF938C01C8010E94B21CEC0197FD08C0C0
:100FB0000E94801C892BB1F7B801CE010E941E1D32
:100FC000CE01DF91CF911F910F910895B0E0A0E085
:100FD000ECEEF7E00C94771B7C018B016A01D22FB9
:100FE0000E94B21C9C0133272B32310521F02D3297
:100FF000310579F4D0680150110931F480E0CDB7A2
:10100000DEB7ECE00C94931BC7010E94B21C97FD65
:10101000F5CFCD2FCD7F2D2F207309F58033F9F437
:10102000580181E0A81AB10891F0C7010E94B21CD2
:1010300097FD0DC0282F2F7D283569F4C26402501A
:10104000110929F0C7010E94B21C97FF08C0812C2A
:10105000912C54011BC0D6FF2BC0C2608501812C8E
:10106000912C540120ED280F283028F1C4FD09C02F
:101070002A3008F1C6FF05C02F7D3FEE320F363013
:10108000C8F0B7010E941E1DC1FFB8CFC7FF08C03E
:10109000B094A09490948094811C911CA11CB11CCC
:1010A0002C2FB501A401C6010E949E0781E0A7CFA5
:1010B000C261D4CF27504C2FC501B4010E94AA07AA
:1010C0004B015C01C2600150110901F3C7010E948C
:1010D000B21C97FFC7CFD8CFA0E2B0E0E2E7F8E0BC
:1010E0000C94751B5C014B017A01CE0101966C01D9
:1010F00080E2F60111928A95E9F7F501B381890141
:1011000030E020E0612C712CA0E041E050E0F801DB
:10111000B3FD8591B3FF8191982F8F01811107C095
:1011200010E000E0C801A096EEE00C94911B8E3513
:1011300019F42115310541F1A21713064CF48D3530
:1011400049F18D3229F4711006C0772473941DC0C3
:10115000772009F465C0E92FE695E695E695EC0D54
:10116000FD2DF11D892F8770BA0101C0660F8A9588
:10117000EAF78081682B6083691651F0961510F4A8
:101180009F5FE9CF9150E7CFA1E02F5F3F4FBFCFE7
:10119000712CFBCF772019F08E8180628E83AA2379
:1011A00059F0F6019E012F5D3F4F8081809580832D
:1011B0003196E217F307C9F777247394C5010E94AB
:1011C000B21C97FD16C0E82FE695E695E695EC0D66
:1011D000FD2DF11D208130E0AC014770552702C084
:1011E000359527954A95E2F720FD06C0B5010E9486
:1011F0001E1D772071F094CFE114F10429F0F7015E
:101200008083C70101967C0191E0891A9108712CB5
:10121000A9F6E114F10409F485CFF701108282CF19
:10122000E82FE695E695E695EC0DFD2DF11D982F3E
:101230009770BA0101C0660F9A95EAF79081692B01
:101240006083682EA2CF2F923F924F925F926F924F
:101250007F929F92AF92BF92CF92DF92EF92FF92D6
:101260000F931F93CF93DF936C018B011A010E94A0
:10127000B21CEC0199278B32910521F08D97C9F0B2
:10128000B12C20C0B12C01501109B1F480E0DF91E4
:10129000CF911F910F91FF90EF90DF90CF90BF9073
:1012A000AF909F907F906F905F904F903F902F9066
:1012B000089530E8B32EE7CFC6010E94B21CEC01BE
:1012C00097FDE4CFCE010E94891C8936910509F46F
:1012D000C0C08E36910509F4ACC0412C512C3201AE
:1012E000F12CE12C2C2F20539B2C2A3008F0CFC05E
:1012F000689491F88B2D8870B2FEB0C0811103C044
:10130000EFEFEE1AFE0A0150110931F0C6010E94FA
:10131000B21CEC0197FFA0C091FEB8CF8C2F8F7D3F
:10132000853409F042C05801E1E0AE1AB10809F471
:10133000ADCFC6010E94B21CEC0197FDA7CF992743
:101340008B32910521F08D9761F4689494F85801DF
:10135000F2E0AF1AB10809F499CFC6010E94B21C9D
:10136000EC01CE01C0970A9708F090CF10E000E0A2
:10137000B801110F880B990B2C2F205340E20E94CB
:10138000AA078B0121E0A21AB10839F0C6010E9418
:10139000B21CEC01C0970A9758F394FE03C0119554
:1013A00001951109E00EF11E8501012B31F0D7FDE9
:1013B00004C0B601CE010E941E1DC301B2010E94ED
:1013C000761AC3EBD1E0F7FE05C0F194E194F10881
:1013D000CBE9D1E06E01E8E1CE1AD10800E210E0DD
:1013E00067C00150110971F0C6010E94B21C3C0196
:1013F00097FD08C00E94891CF816E9F0B601C301E8
:101400000E941E1DC258D14009F040CF80E090E0FC
:10141000A0E8BFE7BC01CD019B2C97FC905821149C
:10142000310429F0F101608371838283938381E029
:101430002ECFCCE7D1E02196FE013197F490F11048
:10144000D0CFCF57D14011F780E090E0A0ECBFE7BC
:10145000E1CFCFE7D1E0EFCFB92C44CF882319F00B
:10146000F1E0EF1AF10840E2C301B2010E94AA07BD
:101470002B013C0128E9421629E95206620629E1BE
:10148000720608F440CF8B2D8660982E3CCF2E3FFD
:1014900009F042CFB3FC40CF689493F834CFFE01FB
:1014A00025913591459154910E94B31AE01AF10AA1
:1014B000E016F106A0F7249716950795CC15DD05E3
:1014C000B9F7ABCFB0E0A0E0E8E6FAE00C94751B0A
:1014D0005C01EB014A01FC0117821682612CF501C7
:1014E0000381FE0103FD859103FF8191182FEF0118
:1014F0008823E9F090E00E94801C892B21F0C5012F
:101500000E94CD07ECCF153241F4FE0103FD159189
:1015100003FF1191EF01153269F4C5010E94B21C5D
:1015200097FD96C01817D9F2B5010E941E1D862D91
:1015300090E092C0712C1A3239F403FD159103FF2B
:101540001191EF0177247394F12CE12C20ED210F00
:101550002A3050F171FE38C0E114F10441F318361D
:10156000B9F11C3609F43FC0112309F3612F70E073
:101570008AE691E00E94911C892BC9F2D12CC12CE2
:1015800070FC06C0F401C080D180C40102964C01F9
:101590001E3691F5F5014681578170E060E0272DF8
:1015A000C6010E949E079BCF689471F8B70190E036
:1015B00080E040E20E94AA077B01FE0103FD159135
:1015C00003FF1191EF01C2CFEE24EA94FE2CC7CFA6
:1015D000FE0103FD159103FF1191EF01183609F08B
:1015E000C3CF689473F8689472F8FE0103FD1591F7
:1015F00003FF1191EF01B8CF1336D1F471FC03C092
:10160000EE24E394F12CC5010E94B21C97FD20C08A
:10161000C114D10429F0F6018083C60101966C0142
:1016200091E0E91AF10879F770FC59CF639457CF2C
:101630001B35B9F49E01A601B701C5010E946C08D3
:10164000EC01892B89F7F5018381807309F46FCF51
:101650008FEF9FEF61106BCFCDB7DEB7EEE00C944C
:10166000911BC5010E94CD0797FDF2CF1F3609F4EB
:1016700047C090F4143609F440C0193621F01835EB
:1016800081F4689476F8272DA601B701C5010E9460
:10169000E6078111C9CFD7CF1337D1F040F4103707
:1016A00081F3A601B701C5010E942309F2CF1537C6
:1016B00021F1183731F3F5CFC114D10429F0F60127
:1016C0000083C60101966C0191E0E91AF10871F0FE
:1016D000C5010E94B21C8C0197FD08C00E94801CAD
:1016E000892B51F3B501C8010E941E1DC114D104FC
:1016F00009F49ACFF601108297CF689475F8C3CF9A
:10170000689474F8C0CFCF93DF93CDB7DEB76B97F3
:101710000FB6F894DEBF0FBECDBF789484B582605B
:1017200084BD84B5816084BD85B5826085BD85B585
:10173000816085BD80916E00816080936E00109203
:10174000810080918100826080938100809181007E
:10175000816080938100809180008160809380000F
:101760008091B10084608093B1008091B00081606D
:101770008093B00080917A00846080937A00809199
:101780007A00826080937A0080917A0081608093F1
:101790007A0080917A00806880937A001092C1006C
:1017A000109253041092520410925104109250045B
:1017B00010924F0410924E0410924D0410924C045B
:1017C00010924B0410924A0480E18093C40010925E
:1017D000C50088E98093C10082E38093B30081E073
:1017E0008093700083E08093B0008BE08093B10021
:1017F0005F9828982998579A209A219A2A982B9886
:101800002C98229A239A249A80E680937C0087E879
:1018100080937A005B9A5C9A2D9A0E943F02E09135
:101820000301F0910401EE0FFF1FEE0FFF1FEE58B2
:10183000FA4F80E090E0A6ECB2EC80839183A28323
:10184000B383E0910A01F0910B01EE0FFF1FEE0F41
:10185000FF1FEE58FA4F80839183A283B383E091F8
:101860001101F0911201EE0FFF1FEE0FFF1FEE5856
:10187000FA4F80839183A283B38310925504109210
:10188000540469E071E08AE093E00E941001892B22
:10189000C1F78091540490915504892BD1F30091A4
:1018A0000101109102010115110509F0BBC08091E1
:1018B000B9049091BA04892B09F450C21092A3057F
:1018C0001092A20588E694E0909357048093560402
:1018D0000E9429017C01009709F49CC068E173E033
:1018E0000E94281F892B09F095C0CE010A969F936C
:1018F0008F9302969F938F9380E293E09F938F93B1
:10190000FF92EF920E94651F0FB6F894DEBF0FBEE4
:10191000CDBF029709F41FC18091A2059091A30544
:1019200080619093A3058093A20570E3C72E73E0B6
:10193000D72E90E080E00E943D017C01009709F0E5
:101940001BC18091580490915904019690935904B9
:10195000809358040B970CF084C10330110509F4EF
:10196000B3C10CF083C10130110509F493C10230F9
:10197000110509F49CC18E859F85A889B98980933A
:10198000A6059093A705A093A805B093A9050F5F9E
:101990001F4F0630110569F690E080E00E943D017E
:1019A0008C01009779F042E050E064E373E00E941C
:1019B0001A1F892B09F0A2C181E090E09093BF0526
:1019C0008093BE0590E080E00E943D018C0100976D
:1019D00079F042E050E064E373E00E941A1F892B23
:1019E00009F0A4C181E090E09093C1058093C00507
:1019F0008091A2059091A30581719927892B21F4EB
:101A0000109259041092580440915804509159046E
:101A10005B8F4A8F6A8D7B8D672B21F41092670450
:101A20001092660410920201109201011092BA0401
:101A30001092B9048091600590916105A0916205B2
:101A4000B09163058093620490936304A09364044F
:101A5000B09365048091600490916104892BB1F486
:101A600088E694E090935F0480935E0482E091E0C6
:101A700090935D0480935C0410925B0410925A046E
:101A800081E590E090936104809360048091A205C9
:101A90009091A30581719927892B09F4E8C1549885
:101AA00086E090E00E94DA01BC01990F880B990B47
:101AB0000E94781A20E030E04FE753E40E94091EAC
:101AC00020E030E040EA50E40E94B31A26E636E611
:101AD00046EB50E40E94B31A60939E0570939F05F5
:101AE0008093A0059093A10520E030E040E051E410
:101AF0000E94041E87FFBDC15398609160057091DC
:101B00006105809162059091630528EE33E040E025
:101B100050E00E94CC1E3093C3052093C20502E71B
:101B200015E06EE9E62E65E0F62ED8016D917D9107
:101B30008D919D918D0120E030E046EC52EC0E94A9
:101B4000041E882311F40C94401AE016F10669F77C
:101B5000259A0C94411A2C853D854CE3429FC00187
:101B6000439F900D11242A853B85820F931F9093EC
:101B7000A5058093A405D9CE44E050E066E273E069
:101B80000E941A1F0097D9F42091A2053091A30555
:101B9000A801445051094230510510F084E090E012
:101BA000822B932B9093A3058093A20540E050E0F5
:101BB00066EC72EC4E875F87688B798BCECE44E003
:101BC00050E06BE273E0C7010E941A1F892B91F469
:101BD0008091A2059091A30588609093A3058093BE
:101BE000A20560E070E084EC92EC6E877F87888BC2
:101BF000998BB3CE81E090E08C0F9D1F9F938F93C4
:101C0000DF92CF92FF92EF920E94651F0F900F908C
:101C10000F900F900F900F900197D1F08091A20537
:101C20009091A30580619093A3058093A205809174
:101C30005804909159040196909359048093580444
:101C40000B970CF48ACE60E070E082EC92ECCDCF82
:101C500029813A814B815C812E873F87488B598B44
:101C60007CCE40E050E060EC72ECA4CF0430110573
:101C7000C1F10530110509F07ECE2E853F854889DA
:101C800059892093BA053093BB054093BC05509306
:101C9000BD057DCE2E853F85488959892093AA05AB
:101CA0003093AB054093AC055093AD0570CE4E8597
:101CB0005F85688979894093AE055093AF0560933D
:101CC000B0057093B10563CE6E857F85888999894B
:101CD0006093B2057093B3058093B4059093B505F6
:101CE00056CE8E859F85A889B9898093B605909335
:101CF000B705A093B805B093B90549CE43E050E0CD
:101D000067E373E0C8010E941A1F892B29F410921F
:101D1000BF051092BE0556CE8091A2059091A305F5
:101D200080619093A3058093A2054CCE43E050E0E0
:101D300067E373E0C8010E941A1F892B29F41092EF
:101D4000C1051092C00554CE8091A2059091A305C3
:101D500080619093A3058093A2054ACEC090600550
:101D6000D0906105E0906205F09063058091620477
:101D700090916304A0916404B0916504A701960159
:101D8000281B390B4A0B5B0BCA01B90128EE33E063
:101D900040E050E00E94CC1E253131050CF476CE97
:101DA000C0926204D0926304E0926404F0926504ED
:101DB0000091660410916704053011050CF066CEA1
:101DC0000F5F1F4F10936704009366048BE393E04B
:101DD0000E94BC010530110509F058CE8FE493E054
:101DE0000E94BC0181E090E09093A3058093A2053E
:101DF00080E090E0AEEBB2EC8093A6059093A7054F
:101E0000A093A805B093A9058093AA059093AB056C
:101E1000A093AC05B093AD058093AE059093AF054C
:101E2000A093B005B093B1058093B2059093B3052C
:101E3000A093B405B093B5058093B6059093B7050C
:101E4000A093B805B093B9058093BA059093BB05EC
:101E5000A093BC05B093BD0581EA9FEF9093BF05A9
:101E60008093BE059093C1058093C0050FCE549A10
:101E700017CE539A42CEC0904C0580914B05C81A9C
:101E80006090050150900C012090130148E1342E20
:101E900057E0452ECC2011F40C946E1A70904B052F
:101EA000E72DEF77F0E0E553FB4F80812091CA04E6
:101EB000422F022E000C550B90E027FF25C05195B4
:101EC0004195510902C0959587954A95E2F7092EEB
:101ED000000CAA0BBB0B8093C6049093C704A0937D
:101EE000C804B093C904285F2093CA04F090CA04C0
:101EF0000091C4041091C504F3E1FF15E4F073945C
:101F000070924B05CA94C6CFB0E0A0E0022E04C088
:101F1000880F991FAA1FBB1F0A94D2F74091C604CD
:101F20005091C7046091C8047091C904842B952B0B
:101F3000A62BB72BD0CF0115110509F45CC00330D7
:101F40001105D0F680E00E948601E82E81E00E9413
:101F50008601D82E82E00E9486016D2D0D2C000C8A
:101F6000770B77FF03C07195619571092E2D0E2CAB
:101F7000000C330B37FF03C0319521953109482FF1
:101F8000082E000C550B57FF03C051954195510980
:101F9000621773070CF471C0641775070CF473C0F3
:101FA0008D2D91E00230110509F49FC089320CF4A7
:101FB0006CC08091C3048F5F8093C30489E0890F54
:101FC0004091C6045091C7046091C8047091C9043F
:101FD00004C076956795579547958A95D2F74093B3
:101FE000C6045093C7046093C8047093C90437EFC4
:101FF000F30EF91A3FC08091C6049091C704A091D6
:10200000C804B091C904AC01BD0176956795579598
:1020100047958A019B010E771127222733270E301F
:10202000110521053105E9F4E1E0E093C3042AE05C
:10203000B695A795979587952A95D1F78093C6046D
:102040009093C704A093C804B093C90486EF8F0D82
:102050008093CA0421E030E03093C5042093C40487
:1020600045CF4093C6045093C7046093C80470934F
:10207000C904FA94F092CA0439CF241735071CF02A
:102080008E2D90E08FCF92E08DCF883D0CF0D9C09F
:102090008091C3048B3008F4D4C04FEF4093C20446
:1020A00089E0890F4091C6045091C7046091C8042B
:1020B0007091C90404C076956795579547958A95A0
:1020C000D2F74093C6045093C7046093C80470933A
:1020D000C90457EFF50EF91AF092CA0462E070E0F5
:1020E0007093C5046093C40401CF28E2280F213502
:1020F00008F4A7C02091C20427FD13C0E22FE59584
:10210000E595E5950E2E000CFF0BE454FB4F408146
:1021100050E0440F551F31E018160CF030E0432B0F
:1021200040832F5F2093C20489E0890F4091C60449
:102130005091C7046091C8047091C90404C0769599
:102140006795579547958A95D2F74093C604509363
:10215000C7046093C8047093C90477EFF70EF91AA7
:10216000F092CA04203309F0C1CE4091C104ECEBD7
:10217000F4E094E68CE7319128E0582F517080FB11
:10218000879587F95111832537FD9827330F215003
:10219000A1F7A1ECB4E0AE17BF0769F7491351C02E
:1021A0008091BC04853409F04CC08091C004853610
:1021B00008F047C08091BE04682F677070E0762FEA
:1021C00066279091BF04690F711D9B01285C31093E
:1021D00029373540B0F5807782958F708F5F8615EF
:1021E000A9F18515B1F182112CC082E090E0489EE2
:1021F0009001499E300D1124F901ED5FFE4F7F01E2
:1022000000811181000F111F000F111F0E581A4F6E
:1022100060597140072E000C880B990B0E94781AA8
:1022200020E030E040E251E40E94091ED8016D93A5
:102230007D938D939C931397F70183829482A5825B
:10224000B6821092C5041092C40450CE90E080E093
:10225000CECF81E090E0CBCFF80183819481A5813E
:10226000B681A5019401281B390B4A0B5B0BCA01EF
:10227000B90128EE33E040E050E00E94CC1E293541
:1022800032408CF0D801ED91FC91EE0FFF1FEE0F64
:10229000FF1FEE58FA4F20E030E046EC52EC20836E
:1022A000318342835383095F1F4FE016F106A1F685
:1022B00083E090E00E94DA0110E000E0853D9105A6
:1022C00064F402E010E0853991053CF401E010E08F
:1022D0008337910514F403E010E087E090E00E945A
:1022E000DA01853D91052CF4853991050CF43CC249
:1022F000086010936D0500936C0560916005709106
:1023000061058091620590916305C0905005D09061
:102310005105E0905205F09053056C197D098E0926
:102320009F0928EE33E040E050E00E94CC1E2531AA
:1023300031050CF401C32090A6053090A70540900C
:10234000A8055090A9058090AA059090AB05A09093
:10235000AC05B090AD0520E030E04EEB52ECC20190
:10236000B1010E94041E18160CF009C220E030E0F2
:102370004EEB52ECC501B4010E94041E18160CF07D
:10238000FCC120E030E043E453E4C201B1010E940B
:102390009F1E18160CF4EFC1FF24F39420E030E0E8
:1023A00045E253E4C501B4010E949F1E18160CF0CB
:1023B000F12C8F2D8A8B20E030E04EEB52ECC501E2
:1023C000B4010E94041E1816B4F420E030E04DE47D
:1023D00053E4C201B1010E949F1EEE24E39418163B
:1023E0005CF020E030E04AE253E4C501B4010E9411
:1023F0009F1E18160CF0E12C20E030E04EEB52EC62
:10240000C201B1010E94041E1816E4F420E030E07D
:102410004EEB52ECC501B4010E94041E181694F450
:1024200020E030E040E251E4C501B4010E94981D73
:102430009B01AC0177247394C201B1010E949F1EDD
:1024400018160CF0712C2090720530907305409096
:1024500074055090750520E030E046EC52ECC20166
:10246000B1010E94041E20E030E04EEB52EC8823C4
:1024700009F488C1C501B4010E94041E18160CF0AD
:1024800016C26801B4E0CB22DD2402FD10C220E0B8
:1024900030E040E952E4C201B1010E94041E87FF0E
:1024A0000EC06624639420E030E04AEF52E4C50198
:1024B000B4010E949F1E18160CF0612CC62C6C2CC7
:1024C00020E030E04EEB52ECC501B4010E94041E46
:1024D00018160CF4D1C1F12C6CC180914E0590916D
:1024E0004F05892BB1F40E943F02892B19F00E94FD
:1024F0007B01DECE81E090E090934F0580934E0506
:102500000E941302892B89F40E947B010E945C01C6
:10251000CFCE0E947E01892B09F4CACE8FE39CE9BD
:102520000197F1F700C00000EBCF8CEC90E00E9427
:10253000E80184E490E00E94E8019FEFA3EDB0E39E
:102540009150A040B040E1F700C0000008E111E068
:1025500078E7872E71E0972E1E01EAE02E0E311CDF
:102560008016910621F2D8011A968C91882309F4DD
:1025700068C00E941302892B39F285E590E00E9421
:10258000E8017801B2E0EB0EF11C6801EAE0CE0E42
:10259000D11CD7018D917D0190E00E94E801CE14FD
:1025A000DF04B9F78EEB90E00E94E801FE0131965E
:1025B0007F0150E040E029E030E081E090E019C088
:1025C000F8945A985E98B0E1BA95F1F75A9A6AE48D
:1025D0006A95F1F700C069B1AFEBB0E01197F1F780
:1025E00000C00000789465FF02C0482B592B880F6B
:1025F000991F2150310921F7D7014D937D012A16EA
:102600003B06B9F66985AF01485F5F4F80E04E1722
:102610005F07D1F4681751F1F80183858A3018F10A
:102620000190F081E02DEE0FFF1FEE0FFF1FEE581F
:10263000FA4F20E030E046EC52EC208331834283B5
:102640005383045F1F4F8CCF919128E030E0782FA7
:102650007927869570FF02C0BCE88B27969521509C
:102660003109A9F7D4CF8F5F8387EBCF6A81862F9B
:1026700090E0982F88276981680F792F711D072EA8
:10268000000C880B990B0E94781A20E030E040E89B
:102690005DE30E94B31A20E030E040E151E40E9483
:1026A000B31A20E030E040EA50E40E94091E20E026
:1026B00030E040E052E40E94981D6B017C01F8017B
:1026C000A080B180AA0CBB1CAA0CBB1CF501EE5863
:1026D000FA4F408051806280738020E030E046EC09
:1026E00052ECC301B2010E94041E882391F120E044
:1026F00030E040EA50E4C301B2010E94981D9B0102
:10270000AC01C701B6010E949F1E181654F420E0C8
:1027100030E040E05FE3C701B6010E94981D6B0105
:102720007C0120E030E040EA50E4C301B2010E94A5
:10273000971DA70196010E949F1E181654F420E0D1
:1027400030E040E05FE3C701B6010E94971D6B01D6
:102750007C01F501EE58FA4FC082D182E282F38209
:10276000D8011B961C926DCF8337910514F004603D
:10277000C0CD0C60BECD81E01DCE1A8A3CCE1A8A37
:10278000E12C60CEC501B4010E94041E18160CF0A5
:102790008EC002FD8CC0FF24F39420E030E04CE8B2
:1027A00052E4C501B4010E949F1E18160CF0F12CD2
:1027B000612C6801E2E0CE22DD2481E001FD43C00E
:1027C0002090B6053090B7054090B8055090B905F7
:1027D00020E030E04EEB52ECC201B1010E94041E39
:1027E00018160CF066C020E030E04EEB52ECC5014C
:1027F000B4010E94041E18160CF05BC003FF59C000
:1028000020E030E04AEA52E4C201B1010E949F1E7A
:102810001816C4F420E030E044EC52E4C201B101E7
:102820000E94041E87FF0EC04424439420E030E041
:102830004AEF52E4C501B4010E949F1E18160CF025
:10284000412CC42C8C2DA8014170552700FF33C0AA
:10285000F11005C0FA89FF2391F1662081F1942FD0
:102860002A89222379F1442309F411C231E020E0BE
:10287000E11031C030E02FC020E030E04CE952E4FC
:10288000C201B1010E94041E87FF25CE20E030E086
:1028900040E050E4C201B1010E94981DFF24F3946E
:1028A000A50194010E94041E87FD83CF14CE612CE4
:1028B00012CE80E0C8CF41E050E06110D0CF4E2D65
:1028C00050E0CDCF31E020E0E11001C030E09111C7
:1028D00002C07110DFC190E050936B0540936A0510
:1028E000909369058093680530936605209367058A
:1028F000452B09F4D2C1299A809168059091690508
:10290000892B09F4CCC1289A8091660590916705BE
:10291000892B09F4C6C12A9A8091600590916105BE
:10292000A0916205B0916305809350059093510585
:10293000A0935205B0935305C0906005D0906105F7
:10294000E0906205F09063058091560590915705DF
:10295000A0915805B0915905A7019601281B390B84
:102960004A0B5B0BCA01B90128EE33E040E050E0AE
:102970000E94CC1E253131055CF181E090E00E947F
:10298000DA018C01909355058093540590E080E026
:102990000E94DA0121E030E00038110514F030E047
:1029A00020E0309371052093700521E030E0803EF7
:1029B000910514F030E020E030936F0520936E0510
:1029C000C0925605D0925705E0925805F0925905ED
:1029D00080915E0590915F05892B11F180915A05D8
:1029E00090915B05A0915C05B0915D05A7019601F2
:1029F000281B390B4A0B5B0BCA01B90128EE33E0E7
:102A000040E050E00E94CC1E2B3031054CF08AE6AD
:102A100093E00E94BC0110925F0510925E055F98E2
:102A200060916005709161058091620590916305E8
:102A300000915A0510915B0520915C0530915D0570
:102A4000601B710B820B930B28EE33E040E050E0EB
:102A50000E94CC1E293532400CF4BAC04090A60525
:102A60005090A7056090A8057090A90520E030E07F
:102A70004EEB52ECC301B2010E94041E18160CF07A
:102A800012C18091AA059091AB05A091AC05B091BF
:102A9000AD058A8B9B8BAC8BBD8B20E030E04EEB81
:102AA00052ECBC01CD010E94041E18160CF0FBC0B4
:102AB00020918205309183054091840550918505D0
:102AC0002E8B3F8B488F598F20E030E046EC52EC44
:102AD0006E897F89888D998D0E94041E882309F450
:102AE000E2C0C0908605D0908705E0908805F09000
:102AF000890520E030E046EC52ECC701B6010E94A7
:102B0000041E882309F4CFC080907A0590907B053D
:102B1000A0907C05B0907D0520E030E046EC52ECC2
:102B2000C501B4010E94041E882309F4BCC020E042
:102B300030E040EA51E4C301B2010E94981D9B01BC
:102B4000AC016A897B898C899D890E949F1E181619
:102B50000CF0A9C020E030E040E251E4C501B4012E
:102B60000E94981D9B01AC01C701B6010E94041E82
:102B700087FF99C020E030E040E251E4C701B60190
:102B80000E94981D9B01AC016E897F89888D998D6B
:102B90000E949F1E18160CF086C086E893E00E94E3
:102BA000BC0181E090E090935F0580935E055F9AA1
:102BB0008091600590916105A0916205B0916305D7
:102BC00080935A0590935B05A0935C05B0935D05D7
:102BD0008091F6029091F702892B09F44EC0809102
:102BE000600590916105A0916205B09163054091E7
:102BF0008D0650918E0660918F0670919006841B11
:102C0000950BA60BB70B89389341BCF180918B06CD
:102C100090918C068130910509F460C08230910555
:102C200009F47DC0892B49F51092F7021092F60243
:102C30001F928AE08F931F928DE08F9387E392E03B
:102C40009F938F9385EE93E09F938F9384EC95E011
:102C50009F938F930E94421F6BEF70E084EC95E08E
:102C60000E94100181E090E090938C0680938B0687
:102C70000FB6F894DEBF0FBECDBF80E090E0892B89
:102C800011F40C944F0C0E9400000C944F0C31E096
:102C900020E01FCE81E090E01FCE29982DCE28980D
:102CA00033CE2A9839CE8091BE059091BF05892BED
:102CB00009F08ECF20E030E040EC50E460919E05BA
:102CC00070919F058091A0059091A1050E949F1E83
:102CD00018160CF07DCF8FEA93E061CF1092F702C7
:102CE0001092F6021F928AE08F931F928DE08F93CD
:102CF00088E791E09F938F9385EE93E09F938F9366
:102D000084EC95E09F938F930E94421F6BEF70E0DD
:102D100084EC95E00E94100182E090E0A5CF209124
:102D2000C2053091C305ECE3F0E0C901BF010E9488
:102D3000A41E9F938F93CB01BF010E94A41E9F935B
:102D40008F93C90160E17EE00E94A41E7F936F9380
:102D50001F921F928CEE93E09F938F9384EC95E0EB
:102D60009F938F930E94421F0FB6F894DEBF0FBE51
:102D7000CDBFF12CE12CE4ECAE2EE5E0BE2EF0E26E
:102D8000CF2EF4E0DF2E92E0E916F10409F453C0EF
:102D9000A3E0EA16F10409F457C0B1E0EB16F10420
:102DA00009F440C09090A6058090A7057090A805F2
:102DB0006090A905F50101900020E9F78F0101500D
:102DC00011098091A20568E074E080FD10C020E048
:102DD00030E046EC52ECD401F3016B2F782D8F2FAD
:102DE000962D0E94041E811138C060E174E0C80174
:102DF0000E94131FFFEFEF1AFF0A24E0E216F1040E
:102E000011F68091BE059091BF05823A3FEF93077E
:102E10000CF444C021E033E0892B09F041C02CEFD1
:102E200032E03EC09090AA058090AB057090AC0552
:102E30006090AD05BFCF9090B6058090B7057090BB
:102E4000B8056090B905B6CF9090BA058090BB05E3
:102E50007090BC056090BD05ADCF20E030E044EC43
:102E600052ECD401F3016B2F782D8F2F962D0E94F9
:102E7000041E68E174E0882309F4B9CF6F927F9251
:102E80008F929F92DF92CF921F930F930E94421FC7
:102E90000FB6F894DEBF0FBECDBFACCF28EF32E047
:102EA00084EC95E0DC010D900020E9F7CD013F9323
:102EB0002F9328E234E03F932F9301979F938F93B2
:102EC0000E94421F8091C0059091C1050F900F9004
:102ED0000F900F900F900F9028EF32E0823ABFEFE3
:102EE0009B0734F021E033E0892B11F42CEF32E022
:102EF00004EC15E0F80101900020E9F7CF013F93C1
:102F00002F9328E234E03F932F9301979F938F9361
:102F10000E94421FD8010D900020E9F7CD011F92B9
:102F20001F921F921F925CE2E52E54E0F52EFF9255
:102F3000EF9201979F938F930E94421FF801019097
:102F40000020E9F78F018091A1058F938091A00562
:102F50008F9380919F058F9380919E058F93FF9211
:102F6000EF92015011091F930F930E94421F0FB659
:102F7000F894DEBF0FBECDBFF12CE12C64ECA62E81
:102F800065E0B62E7AE3C72E74E0D72EF7013197AD
:102F9000E930F10568F4E153F84E0C94EB1EC419C6
:102FA000CD19D619DF19E819F119FA19031A0C1AF3
:102FB000909072058090730570907405609075050F
:102FC000F50101900020E9F78F010150110920E07F
:102FD00030E046EC52ECD401F3016B2F782D8F2FAB
:102FE000962D0E94041E811120C263E374E0C80183
:102FF0000E94131F5FEFE51AF50A6AE0E616F10476
:1030000009F0C4CF809170059091710520E033E004
:10301000892B11F425E033E084EC95E0DC010D9080
:103020000020E9F7CD013F932F9328E234E03F934E
:103030002F9301979F938F930E94421F0F900F90A1
:103040000F900F900F900F9080916E0590916F05EB
:1030500020E033E0892B11F425E033E084EC95E0A7
:10306000FC0101900020E9F7CF013F932F9328E264
:1030700034E03F932F9301979F938F930E94421FB9
:1030800080916C050F900F900F900F900F900F9004
:1030900020E033E080FD02C025E033E084EC95E0E1
:1030A000DC010D900020E9F7CD013F932F9328E23A
:1030B00034E03F932F9301979F938F930E94421F79
:1030C00080916C050F900F900F900F900F900F90C4
:1030D00020E033E081FD02C025E033E084EC95E0A0
:1030E000FC0101900020E9F7CF013F932F9328E2E4
:1030F00034E03F932F9301979F938F930E94421F39
:1031000080916C050F900F900F900F900F900F9083
:1031100020E033E082FD02C025E033E084EC95E05E
:10312000DC010D900020E9F7CD013F932F9328E2B9
:1031300034E03F932F9301979F938F930E94421FF8
:1031400080916C050F900F900F900F900F900F9043
:1031500020E033E083FD02C025E033E084EC95E01D
:10316000FC0101900020E9F7CF013F932F9328E263
:1031700034E03F932F9301979F938F930E94421FB8
:103180000F900F900F900F900F900F9080916A0505
:1031900090916B0520E033E0892B11F425E033E0BA
:1031A00084EC95E0DC010D900020E9F7CD013F9320
:1031B0002F9328E234E03F932F9301979F938F93AF
:1031C0000E94421F0F900F900F900F900F900F9042
:1031D000809168059091690520E033E0892B11F416
:1031E00025E033E004EC15E0F80101900020E9F758
:1031F000CF013F932F9348E2E42E44E0F42EFF9258
:10320000EF9201979F938F930E94421FD8010D90D8
:103210000020E9F78D0185E093E09F938F93FF9263
:10322000EF92015011091F930F930E94421F0FB696
:10323000F894DEBF0FBECDBF809166059091670503
:1032400020E033E0892B11F425E033E004EC15E0B5
:10325000D8010D900020E9F7CD013F932F9328E28C
:10326000E22E24E0F22EFF92EF9201979F938F932C
:103270000E94421FF80101900020E9F7CF0135E0DC
:10328000C32E33E0D32EDF92CF92FF92EF920197BD
:103290009F938F930E94421FD8010D900020E9F761
:1032A000CD01DF92CF92FF92EF9201979F938F9380
:1032B0000E94421FF0909A05E0909B05D0909C05DB
:1032C000C0909D05F80101900020E9F78F010150A1
:1032D00011090FB6F894DEBF0FBECDBF20E030E07D
:1032E00046EC52ECD701F6016B2F7A2F8F2F9E2FD1
:1032F0000E94041E8111A9C063E374E0C8010E940A
:10330000131F84EC95E0DC010D900020E9F7CD015E
:103310001F922AE02F931F922DE02F9327EE33E088
:103320003F932F9301979F938F930E94421F109278
:10333000F7021092F6028091600590916105A091CC
:103340006205B091630580938D0690938E06A093DD
:103350008F06B09390066BEF70E084EC95E00E94CE
:103360001001809164059091650501960FB6F8945F
:10337000DEBF0FBECDBF8431910509F478C09093B4
:1033800065058093640579CC9090760580907705EB
:10339000709078056090790513CE90907A058090B2
:1033A0007B0570907C0560907D050ACE90907E052F
:1033B00080907F05709080056090810501CE90908F
:1033C0008205809083057090840560908505F8CD16
:1033D000909086058090870570908805609089059B
:1033E000EFCD90908A0580908B0570908C05609051
:1033F0008D05E6CD90908E0580908F05709090059C
:1034000060909105DDCD909092058090930570902D
:10341000940560909505D4CD909096058090970581
:103420007090980560909905CBCD6F927F928F92A6
:103430009F92DF92CF921F930F930E94421F0FB66D
:10344000F894DEBF0FBECDBFD5CDCF92DF92EF9205
:10345000FF928AE394E09F938F931F930F930E94B0
:10346000421F0FB6F894DEBF0FBECDBF4ACF1092F9
:1034700065051092640510928C0610928B06FDCBA8
:1034800025988090600590906105A0906205B090AD
:103490006305C501B40128EE33E040E050E00E942E
:1034A000CC1EC90168E770E00E94B81E60FD02C032
:1034B0000C946D1280914D0581110C943B0F10926C
:1034C0004C051092BB0410924B051092CA04109246
:1034D000C5041092C40481E080934D0503E011E01F
:1034E000E8E1EE2EE1E0FE2E0C945511E89409C0BF
:1034F00097FB3EF490958095709561957F4F8F4F27
:103500009F4F9923A9F0F92F96E9BB279395F6953C
:10351000879577956795B795F111F8CFFAF4BB0FBA
:1035200011F460FF1BC06F5F7F4F8F4F9F4F16C01E
:10353000882311F096E911C0772321F09EE8872FA8
:10354000762F05C0662371F096E8862F70E060E064
:103550002AF09A95660F771F881FDAF7880F9695DD
:10356000879597F908950E94C61A0C94371B0E94FC
:10357000291B38F00E94301B20F0952311F00C9489
:10358000201B0C94261B11240C946B1B0E94481BBF
:1035900070F3959FC1F3950F50E0551F629FF001A6
:1035A000729FBB27F00DB11D639FAA27F00DB11DBF
:1035B000AA1F649F6627B00DA11D661F829F222748
:1035C000B00DA11D621F739FB00DA11D621F839FCF
:1035D000A00D611D221F749F3327A00D611D231FA5
:1035E000849F600D211D822F762F6A2F11249F57F3
:1035F00050409AF0F1F088234AF0EE0FFF1FBB1FF6
:10360000661F771F881F91505040A9F79E3F5105B4
:1036100080F00C94201B0C946B1B5F3FE4F3983EEE
:10362000D4F3869577956795B795F795E7959F5F5E
:10363000C1F7FE2B880F911D9695879597F90895F0
:1036400097F99F6780E870E060E008959FEF80EC55
:10365000089500240A9416161706180609060895F8
:1036600000240A9412161306140605060895092E5E
:103670000394000C11F4882352F0BB0F40F4BF2BCD
:1036800011F460FF04C06F5F7F4F8F4F9F4F08950D
:1036900057FD9058440F551F59F05F3F71F0479503
:1036A000880F97FB991F61F09F3F79F087950895E8
:1036B000121613061406551FF2CF4695F1DF08C007
:1036C000161617061806991FF1CF86957105610524
:1036D00008940895E894BB2766277727CB0197F9CC
:1036E00008952F923F924F925F926F927F928F92A6
:1036F0009F92AF92BF92CF92DF92EF92FF920F9381
:103700001F93CF93DF93CDB7DEB7CA1BDB0B0FB68A
:10371000F894DEBF0FBECDBF09942A883988488847
:103720005F846E847D848C849B84AA84B984C884DD
:10373000DF80EE80FD800C811B81AA81B981CE0FD4
:10374000D11D0FB6F894DEBF0FBECDBFED010895B9
:10375000283008F027E03327DA01990F311D87FD63
:10376000916000966105710539F432602E5F3D93DA
:1037700030E32A95E1F708959F3F30F080387105D6
:10378000610509F03C5F3C5F3D93913008F0806833
:10379000911DDF93CF931F930F93FF92EF92192FF9
:1037A000987F9695E92F96959695E90FFF27E65312
:1037B000FF4F99273327EE24FF24A701E701059047
:1037C0000894079428F4360FE71EF81E491F511D70
:1037D000660F771F881F991F0694A1F7059007941D
:1037E00028F4E70EF81E491F561FC11D770F881FCA
:1037F000991F661F0694A1F70590079428F4F80E08
:10380000491F561FC71FD11D880F991F661F771F9D
:103810000694A1F70590079420F4490F561FC71F7F
:10382000D81F990F661F771F881F0694A9F78491E8
:103830001095177041F0D695C79557954795F79411
:10384000E7941A95C1F7E0E7F0E0689415901591B8
:1038500035916591959105907FE27395E118F10A94
:10386000430B560BC90BD009C0F7E10CF11E431FE7
:10387000561FC91FD01D7EF4703311F48A95E6CF10
:10388000E894015030F0080F0AF40027021708F4FA
:10389000202F2395022F7A3328F079E37D932A9500
:1038A000E9F710C07D932A9589F606949795679558
:1038B000379517951794E118F10A430B560BC90B6E
:1038C000D00998F023957E9173957A3308F070E3D0
:1038D0007C932013B8F77E9170617D9330F08395CF
:1038E00071E37D9370E32A95E1F71124EF90FF9047
:1038F0000F911F91CF91DF91992787FD90950895A2
:1039000091110C94941D803219F089508550C8F79C
:1039100008959111089581548A5108F4805E855A62
:103920000895FC010590061621F00020D9F7C0018A
:1039300008953197CF010895FC01059061507040C2
:103940000110D8F7809590958E0F9F1F0895FC0168
:103950006150704001900110D8F7809590958E0FBE
:103960009F1F0895CF93DF93EC012B8120FF1AC096
:1039700026FF0CC02F7B2B838E819F8101969F8316
:103980008E838A8190E0DF91CF91089522FF18C045
:10399000E881F9818081082E000C990B009729F4A9
:1039A00020622B838FEF9FEFEECF3196F983E88370
:1039B0002E813F812F5F3F4F3F832E839927E3CF97
:1039C000EA85FB85099597FFF3CF2B81019621F0BE
:1039D00080E2822B8B83E6CF80E1FBCF0F931F9396
:1039E000CF93DF93182F092FEB018B8181FD09C045
:1039F0001FEF0FEF812F902FDF91CF911F910F912C
:103A0000089582FF14C02E813F818C819D812817EB
:103A100039073CF4E881F981CF01019699838883C5
:103A200010838E819F8101969F838E83E3CFE885EB
:103A3000F985812F0995892BA1F3DACFFB01238129
:103A400020FF11C026FD0FC08F3F980771F08283C1
:103A50002F7D2064238326813781215031093783CC
:103A60002683992708958FEF9FEF0895FA01AA27DB
:103A7000283051F1203181F1E8946F936E7F6E5FB1
:103A80007F4F8F4F9F4FAF4FB1E03ED0B4E03CD05F
:103A9000670F781F891F9A1FA11D680F791F8A1F42
:103AA000911DA11D6A0F711D811D911DA11D20D0A9
:103AB00009F468943F912AE0269F11243019305D63
:103AC0003193DEF6CF010895462F4770405D419354
:103AD000B3E00FD0C9F7F6CF462F4F70405D4A33A1
:103AE00018F0495D31FD4052419302D0A9F7EACF69
:103AF000B4E0A6959795879577956795BA95C9F798
:103B000000976105710508959B01AC010A2E06948A
:103B10005795479537952795BA95C9F7620F731F43
:103B2000841F951FA01D0895992788270895505830
:103B3000BB27AA270E94AF1D0C94371B0E94291B8C
:103B400038F00E94301B20F039F49F3F19F426F41E
:103B50000C94261B0EF4E095E7FB0C94201BE92F38
:103B60000E94481B58F3BA1762077307840795072A
:103B700020F079F4A6F50C946A1B0EF4E0950B2E58
:103B8000BA2FA02D0B01B90190010C01CA01A001AF
:103B90001124FF27591B99F0593F50F4503E68F10A
:103BA0001A16F040A22F232F342F4427585FF3CF4B
:103BB000469537952795A795F0405395C9F77EF41C
:103BC0001F16BA0B620B730B840BBAF09150A1F065
:103BD000FF0FBB1F661F771F881FC2F70EC0BA0FEB
:103BE000621F731F841F48F4879577956795B79573
:103BF000F7959E3F08F0B0CF9395880F08F099276E
:103C0000EE0F9795879508950E947B1E08F481E03A
:103C100008950E941D1E0C94371B0E94301B58F003
:103C20000E94291B40F029F45F3F29F00C94201BCF
:103C300051110C946B1B0C94261B0E94481B68F3BB
:103C40009923B1F3552391F3951B550BBB27AA2755
:103C500062177307840738F09F5F5F4F220F331F8F
:103C6000441FAA1FA9F335D00E2E3AF0E0E832D057
:103C700091505040E695001CCAF72BD0FE2F29D05A
:103C8000660F771F881FBB1F261737074807AB072C
:103C9000B0E809F0BB0B802DBF01FF2793585F4FA1
:103CA0003AF09E3F510578F00C94201B0C946B1B4E
:103CB0005F3FE4F3983ED4F3869577956795B79583
:103CC000F7959F5FC9F7880F911D9695879597F98E
:103CD0000895E1E0660F771F881FBB1F6217730707
:103CE0008407BA0720F0621B730B840BBA0BEE1F1C
:103CF00088F7E0950895990F0008550FAA0BE0E8A2
:103D0000FEEF16161706E807F907C0F0121613069D
:103D1000E407F50798F0621B730B840B950B39F4DD
:103D20000A2661F0232B242B252B21F408950A2643
:103D300009F4A140A6958FEF811D811D08950E9471
:103D40007B1E08F48FEF0895AA1BBB1B51E107C02F
:103D5000AA1FBB1FA617B70710F0A61BB70B881F1B
:103D6000991F5A95A9F780959095BC01CD010895AA
:103D700097FB072E16F4009407D077FD09D00E9418
:103D8000A41E07FC05D03EF4909581959F4F0895A1
:103D9000709561957F4F0895052E97FB1EF4009452
:103DA0000E94E31E57FD07D00E94F11E07FC03D0BE
:103DB0004EF40C94E31E50954095309521953F4F5D
:103DC0004F4F5F4F089590958095709561957F4F07
:103DD0008F4F9F4F0895EE0FFF1F0590F491E02D38
:103DE0000994A1E21A2EAA1BBB1BFD010DC0AA1F3C
:103DF000BB1FEE1FFF1FA217B307E407F50720F054
:103E0000A21BB30BE40BF50B661F771F881F991FCE
:103E10001A9469F760957095809590959B01AC0117
:103E2000BD01CF010895FB01DC0101900D9200203E
:103E3000E1F70895FB01DC014150504030F08D91D5
:103E40000190801919F40020B9F7881B990B089587
:103E5000FB0151915523A9F0BF01DC014D9145179C
:103E60004111E1F759F4CD010190002049F04D9145
:103E700040154111C9F3FB014111EFCF81E090E002
:103E800001970895AEE0B0E0E8E4FFE10C947F1BF9
:103E90000D891E8986E08C831A8309838FEF9FE743
:103EA0009E838D83AE01475E5F4F6F89788DCE0113
:103EB00001960E943D042F813885020F131FF801DF
:103EC00010822E96E4E00C949B1BAEE0B0E0EBE693
:103ED000FFE10C94811B85E08C838B899C899A83FC
:103EE0008983AE01495E5F4F6D897E89CE0101965F
:103EF0000E94620A2E96E2E00C949D1BF894FFCF7C
:103F0000FF010000000100000000010002000000AD
:103F1000000A000300000000020028F926EC02005D
:103F2000008A010A030028922BEC0200005D010ABE
:103F3000040022548024000000D2010A050028E871
:103F40001CEC020000DF010A060022B78C240000EE
:103F50000083010A0700282E38EC02000015010A30
:103F60000800284004EC02000060010A090028C58E
:103F70003FEC02000095010A723A202F2F20643A8C
:103F8000683A6D3A7320202020436F6C6C542020D7
:103F900053746F725420204175783154202041753C
:103FA00078325420506D702055704C20205661633B
:103FB00020205670762054317374202054326E6461
:103FC0002020546261732020546F7574202054584F
:103FD00063684920545863684D20545863684F20E3
:103FE00054486F744F2054526164522054485462B4
:103FF0005220483173742048326E642041776179D1
:104000002048547562205377332020537734202082
:104010005261647420485475622041757846204688
:10402000446D7020423173742042326E64202054FB
:10403000726F6F74202000723A202F2F20557074F9
:10404000696D65202020207C202020205468657226
:104050006D616C20436F6E74726F6C6C6572204F73
:10406000757470757473202020207C2020202020FF
:104070002020202020202020202020202020202040
:10408000202020202052616469616E7420436F6E8D
:1040900074726F6C6C657220496E70757473202039
:1040A0002020202020202020202020202020202010
:1040B000202020202020202020207C2020202020A4
:1040C00053776974636865732020202020207C204A
:1040D00020202020436F6E74726F6C6C6572204FCD
:1040E0007574707574732020202020207C20457802
:1040F000747261207C000100203F2000202E2000EF
:10410000204F4E2000202E202000643A20494E49A6
:104110005420444F4E450A0052554E54494D4500D7
:1041200025643A2564004F50454E005348525400D0
:10413000256C66004F4E004F464600643A20746876
:1041400065726D616C2074696D656F75740A0064C9
:104150003A20746865726D616C206D6178206661CB
:10416000696C20636F756E740A00643A20616E7426
:10417000692D736970686F6E2063697263536F6C29
:1041800061723D300A00643A20616E74692D736972
:1041900070686F6E2063697263536F6C61723D313A
:1041A0002064756520746F2074656D70730A0064F7
:1041B0003A20616E74692D736970686F6E2063694F
:1041C0007263536F6C61723D312064756520746F4A
:1041D0002070756D70206F666620616E6420737547
:1041E0006E6E790A0025732563256300723A2025D7
:1041F000332E33643A25322E32643A25322E32641D
:104200003A25322E326420002020203F202020003A
:10421000204F50454E2020002053484F525420003C
:104220002520362E316620002573200025342E31BE
:104230006620002020203F20200025352E316620DA
:0242400000007C
:00000001FF
