:100000000C94DC000C94F9000C94F9000C94F900A9
:100010000C94F9000C94F9000C94F9000C94F9007C
:100020000C94F9000C9460030C94F9000C94F90002
:100030000C94F9000C94F9000C94F9000C94F9005C
:100040000C945B020C94F9000C94A5020C9421030F
:100050000C94F9000C94F9000C94F9000C94F9003C
:100060000C94F9000C94F9006E616E00696E6600E4
:1000700000407A10F35A00A0724E18090010A5D45F
:10008000E80000E87648170000E40B54020000CABC
:100090009A3B000000E1F505000080969800000002
:1000A00040420F000000A086010000001027000061
:1000B0000000E803000000006400000000000A00E7
:1000C000000000000100000000002C76D888DC67EA
:1000D0004F0823DFC1DFAE59E1B1B796E5E3E45342
:1000E000C63AE651997696E8E6C28426EB898C9B5F
:1000F00062ED407C6FFCEFBC9C9F40F2BAA56FA5FF
:10010000F490055A2AF75C936B6CF9676DC11BFC80
:10011000E0E40D47FEF520E6B500D0ED902E03009B
:10012000943577050080841E080000204E0A0000E8
:1001300000C80C333333330F986E12831141EF8DA7
:100140002114893BE65516CFFEE6DB18D1844B38E7
:100150001BF77C1D901DA4BBE424203284725E2218
:100160008100C9F124ECA1E53D276364696E6F70DD
:10017000737578585B65666745464700616E006E2B
:1001800066696E69747900CDCCCC3D0AD7233C17E3
:10019000B7D13877CC2B329595E6241FB14F0A00A2
:1001A0000020410000C84200401C4620BCBE4CCA92
:1001B0001B0E5AAEC59D740011241FBECFEFD8E0B0
:1001C000DEBFCDBF14E0A0E0B1E0E2EFFEE302C08D
:1001D00005900D92A235B107D9F726E0A2E5B4E06B
:1001E00001C01D92A63AB207E1F70E94740B0C946D
:1001F000771F0C94000081E090E09093F7028093C9
:10020000F602089581E090E09093C6048093C504BF
:10021000089581E090E090936104809360040895D4
:1002200020915E0430915F04232B81F490935F044E
:1002300080935E0470935D0460935C048091C100C0
:1002400080628093C10090E080E0089581E090E0BA
:1002500008954091620450916304CA01FA0120811B
:100260004F5F5F4F2032C9F3909363048093620421
:10027000211102C090E080E00895E0916204F091C5
:100280006304009731F090936304809362040C94AC
:1002900029019E2F8F2F2191222339F02032C9F777
:1002A0009093620480936304F2CF909362048093EE
:1002B000630490E080E00895E8E1F1E040E050E080
:1002C00066EC72EC81E0E837F80709F4089583855D
:1002D0008F5F83878B3068F0A081B181AA0FBB1F2D
:1002E000AA0FBB1FA258BA4F4D935D936D937C9399
:1002F00013973C96E7CF5A985E9808955A985E9A5D
:1003000089B185FB882780F990E008954091D20457
:100310005091D3046091D4047091D50404C07695B3
:100320006795579547958A95D2F788E040FF88EF03
:1003300041FF14C0885F42FF13C0885F43FF12C0B3
:10034000885F44FF11C0885045FF10C0885046FFA9
:100350000FC0885047FF0EC0885008958850EBCFDB
:100360008850ECCF8850EDCF885FEECF885FEFCF1D
:10037000885FF0CF885F0895CF93DF93EC011092F0
:1003800053041092520463ED71E0CE010E941001FB
:10039000892BC9F78091520490915304892BD1F392
:1003A000DF91CF91089581E090E090935304809382
:1003B00052040895806680937C0087EC80937A00D5
:1003C00080917A0086FDFCCF8091790090E00895BD
:1003D00029E030E041E050E02150310909F408956E
:1003E000F894BA01682379235E985A98672B79F0BC
:1003F00065E36A95F1F700005E9AEBEDF0E0319766
:10040000F1F700C000007894440F551FE5CFE3E0FA
:10041000F1E03197F1F700C000005E9AFAE1FA9539
:10042000F1F700C0F0CF5A9A8DE790E0019721F1E3
:100430002AE02A95F1F700C04D9BF8CF5E985A98B4
:100440008FEC97E00197F1F700C000005A9AEFE3B4
:10045000F1E03197F1F700C0000089B182958695EF
:10046000877091E08927817090E0EFE8F6E031979E
:10047000F1F700C00000089580E090E008950E9428
:100480005C015598569A529A0E947E01892B81F000
:100490008FE39CE90197F1F700C000000E9413026E
:1004A00031E020E0892B09F030E0832F922F08956E
:1004B00081E090E008951F920F920FB60F921124E1
:1004C0002F933F938F939F93AF93BF938091A206F7
:1004D0009091A306A091A406B091A5063091A10623
:1004E00023E0230F2D3758F50196A11DB11D209350
:1004F000A1068093A2069093A306A093A406B093AE
:10050000A50680919D0690919E06A0919F06B091B0
:10051000A0060196A11DB11D80939D0690939E0695
:10052000A0939F06B093A006BF91AF919F918F912A
:100530003F912F910F900FBE0F901F90189526E8B6
:10054000230F0296A11DB11DD2CF1F920F920FB69D
:100550000F9211242F933F934F935F936F937F9349
:100560008F939F93AF93BF93CF93EF93FF9380911C
:10057000C00084FD4BC08091C00083FD47C08091C6
:10058000C00082FB222720F930E0C091C600809194
:10059000660490916704BC016F5F7F4FE0916C042B
:1005A000F0916D046E177F07B4F440915B044A30FC
:1005B00011F0009781F040916A0450916B047093A0
:1005C000670460936604840F951FDC01CC93460F8B
:1005D000571FDA011C92232BE1F01092670410924E
:1005E0006604C0E0C0935B04FF91EF91CF91BF918F
:1005F000AF919F918F917F916F915F914F913F91BB
:100600002F910F900FBE0F901F90189521E030E0B2
:10061000BCCFEF2B39F3CA3029F710926D0410923A
:100620006C046091660470916704E0916804F09135
:10063000690450E040E080916A0490916B04099550
:10064000D1CF1F920F920FB60F9211242F933F9389
:100650004F935F936F937F938F939F93AF93BF93CA
:10066000EF93FF93E0915E04F0915F048081882313
:10067000C1F03196F0935F04E0935E048093C6006E
:10068000FF91EF91BF91AF919F918F917F916F916A
:100690005F914F913F912F910F900FBE0F901F9040
:1006A00018958091C1008F7D8093C10010925F04E6
:1006B00010925E04E0915C04F0915D040995E0CF36
:1006C0001F920F920FB60F9211242F933F934F93C7
:1006D0005F936F937F938F939F93AF93BF93CF93CA
:1006E000DF93EF93FF93C6B126B120729091000182
:1006F0009F3FF1F5211102C0109200018091590530
:100700008823D9F030915805E32FEF77F0E0E952D4
:10071000FB4F40812091C70481E090E0022E01C090
:10072000880F0A94EAF7C2FF7AC0842B80832F5F78
:10073000283009F477C02093C70480915A048F5F52
:100740008A3009F475C080935A04FF91EF91DF91CC
:10075000CF91BF91AF919F918F917F916F915F9159
:100760004F913F912F910F900FBE0F901F901895B2
:1007700081E0890F80930001863069F08A3059F05A
:10078000392F3F7E3E3039F09B7F923121F08B3103
:1007900011F0833251F490915904969530E821116B
:1007A00001C030E0932B90935904883209F0A6CF12
:1007B000222389F1D0915904E0915704F091580413
:1007C0009F012F5F3F4F8091550490915604281749
:1007D000390764F4409154044A3011F0309731F0F5
:1007E0003093580420935704D0831182892B89F0C9
:1007F000DA3079F41092560410925504609157043F
:100800007091580450E040E090E080E0F0E0E0E0DB
:100810000995D09354048FEF809300016FCF80959A
:10082000842384CF1092C7043F5F3093580585CF4F
:1008300010925A0480916C0590916D05A0916E05FF
:10084000B0916F050196A11DB11D80936C05909329
:100850006D05A0936E05B0936F0577CFAFE0B0E064
:10086000E4E3F4E00C946A1B6C011B015A01FC01E7
:1008700017821682838181FF48C39E012F5F3F4FFD
:100880004901F6019381F10193FD859193FF8191D7
:100890001F01882309F4E7C2853239F493FD85915D
:1008A00093FF81911F01853239F4B60190E00E94D7
:1008B000E71C35015301E5CFF12C512C00E000324B
:1008C00038F48B3209F190F48032F9F0833209F177
:1008D00007FD34C020ED280F2A3020F506FF1BC08D
:1008E000FAE0FF9E200D1124F22E05C08D3279F022
:1008F000803371F70160F10193FD859193FF819140
:100900001F018111DCCF1AC002600460F4CF0860BF
:10091000F2CF0061F0CF3AE0539E200D1124522E09
:100920000062E9CF8E3221F406FD9DC20064E3CF60
:100930008C3611F40068DFCF8836E9F29BEB980F14
:10094000933008F05FC00061805E06FD02C046E0A3
:10095000F42E102F1F73853609F05BC0106417FF4B
:1009600061C08F2D9BE39F1508F48BE344244394CF
:10097000480E27E03501F4E06F0E711CF50160812F
:10098000718182819381042DA4010E94A11B5C01CD
:10099000F981FC87F0FF03C00DE2F3FF07C00BE213
:1009A00011FD04C0012F047012FD00E22C852C7093
:1009B000E22E09F457C00111ABC2F3E0E12CF515AA
:1009C000A0F483E0E52CE81A13FD08C0B60180E22C
:1009D00090E00E94E71CEA94E110F8CF002329F090
:1009E000B601802F90E00E94E71C3C8528E6A22EED
:1009F00020E0B22E33FD04C09CE6A92E90E0B92E73
:100A0000107122C09BE9980F933008F033C10F7E1C
:100A10009CCF863611F41068A2CFFF2009F49FCF37
:100A2000FA949DCFE7E02F2DEF1518F427E037E07B
:100A3000F32E412C9FCF11118052B60190E00E94FD
:100A4000E71C8FEFA81AB80AF50184918111F3CF42
:100A5000EE2009F42FCFB60180E290E00E94E71C5F
:100A6000EA94F6CF17FF6FC04A0CFC85F4FF04C070
:100A70008A81813309F44A9414140CF086C028E06A
:100A8000241510F488E0482E85E090E017FF06C09A
:100A9000C501B7FE02C090E080E001960111019609
:100AA000FF2031F02F2D30E02F5F3F4F820F931F3B
:100AB0005816190619F014F0E52CE81A812F8970E0
:100AC00011F4E11067C0002329F0B601802F90E0F7
:100AD0000E94E71C13FD02C0E11063C017FF7CC039
:100AE0008501B7FE02C010E000E0C501841991093C
:100AF0002C016F2D70E0EE27FF27E61BF70BFF8719
:100B0000EE870F3F100729F4B6018EE290E00E94B5
:100B1000E71CA016B1060CF44BC0401651060CF0B1
:100B200047C0F501E01BF10BE80DF91D8181015073
:100B300011092E853F8502171307E4F1B60190E0F5
:100B40000E94E71CDECF16FD9FCFEF2DF0E0EA15E7
:100B5000FB0534F03CEFA3163FEFB3060CF0106832
:100B60003296E80DF91D01C0FA94FF2019F0829128
:100B70008033D1F317FF88CF442443944F0CFA14E9
:100B80001B0431F02CF0FA187FCF442443947CCF1F
:100B9000F12C7ACFB60180E290E00E94E71CEA9443
:100BA00090CFB60180E390E00E94E71CEA9494CFD6
:100BB00080E3BDCFA016B10641F49A81963350F47C
:100BC000953319F43C8534FF05C0B60190E00E94CE
:100BD000E71C3ECF81E3F9CF8A81813319F09C85F0
:100BE0009F7E9C87B60190E00E94E71CFF20A9F041
:100BF000B6018EE290E00E94E71CF394F394E2E0E9
:100C000001E00E0FE80DF92DF11D8081B60190E095
:100C10000E94E71CE02F0F11F3CF85E690E014FF50
:100C200002C085E490E0B6010E94E71CB7FC06C054
:100C3000A114B104C1F4EC85E4FF15C0B194A194F2
:100C4000B1088DE2B60190E00E94E71C80E32AE043
:100C5000A216B10454F4B60190E00E94E71CB6015C
:100C6000C501C096B4CF8BE2EDCF8F5FFAE0AF1A2B
:100C7000B108EDCF8336C9F0833771F1833509F0C0
:100C80005BC03501F2E06F0E711CF501A080B180F0
:100C90006F2D70E006FD02C06FEF7FEFC5010E946F
:100CA000951C9D878C8700680DC0350132E0630E6E
:100CB000711CF5018081898321E030E03D872C871C
:100CC00054010F7703FD06C02C853D85521613068F
:100CD00009F0A8F4E52C2BC0350132E0630E711C3D
:100CE000F501A080B1806F2D70E006FD02C06FEFAE
:100CF0007FEFC5010E94A01C9D878C87E2CFB601C3
:100D000080E290E00E94E71C5A94DECFF50107FDD7
:100D1000859107FF81915F01B60190E00E94E71C79
:100D2000E110EA948C859D8501979D878C87EC85E1
:100D3000FD85EF2B59F78CCE843619F0893609F0F2
:100D400074C0350107FF66C0F4E06F0E711CF50139
:100D50006081718182819381102F1F7697FF08C077
:100D600090958095709561957F4F8F4F9F4F10683C
:100D70002AE030E0A4010E942F1DA82EA818BA2C4A
:100D8000012F16FF0AC00E7FAF1438F414FF04C001
:100D900012FD02C0012F0E7EBF2C04FF8EC0FE018B
:100DA000EA0DF11D8081803309F080C0097EF02FAB
:100DB000F870EF2E03FD90C000FF8AC0FA2CB51426
:100DC00010F4F50CFB1804FF8DC0B60180E390E031
:100DD0000E94E71C02FF09C088E790E001FF02C003
:100DE00088E590E0B6010E94E71CAF1408F486C0C5
:100DF000AA940A2D10E00F5F1F4F080D191DF8016E
:100E000082918F01B60190E00E94E71C8016910646
:100E1000B1F71ECEF2E06F0E711CF5016081718199
:100E2000072E000C880B990B97CF102F8537A9F44C
:100E30001F7E2AE030E0350117FF2FC0F4E06F0E6F
:100E4000711CF5016081718182819381A4010E94EE
:100E50002F1DA82EA8181F7792CF197F8F36D1F09B
:100E600048F4883591F0F601868197812F96E2E16A
:100E70000C94861B803739F08837A9F714FD14606D
:100E800020E130E0D8CF1061F9CF04FD166020E1F9
:100E900032E0D1CF28E030E0CECFF2E06F0E711C0F
:100EA000F5016081718190E080E0D0CF02FD02C049
:100EB000B3947DCFB394B3947ACF802F867809F41E
:100EC00076CFF6CFB60180E290E00E94E71CB394A3
:100ED000B514C0F3E12C77CFE52CEB18B51408F46A
:100EE00072CFF8CF802F867809F47FCF8BE201FF95
:100EF00080E207FD8DE2B60190E075CFB60180E398
:100F000090E00E94E71CFA9470CF8FEF9FEFAECF76
:100F100024E0E12C251508F063CD84E053CD20FDBD
:100F200009C0FC0123FD05C022FF02C07383628358
:100F300051834083089544FD17C046FD1DC0DB0169
:100F4000FC01AA0FBB1FEE1FFF1F1094D1F76A0F01
:100F50007B1F8E1F9F1F660F771F881F991F620FB1
:100F6000711D811D911D089533E0660F771F881F45
:100F7000991F3150D1F7F3CF34E0F7CF0F931F9380
:100F8000CF93DF938C01C8010E94AB1CEC0197FD4D
:100F900008C00E94791C892BB1F7B801CE010E94CC
:100FA000171DCE01DF91CF911F910F910895B0E0F1
:100FB000A0E0EDEDF7E00C94701B7C018B016A0161
:100FC000D22F0E94AB1C9C0133272B32310521F01C
:100FD0002D32310579F4D0680150110931F480E0E7
:100FE000CDB7DEB7ECE00C948C1BC7010E94AB1CA4
:100FF00097FDF5CFCD2FCD7F2D2F207309F58033B1
:10100000F9F4580181E0A81AB10891F0C7010E94D3
:10101000AB1C97FD0DC0282F2F7D283569F4C264C5
:101020000250110929F0C7010E94AB1C97FF08C0AC
:10103000812C912C54011BC0D6FF2BC0C2608501AE
:10104000812C912C540120ED280F283028F1C4FD6B
:1010500009C02A3008F1C6FF05C02F7D3FEE320FD0
:101060003630C8F0B7010E94171DC1FFB8CFC7FFC7
:1010700008C0B094A09490948094811C911CA11CF1
:10108000B11C2C2FB501A401C6010E948F0781E07D
:10109000A7CFC261D4CF27504C2FC501B4010E9405
:1010A0009B074B015C01C2600150110901F3C701AC
:1010B0000E94AB1C97FFC7CFD8CFA0E2B0E0E3E619
:1010C000F8E00C946E1B5C014B017A01CE01019695
:1010D0006C0180E2F60111928A95E9F7F501B3817E
:1010E000890130E020E0612C712CA0E041E050E06B
:1010F000F801B3FD8591B3FF8191982F8F01811184
:1011000007C010E000E0C801A096EEE00C948A1B36
:101110008E3519F42115310541F1A21713064CF44F
:101120008D3549F18D3229F4711006C077247394FE
:101130001DC0772009F465C0E92FE695E695E69590
:10114000EC0DFD2DF11D892F8770BA0101C0660FCE
:101150008A95EAF78081682B6083691651F09615AD
:1011600010F49F5FE9CF9150E7CFA1E02F5F3F4F91
:10117000BFCF712CFBCF772019F08E8180628E83D8
:10118000AA2359F0F6019E012F5D3F4F8081809583
:1011900080833196E217F307C9F777247394C5016A
:1011A0000E94AB1C97FD16C0E82FE695E695E695E4
:1011B000EC0DFD2DF11D208130E0AC01477055276D
:1011C00002C0359527954A95E2F720FD06C0B50186
:1011D0000E94171D772071F094CFE114F10429F0DB
:1011E000F7018083C70101967C0191E0891A91087B
:1011F000712CA9F6E114F10409F485CFF7011082EE
:1012000082CFE82FE695E695E695EC0DFD2DF11DD4
:10121000982F9770BA0101C0660F9A95EAF79081EE
:10122000692B6083682EA2CF2F923F924F925F92DC
:101230006F927F929F92AF92BF92CF92DF92EF9286
:10124000FF920F931F93CF93DF936C018B011A01D1
:101250000E94AB1CEC0199278B32910521F08D97F0
:10126000C9F0B12C20C0B12C01501109B1F480E0BB
:10127000DF91CF911F910F91FF90EF90DF90CF9072
:10128000BF90AF909F907F906F905F904F903F90F6
:101290002F90089530E8B32EE7CFC6010E94AB1C13
:1012A000EC0197FDE4CFCE010E94821C89369105A6
:1012B00009F4C0C08E36910509F4ACC0412C512C04
:1012C0003201F12CE12C2C2F20539B2C2A3008F0DA
:1012D000CFC0689491F88B2D8870B2FEB0C0811198
:1012E00003C0EFEFEE1AFE0A0150110931F0C601FA
:1012F0000E94AB1CEC0197FFA0C091FEB8CF8C2FD1
:101300008F7D853409F042C05801E1E0AE1AB10882
:1013100009F4ADCFC6010E94AB1CEC0197FDA7CF2D
:1013200099278B32910521F08D9761F4689494F898
:101330005801F2E0AF1AB10809F499CFC6010E9432
:10134000AB1CEC01CE01C0970A9708F090CF10E0DB
:1013500000E0B801110F880B990B2C2F205340E2AD
:101360000E949B078B0121E0A21AB10839F0C60147
:101370000E94AB1CEC01C0970A9758F394FE03C07F
:10138000119501951109E00EF11E8501012B31F037
:10139000D7FD04C0B601CE010E94171DC301B201E2
:1013A0000E946F1AC3EBD1E0F7FE05C0F194E194FF
:1013B000F108CBE9D1E06E01E8E1CE1AD10800E2F4
:1013C00010E067C00150110971F0C6010E94AB1C0A
:1013D0003C0197FD08C00E94821CF816E9F0B60196
:1013E000C3010E94171DC258D14009F040CF80E0D0
:1013F00090E0A0E8BFE7BC01CD019B2C97FC905882
:101400002114310429F0F101608371838283938375
:1014100081E02ECFCCE7D1E02196FE013197F49008
:10142000F110D0CFCF57D14011F780E090E0A0EC81
:10143000BFE7E1CFCFE7D1E0EFCFB92C44CF88238E
:1014400019F0F1E0EF1AF10840E2C301B2010E9485
:101450009B072B013C0128E9421629E95206620646
:1014600029E1720608F440CF8B2D8660982E3CCF80
:101470002E3F09F042CFB3FC40CF689493F834CFAD
:10148000FE0125913591459154910E94AC1AE01AC4
:10149000F10AE016F106A0F7249716950795CC15EA
:1014A000DD05B9F7ABCFB0E0A0E0E9E5FAE00C94D8
:1014B0006E1B5C01EB014A01FC0117821682612C54
:1014C000F5010381FE0103FD859103FF8191182F32
:1014D000EF018823E9F090E00E94791C892B21F02C
:1014E000C5010E94BE07ECCF153241F4FE0103FD99
:1014F000159103FF1191EF01153269F4C5010E94A6
:10150000AB1C97FD96C01817D9F2B5010E94171DA4
:10151000862D90E092C0712C1A3239F403FD15919A
:1015200003FF1191EF0177247394F12CE12C20ED4E
:10153000210F2A3050F171FE38C0E114F10441F35B
:101540001836B9F11C3609F43FC0112309F3612F95
:1015500070E08AE691E00E948A1C892BC9F2D12CA6
:10156000C12C70FC06C0F401C080D180C401029679
:101570004C011E3691F5F5014681578170E060E01F
:10158000272DC6010E948F079BCF689471F8B70181
:1015900090E080E040E20E949B077B01FE0103FD9A
:1015A000159103FF1191EF01C2CFEE24EA94FE2CB6
:1015B000C7CFFE0103FD159103FF1191EF0118360E
:1015C00009F0C3CF689473F8689472F8FE0103FDC4
:1015D000159103FF1191EF01B8CF1336D1F471FCCF
:1015E00003C0EE24E394F12CC5010E94AB1C97FDCF
:1015F00020C0C114D10429F0F6018083C6010196F0
:101600006C0191E0E91AF10879F770FC59CF639405
:1016100057CF1B35B9F49E01A601B701C5010E9441
:101620005D08EC01892B89F7F5018381807309F44A
:101630006FCF8FEF9FEF61106BCFCDB7DEB7EEE0CE
:101640000C948A1BC5010E94BE0797FDF2CF1F367E
:1016500009F447C090F4143609F440C0193621F05B
:10166000183581F4689476F8272DA601B701C501D5
:101670000E94D7078111C9CFD7CF1337D1F040F4DB
:10168000103781F3A601B701C5010E941409F2CFFA
:10169000153721F1183731F3F5CFC114D10429F0F2
:1016A000F6010083C60101966C0191E0E91AF10888
:1016B00071F0C5010E94AB1C8C0197FD08C00E940F
:1016C000791C892B51F3B501C8010E94171DC11463
:1016D000D10409F49ACFF601108297CF689475F877
:1016E000C3CF689474F8C0CFCF93DF93CDB7DEB784
:1016F0006B970FB6F894DEBF0FBECDBF789484B55C
:10170000826084BD84B5816084BD85B5826085BDFD
:1017100085B5816085BD80916E00816080936E008B
:10172000109281008091810082608093810080917D
:10173000810081608093810080918000816080932E
:1017400080008091B10084608093B1008091B000EE
:1017500081608093B00080917A00846080937A00E9
:1017600080917A00826080937A0080917A00816013
:1017700080937A0080917A00806880937A0010923A
:10178000C10010926B0410926A04109269041092C6
:10179000680410926D0410926C0410925F04109211
:1017A0005E0410925D0410925C048FE98093C40083
:1017B00081E08093C50098E99093C10092E39093F3
:1017C000B3008093700083E08093B0008BE080933F
:1017D000B1005F9828982998579A209A219A2A98B8
:1017E0002B982C98229A239A249A80E680937C0046
:1017F00087E880937A005B9A5C9A2D9A0E943F0258
:10180000E0910301F0910401EE0FFF1FEE0FFF1FA7
:10181000E258FA4F80E090E0A6ECB2EC808391832E
:10182000A283B383E0910A01F0910B01EE0FFF1F39
:10183000EE0FFF1FE258FA4F80839183A283B38398
:10184000E0911101F0911201EE0FFF1FEE0FFF1F4B
:10185000E258FA4F80839183A283B383109261048C
:101860001092600469E071E08AE093E00E94100148
:10187000892BC1F78091600490916104892BD1F389
:1018800000910101109102010115110509F0C3C079
:101890008091C5049091C604892B09F458C288E14F
:1018A00093E00E94BC0184E794E00E94BC01109286
:1018B000AF051092AE0584E794E0909363048093A3
:1018C00062040E9429017C01009709F49CC069E22E
:1018D00073E00E94211F892B09F095C0CE010A9662
:1018E0009F938F9302969F938F9381E393E09F93AF
:1018F0008F93FF92EF920E945E1F0FB6F894DEBFA7
:101900000FBECDBF029709F41FC18091AE05909123
:10191000AF0580619093AF058093AE0571E4C72E4B
:1019200073E0D72E90E080E00E943D017C0100979B
:1019300009F01BC180916404909165040196909315
:101940006504809364040B970CF084C10330110587
:1019500009F4B3C10CF083C10130110509F493C13E
:101960000230110509F49CC18E859F85A889B9892B
:101970008093B2059093B305A093B405B093B505D9
:101980000F5F1F4F0630110569F690E080E00E945E
:101990003D018C01009779F042E050E065E473E08E
:1019A0000E94131F892B09F0A2C181E090E090935F
:1019B000CB058093CA0590E080E00E943D018C0138
:1019C000009779F042E050E065E473E00E94131F55
:1019D000892B09F0A4C181E090E09093CD0580931C
:1019E000CC058091AE059091AF0581719927892B27
:1019F00021F41092650410926404409164045091A3
:101A000065045B8F4A8F6A8D7B8D672B21F4109262
:101A1000730410927204109202011092010110924C
:101A2000C6041092C50480916C0590916D05A0913B
:101A30006E05B0916F0580936E0490936F04A09330
:101A40007004B093710480916C0490916D04892BA3
:101A5000B1F484E794E090936B0480936A0482E08D
:101A600091E0909369048093680410926704109247
:101A7000660481E590E090936D0480936C048091FE
:101A8000AE059091AF0581719927892B09F4E8C1C2
:101A9000549886E090E00E94DA01BC01990F880B0F
:101AA000990B0E94711A20E030E04FE753E40E9446
:101AB000021E20E030E040EA50E40E94AC1A26E624
:101AC00036E646EB50E40E94AC1A6093AA05709388
:101AD000AB058093AC059093AD0520E030E040E08D
:101AE00051E40E94FD1D87FFBDC1539860916C05B4
:101AF00070916D0580916E0590916F0528EE33E031
:101B000040E050E00E94C51E3093CF052093CE05E3
:101B10000EE715E06AEAE62E65E0F62ED8016D9133
:101B20007D918D919D918D0120E030E046EC52EC4D
:101B30000E94FD1D882311F40C94391AE016F10659
:101B400069F7259A0C943A1A2C853D854CE3429FFF
:101B5000C001439F900D11242A853B85820F931F5E
:101B60009093B1058093B005D9CE44E050E067E38F
:101B700073E00E94131F0097D9F42091AE053091B5
:101B8000AF05A801445051094230510510F084E0DE
:101B900090E0822B932B9093AF058093AE0540E0AD
:101BA00050E066EC72EC4E875F87688B798BCECE07
:101BB00044E050E06CE373E0C7010E94131F892BDF
:101BC00091F48091AE059091AF0588609093AF0538
:101BD0008093AE0560E070E084EC92EC6E877F87C6
:101BE000888B998BB3CE81E090E08C0F9D1F9F93E3
:101BF0008F93DF92CF92FF92EF920E945E1F0F9021
:101C00000F900F900F900F900F900197D1F080914F
:101C1000AE059091AF0580619093AF058093AE05BE
:101C2000809164049091650401969093650480937B
:101C300064040B970CF48ACE60E070E082EC92ECC6
:101C4000CDCF29813A814B815C812E873F87488B9C
:101C5000598B7CCE40E050E060EC72ECA4CF0430B5
:101C60001105C1F10530110509F07ECE2E853F85A5
:101C7000488959892093C6053093C7054093C80504
:101C80005093C9057DCE2E853F854889598920937B
:101C9000B6053093B7054093B8055093B90570CE9B
:101CA0004E855F85688979894093BA055093BB0555
:101CB0006093BC057093BD0563CE6E857F85888972
:101CC00099896093BE057093BF058093C00590937A
:101CD000C10556CE8E859F85A889B9898093C20596
:101CE0009093C305A093C405B093C50549CE43E0C6
:101CF00050E068E473E0C8010E94131F892B29F4A7
:101D00001092CB051092CA0556CE8091AE059091E7
:101D1000AF0580619093AF058093AE054CCE43E054
:101D200050E068E473E0C8010E94131F892B29F476
:101D30001092CD051092CC0554CE8091AE059091B5
:101D4000AF0580619093AF058093AE054ACEC090F9
:101D50006C05D0906D05E0906E05F0906F05809158
:101D60006E0490916F04A0917004B0917104A7016A
:101D70009601281B390B4A0B5B0BCA01B90128EEEF
:101D800033E040E050E00E94C51E253131050CF4DF
:101D900076CEC0926E04D0926F04E0927004F092FE
:101DA00071040091720410917304053011050CF058
:101DB00066CE0F5F1F4F10937304009372048CE480
:101DC00093E00E94BC010530110509F058CE80E671
:101DD00093E00E94BC0181E090E09093AF05809376
:101DE000AE0580E090E0AEEBB2EC8093B20590934C
:101DF000B305A093B405B093B5058093B605909351
:101E0000B705A093B805B093B9058093BA05909330
:101E1000BB05A093BC05B093BD058093BE05909310
:101E2000BF05A093C005B093C1058093C2059093F0
:101E3000C305A093C405B093C5058093C6059093D0
:101E4000C705A093C805B093C90581EA9FEF909399
:101E5000CB058093CA059093CD058093CC050FCE1A
:101E6000549A17CE539A42CEC09058058091570588
:101E7000C81A6090050150900C012090130148E1B0
:101E8000342E57E0452ECC2011F40C94671A709034
:101E90005705E72DEF77F0E0E952FB4F8081209165
:101EA000D604422F022E000C550B90E027FF25C0D0
:101EB00051954195510902C0959587954A95E2F74C
:101EC000092E000CAA0BBB0B8093D2049093D30471
:101ED000A093D404B093D504285F2093D604F09047
:101EE000D6040091D0041091D104F3E1FF15E4F081
:101EF000739470925705CA94C6CFB0E0A0E0022E4A
:101F000004C0880F991FAA1FBB1F0A94D2F74091E3
:101F1000D2045091D3046091D4047091D504842BE1
:101F2000952BA62BB72BD0CF0115110509F45CC05A
:101F300003301105D0F680E00E948601E82E81E092
:101F40000E948601D82E82E00E9486016D2D0D2C04
:101F5000000C770B77FF03C07195619571092E2DE9
:101F60000E2C000C330B37FF03C03195219531093E
:101F7000482F082E000C550B57FF03C05195419573
:101F80005109621773070CF471C0641775070CF4DC
:101F900073C08D2D91E00230110509F49FC0893284
:101FA0000CF46CC08091CF048F5F8093CF0489E0E4
:101FB000890F4091D2045091D3046091D404709160
:101FC000D50404C076956795579547958A95D2F7BD
:101FD0004093D2045093D3046093D4047093D504F7
:101FE00037EFF30EF91A3FC08091D2049091D304D9
:101FF000A091D404B091D504AC01BD01769567954C
:10200000579547958A019B010E7711272227332781
:102010000E30110521053105E9F4E1E0E093CF042C
:102020002AE0B695A795979587952A95D1F780933D
:10203000D2049093D304A093D404B093D50486EF34
:102040008F0D8093D60421E030E03093D1042093AB
:10205000D00445CF4093D2045093D3046093D4046A
:102060007093D504FA94F092D60439CF241735072B
:102070001CF08E2D90E08FCF92E08DCF883D0CF03C
:10208000D9C08091CF048B3008F4D4C04FEF409377
:10209000CE0489E0890F4091D2045091D30460911D
:1020A000D4047091D50404C07695679557954795EB
:1020B0008A95D2F74093D2045093D3046093D4040A
:1020C0007093D50457EFF50EF91AF092D60462E03A
:1020D00070E07093D1046093D00401CF28E2280F00
:1020E000213508F4A7C02091CE0427FD13C0E22FAC
:1020F000E595E595E5950E2E000CFF0BE853FB4F9B
:10210000408150E0440F551F31E018160CF030E0CC
:10211000432B40832F5F2093CE0489E0890F4091A9
:10212000D2045091D3046091D4047091D50404C0BA
:1021300076956795579547958A95D2F74093D2043F
:102140005093D3046093D4047093D50477EFF70EC3
:10215000F91AF092D604203309F0C1CE4091CD0493
:10216000E8ECF4E094E68CE7319128E0582F5170C8
:1021700080FB879587F95111832537FD9827330F09
:102180002150A1F7ADECB4E0AE17BF0769F74913D2
:1021900051C08091C804853409F04CC08091CC04B2
:1021A000853608F047C08091CA04682F677070E0D8
:1021B000762F66279091CB04690F711D9B01285CD7
:1021C000310929373540B0F5807782958F708F5F60
:1021D0008615A9F18515B1F182112CC082E090E03D
:1021E000489E9001499E300D1124F901ED5FFE4F8C
:1021F0007F0100811181000F111F000F111F025874
:102200001A4F60597140072E000C880B990B0E94E1
:10221000711A20E030E040E251E40E94021ED80131
:102220006D937D938D939C931397F7018382948292
:10223000A582B6821092D1041092D00450CE90E0C4
:1022400080E0CECF81E090E0CBCFF8018381948114
:10225000A581B681A5019401281B390B4A0B5B0BA4
:10226000CA01B90128EE33E040E050E00E94C51EEB
:10227000293532408CF0D801ED91FC91EE0FFF1F13
:10228000EE0FFF1FE258FA4F20E030E046EC52EC30
:102290002083318342835383095F1F4FE016F10689
:1022A000A1F683E090E00E94DA0110E000E0853DB5
:1022B000910564F402E010E0853991053CF401E0F9
:1022C00010E08337910514F403E010E087E090E01C
:1022D0000E94DA01853D91052CF4853991050CF4B5
:1022E0003CC20860109379050093780560916C05F5
:1022F00070916D0580916E0590916F05C0905C05A1
:10230000D0905D05E0905E05F0905F056C197D0949
:102310008E099F0928EE33E040E050E00E94C51E80
:10232000253131050CF401C32090B2053090B3057E
:102330004090B4055090B5058090B6059090B705D3
:10234000A090B805B090B90520E030E04EEB52EC1B
:10235000C201B1010E94FD1D18160CF009C220E057
:1023600030E04EEB52ECC501B4010E94FD1D181681
:102370000CF0FCC120E030E043E453E4C201B101C1
:102380000E94981E18160CF4EFC1FF24F39420E06D
:1023900030E045E253E4C501B4010E94981E1816CE
:1023A0000CF0F12C8F2D8A8B20E030E04EEB52ECBC
:1023B000C501B4010E94FD1D1816B4F420E030E000
:1023C0004DE453E4C201B1010E94981EEE24E3944F
:1023D00018165CF020E030E04AE253E4C501B40195
:1023E0000E94981E18160CF0E12C20E030E04EEB15
:1023F00052ECC201B1010E94FD1D1816E4F420E068
:1024000030E04EEB52ECC501B4010E94FD1D1816E0
:1024100094F420E030E040E251E4C501B4010E94B0
:10242000911D9B01AC0177247394C201B1010E94FC
:10243000981E18160CF0712C20907E0530907F05A8
:10244000409080055090810520E030E046EC52EC51
:10245000C201B1010E94FD1D20E030E04EEB52ECC4
:10246000882309F488C1C501B4010E94FD1D181616
:102470000CF016C26801B4E0CB22DD2402FD10C2CC
:1024800020E030E040E952E4C201B1010E94FD1DAC
:1024900087FF0EC06624639420E030E04AEF52E4E8
:1024A000C501B4010E94981E18160CF0612CC62CB0
:1024B0006C2C20E030E04EEB52ECC501B4010E94E0
:1024C000FD1D18160CF4D1C1F12C6CC180915A0578
:1024D00090915B05892BB1F40E943F02892B19F082
:1024E0000E947B01DECE81E090E090935B058093BB
:1024F0005A050E941302892B89F40E947B010E94D5
:102500005C01CFCE0E947E01892B09F4CACE8FE3F5
:102510009CE90197F1F700C00000EBCF8CEC90E054
:102520000E94E80184E490E00E94E8019FEFA3ED9F
:10253000B0E39150A040B040E1F700C0000008E1D6
:1025400011E078E7872E71E0972E1E01EAE02E0E4B
:10255000311C8016910621F2D8011A968C9188239D
:1025600009F468C00E941302892B39F285E590E0D6
:102570000E94E8017801B2E0EB0EF11C6801EAE08C
:10258000CE0ED11CD7018D917D0190E00E94E80113
:10259000CE14DF04B9F78EEB90E00E94E801FE0153
:1025A00031967F0150E040E029E030E081E090E0AA
:1025B00019C0F8945A985E98B0E1BA95F1F75A9A12
:1025C0006AE46A95F1F700C069B1AFEBB0E011972A
:1025D000F1F700C00000789465FF02C0482B592B2A
:1025E000880F991F2150310921F7D7014D937D01A3
:1025F0002A163B06B9F66985AF01485F5F4F80E058
:102600004E175F07D1F4681751F1F80183858A30BE
:1026100018F10190F081E02DEE0FFF1FEE0FFF1F6C
:10262000E258FA4F20E030E046EC52EC2083318350
:1026300042835383045F1F4F8CCF919128E030E099
:10264000782F7927869570FF02C0BCE88B27969576
:1026500021503109A9F7D4CF8F5F8387EBCF6A81EF
:10266000862F90E0982F88276981680F792F711D38
:10267000072E000C880B990B0E94711A20E030E0A5
:1026800040E85DE30E94AC1A20E030E040E151E414
:102690000E94AC1A20E030E040EA50E40E94021EA2
:1026A00020E030E040E052E40E94911D6B017C018B
:1026B000F801A080B180AA0CBB1CAA0CBB1CF501C0
:1026C000E258FA4F408051806280738020E030E011
:1026D00046EC52ECC301B2010E94FD1D882391F12A
:1026E00020E030E040EA50E4C301B2010E94911DB5
:1026F0009B01AC01C701B6010E94981E181654F444
:1027000020E030E040E05FE3C701B6010E94911D88
:102710006B017C0120E030E040EA50E4C301B201EB
:102720000E94901DA70196010E94981E181654F44D
:1027300020E030E040E05FE3C701B6010E94901D59
:102740006B017C01F501E258FA4FC082D182E2822E
:10275000F382D8011B961C926DCF8337910514F03C
:102760000460C0CD0C60BECD81E01DCE1A8A3CCE87
:102770001A8AE12C60CEC501B4010E94FD1D181615
:102780000CF08EC002FD8CC0FF24F39420E030E0FA
:102790004CE852E4C501B4010E94981E18160CF0D2
:1027A000F12C612C6801E2E0CE22DD2481E001FD04
:1027B00043C02090C2053090C3054090C40550909E
:1027C000C50520E030E04EEB52ECC201B1010E94A1
:1027D000FD1D18160CF066C020E030E04EEB52EC08
:1027E000C501B4010E94FD1D18160CF05BC003FF6B
:1027F00059C020E030E04AEA52E4C201B1010E942F
:10280000981E1816C4F420E030E044EC52E4C201F3
:10281000B1010E94FD1D87FF0EC04424439420E0B7
:1028200030E04AEF52E4C501B4010E94981E181628
:102830000CF0412CC42C8C2DA8014170552700FFB1
:1028400033C0F11005C0FA89FF2391F1662081F1B0
:10285000942F2A89222379F1442309F411C231E00B
:1028600020E0E11031C030E02FC020E030E04CE942
:1028700052E4C201B1010E94FD1D87FF25CE20E078
:1028800030E040E050E4C201B1010E94911DFF24FC
:10289000F394A50194010E94FD1D87FD83CF14CE02
:1028A000612C12CE80E0C8CF41E050E06110D0CF63
:1028B0004E2D50E0CDCF31E020E0E11001C030E0FE
:1028C000911102C07110DFC190E0509377054093E1
:1028D0007605909375058093740530937205209367
:1028E0007305452B09F4D2C1299A80917405909102
:1028F0007505892B09F4CCC1289A809172059091B5
:102900007305892B09F4C6C12A9A80916C059091B0
:102910006D05A0916E05B0916F0580935C05909355
:102920005D05A0935E05B0935F05C0906C05D090E7
:102930006D05E0906E05F0906F05809162059091B5
:102940006305A0916405B0916505A7019601281B58
:10295000390B4A0B5B0BCA01B90128EE33E040E0AA
:1029600050E00E94C51E253131055CF181E090E008
:102970000E94DA018C01909361058093600590E0DC
:1029800080E00E94DA0121E030E00038110514F007
:1029900030E020E030937D0520937C0521E030E09D
:1029A000803E910514F030E020E030937B052093C9
:1029B0007A05C0926205D0926305E0926405F092B8
:1029C000650580916A0590916B05892B11F18091C5
:1029D000660590916705A0916805B0916905A7010A
:1029E0009601281B390B4A0B5B0BCA01B90128EE73
:1029F00033E040E050E00E94C51E2B3031054CF022
:102A00008BE793E00E94BC0110926B0510926A055F
:102A10005F9860916C0570916D0580916E05909145
:102A20006F0500916605109167052091680530914A
:102A30006905601B710B820B930B28EE33E040E0BD
:102A400050E00E94C51E293532400CF4BAC04090B7
:102A5000B2055090B3056090B4057090B50520E0C4
:102A600030E04EEB52ECC301B2010E94FD1D18167E
:102A70000CF012C18091B6059091B705A091B805F0
:102A8000B091B9058A8B9B8BAC8BBD8B20E030E07D
:102A90004EEB52ECBC01CD010E94FD1D18160CF04E
:102AA000FBC020918E0530918F054091900550918B
:102AB00091052E8B3F8B488F598F20E030E046ECFC
:102AC00052EC6E897F89888D998D0E94FD1D882327
:102AD00009F4E2C0C0909205D0909305E09094056F
:102AE000F090950520E030E046EC52ECC701B601CD
:102AF0000E94FD1D882309F4CFC080908605909028
:102B00008705A0908805B090890520E030E046EC6C
:102B100052ECC501B4010E94FD1D882309F4BCC01C
:102B200020E030E040EA51E4C301B2010E94911D6F
:102B30009B01AC016A897B898C899D890E94981EC2
:102B400018160CF0A9C020E030E040E251E4C501C5
:102B5000B4010E94911D9B01AC01C701B6010E9406
:102B6000FD1D87FF99C020E030E040E251E4C7013D
:102B7000B6010E94911D9B01AC016E897F89888DF1
:102B8000998D0E94981E18160CF086C087E993E074
:102B90000E94BC0181E090E090936B0580936A05F0
:102BA0005F9A80916C0590916D05A0916E05B09132
:102BB0006F058093660590936705A0936805B093B1
:102BC00069058091F6029091F702892B09F44EC0B5
:102BD00080916C0590916D05A0916E05B0916F0587
:102BE0004091990650919A0660919B0670919C06BF
:102BF000841B950BA60BB70B89389341BCF18091D0
:102C00009706909198068130910509F460C0823052
:102C1000910509F47DC0892B49F51092F7021092B5
:102C2000F6021F928AE08F931F928DE08F9387E3C5
:102C300092E09F938F9386EF93E09F938F9380ED25
:102C400095E09F938F930E943B1F6BEF70E080EDA8
:102C500095E00E94100181E090E0909398068093A7
:102C600097060FB6F894DEBF0FBECDBF80E090E0B0
:102C7000892B11F40C94400C0E9400000C94400C21
:102C800031E020E01FCE81E090E01FCE29982DCECC
:102C9000289833CE2A9839CE8091CA059091CB05D9
:102CA000892B09F08ECF20E030E040EC50E46091B9
:102CB000AA057091AB058091AC059091AD050E947D
:102CC000981E18160CF07DCF80EC93E061CF109227
:102CD000F7021092F6021F928AE08F931F928DE006
:102CE0008F9388E791E09F938F9386EF93E09F9374
:102CF0008F9380ED95E09F938F930E943B1F6BEF26
:102D000070E080ED95E00E94100182E090E0A5CF98
:102D10002091CE053091CF05ECE3F0E0C901BF0171
:102D20000E949D1E9F938F93CB01BF010E949D1E09
:102D30009F938F93C90160E17EE00E949D1E7F9367
:102D40006F931F921F928DEF93E09F938F9380ED6F
:102D500095E09F938F930E943B1F0FB6F894DEBFC0
:102D60000FBECDBFF12CE12CE0EDAE2EE5E0BE2E86
:102D7000F1E3CF2EF4E0DF2E92E0E916F10409F43E
:102D800053C0A3E0EA16F10409F457C0B1E0EB1612
:102D9000F10409F440C09090B2058090B3057090A2
:102DA000B4056090B505F50101900020E9F78F01A9
:102DB000015011098091AE0569E174E080FD10C0F9
:102DC00020E030E046EC52ECD401F3016B2F782D7B
:102DD0008F2F962D0E94FD1D811138C061E274E095
:102DE000C8010E940C1FFFEFEF1AFF0A24E0E21651
:102DF000F10411F68091CA059091CB05823A3FEF1C
:102E000093070CF444C021E033E0892B09F041C062
:102E10002CEF32E03EC09090B6058090B7057090E0
:102E2000B8056090B905BFCF9090C2058090C305EA
:102E30007090C4056090C505B6CF9090C60580908F
:102E4000C7057090C8056090C905ADCF20E030E09F
:102E500044EC52ECD401F3016B2F782D8F2F962D7B
:102E60000E94FD1D69E274E0882309F4B9CF6F92D6
:102E70007F928F929F92DF92CF921F930F930E9427
:102E80003B1F0FB6F894DEBF0FBECDBFACCF28EF0F
:102E900032E080ED95E0DC010D900020E9F7CD01F6
:102EA0003F932F9329E334E03F932F9301979F9310
:102EB0008F930E943B1F8091CC059091CD050F9080
:102EC0000F900F900F900F900F9028EF32E0823A02
:102ED000BFEF9B0734F021E033E0892B11F42CEF96
:102EE00032E000ED15E0F80101900020E9F7CF0194
:102EF0003F932F9329E334E03F932F9301979F93C0
:102F00008F930E943B1FD8010D900020E9F7CD015F
:102F10001F921F921F921F925DE3E52E54E0F52E43
:102F2000FF92EF9201979F938F930E943B1FF801AE
:102F300001900020E9F78F018091AD058F9380917A
:102F4000AC058F938091AB058F938091AA058F93E9
:102F5000FF92EF92015011091F930F930E943B1FA4
:102F60000FB6F894DEBF0FBECDBFF12CE12C60EDA3
:102F7000A62E65E0B62E7BE4C72E74E0D72EF701AF
:102F80003197E930F10568F4E853F84E0C94E41EEB
:102F9000BD19C619CF19D819E119EA19F319FC1985
:102FA000051A90907E0580907F0570908005609056
:102FB0008105F50101900020E9F78F010150110909
:102FC00020E030E046EC52ECD401F3016B2F782D79
:102FD0008F2F962D0E94FD1D811120C264E474E0A4
:102FE000C8010E940C1F5FEFE51AF50A6AE0E616B9
:102FF000F10409F0C4CF80917C0590917D0520E01B
:1030000033E0892B11F425E033E080ED95E0DC011D
:103010000D900020E9F7CD013F932F9329E334E091
:103020003F932F9301979F938F930E943B1F0F9085
:103030000F900F900F900F900F9080917A059091C4
:103040007B0520E033E0892B11F425E033E080EDAF
:1030500095E0FC0101900020E9F7CF013F932F9309
:1030600029E334E03F932F9301979F938F930E941E
:103070003B1F809178050F900F900F900F900F904D
:103080000F9020E033E080FD02C025E033E080EDCA
:1030900095E0DC010D900020E9F7CD013F932F93DF
:1030A00029E334E03F932F9301979F938F930E94DE
:1030B0003B1F809178050F900F900F900F900F900D
:1030C0000F9020E033E081FD02C025E033E080ED89
:1030D00095E0FC0101900020E9F7CF013F932F9389
:1030E00029E334E03F932F9301979F938F930E949E
:1030F0003B1F809178050F900F900F900F900F90CD
:103100000F9020E033E082FD02C025E033E080ED47
:1031100095E0DC010D900020E9F7CD013F932F935E
:1031200029E334E03F932F9301979F938F930E945D
:103130003B1F809178050F900F900F900F900F908C
:103140000F9020E033E083FD02C025E033E080ED06
:1031500095E0FC0101900020E9F7CF013F932F9308
:1031600029E334E03F932F9301979F938F930E941D
:103170003B1F0F900F900F900F900F900F9080912A
:1031800076059091770520E033E0892B11F425E056
:1031900033E080ED95E0DC010D900020E9F7CD01F2
:1031A0003F932F9329E334E03F932F9301979F930D
:1031B0008F930E943B1F0F900F900F900F900F90D6
:1031C0000F90809174059091750520E033E0892B74
:1031D00011F425E033E000ED15E0F8010190002046
:1031E000E9F7CF013F932F9349E3E42E44E0F42E17
:1031F000FF92EF9201979F938F930E943B1FD801FC
:103200000D900020E9F78D0185E093E09F938F9367
:10321000FF92EF92015011091F930F930E943B1FE1
:103220000FB6F894DEBF0FBECDBF809172059091AE
:10323000730520E033E0892B11F425E033E000ED45
:1032400015E0D8010D900020E9F7CD013F932F93B1
:1032500029E3E22E24E0F22EFF92EF9201979F9352
:103260008F930E943B1FF80101900020E9F7CF01E6
:1032700035E0C32E33E0D32EDF92CF92FF92EF9250
:1032800001979F938F930E943B1FD8010D900020C0
:10329000E9F7CD01DF92CF92FF92EF9201979F93D2
:1032A0008F930E943B1FF090A605E090A705D09059
:1032B000A805C090A905F80101900020E9F78F0149
:1032C000015011090FB6F894DEBF0FBECDBF20E04C
:1032D00030E046EC52ECD701F6016B2F7A2F8F2F9E
:1032E0009E2F0E94FD1D8111A9C064E474E0C801F5
:1032F0000E940C1F80ED95E0DC010D900020E9F7A5
:10330000CD011F922AE02F931F922DE02F9328EFDB
:1033100033E03F932F9301979F938F930E943B1F1E
:103320001092F7021092F60280916C0590916D0553
:10333000A0916E05B0916F058093990690939A06BF
:10334000A0939B06B0939C066BEF70E080ED95E038
:103350000E941001809170059091710501960FB641
:10336000F894DEBF0FBECDBF8431910509F478C05B
:10337000909371058093700579CC90908205809030
:103380008305709084056090850513CE9090860526
:103390008090870570908805609089050ACE90908E
:1033A0008A0580908B0570908C0560908D0501CE0C
:1033B00090908E0580908F0570909005609091059B
:1033C000F8CD909092058090930570909405609050
:1033D0009505EFCD90909605809097057090980593
:1033E00060909905E6CD90909A0580909B0570902D
:1033F0009C0560909D05DDCD90909E0580909F0579
:103400007090A0056090A105D4CD9090A205809009
:10341000A3057090A4056090A505CBCD6F927F9217
:103420008F929F92DF92CF921F930F930E943B1F28
:103430000FB6F894DEBF0FBECDBFD5CDCF92DF92D1
:10344000EF92FF928BE494E09F938F931F930F93DF
:103450000E943B1F0FB6F894DEBF0FBECDBF4ACF10
:1034600010927105109270051092980610929706AE
:10347000FDCB259880906C0590906D05A0906E0511
:10348000B0906F05C501B40128EE33E040E050E094
:103490000E94C51EC90168E770E00E94B11E60FD70
:1034A00002C00C9466128091590581110C94340F5E
:1034B000109258051092C704109257051092D60426
:1034C0001092D1041092D00481E08093590503E05A
:1034D00011E0E8E1EE2EE1E0FE2E0C944E11E894AE
:1034E00009C097FB3EF490958095709561957F4F4C
:1034F0008F4F9F4F9923A9F0F92F96E9BB279395FA
:10350000F695879577956795B795F111F8CFFAF409
:10351000BB0F11F460FF1BC06F5F7F4F8F4F9F4F3A
:1035200016C0882311F096E911C0772321F09EE898
:10353000872F762F05C0662371F096E8862F70E0FE
:1035400060E02AF09A95660F771F881FDAF7880FD8
:103550009695879597F908950E94BF1A0C94301B91
:103560000E94221B38F00E94291B20F0952311F0A5
:103570000C94191B0C941F1B11240C94641B0E94A7
:10358000411B70F3959FC1F3950F50E0551F629F4B
:10359000F001729FBB27F00DB11D639FAA27F00DAC
:1035A000B11DAA1F649F6627B00DA11D661F829FD3
:1035B0002227B00DA11D621F739FB00DA11D621FB8
:1035C000839FA00D611D221F749F3327A00D611DD5
:1035D000231F849F600D211D822F762F6A2F1124B7
:1035E0009F5750409AF0F1F088234AF0EE0FFF1FEA
:1035F000BB1F661F771F881F91505040A9F79E3F41
:10360000510580F00C94191B0C94641B5F3FE4F38C
:10361000983ED4F3869577956795B795F795E79596
:103620009F5FC1F7FE2B880F911D9695879597F99F
:10363000089597F99F6780E870E060E008959FEF34
:1036400080EC089500240A94161617061806090639
:10365000089500240A941216130614060506089508
:10366000092E0394000C11F4882352F0BB0F40F490
:10367000BF2B11F460FF04C06F5F7F4F8F4F9F4FD0
:10368000089557FD9058440F551F59F05F3F71F052
:103690004795880F97FB991F61F09F3F79F08795B9
:1036A0000895121613061406551FF2CF4695F1DF42
:1036B00008C0161617061806991FF1CF86957105D2
:1036C000610508940895E894BB2766277727CB0106
:1036D00097F908952F923F924F925F926F927F9247
:1036E0008F929F92AF92BF92CF92DF92EF92FF9212
:1036F0000F931F93CF93DF93CDB7DEB7CA1BDB0BBE
:103700000FB6F894DEBF0FBECDBF09942A88398862
:1037100048885F846E847D848C849B84AA84B98469
:10372000C884DF80EE80FD800C811B81AA81B98175
:10373000CE0FD11D0FB6F894DEBF0FBECDBFED0189
:103740000895283008F027E03327DA01990F311D5A
:1037500087FD916000966105710539F432602E5F36
:103760003D9330E32A95E1F708959F3F30F080388C
:103770007105610509F03C5F3C5F3D93913008F0B5
:103780008068911DDF93CF931F930F93FF92EF9269
:10379000192F987F9695E92F96959695E90FFF2713
:1037A000E653FF4F99273327EE24FF24A701E701B3
:1037B00005900894079428F4360FE71EF81E491F59
:1037C000511D660F771F881F991F0694A1F705905A
:1037D000079428F4E70EF81E491F561FC11D770FE6
:1037E000881F991F661F0694A1F70590079428F477
:1037F000F80E491F561FC71FD11D880F991F661F3E
:10380000771F0694A1F70590079420F4490F561FDF
:10381000C71FD81F990F661F771F881F0694A9F727
:1038200084911095177041F0D695C7955795479597
:10383000F794E7941A95C1F7E0E7F0E068941590E3
:10384000159135916591959105907FE27395E118F9
:10385000F10A430B560BC90BD009C0F7E10CF11E5E
:10386000431F561FC91FD01D7EF4703311F48A9573
:10387000E6CFE894015030F0080F0AF40027021751
:1038800008F4202F2395022F7A3328F079E37D93D3
:103890002A95E9F710C07D932A9589F606949795A5
:1038A0006795379517951794E118F10A430B560B56
:1038B000C90BD00998F023957E9173957A3308F05F
:1038C00070E37C932013B8F77E9170617D9330F0A4
:1038D000839571E37D9370E32A95E1F71124EF90CE
:1038E000FF900F911F91CF91DF91992787FD9095C0
:1038F000089591110C948D1D803219F089508550D6
:10390000C8F708959111089581548A5108F4805E92
:10391000855A0895FC010590061621F00020D9F77C
:10392000C00108953197CF010895FC0105906150C1
:1039300070400110D8F7809590958E0F9F1F0895C5
:10394000FC016150704001900110D8F7809590956E
:103950008E0F9F1F0895CF93DF93EC012B8120FFE3
:103960001AC026FF0CC02F7B2B838E819F8101966E
:103970009F838E838A8190E0DF91CF91089522FF0B
:1039800018C0E881F9818081082E000C990B0097FE
:1039900029F420622B838FEF9FEFEECF3196F983CE
:1039A000E8832E813F812F5F3F4F3F832E839927EE
:1039B000E3CFEA85FB85099597FFF3CF2B8101962D
:1039C00021F080E2822B8B83E6CF80E1FBCF0F9347
:1039D0001F93CF93DF93182F092FEB018B8181FD6C
:1039E00009C01FEF0FEF812F902FDF91CF911F9113
:1039F0000F91089582FF14C02E813F818C819D819B
:103A0000281739073CF4E881F981CF0101969983A1
:103A1000888310838E819F8101969F838E83E3CF5D
:103A2000E885F985812F0995892BA1F3DACFFB0170
:103A3000238120FF11C026FD0FC08F3F980771F032
:103A400082832F7D20642383268137812150310991
:103A500037832683992708958FEF9FEF0895FA0102
:103A6000AA27283051F1203181F1E8946F936E7FBD
:103A70006E5F7F4F8F4F9F4FAF4FB1E03ED0B4E0AE
:103A80003CD0670F781F891F9A1FA11D680F791FEF
:103A90008A1F911DA11D6A0F711D811D911DA11D00
:103AA00020D009F468943F912AE0269F1124301910
:103AB000305D3193DEF6CF010895462F4770405DAB
:103AC0004193B3E00FD0C9F7F6CF462F4F70405D5A
:103AD0004A3318F0495D31FD4052419302D0A9F7B5
:103AE000EACFB4E0A6959795879577956795BA95AF
:103AF000C9F700976105710508959B01AC010A2E75
:103B000006945795479537952795BA95C9F7620F4B
:103B1000731F841F951FA01D089599278827089556
:103B20005058BB27AA270E94A81D0C94301B0E9446
:103B3000221B38F00E94291B20F039F49F3F19F412
:103B400026F40C941F1B0EF4E095E7FB0C94191B54
:103B5000E92F0E94411B58F3BA17620773078407C5
:103B6000950720F079F4A6F50C94631B0EF4E0950C
:103B70000B2EBA2FA02D0B01B90190010C01CA0127
:103B8000A0011124FF27591B99F0593F50F4503ED2
:103B900068F11A16F040A22F232F342F4427585FC4
:103BA000F3CF469537952795A795F0405395C9F7DC
:103BB0007EF41F16BA0B620B730B840BBAF0915094
:103BC000A1F0FF0FBB1F661F771F881FC2F70EC033
:103BD000BA0F621F731F841F48F487957795679506
:103BE000B795F7959E3F08F0B0CF9395880F08F0F2
:103BF0009927EE0F9795879508950E94741E08F4F3
:103C000081E008950E94161E0C94301B0E94291B0F
:103C100058F00E94221B40F029F45F3F29F00C94D9
:103C2000191B51110C94641B0C941F1B0E94411B07
:103C300068F39923B1F3552391F3951B550BBB27DB
:103C4000AA2762177307840738F09F5F5F4F220F20
:103C5000331F441FAA1FA9F335D00E2E3AF0E0E817
:103C600032D091505040E695001CCAF72BD0FE2F61
:103C700029D0660F771F881FBB1F261737074807F5
:103C8000AB07B0E809F0BB0B802DBF01FF279358AD
:103C90005F4F3AF09E3F510578F00C94191B0C943D
:103CA000641B5F3FE4F3983ED4F386957795679560
:103CB000B795F7959F5FC9F7880F911D96958795E2
:103CC00097F90895E1E0660F771F881FBB1F621701
:103CD00073078407BA0720F0621B730B840BBA0BBF
:103CE000EE1F88F7E0950895990F0008550FAA0B6D
:103CF000E0E8FEEF16161706E807F907C0F01216FF
:103D00001306E407F50798F0621B730B840B950B01
:103D100039F40A2661F0232B242B252B21F4089556
:103D20000A2609F4A140A6958FEF811D811D0895F3
:103D30000E94741E08F48FEF0895AA1BBB1B51E16B
:103D400007C0AA1FBB1FA617B70710F0A61BB70B0B
:103D5000881F991F5A95A9F780959095BC01CD01B0
:103D6000089597FB072E16F4009407D077FD09D02D
:103D70000E949D1E07FC05D03EF4909581959F4FB3
:103D80000895709561957F4F0895052E97FB1EF459
:103D900000940E94DC1E57FD07D00E94EA1E07FC1B
:103DA00003D04EF40C94DC1E50954095309521952F
:103DB0003F4F4F4F5F4F0895909580957095619557
:103DC0007F4F8F4F9F4F0895EE0FFF1F0590F49187
:103DD000E02D0994A1E21A2EAA1BBB1BFD010DC008
:103DE000AA1FBB1FEE1FFF1FA217B307E407F507AB
:103DF00020F0A21BB30BE40BF50B661F771F881F87
:103E0000991F1A9469F760957095809590959B011C
:103E1000AC01BD01CF010895FB01DC0101900D92C1
:103E20000020E1F70895FB01DC014150504030F0E3
:103E30008D910190801919F40020B9F7881B990B16
:103E40000895FB0151915523A9F0BF01DC014D916B
:103E500045174111E1F759F4CD010190002049F0D7
:103E60004D9140154111C9F3FB014111EFCF81E0A4
:103E700090E001970895AEE0B0E0E1E4FFE10C943A
:103E8000781B0D891E8986E08C831A8309838FEF46
:103E90009FE79E838D83AE01475E5F4F6F89788D6C
:103EA000CE0101960E942E042F813885020F131F28
:103EB000F80110822E96E4E00C94941BAEE0B0E082
:103EC000E4E6FFE10C947A1B85E08C838B899C8966
:103ED0009A838983AE01495E5F4F6D897E89CE01E9
:103EE00001960E94530A2E96E2E00C94961BF894D9
:023EF000FFCF02
:103EF200FF010000000100000000010002000000BC
:103F0200000A000300000000020028F926EC02006B
:103F1200008A010A030028922BEC0200005D010ACC
:103F2200040022548024000000D2010A050028E87F
:103F32001CEC020000DF010A060022B78C240000FC
:103F42000083010A0700282E38EC02000015010A3E
:103F52000800284004EC02000060010A090028C59C
:103F62003FEC02000095010A723A202F2F20643A9A
:103F7200683A6D3A7320202020436F6C6C542020E5
:103F820053746F725420204175783154202041754A
:103F920078325420506D702055704C202056616349
:103FA20020205670762054317374202054326E646F
:103FB2002020546261732020546F7574202054585D
:103FC20063684920545863684D20545863684F20F1
:103FD20054486F744F2054526164522054485462C2
:103FE2005220483173742048326E642041776179DF
:103FF2002048547562205377332020537734202091
:104002005261647420485475622041757846204696
:10401200446D7020423173742042326E6420205409
:10402200726F6F74202000723A202F2F2055707407
:10403200696D65202020207C202020205468657234
:104042006D616C20436F6E74726F6C6C6572204F81
:10405200757470757473202020207C20202020200D
:10406200202020202020202020202020202020204E
:10407200202020202052616469616E7420436F6E9B
:1040820074726F6C6C657220496E70757473202047
:10409200202020202020202020202020202020201E
:1040A200202020202020202020207C2020202020B2
:1040B20053776974636865732020202020207C2058
:1040C20020202020436F6E74726F6C6C6572204FDB
:1040D2007574707574732020202020207C20457810
:1040E200747261207C000100203F2000202E2000FD
:1040F200204F4E2000202E202000643A20494E49B5
:104102005420444F4E450A00643A20746865726D2B
:10411200616C2072656376200052554E54494D45BC
:104122000025643A2564004F50454E0053485254CE
:1041320000256C66004F4E004F464600643A2074DC
:104142006865726D616C2074696D656F75740A00C3
:10415200643A20746865726D616C206D61782066C6
:1041620061696C20636F756E740A00643A20616E37
:1041720074692D736970686F6E2063697263536F1F
:104182006C61723D300A00643A20616E74692D736D
:104192006970686F6E2063697263536F6C61723D00
:1041A200312064756520746F2074656D70730A0028
:1041B200643A20616E74692D736970686F6E206352
:1041C200697263536F6C61723D312064756520744E
:1041D2006F2070756D70206F666620616E6420734B
:1041E200756E6E790A0025732563256300723A2085
:1041F20025332E33643A25322E32643A25322E325A
:10420200643A25322E326420002020203F202020D4
:1042120000204F50454E2020002053484F5254203A
:10422200002520362E316620002573200025342EED
:10423200316620002020203F20200025352E3166C7
:0242420020005A
:00000001FF
