:020000040000FA
:100000000C94DC000C94F9000C94F9000C94F900A9
:100010000C94F9000C94F9000C94F9000C94F9007C
:100020000C94F9000C9460030C94F9000C94F90002
:100030000C94F9000C94F9000C94F9000C94F9005C
:100040000C945B020C94F9000C94A5020C9421030F
:100050000C94F9000C94F9000C94F9000C94F9003C
:100060000C94F9000C94F9006E616E00696E6600E4
:1000700000407A10F35A00A0724E18090010A5D45F
:10008000E80000E87648170000E40B54020000CABC
:100090009A3B000000E1F505000080969800000002
:1000A00040420F000000A086010000001027000061
:1000B0000000E803000000006400000000000A00E7
:1000C000000000000100000000002C76D888DC67EA
:1000D0004F0823DFC1DFAE59E1B1B796E5E3E45342
:1000E000C63AE651997696E8E6C28426EB898C9B5F
:1000F00062ED407C6FFCEFBC9C9F40F2BAA56FA5FF
:10010000F490055A2AF75C936B6CF9676DC11BFC80
:10011000E0E40D47FEF520E6B500D0ED902E03009B
:10012000943577050080841E080000204E0A0000E8
:1001300000C80C333333330F986E12831141EF8DA7
:100140002114893BE65516CFFEE6DB18D1844B38E7
:100150001BF77C1D901DA4BBE424203284725E2218
:100160008100C9F124ECA1E53D276364696E6F70DD
:10017000737578585B65666745464700616E006E2B
:1001800066696E69747900CDCCCC3D0AD7233C17E3
:10019000B7D13877CC2B329595E6241FB14F0A00A2
:1001A0000020410000C84200401C4620BCBE4CCA92
:1001B0001B0E5AAEC59D740011241FBECFEFD8E0B0
:1001C000DEBFCDBF14E0A0E0B1E0E0EDFDE302C092
:1001D00005900D92A038B107D9F726E0A0E8B4E069
:1001E00001C01D92AC3CB207E1F70E940A0B0C94CF
:1001F000E61E0C94000081E090E09093F60280935C
:10020000F502089581E090E09093EE048093ED0470
:10021000089581E090E09093890480938804089584
:100220002091860430918704232B81F490938704D6
:100230008093860470938504609384048091C10048
:1002400080628093C10090E080E0089581E090E0BA
:10025000089540918A0450918B04CA01FA012081CB
:100260004F5F5F4F2032C9F390938B0480938A04D1
:10027000211102C090E080E00895E0918A04F0919D
:100280008B04009731F090938B0480938A040C9434
:1002900029019E2F8F2F2191222339F02032C9F777
:1002A00090938A0480938B04F2CF90938A04809376
:1002B0008B0490E080E00895E7E1F1E040E050E059
:1002C00066EC72EC81E0E737F80709F4089583855E
:1002D0008F5F83878B3068F0A081B181AA0FBB1F2D
:1002E000AA0FBB1FA056BA4F4D935D936D937C939D
:1002F00013973C96E7CF5A985E9808955A985E9A5D
:1003000089B185FB882780F990E008954091FA042F
:100310005091FB046091FC047091FD0404C076953B
:100320006795579547958A95D2F788E040FF88EF03
:1003300041FF14C0885F42FF13C0885F43FF12C0B3
:10034000885F44FF11C0885045FF10C0885046FFA9
:100350000FC0885047FF0EC0885008958850EBCFDB
:100360008850ECCF8850EDCF885FEECF885FEFCF1D
:10037000885FF0CF885F0895CF93DF93EC011092F0
:1003800081041092800463ED71E0CE010E9410019F
:10039000892BC9F78091800490918104892BD1F336
:1003A000DF91CF91089581E090E090938104809354
:1003B00080040895806680937C0087EC80937A00A7
:1003C00080917A0086FDFCCF8091790090E00895BD
:1003D00029E030E041E050E02150310909F408956E
:1003E000F894BA01682379235E985A98672B79F0BC
:1003F00065E36A95F1F700005E9AEBEDF0E0319766
:10040000F1F700C000007894440F551FE5CFE3E0FA
:10041000F1E03197F1F700C000005E9AFAE1FA9539
:10042000F1F700C0F0CF5A9A8DE790E0019721F1E3
:100430002AE02A95F1F700C04D9BF8CF5E985A98B4
:100440008FEC97E00197F1F700C000005A9AEFE3B4
:10045000F1E03197F1F700C0000089B182958695EF
:10046000877091E08927817090E0EFE8F6E031979E
:10047000F1F700C00000089580E090E008950E9428
:100480005C015598569A529A0E947E01892B81F000
:100490008FE39CE90197F1F700C000000E9413026E
:1004A00031E020E0892B09F030E0832F922F08956E
:1004B00081E090E008951F920F920FB60F921124E1
:1004C0002F933F938F939F93AF93BF938091C806D1
:1004D0009091C906A091CA06B091CB063091C7068B
:1004E00023E0230F2D3758F50196A11DB11D209350
:1004F000C7068093C8069093C906A093CA06B09316
:10050000CB068091C3069091C406A091C506B09118
:10051000C6060196A11DB11D8093C3069093C40623
:10052000A093C506B093C606BF91AF919F918F91DE
:100530003F912F910F900FBE0F901F90189526E8B6
:10054000230F0296A11DB11DD2CF1F920F920FB69D
:100550000F9211242F933F934F935F936F937F9349
:100560008F939F93AF93BF93CF93EF93FF9380911C
:10057000C00084FD4BC08091C00083FD47C08091C6
:10058000C00082FB222720F930E0C091C600809194
:100590008E0490918F04BC016F5F7F4FE0919404B3
:1005A000F09195046E177F07B4F4409183044A30AC
:1005B00011F0009781F04091920450919304709350
:1005C0008F0460938E04840F951FDC01CC93460F3B
:1005D000571FDA011C92232BE1F010928F04109226
:1005E0008E04C0E0C0938304FF91EF91CF91BF913F
:1005F000AF919F918F917F916F915F914F913F91BB
:100600002F910F900FBE0F901F90189521E030E0B2
:10061000BCCFEF2B39F3CA3029F710929504109212
:10062000940460918E0470918F04E0919004F09195
:10063000910450E040E080919204909193040995D8
:10064000D1CF1F920F920FB60F9211242F933F9389
:100650004F935F936F937F938F939F93AF93BF93CA
:10066000EF93FF93E0918604F091870480818823C3
:10067000C1F03196F0938704E09386048093C6001E
:10068000FF91EF91BF91AF919F918F917F916F916A
:100690005F914F913F912F910F900FBE0F901F9040
:1006A00018958091C1008F7D8093C10010928704BE
:1006B00010928604E0918404F09185040995E0CFBE
:1006C0001F920F920FB60F9211242F933F934F93C7
:1006D0005F936F938F939F93AF93BF93EF93FF932A
:1006E000309182043F5F3093820469B1809181052B
:1006F0008823D1F040918005E42FEF77F0E0E150BE
:10070000FB4F50812091EF0481E090E0022E01C068
:10071000880F0A94EAF763FF2EC0852B80832F5F32
:10072000283061F12093EF043A30A9F4109282044A
:1007300080918E0590918F05A0919005B0919105C3
:100740000196A11DB11D80938E0590938F05A093F6
:100750009005B0939105FF91EF91BF91AF919F915B
:100760008F916F915F914F913F912F910F900FBE9D
:100770000F901F90189580958523D0CF1092EF048D
:100780004F5F40938005D0CFAFE0B0E0EAECF3E0FC
:100790000C94D91A6C011B015A01FC0117821682B4
:1007A000838181FF48C39E012F5F3F4F4901F601BE
:1007B0009381F10193FD859193FF81911F0188231E
:1007C00009F4E7C2853239F493FD859193FF819155
:1007D0001F01853239F4B60190E00E94561C3501A4
:1007E0005301E5CFF12C512C00E0003238F48B326C
:1007F00009F190F48032F9F0833209F107FD34C039
:1008000020ED280F2A3020F506FF1BC0FAE0FF9EDE
:10081000200D1124F22E05C08D3279F0803371F74E
:100820000160F10193FD859193FF81911F01811179
:10083000DCCF1AC002600460F4CF0860F2CF006120
:10084000F0CF3AE0539E200D1124522E0062E9CFE2
:100850008E3221F406FD9DC20064E3CF8C3611F484
:100860000068DFCF8836E9F29BEB980F933008F0F1
:100870005FC00061805E06FD02C046E0F42E102FCE
:100880001F73853609F05BC0106417FF61C08F2DA0
:100890009BE39F1508F48BE344244394480E27E020
:1008A0003501F4E06F0E711CF50160817181828168
:1008B0009381042DA4010E94101B5C01F981FC8727
:1008C000F0FF03C00DE2F3FF07C00BE211FD04C00F
:1008D000012F047012FD00E22C852C70E22E09F429
:1008E00057C00111ABC2F3E0E12CF515A0F483E091
:1008F000E52CE81A13FD08C0B60180E290E00E94E2
:10090000561CEA94E110F8CF002329F0B601802F9D
:1009100090E00E94561C3C8528E6A22E20E0B22ED4
:1009200033FD04C09CE6A92E90E0B92E107122C0C0
:100930009BE9980F933008F033C10F7E9CCF863629
:1009400011F41068A2CFFF2009F49FCFFA949DCF35
:10095000E7E02F2DEF1518F427E037E0F32E412CB8
:100960009FCF11118052B60190E00E94561C8FEF6C
:10097000A81AB80AF50184918111F3CFEE2009F489
:100980002FCFB60180E290E00E94561CEA94F6CF89
:1009900017FF6FC04A0CFC85F4FF04C08A818133C5
:1009A00009F44A9414140CF086C028E0241510F4BD
:1009B00088E0482E85E090E017FF06C0C501B7FE2D
:1009C00002C090E080E0019601110196FF2031F015
:1009D0002F2D30E02F5F3F4F820F931F58161906BF
:1009E00019F014F0E52CE81A812F897011F4E11048
:1009F00067C0002329F0B601802F90E00E94561CAA
:100A000013FD02C0E11063C017FF7CC08501B7FE73
:100A100002C010E000E0C501841991092C016F2D7E
:100A200070E0EE27FF27E61BF70BFF87EE870F3FEF
:100A3000100729F4B6018EE290E00E94561CA01621
:100A4000B1060CF44BC0401651060CF047C0F5013E
:100A5000E01BF10BE80DF91D8181015011092E8574
:100A60003F8502171307E4F1B60190E00E94561C7F
:100A7000DECF16FD9FCFEF2DF0E0EA15FB0534F039
:100A80003CEFA3163FEFB3060CF010683296E80D6A
:100A9000F91D01C0FA94FF2019F082918033D1F33F
:100AA00017FF88CF442443944F0CFA141B0431F0F1
:100AB0002CF0FA187FCF442443947CCFF12C7ACFCA
:100AC000B60180E290E00E94561CEA9490CFB601F5
:100AD00080E390E00E94561CEA9494CF80E3BDCF5F
:100AE000A016B10641F49A81963350F4953319F467
:100AF0003C8534FF05C0B60190E00E94561C3ECFF5
:100B000081E3F9CF8A81813319F09C859F7E9C8790
:100B1000B60190E00E94561CFF20A9F0B6018EE2BB
:100B200090E00E94561CF394F394E2E001E00E0F73
:100B3000E80DF92DF11D8081B60190E00E94561C50
:100B4000E02F0F11F3CF85E690E014FF02C085E49B
:100B500090E0B6010E94561CB7FC06C0A114B10477
:100B6000C1F4EC85E4FF15C0B194A194B1088DE205
:100B7000B60190E00E94561C80E32AE0A216B10460
:100B800054F4B60190E00E94561CB601C501C0960F
:100B9000B4CF8BE2EDCF8F5FFAE0AF1AB108EDCFA3
:100BA0008336C9F0833771F1833509F05BC03501B5
:100BB000F2E06F0E711CF501A080B1806F2D70E026
:100BC00006FD02C06FEF7FEFC5010E94041C9D87E8
:100BD0008C8700680DC0350132E0630E711CF50191
:100BE0008081898321E030E03D872C8754010F7795
:100BF00003FD06C02C853D855216130609F0A8F4A6
:100C0000E52C2BC0350132E0630E711CF501A0808C
:100C1000B1806F2D70E006FD02C06FEF7FEFC50160
:100C20000E940F1C9D878C87E2CFB60180E290E086
:100C30000E94561C5A94DECFF50107FD859107FFEF
:100C400081915F01B60190E00E94561CE110EA9488
:100C50008C859D8501979D878C87EC85FD85EF2B85
:100C600059F78CCE843619F0893609F074C03501F5
:100C700007FF66C0F4E06F0E711CF50160817181A1
:100C800082819381102F1F7697FF08C090958095E1
:100C9000709561957F4F8F4F9F4F10682AE030E02D
:100CA000A4010E949E1CA82EA818BA2C012F16FF82
:100CB0000AC00E7FAF1438F414FF04C012FD02C046
:100CC000012F0E7EBF2C04FF8EC0FE01EA0DF11D28
:100CD0008081803309F080C0097EF02FF870EF2EFC
:100CE00003FD90C000FF8AC0FA2CB51410F4F50C77
:100CF000FB1804FF8DC0B60180E390E00E94561CF3
:100D000002FF09C088E790E001FF02C088E590E09B
:100D1000B6010E94561CAF1408F486C0AA940A2D8E
:100D200010E00F5F1F4F080D191DF80182918F0110
:100D3000B60190E00E94561C80169106B1F71ECEB7
:100D4000F2E06F0E711CF50160817181072E000CBD
:100D5000880B990B97CF102F8537A9F41F7E2AE0B7
:100D600030E0350117FF2FC0F4E06F0E711CF50164
:100D70006081718182819381A4010E949E1CA82EB2
:100D8000A8181F7792CF197F8F36D1F048F4883595
:100D900091F0F601868197812F96E2E10C94F51A85
:100DA000803739F08837A9F714FD146020E130E06E
:100DB000D8CF1061F9CF04FD166020E132E0D1CF29
:100DC00028E030E0CECFF2E06F0E711CF5016081BB
:100DD000718190E080E0D0CF02FD02C0B3947DCF5E
:100DE000B394B3947ACF802F867809F476CFF6CF78
:100DF000B60180E290E00E94561CB394B514C0F393
:100E0000E12C77CFE52CEB18B51408F472CFF8CFAE
:100E1000802F867809F47FCF8BE201FF80E207FD07
:100E20008DE2B60190E075CFB60180E390E00E94BC
:100E3000561CFA9470CF8FEF9FEFAECF24E0E12CD9
:100E4000251508F063CD84E053CD20FD09C0FC01D9
:100E500023FD05C022FF02C0738362835183408358
:100E6000089544FD17C046FD1DC0DB01FC01AA0F1B
:100E7000BB1FEE1FFF1F1094D1F76A0F7B1F8E1F41
:100E80009F1F660F771F881F991F620F711D811D9D
:100E9000911D089533E0660F771F881F991F315009
:100EA000D1F7F3CF34E0F7CF0F931F93CF93DF93B6
:100EB0008C01C8010E941A1CEC0197FD08C00E9419
:100EC000E81B892BB1F7B801CE010E94861CCE0128
:100ED000DF91CF911F910F910895B0E0A0E0E3E77B
:100EE000F7E00C94DF1A7C018B016A01D22F0E947B
:100EF0001A1C9C0133272B32310521F02D3231058C
:100F000079F4D0680150110931F480E0CDB7DEB733
:100F1000ECE00C94FB1AC7010E941A1C97FDF5CF58
:100F2000CD2FCD7F2D2F207309F58033F9F4580193
:100F300081E0A81AB10891F0C7010E941A1C97FD20
:100F40000DC0282F2F7D283569F4C2640250110985
:100F500029F0C7010E941A1C97FF08C0812C912C10
:100F600054011BC0D6FF2BC0C2608501812C912C7F
:100F7000540120ED280F283028F1C4FD09C02A3083
:100F800008F1C6FF05C02F7D3FEE320F3630C8F0A6
:100F9000B7010E94861CC1FFB8CFC7FF08C0B0943C
:100FA000A09490948094811C911CA11CB11C2C2FA6
:100FB000B501A401C6010E94250781E0A7CFC26147
:100FC000D4CF27504C2FC501B4010E9431074B01EB
:100FD0005C01C2600150110901F3C7010E941A1C93
:100FE00097FFC7CFD8CFA0E2B0E0E9EFF7E00C94CD
:100FF000DD1A5C014B017A01CE0101966C0180E2A1
:10100000F60111928A95E9F7F501B381890130E083
:1010100020E0612C712CA0E041E050E0F801B3FD2C
:101020008591B3FF8191982F8F01811107C010E046
:1010300000E0C801A096EEE00C94F91A8E3519F480
:101040002115310541F1A21713064CF48D3549F1F4
:101050008D3229F4711006C0772473941DC0772057
:1010600009F465C0E92FE695E695E695EC0DFD2DB2
:10107000F11D892F8770BA0101C0660F8A95EAF7C2
:101080008081682B6083691651F0961510F49F5F7C
:10109000E9CF9150E7CFA1E02F5F3F4FBFCF712C39
:1010A000FBCF772019F08E8180628E83AA2359F0BE
:1010B000F6019E012F5D3F4F8081809580833196A0
:1010C000E217F307C9F777247394C5010E941A1C2D
:1010D00097FD16C0E82FE695E695E695EC0DFD2DFB
:1010E000F11D208130E0AC014770552702C03595D5
:1010F00027954A95E2F720FD06C0B5010E94861C9F
:10110000772071F094CFE114F10429F0F701808386
:10111000C70101967C0191E0891A9108712CA9F60A
:10112000E114F10409F485CFF701108282CFE82F92
:10113000E695E695E695EC0DFD2DF11D982F97703F
:10114000BA0101C0660F9A95EAF79081692B608316
:10115000682EA2CF2F923F924F925F926F927F9212
:101160009F92AF92BF92CF92DF92EF92FF920F9336
:101170001F93CF93DF936C018B011A010E941A1CFD
:10118000EC0199278B32910521F08D97C9F0B12C94
:1011900020C0B12C01501109B1F480E0DF91CF9152
:1011A0001F910F91FF90EF90DF90CF90BF90AF9085
:1011B0009F907F906F905F904F903F902F900895F9
:1011C00030E8B32EE7CFC6010E941A1CEC0197FD50
:1011D000E4CFCE010E94F11B8936910509F4C0C00D
:1011E0008E36910509F4ACC0412C512C3201F12C02
:1011F000E12C2C2F20539B2C2A3008F0CFC0689470
:1012000091F88B2D8870B2FEB0C0811103C0EFEF52
:10121000EE1AFE0A0150110931F0C6010E941A1C93
:10122000EC0197FFA0C091FEB8CF8C2F8F7D853445
:1012300009F042C05801E1E0AE1AB10809F4ADCF9F
:10124000C6010E941A1CEC0197FDA7CF99278B328B
:10125000910521F08D9761F4689494F85801F2E0BB
:10126000AF1AB10809F499CFC6010E941A1CEC010B
:10127000CE01C0970A9708F090CF10E000E0B801C7
:10128000110F880B990B2C2F205340E20E9431073D
:101290008B0121E0A21AB10839F0C6010E941A1C84
:1012A000EC01C0970A9758F394FE03C0119501957D
:1012B0001109E00EF11E8501012B31F0D7FD04C0AC
:1012C000B601CE010E94861CC301B2010E94DE1944
:1012D000C3EBD1E0F7FE05C0F194E194F108CBE94E
:1012E000D1E06E01E8E1CE1AD10800E210E067C05B
:1012F0000150110971F0C6010E941A1C3C0197FDB2
:1013000008C00E94F11BF816E9F0B601C3010E9463
:10131000861CC258D14009F040CF80E090E0A0E8A0
:10132000BFE7BC01CD019B2C97FC905821143104E0
:1013300029F0F101608371838283938381E02ECF52
:10134000CCE7D1E02196FE013197F490F110D0CF97
:10135000CF57D14011F780E090E0A0ECBFE7E1CF9C
:10136000CFE7D1E0EFCFB92C44CF882319F0F1E0DB
:10137000EF1AF10840E2C301B2010E9431072B01CC
:101380003C0128E9421629E95206620629E1720663
:1013900008F440CF8B2D8660982E3CCF2E3F09F06D
:1013A00042CFB3FC40CF689493F834CFFE0125912F
:1013B0003591459154910E941B1AE01AF10AE016EA
:1013C000F106A0F7249716950795CC15DD05B9F71A
:1013D000ABCFB0E0A0E0EFEEF9E00C94DD1A5C01D9
:1013E000EB014A01FC0117821682612CF501038191
:1013F000FE0103FD859103FF8191182FEF018823E2
:10140000E9F090E00E94E81B892B21F0C5010E94C1
:101410005407ECCF153241F4FE0103FD159103FF93
:101420001191EF01153269F4C5010E941A1C97FD54
:1014300096C01817D9F2B5010E94861C862D90E03F
:1014400092C0712C1A3239F403FD159103FF1191EA
:10145000EF0177247394F12CE12C20ED210F2A3039
:1014600050F171FE38C0E114F10441F31836B9F1BE
:101470001C3609F43FC0112309F3612F70E08AE69E
:1014800091E00E94F91B892BC9F2D12CC12C70FC70
:1014900006C0F401C080D180C40102964C011E3602
:1014A00091F5F5014681578170E060E0272DC60176
:1014B0000E9425079BCF689471F8B70190E080E007
:1014C00040E20E9431077B01FE0103FD159103FFFD
:1014D0001191EF01C2CFEE24EA94FE2CC7CFFE019A
:1014E00003FD159103FF1191EF01183609F0C3CFE9
:1014F000689473F8689472F8FE0103FD159103FF78
:101500001191EF01B8CF1336D1F471FC03C0EE2472
:10151000E394F12CC5010E941A1C97FD20C0C11450
:10152000D10429F0F6018083C60101966C0191E097
:10153000E91AF10879F770FC59CF639457CF1B353E
:10154000B9F49E01A601B701C5010E94F307EC01A1
:10155000892B89F7F5018381807309F46FCF8FEFB1
:101560009FEF61106BCFCDB7DEB7EEE00C94F91AA8
:10157000C5010E94540797FDF2CF1F3609F447C0FA
:1015800090F4143609F440C0193621F0183581F46E
:10159000689476F8272DA601B701C5010E946D0752
:1015A0008111C9CFD7CF1337D1F040F4103781F371
:1015B000A601B701C5010E94AA08F2CF153721F193
:1015C000183731F3F5CFC114D10429F0F6010083A7
:1015D000C60101966C0191E0E91AF10871F0C501AC
:1015E0000E941A1C8C0197FD08C00E94E81B892BE1
:1015F00051F3B501C8010E94861CC114D10409F43D
:101600009ACFF601108297CF689475F8C3CF68948B
:1016100074F8C0CFCF93DF93CDB7DEB76F970FB617
:10162000F894DEBF0FBECDBF789484B5826084BDD0
:1016300084B5816084BD85B5826085BD85B58160D6
:1016400085BD80916E00816080936E001092810054
:10165000809181008260809381008091810081600F
:1016600080938100809180008160809380008091D0
:10167000B10084608093B1008091B000816080935C
:10168000B00080917A00846080937A0080917A0023
:10169000826080937A0080917A00816080937A00E2
:1016A00080917A00806880937A001092C100109235
:1016B000930410929204109291041092900410924C
:1016C000950410929404109287041092860410924C
:1016D0008504109284048FE98093C40081E0809394
:1016E000C50098E99093C10099E19093B30080936D
:1016F000700083E08093B0008BE08093B1005F982E
:1017000028982998579A209A219A2A982B982C98A9
:10171000229A239A249A80E680937C0087E880931B
:101720007A005C9A2D9A0E943F02E0910201F091AA
:101730000301EE0FFF1FEE0FFF1FE056FA4F80E090
:1017400090E0A6ECB2EC80839183A283B383E09116
:101750000901F0910A01EE0FFF1FEE0FFF1FE05687
:10176000FA4F80839183A283B383E0911001F091BB
:101770001101EE0FFF1FEE0FFF1FE056FA4F80839F
:101780009183A283B383109289041092880469E044
:1017900071E089E093E00E941001892BC1F78091EC
:1017A000880490918904892BD1F300910001109154
:1017B00001010115110509F014C18091ED0490910A
:1017C000EE04892B09F44FC387E193E00E94BC012A
:1017D0008CE994E00E94BC011092D5051092D405CA
:1017E0008CE994E090938B0480938A040E942901F1
:1017F0007C01009709F4EDC068E273E00E94901E3E
:10180000892B09F0E6C0CE0145969F938F930296EF
:101810009F938F9380E393E09F938F93FF92EF9238
:101820000E94CD1E0FB6F894DEBF0FBECDBF02974B
:1018300009F48BC18091D4059091D5058061909376
:10184000D5058093D405F12CE12C5E0131E1A30E86
:10185000B11CE0E48E2EE3E09E2E90E080E00E943A
:101860003D016C01009709F081C180918C04909139
:101870008D04019690938D0480938C040B970CF04B
:10188000E6C153E0E516F10409F41AC20CF0E8C110
:1018900071E0E716F10409F4F9C182E0E816F104F9
:1018A00009F401C2298D3A8D4B8D5C8D2093D805AA
:1018B0003093D9054093DA055093DB055FEFE51AC5
:1018C000F50A66E0E616F10441F690E080E00E9439
:1018D0003D017C01009779F042E050E064E473E060
:1018E0000E94821E892B09F005C281E090E090934E
:1018F000F1058093F00590E080E00E943D017C01BD
:10190000009779F042E050E064E473E00E94821EA8
:10191000892B09F007C281E090E09093F305809352
:10192000F205E090D405F090D505C70181719927A3
:10193000892B21F410928D0410928C048BE493E097
:101940000E94BC01E0FE04C080E693E00E94BC015E
:10195000E4FE04C087E793E00E94BC017FEEE72E1F
:1019600073E0F72E0330110509F41CC20CF0F2C12C
:101970000130110509F400C20230110509F407C253
:10198000D090D805C090D905B090DA05A090DB05BD
:101990008FE893E00E94BC0120E030E040EC52EC84
:1019A000D601F5016B2F7C2D8F2F9A2D0E946C1D77
:1019B00081110EC28BEC93E00E94BC010F5F1F4FA0
:1019C0000630110579F6E0918C04F0918D04FF8FBB
:1019D000EE8F2E8D3F8D232B21F410929B041092BD
:1019E0009A0410920101109200011092EE041092DC
:1019F000ED0480918E0590918F05A0919005B09196
:101A000091058093960490939704A0939804B093C3
:101A100099048091940490919504892BB1F48CE9F8
:101A200094E0909393048093920482E091E09093E9
:101A300091048093900410928F0410928E0481E59B
:101A400090E090939504809394048091D4059091B4
:101A5000D50581719927892B09F48EC2549886E0A7
:101A600090E00E94DA01BC01990F880B990B0E944B
:101A7000E01920E030E04FE753E40E94711D20E0C0
:101A800030E040EA50E40E941B1A26E636E646E9BA
:101A900050E40E941B1A6093D0057093D105809387
:101AA000D2059093D30582E090E00E94DA01BC0158
:101AB000990F880B990B0E94E01920E030E04FE766
:101AC00053E40E94711D20E030E040EA50E40E949F
:101AD0001B1A26E636E646E950E40E941B1A60937C
:101AE000CC057093CD058093CE059093CF05609182
:101AF0008E0570918F05809190059091910528EE4B
:101B000033E040E050E00E94341E3093F50520930E
:101B1000F40500EA15E06CECE62E65E0F62ED8013F
:101B20006D917D918D919D918D0120E030E046EC8D
:101B300052EC0E946C1D882311F40C94AA19E01633
:101B4000F10669F7259A0C94AB192F89388D4CE36F
:101B5000429FC001439F900D11242D893E89820F21
:101B6000931F9093D7058093D6056DCE44E050E047
:101B700066E373E00E94821E0097D9F42091D40599
:101B80003091D505A701445051094230510510F05C
:101B900084E090E0822B932B9093D5058093D4051D
:101BA00040E050E066EC72EC498F5A8F6B8F7C8F6F
:101BB00068CE44E050E06BE373E0C6010E94821EF1
:101BC000892B91F48091D4059091D50588609093EC
:101BD000D5058093D40560E070E084EC92EC698FC9
:101BE0007A8F8B8F9C8F4DCEBF92AF929F928F92A8
:101BF000DF92CF920E94CD1E0F900F900F900F900A
:101C00000F900F900197D1F08091D4059091D50558
:101C100080619093D5058093D40580918C04909138
:101C20008D04019690938D0480938C040B970CF493
:101C300028CE40E050E062EC72ECB6CF89899A89F8
:101C4000AB89BC89898F9A8FAB8FBC8F1ACE20E06D
:101C500030E040EC52EC298F3A8F4B8F5C8F11CEE5
:101C600094E0E916F104C9F1A5E0EA16F10409F0DF
:101C700019CE498D5A8D6B8D7C8D4093EC05509318
:101C8000ED056093EE057093EF0518CE498D5A8DE2
:101C90006B8D7C8D4093DC055093DD056093DE05F4
:101CA0007093DF050BCE698D7A8D8B8D9C8D609343
:101CB000E0057093E1058093E2059093E305FECD86
:101CC000898D9A8DAB8DBC8D8093E4059093E5054D
:101CD000A093E605B093E705F1CD298D3A8D4B8DA4
:101CE0005C8D2093E8053093E9054093EA05509315
:101CF000EB05E4CD43E050E067E473E0C7010E94E8
:101D0000821E892B29F41092F1051092F005F3CD73
:101D10008091D4059091D50580619093D5058093ED
:101D2000D405E9CD43E050E067E473E0C7010E94C9
:101D3000821E892B29F41092F3051092F205F1CD41
:101D40008091D4059091D50580619093D5058093BD
:101D5000D405E7CD0430110581F10530110509F0F6
:101D60000FCED090EC05C090ED05B090EE05A090A0
:101D7000EF0581EC93E00ECED090DC05C090DD0540
:101D8000B090DE05A090DF0589E993E003CED09006
:101D9000E005C090E105B090E205A090E30583EA7C
:101DA00093E0F8CDD090E405C090E505B090E6054D
:101DB000A090E7058DEA93E0EDCDD090E805C090C6
:101DC000E905B090EA05A090EB0587EB93E0E2CD42
:101DD00020E030E046EC52ECD601F5016B2F7C2D73
:101DE0008F2F9A2D0E946C1D811103C084ED93E00A
:101DF000E3CD20E030E044EC52ECD601F5016B2F4E
:101E00007C2D8F2F9A2D0E946C1D811103C08AEDAD
:101E100093E0D2CD20E030E042EC52ECD601F50167
:101E20006B2F7C2D8F2F9A2D0E946C1D811103C06A
:101E300080EE93E0C1CDAF92BF92CF92DF92FF923E
:101E4000EF9281E090E08C0F9D1F9F938F930E94F3
:101E5000AA1ECE0101960E94BC010FB6F894DEBF07
:101E60000FBECDBFABCDC0908E05D0908F05E0905A
:101E70009005F09091058091960490919704A0911F
:101E80009804B0919904A7019601281B390B4A0BBD
:101E90005B0BCA01B90128EE33E040E050E00E943C
:101EA000341E253131050CF4D0CDC0929604D09269
:101EB0009704E0929804F092990400919A0410918A
:101EC0009B04053011050CF0C0CD0F5F1F4F109320
:101ED0009B0400939A0484EF93E00E94BC010530B8
:101EE000110509F0B2CD88E094E00E94BC0181E0C8
:101EF00090E09093D5058093D40580E090E0AEEB20
:101F0000B2EC8093D8059093D905A093DA05B093ED
:101F1000DB058093DC059093DD05A093DE05B0938F
:101F2000DF058093E0059093E105A093E205B0936F
:101F3000E3058093E4059093E505A093E605B0934F
:101F4000E7058093E8059093E905A093EA05B0932F
:101F5000EB058093EC059093ED05A093EE05B0930F
:101F6000EF0581EA9FEF9093F1058093F005909340
:101F7000F3058093F20569CD549A71CDD090800518
:101F800080917F05D81A5090040120900B01609039
:101F9000120148E1342E57E0452EDD2011F40C9457
:101FA000D61970907F05E72DEF77F0E0E150FB4FF9
:101FB00080812091FE04422F022E000C550B90E0F0
:101FC00027FF25C051954195510902C095958795E8
:101FD0004A95E2F7092E000CAA0BBB0B8093FA047A
:101FE0009093FB04A093FC04B093FD04285F20931E
:101FF000FE04F090FE040091F8041091F904F3E15E
:10200000FF15E4F0739470927F05DA94C6CFB0E0C8
:10201000A0E0022E04C0880F991FAA1FBB1F0A94BC
:10202000D2F74091FA045091FB046091FC04709146
:10203000FD04842B952BA62BB72BD0CF01151105B2
:1020400009F45CC003301105D0F680E00E948601DF
:10205000E82E81E00E948601C82E82E00E9486015F
:102060006C2D0C2C000C770B77FF03C071956195DC
:1020700071092E2D0E2C000C330B37FF03C0319548
:1020800021953109482F082E000C550B57FF03C02E
:10209000519541955109621773070CF471C064178B
:1020A00075070CF473C08C2D91E00230110509F412
:1020B0009FC089320CF46CC08091F7048F5F8093CD
:1020C000F70489E0890F4091FA045091FB04609174
:1020D000FC047091FD0404C076956795579547956B
:1020E0008A95D2F74093FA045093FB046093FC0462
:1020F0007093FD0437EFF30EF91A3FC08091FA0494
:102100009091FB04A091FC04B091FD04AC01BD01D1
:1021100076956795579547958A019B010E7711270C
:10212000222733270E30110521053105E9F4E1E0BE
:10213000E093F7042AE0B695A795979587952A9599
:10214000D1F78093FA049093FB04A093FC04B0931E
:10215000FD0486EF8F0D8093FE0421E030E0309384
:10216000F9042093F80445CF4093FA045093FB04FC
:102170006093FC047093FD04FA94F092FE0439CF4E
:10218000241735071CF08E2D90E08FCF92E08DCF75
:10219000883D0CF0D9C08091F7048B3008F4D4C08E
:1021A0004FEF4093F60489E0890F4091FA04509173
:1021B000FB046091FC047091FD0404C07695679562
:1021C000579547958A95D2F74093FA045093FB04AC
:1021D0006093FC047093FD0457EFF50EF91AF0922A
:1021E000FE0462E070E07093F9046093F80401CF9C
:1021F00028E2280F213508F4A7C02091F60427FD16
:1022000013C0E22FE595E595E5950E2E000CFF0B2A
:10221000E051FB4F408150E0440F551F31E018164C
:102220000CF030E0432B40832F5F2093F60489E0CD
:10223000890F4091FA045091FB046091FC04709165
:10224000FD0404C076956795579547958A95D2F712
:102250004093FA045093FB046093FC047093FD04D4
:1022600077EFF70EF91AF092FE04203309F0C1CE91
:102270004091F504E0EFF4E094E68CE7319128E03A
:10228000582F517080FB879587F95111832537FDB1
:102290009827330F2150A1F7A5EFB4E0AE17BF0781
:1022A00069F7491351C08091F004853409F04CC09E
:1022B0008091F404853608F047C08091F204682FBD
:1022C000677070E0762F66279091F304690F711D97
:1022D0009B01285C310929373540B0F5807782951C
:1022E0008F708F5F8515A9F18215B1F168122CC02E
:1022F00082E090E0489E9001499E300D1124F90142
:10230000EE5FFE4F7F0100811181000F111F000F52
:10231000111F00561A4F60597140072E000C880B90
:10232000990B0E94E01920E030E040E251E40E9465
:10233000711DD8016D937D938D939C931397F70135
:1023400083829482A582B6821092F9041092F804D6
:1023500050CE90E080E0CECF81E090E0CBCFF8018E
:1023600083819481A581B681A5019401281B390B35
:102370004A0B5B0BCA01B90128EE33E040E050E0A4
:102380000E94341E293532408CF0D801ED91FC9129
:10239000EE0FFF1FEE0FFF1FE056FA4F20E030E078
:1023A00046EC52EC2083318342835383095F1F4FF5
:1023B000E016F106A1F683E090E00E94DA0110E059
:1023C00000E0853D910564F402E010E08539910557
:1023D0003CF401E010E08337910514F403E010E0D1
:1023E00087E090E00E94DA01853D91052CF4853963
:1023F00091050CF43CC2086010939B0500939A056C
:1024000060918E0570918F05809190059091910556
:10241000C0908405D0908505E0908605F0908705F2
:102420006C197D098E099F0928EE33E040E050E0E9
:102430000E94341E253131050CF401C32090D805CB
:102440003090D9054090DA055090DB058090DC058E
:102450009090DD05A090DE05B090DF0520E030E033
:102460004EEB52ECC201B1010E946C1D18160CF02B
:1024700009C220E030E04EEB52ECC501B4010E94ED
:102480006C1D18160CF0FCC120E030E043E453E46E
:10249000C201B1010E94071E18160CF4EFC1FF24FF
:1024A000F39420E030E045E253E4C501B4010E941A
:1024B000071E18160CF0F12C8F2D8D8F20E030E0C8
:1024C0004EEB52ECC501B4010E946C1D1816B4F419
:1024D00020E030E04DE453E4C201B1010E94071E48
:1024E000EE24E39418165CF020E030E04AE253E476
:1024F000C501B4010E94071E18160CF0E12C20E063
:1025000030E04EEB52ECC201B1010E946C1D181676
:10251000E4F420E030E04EEB52ECC501B4010E943F
:102520006C1D181694F420E030E040E251E4C5013F
:10253000B4010E94001D9B01AC0177247394C20179
:10254000B1010E94071E18160CF0712C2090A005F6
:102550003090A1054090A2055090A30520E030E006
:1025600046EC52ECC201B1010E946C1D20E030E04B
:102570004EEB52EC882309F488C1C501B4010E94D6
:102580006C1D18160CF016C26801B4E0CB22DD24D5
:1025900002FD10C220E030E040E952E4C201B10186
:1025A0000E946C1D87FF0EC06624639420E030E01B
:1025B0004AEF52E4C501B4010E94071E18160CF040
:1025C000612CC62C6C2C20E030E04EEB52ECC501A7
:1025D000B4010E946C1D18160CF4D1C1F12C6CC111
:1025E0008091820590918305892BB1F40E943F026E
:1025F000892B19F00E947B01DECE81E090E0909360
:102600008305809382050E941302892B89F40E941E
:102610007B010E945C01CFCE0E947E01892B09F4D0
:10262000CACE8FE39CE90197F1F700C00000EBCF21
:102630008CEC90E00E94E80184E490E00E94E801C4
:102640009FEFA3EDB0E39150A040B040E1F700C090
:10265000000007E111E077E7872E71E0972E1E0159
:10266000EAE02E0E311C8016910621F2D8011A964E
:102670008C91882309F468C00E941302892B39F2D7
:1026800085E590E00E94E8017801B2E0EB0EF11CD4
:102690006801EAE0CE0ED11CD7018D917D0190E05A
:1026A0000E94E801CE14DF04B9F78EEB90E00E949F
:1026B000E801FE0131967F0150E040E029E030E082
:1026C00081E090E019C0F8945A985E98B0E1BA950C
:1026D000F1F75A9A6AE46A95F1F700C069B1AFEB75
:1026E000B0E01197F1F700C00000789465FF02C0D8
:1026F000482B592B880F991F2150310921F7D701F9
:102700004D937D012A163B06B9F66985AF01485FF6
:102710005F4F80E04E175F07D1F4681751F1F80161
:1027200083858A3018F10190F081E02DEE0FFF1FB4
:10273000EE0FFF1FE056FA4F20E030E046EC52EC7F
:102740002083318342835383045F1F4F8CCF919149
:1027500028E030E0782F7927869570FF02C0BCE82A
:102760008B27969521503109A9F7D4CF8F5F8387A6
:10277000EBCF6A81862F90E0982F88276981680FB8
:10278000792F711D072E000C880B990B0E94E01900
:1027900020E030E040E85DE30E941B1A20E030E0DA
:1027A00040E151E40E941B1A20E030E040EA50E48E
:1027B0000E94711D20E030E040E052E40E94001DC4
:1027C0006B017C01F801A080B180AA0CBB1CAA0C93
:1027D000BB1CF501E056FA4F408051806280738047
:1027E00020E030E046EC52ECC301B2010E946C1DC7
:1027F000882391F120E030E040EA50E4C301B201C7
:102800000E94001D9B01AC01C701B6010E94071E7A
:10281000181654F420E030E040E05FE3C701B60151
:102820000E94001D6B017C0120E030E040EA50E492
:10283000C301B2010E94FF1CA70196010E94071E5E
:10284000181654F420E030E040E05FE3C701B60121
:102850000E94FF1C6B017C01F501E056FA4FC0821B
:10286000D182E282F382D8011B961C926DCF83370E
:10287000910514F00460C0CD0C60BECD81E01DCE8A
:102880001D8E3CCEE12C1D8E60CEC501B4010E9490
:102890006C1D18160CF08EC002FD8CC0FF24F39442
:1028A00020E030E04CE852E4C501B4010E94071E6C
:1028B00018160CF0F12C612C6801E2E0CE22DD2428
:1028C00081E001FD43C02090E8053090E90540908B
:1028D000EA055090EB0520E030E04EEB52ECC201EF
:1028E000B1010E946C1D18160CF066C020E030E0AB
:1028F0004EEB52ECC501B4010E946C1D18160CF091
:102900005BC003FF59C020E030E04AEA52E4C20154
:10291000B1010E94071E1816C4F420E030E044EC18
:1029200052E4C201B1010E946C1D87FF0EC0442415
:10293000439420E030E04AEF52E4C501B4010E9424
:10294000071E18160CF0412CC42C8C2DA8014170C8
:10295000552700FF33C0F11005C0FD8DFF2391F115
:10296000662081F1942F2D8D222379F1442309F4DF
:102970000BC131E020E0E11031C030E02FC020E099
:1029800030E040E952E4C201B1010E946C1D87FFB2
:1029900025CE20E030E040E050E4C201B1010E94C9
:1029A000001DFF24F394A50194010E946C1D87FD76
:1029B00083CF14CE612C12CE80E0C8CF41E050E02E
:1029C0006110D0CF4E2D50E0CDCF31E020E0E110AE
:1029D00001C030E0911102C07110D9C090E0509355
:1029E00099054093980590939705809396053093A9
:1029F000940520939505452B09F4CCC05F9A8091EE
:102A0000960590919705892B09F4C6C0289A809164
:102A1000940590919505892B09F4C0C02C9A80915A
:102A20008E0590918F05A0919005B09191058093AE
:102A3000840590938505A0938605B0938705C09083
:102A40008E05D0908F05E0909005F09091058091D3
:102A50008A0590918B05A0918C05B0918D05A701F9
:102A60009601281B390B4A0B5B0BCA01B90128EEF2
:102A700033E040E050E00E94341E253131055CF126
:102A800081E090E00E94DA018C01909389058093A7
:102A9000880590E080E00E94DA0121E030E0003813
:102AA000110514F030E020E030939F0520939E053F
:102AB00021E030E0803E910514F030E020E03093DA
:102AC0009D0520939C05C0928A05D0928B05E092CB
:102AD0008C05F0928D058091F5029091F602892B7C
:102AE00009F448C08091BF069091C006A091C1062C
:102AF000B091C206C81AD90AEA0AFB0A31EDC31618
:102B000037E0D306BCF18091BD069091BE068130BE
:102B1000910509F445C08230910509F462C0892B02
:102B200049F51092F6021092F5021F928AE08F93F7
:102B30001F928DE08F9386E392E09F938F9383E2C1
:102B400094E09F938F9386EF95E09F938F930E94DD
:102B5000AA1E6BEF70E086EF95E00E94100181E005
:102B600090E09093BE068093BD060FB6F894DEBF4A
:102B70000FBECDBF80E090E0892B11F40C94D50BF3
:102B80000E9400000C94D50B31E020E025CF81E0BD
:102B900090E025CF5F9833CF289839CF2C983FCF3E
:102BA0001092F6021092F5021F928AE08F931F9204
:102BB0008DE08F9387E791E09F938F9383E294E07A
:102BC0009F938F9386EF95E09F938F930E94AA1E09
:102BD0006BEF70E086EF95E00E94100182E090E0DC
:102BE000C0CF2091F4053091F505ECE3F0E0C90188
:102BF000BF010E940C1E9F938F93CB01BF010E94C7
:102C00000C1E9F938F93C90160E17EE00E940C1E11
:102C10007F936F931F921F928AE294E09F938F930A
:102C200086EF95E09F938F930E94AA1E0FB6F894AB
:102C3000DEBF0FBECDBFF12CE12CE6EFAE2EE5E0FE
:102C4000BE2EFEE5CF2EF4E0DF2E92E0E916F10471
:102C500009F453C0A3E0EA16F10409F457C0B1E047
:102C6000EB16F10409F440C09090D8058090D90586
:102C70007090DA056090DB05F50101900020E9F71E
:102C80008F01015011098091D40566E474E080FD44
:102C900010C020E030E046EC52ECD401F3016B2F81
:102CA000782D8F2F962D0E946C1D811138C06EE4F7
:102CB00074E0C8010E947B1EFFEFEF1AFF0A24E0B8
:102CC000E216F10411F68091F0059091F105823A37
:102CD0003FEF93070CF444C020E033E0892B09F068
:102CE00041C02BEF32E03EC09090DC058090DD05C6
:102CF0007090DE056090DF05BFCF9090E805809072
:102D0000E9057090EA056090EB05B6CF9090EC0570
:102D10008090ED057090EE056090EF05ADCF20E05E
:102D200030E044EC52ECD401F3016B2F782D8F2F5F
:102D3000962D0E946C1D66E574E0882309F4B9CFD6
:102D40006F927F928F929F92DF92CF921F930F93F9
:102D50000E94AA1E0FB6F894DEBF0FBECDBFACCF47
:102D600027EF32E086EF95E0DC010D900020E9F7D7
:102D7000CD013F932F9326E634E03F932F930197A5
:102D80009F938F930E94AA1E8091F2059091F30564
:102D90000F900F900F900F900F900F9027EF32E051
:102DA000823ABFEF9B0734F020E033E0892B11F427
:102DB0002BEF32E006EF15E0F80101900020E9F773
:102DC000CF013F932F9326E634E03F932F93019753
:102DD0009F938F930E94AA1ED8010D900020E9F7BF
:102DE000CD012091D3052F932091D2052F932091CF
:102DF000D1052F932091D0052F935AE6E52E54E06C
:102E0000F52EFF92EF9201979F938F930E94AA1E37
:102E1000F80101900020E9F78F018091CF058F9391
:102E20008091CE058F938091CD058F938091CC05B5
:102E30008F93FF92EF92015011091F930F930E94FD
:102E4000AA1E0FB6F894DEBF0FBECDBFF12CE12C49
:102E500066EFA62E65E0B62E78E7C72E74E0D72E73
:102E6000F7013197E930F10568F4E75CF84E0C940E
:102E7000531E2E1937194019491952195B19641933
:102E80006D1976199090A0058090A1057090A2050B
:102E90006090A305F50101900020E9F78F01015032
:102EA000110920E030E046EC52ECD401F3016B2F25
:102EB000782D8F2F962D0E946C1D811120C261E705
:102EC00074E0C8010E947B1E5FEFE51AF50A6AE014
:102ED000E616F10409F0C4CF80919E0590919F05FC
:102EE0002FEF32E0892B11F424E033E086EF95E0F8
:102EF000DC010D900020E9F7CD013F932F9326E6EA
:102F000034E03F932F9301979F938F930E94AA1EC3
:102F10000F900F900F900F900F900F9080919C0545
:102F200090919D052FEF32E0892B11F424E033E0DE
:102F300086EF95E0FC0101900020E9F7CF013F9377
:102F40002F9326E634E03F932F9301979F938F931F
:102F50000E94AA1E80919A050F900F900F900F90DB
:102F60000F900F902FEF32E080FD02C024E033E09D
:102F700086EF95E0DC010D900020E9F7CD013F934D
:102F80002F9326E634E03F932F9301979F938F93DF
:102F90000E94AA1E80919A050F900F900F900F909B
:102FA0000F900F902FEF32E081FD02C024E033E05C
:102FB00086EF95E0FC0101900020E9F7CF013F93F7
:102FC0002F9326E634E03F932F9301979F938F939F
:102FD0000E94AA1E80919A050F900F900F900F905B
:102FE0000F900F902FEF32E082FD02C024E033E01B
:102FF00086EF95E0DC010D900020E9F7CD013F93CD
:103000002F9326E634E03F932F9301979F938F935E
:103010000E94AA1E80919A050F900F900F900F901A
:103020000F900F902FEF32E083FD02C024E033E0D9
:1030300086EF95E0FC0101900020E9F7CF013F9376
:103040002F9326E634E03F932F9301979F938F931E
:103050000E94AA1E0F900F900F900F900F900F904C
:1030600080919805909199052FEF32E0892B11F40A
:1030700024E033E086EF95E0DC010D900020E9F7D5
:10308000CD013F932F9326E634E03F932F93019792
:103090009F938F930E94AA1E0F900F900F900F90F6
:1030A0000F900F9080919605909197052FEF32E049
:1030B000892B11F424E033E006EF15E0F8010190CC
:1030C0000020E9F7CF013F932F9346E6E42E44E03A
:1030D000F42EFF92EF9201979F938F930E94AA1E66
:1030E000D8010D900020E9F78D0184E093E09F93D3
:1030F0008F93FF92EF92015011091F930F930E943B
:10310000AA1E0FB6F894DEBF0FBECDBF8091940506
:10311000909195052FEF32E0892B11F424E033E0F4
:1031200006EF15E0D8010D900020E9F7CD013F939F
:103130002F9326E6E22E24E0F22EFF92EF920197E3
:103140009F938F930E94AA1EF80101900020E9F737
:10315000CF0134E0C32E33E0D32EDF92CF92FF9223
:10316000EF9201979F938F930E94AA1ED8010D9012
:103170000020E9F7CD01DF92CF92FF92EF92019705
:103180009F938F930E94AA1EF090C805E090C905F6
:10319000D090CA05C090CB05F80101900020E9F756
:1031A0008F01015011090FB6F894DEBF0FBECDBFDD
:1031B00020E030E046EC52ECD701F6016B2F7A2F7D
:1031C0008F2F9E2F0E946C1D8111A9C061E774E0B2
:1031D000C8010E947B1E86EF95E0DC010D90002067
:1031E000E9F7CD011F922AE02F931F922DE02F9334
:1031F00025E234E03F932F9301979F938F930E9492
:10320000AA1E1092F6021092F50280918E059091FE
:103210008F05A0919005B09191058093BF06909382
:10322000C006A093C106B093C2066BEF70E086EFB4
:1032300095E00E941001809192059091930501966E
:103240000FB6F894DEBF0FBECDBF8431910509F4EF
:1032500078C090939305809392058CCC9090A405B0
:103260008090A5057090A6056090A70513CE90905C
:10327000A8058090A9057090AA056090AB050ACEBC
:103280009090AC058090AD057090AE056090AF0554
:1032900001CE9090B0058090B1057090B20560901D
:1032A000B305F8CD9090B4058090B5057090B60543
:1032B0006090B705EFCD9090B8058090B9057090FB
:1032C000BA056090BB05E6CD9090BC058090BD0529
:1032D0007090BE056090BF05DDCD9090C0058090D8
:1032E000C1057090C2056090C305D4CD9090C4050F
:1032F0008090C5057090C6056090C705CBCD6F92D4
:103300007F928F929F92DF92CF921F930F930E9492
:10331000AA1E0FB6F894DEBF0FBECDBFD5CDCF929B
:10332000DF92EF92FF9288E794E09F938F931F9331
:103330000F930E94AA1E0FB6F894DEBF0FBECDBF3A
:103340004ACF10929305109292051092BE061092E9
:10335000BD0610CC259880908E0590908F05A0908A
:103360009005B0909105C501B40128EE33E040E02E
:1033700050E00E94341EC90168E770E00E94201EE0
:1033800060FF2EC98091810581110C94BE0F1092AF
:1033900080051092EF0410927F051092FE041092A7
:1033A000F9041092F80481E08093810502E011E0B5
:1033B000E7E1EE2EE1E0FE2E0C94D811E89409C06E
:1033C00097FB3EF490958095709561957F4F8F4F58
:1033D0009F4F9923A9F0F92F96E9BB279395F6956E
:1033E000879577956795B795F111F8CFFAF4BB0FEC
:1033F00011F460FF1BC06F5F7F4F8F4F9F4F16C050
:10340000882311F096E911C0772321F09EE8872FD9
:10341000762F05C0662371F096E8862F70E060E095
:103420002AF09A95660F771F881FDAF7880F96950E
:10343000879597F908950E942E1A0C949F1A0E945E
:10344000911A38F00E94981A20F0952311F00C94EC
:10345000881A0C948E1A11240C94D31A0E94B01A54
:1034600070F3959FC1F3950F50E0551F629FF001D7
:10347000729FBB27F00DB11D639FAA27F00DB11DF0
:10348000AA1F649F6627B00DA11D661F829F222779
:10349000B00DA11D621F739FB00DA11D621F839F00
:1034A000A00D611D221F749F3327A00D611D231FD6
:1034B000849F600D211D822F762F6A2F11249F5724
:1034C00050409AF0F1F088234AF0EE0FFF1FBB1F27
:1034D000661F771F881F91505040A9F79E3F5105E6
:1034E00080F00C94881A0C94D31A5F3FE4F3983E52
:1034F000D4F3869577956795B795F795E7959F5F90
:10350000C1F7FE2B880F911D9695879597F9089521
:1035100097F99F6780E870E060E008959FEF80EC86
:10352000089500240A941616170618060906089529
:1035300000240A9412161306140605060895092E8F
:103540000394000C11F4882352F0BB0F40F4BF2BFE
:1035500011F460FF04C06F5F7F4F8F4F9F4F08953E
:1035600057FD9058440F551F59F05F3F71F0479534
:10357000880F97FB991F61F09F3F79F08795089519
:10358000121613061406551FF2CF4695F1DF08C038
:10359000161617061806991FF1CF86957105610555
:1035A00008940895E894BB2766277727CB0197F9FD
:1035B00008952F923F924F925F926F927F928F92D7
:1035C0009F92AF92BF92CF92DF92EF92FF920F93B2
:1035D0001F93CF93DF93CDB7DEB7CA1BDB0B0FB6BC
:1035E000F894DEBF0FBECDBF09942A883988488879
:1035F0005F846E847D848C849B84AA84B984C8840F
:10360000DF80EE80FD800C811B81AA81B981CE0F05
:10361000D11D0FB6F894DEBF0FBECDBFED010895EA
:10362000283008F027E03327DA01990F311D87FD94
:10363000916000966105710539F432602E5F3D930B
:1036400030E32A95E1F708959F3F30F08038710507
:10365000610509F03C5F3C5F3D93913008F0806864
:10366000911DDF93CF931F930F93FF92EF92192F2A
:10367000987F9695E92F96959695E90FFF27E65343
:10368000FF4F99273327EE24FF24A701E701059078
:103690000894079428F4360FE71EF81E491F511DA1
:1036A000660F771F881F991F0694A1F7059007944E
:1036B00028F4E70EF81E491F561FC11D770F881FFB
:1036C000991F661F0694A1F70590079428F4F80E39
:1036D000491F561FC71FD11D880F991F661F771FCF
:1036E0000694A1F70590079420F4490F561FC71FB1
:1036F000D81F990F661F771F881F0694A9F784911A
:103700001095177041F0D695C79557954795F79442
:10371000E7941A95C1F7E0E7F0E0689415901591E9
:1037200035916591959105907FE27395E118F10AC5
:10373000430B560BC90BD009C0F7E10CF11E431F18
:10374000561FC91FD01D7EF4703311F48A95E6CF41
:10375000E894015030F0080F0AF40027021708F42B
:10376000202F2395022F7A3328F079E37D932A9531
:10377000E9F710C07D932A9589F606949795679589
:10378000379517951794E118F10A430B560BC90B9F
:10379000D00998F023957E9173957A3308F070E301
:1037A0007C932013B8F77E9170617D9330F0839500
:1037B00071E37D9370E32A95E1F71124EF90FF9078
:1037C0000F911F91CF91DF91992787FD90950895D3
:1037D00091110C94FC1C803219F089508550C8F767
:1037E00008959111089581548A5108F4805E855A94
:1037F0000895FC010590061621F00020D9F7C001BC
:1038000008953197CF010895FC01059061507040F3
:103810000110D8F7809590958E0F9F1F0895FC0199
:103820006150704001900110D8F7809590958E0FEF
:103830009F1F0895CF93DF93EC012B8120FF1AC0C7
:1038400026FF0CC02F7B2B838E819F8101969F8347
:103850008E838A8190E0DF91CF91089522FF18C076
:10386000E881F9818081082E000C990B009729F4DA
:1038700020622B838FEF9FEFEECF3196F983E883A1
:103880002E813F812F5F3F4F3F832E839927E3CFC8
:10389000EA85FB85099597FFF3CF2B81019621F0EF
:1038A00080E2822B8B83E6CF80E1FBCF0F931F93C7
:1038B000CF93DF93182F092FEB018B8181FD09C076
:1038C0001FEF0FEF812F902FDF91CF911F910F915D
:1038D000089582FF14C02E813F818C819D8128171D
:1038E00039073CF4E881F981CF01019699838883F7
:1038F00010838E819F8101969F838E83E3CFE8851D
:10390000F985812F0995892BA1F3DACFFB0123815A
:1039100020FF11C026FD0FC08F3F980771F08283F2
:103920002F7D2064238326813781215031093783FD
:103930002683992708958FEF9FEF0895FA01AA270C
:10394000283051F1203181F1E8946F936E7F6E5FE2
:103950007F4F8F4F9F4FAF4FB1E03ED0B4E03CD090
:10396000670F781F891F9A1FA11D680F791F8A1F73
:10397000911DA11D6A0F711D811D911DA11D20D0DA
:1039800009F468943F912AE0269F11243019305D94
:103990003193DEF6CF010895462F4770405D419385
:1039A000B3E00FD0C9F7F6CF462F4F70405D4A33D2
:1039B00018F0495D31FD4052419302D0A9F7EACF9A
:1039C000B4E0A6959795879577956795BA95C9F7C9
:1039D00000976105710508959B01AC010A2E0694BC
:1039E0005795479537952795BA95C9F7620F731F75
:1039F000841F951FA01D0895992788270895505862
:103A0000BB27AA270E94171D0C949F1A0E94911A87
:103A100038F00E94981A20F039F49F3F19F426F4E8
:103A20000C948E1A0EF4E095E7FB0C94881AE92F9B
:103A30000E94B01A58F3BA176207730784079507F4
:103A400020F079F4A6F50C94D21A0EF4E0950B2E22
:103A5000BA2FA02D0B01B90190010C01CA01A001E0
:103A60001124FF27591B99F0593F50F4503E68F13B
:103A70001A16F040A22F232F342F4427585FF3CF7C
:103A8000469537952795A795F0405395C9F77EF44D
:103A90001F16BA0B620B730B840BBAF09150A1F096
:103AA000FF0FBB1F661F771F881FC2F70EC0BA0F1C
:103AB000621F731F841F48F4879577956795B795A4
:103AC000F7959E3F08F0B0CF9395880F08F099279F
:103AD000EE0F9795879508950E94E31D08F481E005
:103AE00008950E94851D0C949F1A0E94981A58F000
:103AF0000E94911A40F029F45F3F29F00C94881A33
:103B000051110C94D31A0C948E1A0E94B01A68F3B7
:103B10009923B1F3552391F3951B550BBB27AA2786
:103B200062177307840738F09F5F5F4F220F331FC0
:103B3000441FAA1FA9F335D00E2E3AF0E0E832D088
:103B400091505040E695001CCAF72BD0FE2F29D08B
:103B5000660F771F881FBB1F261737074807AB075D
:103B6000B0E809F0BB0B802DBF01FF2793585F4FD2
:103B70003AF09E3F510578F00C94881A0C94D31AB1
:103B80005F3FE4F3983ED4F3869577956795B795B4
:103B9000F7959F5FC9F7880F911D9695879597F9BF
:103BA0000895E1E0660F771F881FBB1F6217730738
:103BB0008407BA0720F0621B730B840BBA0BEE1F4D
:103BC00088F7E0950895990F0008550FAA0BE0E8D3
:103BD000FEEF16161706E807F907C0F012161306CF
:103BE000E407F50798F0621B730B840B950B39F40F
:103BF0000A2661F0232B242B252B21F408950A2675
:103C000009F4A140A6958FEF811D811D08950E94A2
:103C1000E31D08F48FEF0895AA1BBB1B51E107C0F9
:103C2000AA1FBB1FA617B70710F0A61BB70B881F4C
:103C3000991F5A95A9F780959095BC01CD010895DB
:103C400097FB072E16F4009407D077FD09D00E9449
:103C50000C1E07FC05D03EF4909581959F4F08956A
:103C6000709561957F4F0895052E97FB1EF4009483
:103C70000E944B1E57FD07D00E94591E07FC03D01F
:103C80004EF40C944B1E50954095309521953F4F26
:103C90004F4F5F4F089590958095709561957F4F38
:103CA0008F4F9F4F0895EE0FFF1F0590F491E02D69
:103CB0000994A1E21A2EAA1BBB1BFD010DC0AA1F6D
:103CC000BB1FEE1FFF1FA217B307E407F50720F085
:103CD000A21BB30BE40BF50B661F771F881F991F00
:103CE0001A9469F760957095809590959B01AC0149
:103CF000BD01CF010895FB01DC0101900D92002070
:103D0000E1F70895FB01DC014150504030F08D9106
:103D10000190801919F40020B9F7881B990B0895B8
:103D2000FB0151915523A9F0BF01DC014D914517CD
:103D30004111E1F759F4CD010190002049F04D9176
:103D400040154111C9F3FB014111EFCF81E090E033
:103D500001970895AEE0B0E0E0EBFEE10C94E71AC5
:103D60000D891E8986E08C831A8309838FEF9FE774
:103D70009E838D83AE01475E5F4F6F89788DCE0144
:103D800001960E94C4032F813885020F131FF8018A
:103D900010822E96E4E00C94031BAEE0B0E0E3ED5D
:103DA000FEE10C94E91A85E08C838B899C899A83C7
:103DB0008983AE01495E5F4F6D897E89CE01019690
:103DC0000E94E9092E96E2E00C94051BF894FFCFBF
:103DD00001000000010000000001000200000000DE
:103DE0000A000300000000020028F926EC0200008F
:103DF0008A010A030028922BEC0200005D010A04EC
:103E00000028C237EC0200002E010A050028E81C39
:103E1000EC020000DF010A060022B78C240000003B
:103E200083010A0700282E38EC02000015010A0859
:103E300000284004EC02000060010A090028C53F88
:103E4000EC02000095010A723A202F2F20643A6894
:103E50003A6D3A7320202020436F6C6C542020531D
:103E6000746F725420204175783154202041757848
:103E7000325420506D702055704C202056616320C4
:103E8000205670762054317374202054326E642092
:103E900020546261732020546F757420205458633D
:103EA000684920545863684D20545863684F205423
:103EB000486F744F205452616452205448546252E7
:103EC00020483173742048326E6420417761792034
:103ED0004854756220537733202053773420205282
:103EE00061647420485475622041757846204644C8
:103EF0006D7020423173742042326E6420205472FF
:103F00006F6F74202000723A202F2F205570746933
:103F10006D65202020207C20202020546865726D53
:103F2000616C20436F6E74726F6C6C6572204F759C
:103F30007470757473202020207C20202020202085
:103F40002020202020202020202020202020202071
:103F50002020202052616469616E7420436F6E746A
:103F6000726F6C6C657220496E70757473202020BE
:103F70002020202020202020202020202020202041
:103F80002020202020202020207C202020202053A2
:103F9000776974636865732020202020207C2020AE
:103FA000202020436F6E74726F6C6C6572204F75A9
:103FB00074707574732020202020207C2045787434
:103FC0007261207C000100203F2000202E20002074
:103FD0004F4E2000202E202000643A20494E4954A4
:103FE00020444F4E450A00643A20746865726D6142
:103FF0006C2072656376200052554E54494D450041
:1040000025643A2564004F50454E005348525400F1
:10401000256C66004F4E004F464600643A20746897
:1040200065726D616C2073756D6D6172793A0A000D
:10403000643A20464C4147535F636F6D6D4C696E27
:104040006B446F776E0A00643A20464C4147535FD9
:104050006E6F74556E64657273746F6F640A00647A
:104060003A20636F6C6C542000643A2073746F7252
:10407000542000643A2064696666542000643A2043
:1040800068696C69542000643A2061757831542065
:1040900000643A20617578325420004D49535349E9
:1040A0004E470A004F50454E0A00534852540A00EA
:1040B0004E4F54554E44455253544F4F440A0025D9
:1040C0006C660A00643A20746865726D616C2074D5
:1040D000696D656F75740A00643A20746865726D65
:1040E000616C206D6178206661696C20636F756E0C
:1040F000740A0025732563256300723A2025332E48
:1041000033643A25322E32643A25322E32643A250F
:10411000322E326420002020203F20202000204F1B
:1041200050454E2020002053484F52542000252057
:10413000362E316620002573200025342E3166206E
:10414000002020203F20200025352E316620000051
:107800000C94343C0C94513C0C94513C0C94513CE1
:107810000C94513C0C94513C0C94513C0C94513CB4
:107820000C94513C0C94513C0C94513C0C94513CA4
:107830000C94513C0C94513C0C94513C0C94513C94
:107840000C94513C0C94513C0C94513C0C94513C84
:107850000C94513C0C94513C0C94513C0C94513C74
:107860000C94513C0C94513C11241FBECFEFD8E036
:10787000DEBFCDBF11E0A0E0B1E0ECE9FFE702C060
:1078800005900D92A230B107D9F712E0A2E0B1E065
:1078900001C01D92AD30B107E1F70E942D3D0C945F
:1078A000CC3F0C94003C982F959595959595959582
:1078B000905D8F708A307CF0282F295A8091C0000B
:1078C00085FFFCCF9093C6008091C00085FFFCCF60
:1078D0002093C6000895282F205DF0CF982F809127
:1078E000C00085FFFCCF9093C6000895EF92FF92F1
:1078F0000F931F93EE24FF2487018091C00087FD22
:1079000017C00894E11CF11C011D111D81E4E8164B
:1079100082E4F8068FE0080780E0180770F3E09132
:107920000401F091050109958091C00087FFE9CF1E
:107930008091C6001F910F91FF90EF9008950E94D3
:10794000763C982F8091C00085FFFCCF9093C600B5
:1079500091362CF490330CF09053892F089597555D
:10796000892F08951F930E949F3C182F0E949F3CCF
:107970001295107F810F1F9108951F93182F882350
:1079800021F00E94763C1150E1F71F9108951F935A
:10799000182F0E94763C803249F0809103018F5F5E
:1079A000809303018530C1F01F9108958091C0003C
:1079B00085FFFCCF84E18093C6008091C00085FFE5
:1079C000FCCF1093C6008091C00085FFFCCF80E102
:1079D0008093C6001F910895E0910401F091050184
:1079E00009951F9108950E94763C803241F0809164
:1079F00003018F5F80930301853081F008958091AA
:107A0000C00085FFFCCF84E18093C6008091C00058
:107A100085FFFCCF80E18093C6000895E0910401CA
:107A2000F09105010995089540E951E08823A1F0FE
:107A30002D9A28EE33E0FA013197F1F721503040CA
:107A4000D1F72D9828EE33E0FA013197F1F7215064
:107A50003040D1F7815061F708953F924F925F9285
:107A60006F927F928F929F92AF92BF92CF92DF924E
:107A7000EF92FF920F931F93CF93DF93000080E16B
:107A80008093C4001092C50088E18093C10086E015
:107A90008093C2005098589A259A81E00E94143D24
:107AA00024E1F22E9EE1E92E85E9D82E0FE0C02ECA
:107AB00010E1B12EAA24A394B1E49B2EA6E58A2E50
:107AC000F2E57F2EE0E26E2E79E4572E63E5462E36
:107AD00050E5352E0E94763C8033B1F18133B9F107
:107AE000803409F46FC0813409F476C0823409F41B
:107AF00085C0853409F488C0803531F1823521F1A3
:107B0000813511F1853509F485C0863509F48DC0BC
:107B1000843609F496C0843709F403C1853709F423
:107B200072C1863709F466C0809103018F5F80932C
:107B30000301853079F6E0910401F0910501099582
:107B40000E94763C803351F60E94F33CC3CF0E94E2
:107B5000763C803249F78091C00085FFFCCFF092DF
:107B6000C6008091C00085FFFCCF9092C600809136
:107B7000C00085FFFCCF8092C6008091C00085FFC9
:107B8000FCCF7092C6008091C00085FFFCCF609250
:107B9000C6008091C00085FFFCCF5092C600809146
:107BA000C00085FFFCCF4092C6008091C00085FFD9
:107BB000FCCF3092C6008091C00085FFFCCFB09210
:107BC000C60088CF0E94763C863808F4BDCF0E945C
:107BD000763C0E94F33C7ECF0E94763C803809F4CC
:107BE0009CC0813809F40BC1823809F43CC1883942
:107BF00009F48FC080E00E94C73C6CCF84E10E94F2
:107C0000BD3C0E94F33C66CF85E00E94BD3C0E94D3
:107C1000F33C60CF0E94763C809306010E94763C44
:107C2000809307010E94F33C55CF0E94763C80333D
:107C300009F41DC183E00E94BD3C80E00E94C73C66
:107C400049CF0E94763C809309020E94763C809343
:107C5000080280910C028E7F80930C020E94763C79
:107C6000853409F415C18091080290910902892B8D
:107C700089F000E010E00E94763CF801E85FFE4FDA
:107C800080830F5F1F4F80910802909109020817AF
:107C9000190788F30E94763C803209F045CF809125
:107CA0000C0280FF01C16091060170910701660F0F
:107CB000771F7093070160930601A0910802B091AD
:107CC00009021097C9F0E8E0F1E09B01AD014E0F09
:107CD0005F1FF999FECF32BD21BD819180BDFA9A17
:107CE000F99A2F5F3F4FE417F50799F76A0F7B1F4B
:107CF00070930701609306018091C00085FFFCCF5F
:107D0000F092C6008091C00085FFFCCFB092C60003
:107D1000E1CE83E00E94C73CDDCE82E00E94C73CFA
:107D2000D9CE0E94763C809309020E94763C8093D3
:107D300008028091060190910701880F991F909386
:107D40000701809306010E94763C853409F4A6C0A1
:107D500080910C028E7F80930C020E94763C8032D0
:107D600009F0B8CE8091C00085FFFCCFF092C6002C
:107D7000609108027091090261157105B9F140E046
:107D800050E080910C02A82FA170B82FB27011C0E2
:107D9000BB2309F45CC0E0910601F0910701319624
:107DA000F0930701E09306014F5F5F4F46175707B7
:107DB000E8F4AA2369F3F999FECF209106013091E6
:107DC000070132BD21BDF89A90B58091C00085FFB2
:107DD000FCCF9093C6002F5F3F4F30930701209355
:107DE00006014F5F5F4F4617570718F38091C00099
:107DF00085FDE5CE8091C00085FFF8CFE0CE81E023
:107E00000E94C73C67CE0E94763C803209F08CCE3F
:107E10008091C00085FFFCCFF092C6008091C00029
:107E200085FFFCCFE092C6008091C00085FFFCCFAB
:107E3000D092C6008091C00085FFFCCFC092C600E2
:107E40008091C00085FFFCCFB092C60043CEE09188
:107E50000601F091070194918091C00085FFFCCF4D
:107E60009093C6009CCF80E10E94C73C33CE0E9415
:107E7000763C0E94763C182F0E94763C112309F430
:107E800083C0113009F484C08FE00E94C73C22CE29
:107E900080910C02816080930C02E5CE80910C02EF
:107EA000816080930C0259CF809107018823880F4D
:107EB000880B8A2180930B02809106019091070123
:107EC000880F991F90930701809306018091080203
:107ED00080FF09C080910802909109020196909359
:107EE000090280930802F894F999FECF1127E091D6
:107EF0000601F0910701C8E0D1E08091080290915D
:107F00000902103091F40091570001700130D9F34B
:107F100003E000935700E89500915700017001308D
:107F2000D9F301E100935700E89509901990009169
:107F3000570001700130D9F301E000935700E89534
:107F40001395103498F011270091570001700130FB
:107F5000D9F305E000935700E895009157000170B0
:107F60000130D9F301E100935700E895329602976A
:107F700009F0C7CF103011F00296E5CF112480919F
:107F8000C00085FFB9CEBCCE8EE10E94C73CA2CD19
:0E7F900085E90E94C73C9ECDF894FFCF80008B
:00000001FF
