:100000000C94DC000C94F9000C94F9000C94F900A9
:100010000C94F9000C94F9000C94F9000C94F9007C
:100020000C94F9000C9460030C94F9000C94F90002
:100030000C94F9000C94F9000C94F9000C94F9005C
:100040000C945B020C94F9000C94A5020C9421030F
:100050000C94F9000C94F9000C94F9000C94F9003C
:100060000C94F9000C94F9006E616E00696E6600E4
:1000700000407A10F35A00A0724E18090010A5D45F
:10008000E80000E87648170000E40B54020000CABC
:100090009A3B000000E1F505000080969800000002
:1000A00040420F000000A086010000001027000061
:1000B0000000E803000000006400000000000A00E7
:1000C000000000000100000000002C76D888DC67EA
:1000D0004F0823DFC1DFAE59E1B1B796E5E3E45342
:1000E000C63AE651997696E8E6C28426EB898C9B5F
:1000F00062ED407C6FFCEFBC9C9F40F2BAA56FA5FF
:10010000F490055A2AF75C936B6CF9676DC11BFC80
:10011000E0E40D47FEF520E6B500D0ED902E03009B
:10012000943577050080841E080000204E0A0000E8
:1001300000C80C333333330F986E12831141EF8DA7
:100140002114893BE65516CFFEE6DB18D1844B38E7
:100150001BF77C1D901DA4BBE424203284725E2218
:100160008100C9F124ECA1E53D276364696E6F70DD
:10017000737578585B65666745464700616E006E2B
:1001800066696E69747900CDCCCC3D0AD7233C17E3
:10019000B7D13877CC2B329595E6241FB14F0A00A2
:1001A0000020410000C84200401C4620BCBE4CCA92
:1001B0001B0E5AAEC59D740011241FBECFEFD8E0B0
:1001C000DEBFCDBF13E0A0E0B1E0E8E1FCE302C098
:1001D00005900D92A63DB107D9F726E0A6EDB3E054
:1001E00001C01D92A232B207E1F70E940A0B0C94E3
:1001F0000A1E0C94000081E090E09093F602809338
:10020000F502089581E090E09093440480934304C4
:10021000089581E090E09093DF038093DE030895DA
:100220002091DC033091DD03232B81F49093DD03D7
:100230008093DC037093DB036093DA038091C10049
:1002400080628093C10090E080E0089581E090E0BA
:1002500008954091E0035091E103CA01FA01208121
:100260004F5F5F4F2032C9F39093E1038093E00327
:10027000211102C090E080E00895E091E003F09148
:10028000E103009731F09093E1038093E0030C9435
:1002900029019E2F8F2F2191222339F02032C9F777
:1002A0009093E0038093E103F2CF9093E003809377
:1002B000E10390E080E00895E7E1F1E040E050E004
:1002C00066EC72EC81E0E737F80709F4089583855E
:1002D0008F5F83878B3068F0A081B181AA0FBB1F2D
:1002E000AA0FBB1FAA50BB4F4D935D936D937C9398
:1002F00013973C96E7CF5A985E9808955A985E9A5D
:1003000089B185FB882780F990E0089540915004D9
:1003100050915104609152047091530404C0769539
:100320006795579547958A95D2F788E040FF88EF03
:1003300041FF14C0885F42FF13C0885F43FF12C0B3
:10034000885F44FF11C0885045FF10C0885046FFA9
:100350000FC0885047FF0EC0885008958850EBCFDB
:100360008850ECCF8850EDCF885FEECF885FEFCF1D
:10037000885FF0CF885F0895CF93DF93EC011092F0
:10038000D7031092D60363ED71E0CE010E941001F5
:10039000892BC9F78091D6039091D703892BD1F38C
:1003A000DF91CF91089581E090E09093D7038093FF
:1003B000D6030895806680937C0087EC80937A0052
:1003C00080917A0086FDFCCF8091790090E00895BD
:1003D00029E030E041E050E02150310909F408956E
:1003E000F894BA01682379235E985A98672B79F0BC
:1003F00065E36A95F1F700005E9AEBEDF0E0319766
:10040000F1F700C000007894440F551FE5CFE3E0FA
:10041000F1E03197F1F700C000005E9AFAE1FA9539
:10042000F1F700C0F0CF5A9A8DE790E0019721F1E3
:100430002AE02A95F1F700C04D9BF8CF5E985A98B4
:100440008FEC97E00197F1F700C000005A9AEFE3B4
:10045000F1E03197F1F700C0000089B182958695EF
:10046000877091E08927817090E0EFE8F6E031979E
:10047000F1F700C00000089580E090E008950E9428
:100480005C015598569A529A0E947E01892B81F000
:100490008FE39CE90197F1F700C000000E9413026E
:1004A00031E020E0892B09F030E0832F922F08956E
:1004B00081E090E008951F920F920FB60F921124E1
:1004C0002F933F938F939F93AF93BF9380911E067B
:1004D00090911F06A0912006B091210630911D0633
:1004E00023E0230F2D3758F50196A11DB11D209350
:1004F0001D0680931E0690931F06A0932006B093BE
:1005000021068091190690911A06A0911B06B091C0
:100510001C060196A11DB11D8093190690931A0621
:10052000A0931B06B0931C06BF91AF919F918F9132
:100530003F912F910F900FBE0F901F90189526E8B6
:10054000230F0296A11DB11DD2CF1F920F920FB69D
:100550000F9211242F933F934F935F936F937F9349
:100560008F939F93AF93BF93CF93EF93FF9380911C
:10057000C00084FD4BC08091C00083FD47C08091C6
:10058000C00082FB222720F930E0C091C600809194
:10059000E4039091E503BC016F5F7F4FE091EA03B4
:1005A000F091EB036E177F07B4F44091D9034A3002
:1005B00011F0009781F04091E8035091E9037093A6
:1005C000E5036093E403840F951FDC01CC93460F91
:1005D000571FDA011C92232BE1F01092E5031092D1
:1005E000E403C0E0C093D903FF91EF91CF91BF9195
:1005F000AF919F918F917F916F915F914F913F91BB
:100600002F910F900FBE0F901F90189521E030E0B2
:10061000BCCFEF2B39F3CA3029F71092EB031092BD
:10062000EA036091E4037091E503E091E603F09141
:10063000E70350E040E08091E8039091E9030995D9
:10064000D1CF1F920F920FB60F9211242F933F9389
:100650004F935F936F937F938F939F93AF93BF93CA
:10066000EF93FF93E091DC03F091DD038081882319
:10067000C1F03196F093DD03E093DC038093C60074
:10068000FF91EF91BF91AF919F918F917F916F916A
:100690005F914F913F912F910F900FBE0F901F9040
:1006A00018958091C1008F7D8093C1001092DD0369
:1006B0001092DC03E091DA03F091DB030995E0CFBF
:1006C0001F920F920FB60F9211242F933F934F93C7
:1006D0005F936F938F939F93AF93BF93EF93FF932A
:1006E0003091D8033F5F3093D80369B18091D7042C
:1006F0008823D1F04091D604E42FEF77F0E0EB5A55
:10070000FB4F50812091450481E090E0022E01C012
:10071000880F0A94EAF763FF2EC0852B80832F5F32
:10072000283061F1209345043A30A9F41092D8039F
:100730008091E4049091E504A091E604B091E7046F
:100740000196A11DB11D8093E4049093E504A0934C
:10075000E604B093E704FF91EF91BF91AF919F91B1
:100760008F916F915F914F913F912F910F900FBE9D
:100770000F901F90189580958523D0CF1092450437
:100780004F5F4093D604D0CFAFE0B0E0EAECF3E0A7
:100790000C94FD196C011B015A01FC011782168291
:1007A000838181FF48C39E012F5F3F4F4901F601BE
:1007B0009381F10193FD859193FF81911F0188231E
:1007C00009F4E7C2853239F493FD859193FF819155
:1007D0001F01853239F4B60190E00E947A1B350181
:1007E0005301E5CFF12C512C00E0003238F48B326C
:1007F00009F190F48032F9F0833209F107FD34C039
:1008000020ED280F2A3020F506FF1BC0FAE0FF9EDE
:10081000200D1124F22E05C08D3279F0803371F74E
:100820000160F10193FD859193FF81911F01811179
:10083000DCCF1AC002600460F4CF0860F2CF006120
:10084000F0CF3AE0539E200D1124522E0062E9CFE2
:100850008E3221F406FD9DC20064E3CF8C3611F484
:100860000068DFCF8836E9F29BEB980F933008F0F1
:100870005FC00061805E06FD02C046E0F42E102FCE
:100880001F73853609F05BC0106417FF61C08F2DA0
:100890009BE39F1508F48BE344244394480E27E020
:1008A0003501F4E06F0E711CF50160817181828168
:1008B0009381042DA4010E94341A5C01F981FC8704
:1008C000F0FF03C00DE2F3FF07C00BE211FD04C00F
:1008D000012F047012FD00E22C852C70E22E09F429
:1008E00057C00111ABC2F3E0E12CF515A0F483E091
:1008F000E52CE81A13FD08C0B60180E290E00E94E2
:100900007A1BEA94E110F8CF002329F0B601802F7A
:1009100090E00E947A1B3C8528E6A22E20E0B22EB1
:1009200033FD04C09CE6A92E90E0B92E107122C0C0
:100930009BE9980F933008F033C10F7E9CCF863629
:1009400011F41068A2CFFF2009F49FCFFA949DCF35
:10095000E7E02F2DEF1518F427E037E0F32E412CB8
:100960009FCF11118052B60190E00E947A1B8FEF49
:10097000A81AB80AF50184918111F3CFEE2009F489
:100980002FCFB60180E290E00E947A1BEA94F6CF66
:1009900017FF6FC04A0CFC85F4FF04C08A818133C5
:1009A00009F44A9414140CF086C028E0241510F4BD
:1009B00088E0482E85E090E017FF06C0C501B7FE2D
:1009C00002C090E080E0019601110196FF2031F015
:1009D0002F2D30E02F5F3F4F820F931F58161906BF
:1009E00019F014F0E52CE81A812F897011F4E11048
:1009F00067C0002329F0B601802F90E00E947A1B87
:100A000013FD02C0E11063C017FF7CC08501B7FE73
:100A100002C010E000E0C501841991092C016F2D7E
:100A200070E0EE27FF27E61BF70BFF87EE870F3FEF
:100A3000100729F4B6018EE290E00E947A1BA016FE
:100A4000B1060CF44BC0401651060CF047C0F5013E
:100A5000E01BF10BE80DF91D8181015011092E8574
:100A60003F8502171307E4F1B60190E00E947A1B5C
:100A7000DECF16FD9FCFEF2DF0E0EA15FB0534F039
:100A80003CEFA3163FEFB3060CF010683296E80D6A
:100A9000F91D01C0FA94FF2019F082918033D1F33F
:100AA00017FF88CF442443944F0CFA141B0431F0F1
:100AB0002CF0FA187FCF442443947CCFF12C7ACFCA
:100AC000B60180E290E00E947A1BEA9490CFB601D2
:100AD00080E390E00E947A1BEA9494CF80E3BDCF3C
:100AE000A016B10641F49A81963350F4953319F467
:100AF0003C8534FF05C0B60190E00E947A1B3ECFD2
:100B000081E3F9CF8A81813319F09C859F7E9C8790
:100B1000B60190E00E947A1BFF20A9F0B6018EE298
:100B200090E00E947A1BF394F394E2E001E00E0F50
:100B3000E80DF92DF11D8081B60190E00E947A1B2D
:100B4000E02F0F11F3CF85E690E014FF02C085E49B
:100B500090E0B6010E947A1BB7FC06C0A114B10454
:100B6000C1F4EC85E4FF15C0B194A194B1088DE205
:100B7000B60190E00E947A1B80E32AE0A216B1043D
:100B800054F4B60190E00E947A1BB601C501C096EC
:100B9000B4CF8BE2EDCF8F5FFAE0AF1AB108EDCFA3
:100BA0008336C9F0833771F1833509F05BC03501B5
:100BB000F2E06F0E711CF501A080B1806F2D70E026
:100BC00006FD02C06FEF7FEFC5010E94281B9D87C5
:100BD0008C8700680DC0350132E0630E711CF50191
:100BE0008081898321E030E03D872C8754010F7795
:100BF00003FD06C02C853D855216130609F0A8F4A6
:100C0000E52C2BC0350132E0630E711CF501A0808C
:100C1000B1806F2D70E006FD02C06FEF7FEFC50160
:100C20000E94331B9D878C87E2CFB60180E290E063
:100C30000E947A1B5A94DECFF50107FD859107FFCC
:100C400081915F01B60190E00E947A1BE110EA9465
:100C50008C859D8501979D878C87EC85FD85EF2B85
:100C600059F78CCE843619F0893609F074C03501F5
:100C700007FF66C0F4E06F0E711CF50160817181A1
:100C800082819381102F1F7697FF08C090958095E1
:100C9000709561957F4F8F4F9F4F10682AE030E02D
:100CA000A4010E94C21BA82EA818BA2C012F16FF5F
:100CB0000AC00E7FAF1438F414FF04C012FD02C046
:100CC000012F0E7EBF2C04FF8EC0FE01EA0DF11D28
:100CD0008081803309F080C0097EF02FF870EF2EFC
:100CE00003FD90C000FF8AC0FA2CB51410F4F50C77
:100CF000FB1804FF8DC0B60180E390E00E947A1BD0
:100D000002FF09C088E790E001FF02C088E590E09B
:100D1000B6010E947A1BAF1408F486C0AA940A2D6B
:100D200010E00F5F1F4F080D191DF80182918F0110
:100D3000B60190E00E947A1B80169106B1F71ECE94
:100D4000F2E06F0E711CF50160817181072E000CBD
:100D5000880B990B97CF102F8537A9F41F7E2AE0B7
:100D600030E0350117FF2FC0F4E06F0E711CF50164
:100D70006081718182819381A4010E94C21BA82E8F
:100D8000A8181F7792CF197F8F36D1F048F4883595
:100D900091F0F601868197812F96E2E10C94191A61
:100DA000803739F08837A9F714FD146020E130E06E
:100DB000D8CF1061F9CF04FD166020E132E0D1CF29
:100DC00028E030E0CECFF2E06F0E711CF5016081BB
:100DD000718190E080E0D0CF02FD02C0B3947DCF5E
:100DE000B394B3947ACF802F867809F476CFF6CF78
:100DF000B60180E290E00E947A1BB394B514C0F370
:100E0000E12C77CFE52CEB18B51408F472CFF8CFAE
:100E1000802F867809F47FCF8BE201FF80E207FD07
:100E20008DE2B60190E075CFB60180E390E00E94BC
:100E30007A1BFA9470CF8FEF9FEFAECF24E0E12CB6
:100E4000251508F063CD84E053CD20FD09C0FC01D9
:100E500023FD05C022FF02C0738362835183408358
:100E6000089544FD17C046FD1DC0DB01FC01AA0F1B
:100E7000BB1FEE1FFF1F1094D1F76A0F7B1F8E1F41
:100E80009F1F660F771F881F991F620F711D811D9D
:100E9000911D089533E0660F771F881F991F315009
:100EA000D1F7F3CF34E0F7CF0F931F93CF93DF93B6
:100EB0008C01C8010E943E1BEC0197FD08C00E94F6
:100EC0000C1B892BB1F7B801CE010E94AA1BCE01E1
:100ED000DF91CF911F910F910895B0E0A0E0E3E77B
:100EE000F7E00C94031A7C018B016A01D22F0E9457
:100EF0003E1B9C0133272B32310521F02D32310569
:100F000079F4D0680150110931F480E0CDB7DEB733
:100F1000ECE00C941F1AC7010E943E1B97FDF5CF11
:100F2000CD2FCD7F2D2F207309F58033F9F4580193
:100F300081E0A81AB10891F0C7010E943E1B97FDFD
:100F40000DC0282F2F7D283569F4C2640250110985
:100F500029F0C7010E943E1B97FF08C0812C912CED
:100F600054011BC0D6FF2BC0C2608501812C912C7F
:100F7000540120ED280F283028F1C4FD09C02A3083
:100F800008F1C6FF05C02F7D3FEE320F3630C8F0A6
:100F9000B7010E94AA1BC1FFB8CFC7FF08C0B09419
:100FA000A09490948094811C911CA11CB11C2C2FA6
:100FB000B501A401C6010E94250781E0A7CFC26147
:100FC000D4CF27504C2FC501B4010E9431074B01EB
:100FD0005C01C2600150110901F3C7010E943E1B70
:100FE00097FFC7CFD8CFA0E2B0E0E9EFF7E00C94CD
:100FF000011A5C014B017A01CE0101966C0180E27D
:10100000F60111928A95E9F7F501B381890130E083
:1010100020E0612C712CA0E041E050E0F801B3FD2C
:101020008591B3FF8191982F8F01811107C010E046
:1010300000E0C801A096EEE00C941D1A8E3519F45C
:101040002115310541F1A21713064CF48D3549F1F4
:101050008D3229F4711006C0772473941DC0772057
:1010600009F465C0E92FE695E695E695EC0DFD2DB2
:10107000F11D892F8770BA0101C0660F8A95EAF7C2
:101080008081682B6083691651F0961510F49F5F7C
:10109000E9CF9150E7CFA1E02F5F3F4FBFCF712C39
:1010A000FBCF772019F08E8180628E83AA2359F0BE
:1010B000F6019E012F5D3F4F8081809580833196A0
:1010C000E217F307C9F777247394C5010E943E1B0A
:1010D00097FD16C0E82FE695E695E695EC0DFD2DFB
:1010E000F11D208130E0AC014770552702C03595D5
:1010F00027954A95E2F720FD06C0B5010E94AA1B7C
:10110000772071F094CFE114F10429F0F701808386
:10111000C70101967C0191E0891A9108712CA9F60A
:10112000E114F10409F485CFF701108282CFE82F92
:10113000E695E695E695EC0DFD2DF11D982F97703F
:10114000BA0101C0660F9A95EAF79081692B608316
:10115000682EA2CF2F923F924F925F926F927F9212
:101160009F92AF92BF92CF92DF92EF92FF920F9336
:101170001F93CF93DF936C018B011A010E943E1BDA
:10118000EC0199278B32910521F08D97C9F0B12C94
:1011900020C0B12C01501109B1F480E0DF91CF9152
:1011A0001F910F91FF90EF90DF90CF90BF90AF9085
:1011B0009F907F906F905F904F903F902F900895F9
:1011C00030E8B32EE7CFC6010E943E1BEC0197FD2D
:1011D000E4CFCE010E94151B8936910509F4C0C0E9
:1011E0008E36910509F4ACC0412C512C3201F12C02
:1011F000E12C2C2F20539B2C2A3008F0CFC0689470
:1012000091F88B2D8870B2FEB0C0811103C0EFEF52
:10121000EE1AFE0A0150110931F0C6010E943E1B70
:10122000EC0197FFA0C091FEB8CF8C2F8F7D853445
:1012300009F042C05801E1E0AE1AB10809F4ADCF9F
:10124000C6010E943E1BEC0197FDA7CF99278B3268
:10125000910521F08D9761F4689494F85801F2E0BB
:10126000AF1AB10809F499CFC6010E943E1BEC01E8
:10127000CE01C0970A9708F090CF10E000E0B801C7
:10128000110F880B990B2C2F205340E20E9431073D
:101290008B0121E0A21AB10839F0C6010E943E1B61
:1012A000EC01C0970A9758F394FE03C0119501957D
:1012B0001109E00EF11E8501012B31F0D7FD04C0AC
:1012C000B601CE010E94AA1BC301B2010E940219FD
:1012D000C3EBD1E0F7FE05C0F194E194F108CBE94E
:1012E000D1E06E01E8E1CE1AD10800E210E067C05B
:1012F0000150110971F0C6010E943E1B3C0197FD8F
:1013000008C00E94151BF816E9F0B601C3010E943F
:10131000AA1BC258D14009F040CF80E090E0A0E87D
:10132000BFE7BC01CD019B2C97FC905821143104E0
:1013300029F0F101608371838283938381E02ECF52
:10134000CCE7D1E02196FE013197F490F110D0CF97
:10135000CF57D14011F780E090E0A0ECBFE7E1CF9C
:10136000CFE7D1E0EFCFB92C44CF882319F0F1E0DB
:10137000EF1AF10840E2C301B2010E9431072B01CC
:101380003C0128E9421629E95206620629E1720663
:1013900008F440CF8B2D8660982E3CCF2E3F09F06D
:1013A00042CFB3FC40CF689493F834CFFE0125912F
:1013B0003591459154910E943F19E01AF10AE016C7
:1013C000F106A0F7249716950795CC15DD05B9F71A
:1013D000ABCFB0E0A0E0EFEEF9E00C94011A5C01B5
:1013E000EB014A01FC0117821682612CF501038191
:1013F000FE0103FD859103FF8191182FEF018823E2
:10140000E9F090E00E940C1B892B21F0C5010E949D
:101410005407ECCF153241F4FE0103FD159103FF93
:101420001191EF01153269F4C5010E943E1B97FD31
:1014300096C01817D9F2B5010E94AA1B862D90E01C
:1014400092C0712C1A3239F403FD159103FF1191EA
:10145000EF0177247394F12CE12C20ED210F2A3039
:1014600050F171FE38C0E114F10441F31836B9F1BE
:101470001C3609F43FC0112309F3612F70E08AE69E
:1014800091E00E941D1B892BC9F2D12CC12C70FC4C
:1014900006C0F401C080D180C40102964C011E3602
:1014A00091F5F5014681578170E060E0272DC60176
:1014B0000E9425079BCF689471F8B70190E080E007
:1014C00040E20E9431077B01FE0103FD159103FFFD
:1014D0001191EF01C2CFEE24EA94FE2CC7CFFE019A
:1014E00003FD159103FF1191EF01183609F0C3CFE9
:1014F000689473F8689472F8FE0103FD159103FF78
:101500001191EF01B8CF1336D1F471FC03C0EE2472
:10151000E394F12CC5010E943E1B97FD20C0C1142D
:10152000D10429F0F6018083C60101966C0191E097
:10153000E91AF10879F770FC59CF639457CF1B353E
:10154000B9F49E01A601B701C5010E94F307EC01A1
:10155000892B89F7F5018381807309F46FCF8FEFB1
:101560009FEF61106BCFCDB7DEB7EEE00C941D1A84
:10157000C5010E94540797FDF2CF1F3609F447C0FA
:1015800090F4143609F440C0193621F0183581F46E
:10159000689476F8272DA601B701C5010E946D0752
:1015A0008111C9CFD7CF1337D1F040F4103781F371
:1015B000A601B701C5010E94AA08F2CF153721F193
:1015C000183731F3F5CFC114D10429F0F6010083A7
:1015D000C60101966C0191E0E91AF10871F0C501AC
:1015E0000E943E1B8C0197FD08C00E940C1B892B9A
:1015F00051F3B501C8010E94AA1BC114D10409F41A
:101600009ACFF601108297CF689475F8C3CF68948B
:1016100074F8C0CFCF93DF93CDB7DEB764970FB622
:10162000F894DEBF0FBECDBF789484B5826084BDD0
:1016300084B5816084BD85B5826085BD85B58160D6
:1016400085BD80916E00816080936E001092810054
:10165000809181008260809381008091810081600F
:1016600080938100809180008160809380008091D0
:10167000B10084608093B1008091B000816080935C
:10168000B00080917A00846080937A0080917A0023
:10169000826080937A0080917A00816080937A00E2
:1016A00080917A00806880937A001092C100109235
:1016B000E9031092E8031092E7031092E6031092F8
:1016C000EB031092EA031092DD031092DC031092F8
:1016D000DB031092DA038FE98093C40081E08093EA
:1016E000C50098E99093C10099E19093B30080936D
:1016F000700083E08093B0008BE08093B1005F982E
:1017000028982998579A209A219A2A982B982C98A9
:10171000229A239A249A80E680937C0087E880931B
:101720007A005C9A2D9A0E943F02E0910201F091AA
:101730000301EE0FFF1FEE0FFF1FEA50FB4F80E08B
:1017400090E0A6ECB2EC80839183A283B383E09116
:101750000901F0910A01EE0FFF1FEE0FFF1FEA5083
:10176000FB4F80839183A283B383E0911001F091BA
:101770001101EE0FFF1FEE0FFF1FEA50FB4F80839A
:101780009183A283B3831092DF031092DE0369E09A
:1017900071E089E093E00E941001892BC1F78091EC
:1017A000DE039091DF03892BD1F3009100011091AA
:1017B00001010115110509F0C3C080914304909106
:1017C0004404892B09F473C287E193E00E94BC01B1
:1017D00082EF93E00E94BC0110922B0510922A0523
:1017E00082EF93E09093E1038093E0030E9429014C
:1017F0007C01009709F49CC068E273E00E94B41D6C
:10180000892B09F095C0CE010A969F938F9302967B
:101810009F938F9380E393E09F938F93FF92EF9238
:101820000E94F11D0FB6F894DEBF0FBECDBF029728
:1018300009F43AC180912A0590912B05806190931B
:101840002B0580932A0570E4C72E73E0D72E90E015
:1018500080E00E943D017C01009709F036C1809133
:10186000E2039091E30301969093E3038093E203F4
:101870000B970CF09FC10330110509F4CEC10CF099
:101880009EC10130110509F4AEC10230110509F401
:10189000B7C18E859F85A889B98980932E059093BD
:1018A0002F05A0933005B09331050F5F1F4F063011
:1018B000110569F690E080E00E943D018C010097DF
:1018C00079F042E050E064E473E00E94A61D892BA9
:1018D00009F0BDC181E090E09093470580934605F3
:1018E00090E080E00E943D018C01009779F042E099
:1018F00050E064E473E00E94A61D892B09F0BFC18B
:1019000081E090E0909349058093480580912A05F5
:1019100090912B0581719927892B21F41092E30373
:101920001092E2034091E2035091E3035C8B4B8BF6
:101930006B897C89672B21F41092F1031092F003DC
:10194000109201011092000110924404109243047D
:101950008091E4049091E504A091E604B091E7043D
:101960008093EC039093ED03A093EE03B093EF0309
:101970008091EA039091EB03892BB1F482EF93E01D
:101980009093E9038093E80382E091E09093E7036A
:101990008093E6031092E5031092E40381E590E062
:1019A0009093EB038093EA0380912A0590912B0595
:1019B00081719927892B09F403C2549886E090E03D
:1019C0000E94DA01BC01990F880B990B0E9404193F
:1019D00020E030E04FE753E40E94951C20E030E027
:1019E00040EA50E40E943F1926E636E646E950E414
:1019F0000E943F1960932605709327058093280560
:101A00009093290582E090E00E94DA01BC01990FD1
:101A1000880B990B0E94041920E030E04FE753E453
:101A20000E94951C20E030E040EA50E40E943F19FB
:101A300026E636E646E950E40E943F196093220507
:101A40007093230580932405909325056091E40409
:101A50007091E5048091E6049091E70428EE33E06C
:101A600040E050E00E94581D30934B0520934A05FA
:101A700006EF14E062E2E62E65E0F62ED8016D91E5
:101A80007D918D919D918D0120E030E046EC52ECEE
:101A90000E94901C882311F40C94CE18E016F106D5
:101AA00069F7259A0C94CF182C853D854CE3429F0D
:101AB000C001439F900D11242A853B85820F931FFF
:101AC00090932D0580932C05BECE44E050E066E354
:101AD00073E00E94A61D0097D9F420912A05309149
:101AE0002B05A801445051094230510510F084E003
:101AF00090E0822B932B90932B0580932A0540E056
:101B000050E066EC72EC4E875F87688B798BB3CEC2
:101B100044E050E06BE373E0C7010E94A61D892BEF
:101B200091F480912A0590912B05886090932B0564
:101B300080932A0560E070E084EC92EC6E877F87EA
:101B4000888B998B98CE81E090E08C0F9D1F9F939E
:101B50008F93DF92CF92FF92EF920E94F11D0F9030
:101B60000F900F900F900F900F900197D1F08091F0
:101B70002A0590912B05806190932B0580932A056F
:101B80008091E2039091E30301969093E3038093A5
:101B9000E2030B970CF46FCE60E070E082EC92EC05
:101BA000CDCF29813A814B815C812E873F87488B3D
:101BB000598B61CE40E050E060EC72ECA4CF043071
:101BC0001105C1F10530110509F063CE2E853F8561
:101BD0004889598920934205309343054093440531
:101BE0005093450562CE2E853F85488959892093BB
:101BF000320530933305409334055093350555CE67
:101C00004E855F85688979894093360550933705FD
:101C1000609338057093390548CE6E857F85888935
:101C2000998960933A0570933B0580933C059093A6
:101C30003D053BCE8E859F85A889B98980933E0559
:101C400090933F05A0934005B09341052ECE43E00D
:101C500050E067E473E0C8010E94A61D892B29F4B7
:101C600010924705109246053BCE80912A0590912F
:101C70002B05806190932B0580932A0531CE43E09C
:101C800050E067E473E0C8010E94A61D892B29F487
:101C9000109249051092480539CE80912A059091FD
:101CA0002B05806190932B0580932A052FCEC09041
:101CB000E404D090E504E090E604F090E70480911D
:101CC000EC039091ED03A091EE03B091EF03A70117
:101CD0009601281B390B4A0B5B0BCA01B90128EE90
:101CE00033E040E050E00E94581D253131050CF4EE
:101CF0005BCEC092EC03D092ED03E092EE03F09243
:101D0000EF030091F0031091F103053011050CF081
:101D10004BCE0F5F1F4F1093F1030093F0038BE442
:101D200093E00E94BC010530110509F03DCE8FE51E
:101D300093E00E94BC0181E090E090932B0580939A
:101D40002A0580E090E0AEEBB2EC80932E059093F4
:101D50002F05A0933005B093310580933205909301
:101D60003305A0933405B0933505809336059093E1
:101D70003705A0933805B093390580933A059093C1
:101D80003B05A0933C05B0933D0580933E059093A1
:101D90003F05A0934005B093410580934205909381
:101DA0004305A0934405B093450581EA9FEF9093C6
:101DB0004705809346059093490580934805F4CDE7
:101DC000549AFCCDD090D6048091D504D81A609056
:101DD000040150900B012090120148E1342E57E08D
:101DE000452EDD2011F40C94FA187090D504E72DDF
:101DF000EF77F0E0EB5AFB4F808120915404422FA3
:101E0000022E000C550B90E027FF25C051954195FF
:101E1000510902C0959587954A95E2F7092E000C65
:101E2000AA0BBB0B8093500490935104A0935204CF
:101E3000B0935304285F20935404F090540400910D
:101E40004E0410914F04F3E1FF15E4F07394709287
:101E5000D504DA94C6CFB0E0A0E0022E04C0880F0B
:101E6000991FAA1FBB1F0A94D2F7409150045091AA
:101E700051046091520470915304842B952BA62B2E
:101E8000B72BD0CF0115110509F45CC00330110543
:101E9000D0F680E00E948601E82E81E00E94860153
:101EA000C82E82E00E9486016C2D0C2C000C770B52
:101EB00077FF03C07195619571094E2D0E2C000CB2
:101EC000550B57FF03C0519541955109282F082EF6
:101ED000000C330B37FF03C031952195310964178E
:101EE00075070CF471C0621773070CF473C08C2D66
:101EF00091E00230110509F49FC089320CF46CC0E6
:101F000080914D048F5F80934D0489E0890F40914B
:101F1000500450915104609152047091530404C0D4
:101F200076956795579547958A95D2F740935004D3
:101F300050935104609352047093530437EFF30E9F
:101F4000F91A3FC08091500490915104A09152041D
:101F5000B0915304AC01BD017695679557954795AF
:101F60008A019B010E771127222733270E30110596
:101F700021053105E9F4E1E0E0934D042AE0B6954E
:101F8000A795979587952A95D1F7809350049093BC
:101F90005104A0935204B093530486EF8F0D8093A5
:101FA000540421E030E030934F0420934E0445CF99
:101FB000409350045093510460935204709353041F
:101FC000FA94F092540439CF421753071CF08E2D27
:101FD00090E08FCF92E08DCF883D0CF0D9C08091FA
:101FE0004D048B3008F4D4C04FEF40934C0489E08B
:101FF000890F4091500450915104609152047091A6
:10200000530404C076956795579547958A95D2F7FE
:1020100040935004509351046093520470935304BE
:1020200057EFF50EF91AF092540462E070E07093E5
:102030004F0460934E0401CF28E2280F213508F4A5
:10204000A7C020914C0427FD13C0E22FE595E5952C
:10205000E5950E2E000CFF0BEA5BFB4F408150E034
:10206000440F551F31E018160CF030E0432B40832D
:102070002F5F20934C0489E0890F409150045091C8
:102080005104609152047091530404C07695679591
:10209000579547958A95D2F7409350045093510431
:1020A000609352047093530477EFF70EF91AF0928D
:1020B0005404203309F0C1CE40914B04E6E4F4E02F
:1020C00094E68CE7319128E0582F517080FB87957A
:1020D00087F95111832537FD9827330F2150A1F738
:1020E000ABE4B4E0AE17BF0769F7491351C0809164
:1020F0004604853409F04CC080914A04853608F0C6
:1021000047C080914804682F677070E0762F66277B
:1021100090914904690F711D9B01285C3109293791
:102120003540B0F5807782958F708F5F8615A9F165
:102130008515B1F182112CC082E090E0489E90019B
:10214000499E300D1124F901EE5FFE4F7F010081A1
:102150001181000F111F000F111F0A501B4F6059F2
:102160007140072E000C880B990B0E94041920E087
:1021700030E040E251E40E94951CD8016D937D93BC
:102180008D939C931397F70183829482A582B682E4
:1021900010924F0410924E0450CE90E080E0CECFCB
:1021A00081E090E0CBCFF80183819481A581B68155
:1021B000A5019401281B390B4A0B5B0BCA01B9011D
:1021C00028EE33E040E050E00E94581D29353240AF
:1021D0008CF0D801ED91FC91EE0FFF1FEE0FFF1F69
:1021E000EA50FB4F20E030E046EC52EC2083318394
:1021F00042835383095F1F4FE016F106A1F683E087
:1022000090E00E94DA0110E000E0853D910564F461
:1022100002E010E0853991053CF401E010E08337DD
:10222000910514F403E010E087E090E00E94DA01E9
:10223000853D91052CF4853991050CF43CC208606C
:102240001093F1040093F0046091E4047091E504AC
:102250008091E6049091E704C090DA04D090DB040A
:10226000E090DC04F090DD046C197D098E099F0973
:1022700028EE33E040E050E00E94581D2531310542
:102280000CF401C320902E0530902F0540903005AE
:10229000509031058090320590903305A090340520
:1022A000B090350520E030E04EEB52ECC201B101B8
:1022B0000E94901C18160CF009C220E030E04EEB92
:1022C00052ECC501B4010E94901C18160CF0FCC120
:1022D00020E030E043E453E4C201B1010E942B1D31
:1022E00018160CF4EFC1FF24F39420E030E045E22F
:1022F00053E4C501B4010E942B1D18160CF0F12CFB
:102300008F2D8A8B20E030E04EEB52ECC501B401FA
:102310000E94901C1816B4F420E030E04DE453E421
:10232000C201B1010E942B1DEE24E39418165CF04B
:1023300020E030E04AE253E4C501B4010E942B1DC5
:1023400018160CF0E12C20E030E04EEB52ECC2010C
:10235000B1010E94901C1816E4F420E030E04EEB2E
:1023600052ECC501B4010E94901C181694F420E0B0
:1023700030E040E251E4C501B4010E94241C9B01FD
:10238000AC0177247394C201B1010E942B1D181671
:102390000CF0712C2090F6043090F7044090F80473
:1023A0005090F90420E030E046EC52ECC201B1015B
:1023B0000E94901C20E030E04EEB52EC882309F4A0
:1023C00088C1C501B4010E94901C18160CF016C2F9
:1023D0006801B4E0CB22DD2402FD10C220E030E031
:1023E00040E952E4C201B1010E94901C87FF0EC077
:1023F0006624639420E030E04AEF52E4C501B40162
:102400000E942B1D18160CF0612CC62C6C2C20E0A1
:1024100030E04EEB52ECC501B4010E94901C18163E
:102420000CF4D1C1F12C6CC18091D8049091D904E5
:10243000892BB1F40E943F02892B19F00E947B0185
:10244000DECE81E090E09093D9048093D8040E947E
:102450001302892B89F40E947B010E945C01CFCE7C
:102460000E947E01892B09F4CACE8FE39CE9019773
:10247000F1F700C00000EBCF8CEC90E00E94E80187
:1024800084E490E00E94E8019FEFA3EDB0E3915057
:10249000A040B040E1F700C0000007E111E077E79D
:1024A000872E71E0972E1E01EAE02E0E311C801659
:1024B000910621F2D8011A968C91882309F468C0FC
:1024C0000E941302892B39F285E590E00E94E80111
:1024D0007801B2E0EB0EF11C6801EAE0CE0ED11CEF
:1024E000D7018D917D0190E00E94E801CE14DF04B8
:1024F000B9F78EEB90E00E94E801FE0131967F0172
:1025000050E040E029E030E081E090E019C0F8942C
:102510005A985E98B0E1BA95F1F75A9A6AE46A95CA
:10252000F1F700C069B1AFEBB0E01197F1F700C06F
:102530000000789465FF02C0482B592B880F991F23
:102540002150310921F7D7014D937D012A163B0611
:10255000B9F66985AF01485F5F4F80E04E175F07AE
:10256000D1F4681751F1F80183858A3018F1019090
:10257000F081E02DEE0FFF1FEE0FFF1FEA50FB4F23
:1025800020E030E046EC52EC2083318342835383D9
:10259000045F1F4F8CCF919128E030E0782F79278E
:1025A000869570FF02C0BCE88B27969521503109B3
:1025B000A9F7D4CF8F5F8387EBCF6A81862F90E016
:1025C000982F88276981680F792F711D072E000CBD
:1025D000880B990B0E94041920E030E040E85DE38D
:1025E0000E943F1920E030E040E151E40E943F1991
:1025F00020E030E040EA50E40E94951C20E030E00A
:1026000040E052E40E94241C6B017C01F801A08090
:10261000B180AA0CBB1CAA0CBB1CF501EA50FB4FF5
:10262000408051806280738020E030E046EC52ECC4
:10263000C301B2010E94901C882391F120E030E098
:1026400040EA50E4C301B2010E94241C9B01AC018A
:10265000C701B6010E942B1D181654F420E030E08B
:1026600040E05FE3C701B6010E94241C6B017C01BE
:1026700020E030E040EA50E4C301B2010E94231C94
:10268000A70196010E942B1D181654F420E030E09B
:1026900040E05FE3C701B6010E94231C6B017C018F
:1026A000F501EA50FB4FC082D182E282F382D80169
:1026B0001B961C926DCF8337910514F00460C0CD3A
:1026C0000C60BECD81E01DCE1A8A3CCE1A8AE12C68
:1026D00060CEC501B4010E94901C18160CF08EC08B
:1026E00002FD8CC0FF24F39420E030E04CE852E47B
:1026F000C501B4010E942B1D18160CF0F12C612CA1
:102700006801E2E0CE22DD2481E001FD43C020909B
:102710003E0530903F05409040055090410520E037
:1027200030E04EEB52ECC201B1010E94901C181631
:102730000CF066C020E030E04EEB52ECC501B40175
:102740000E94901C18160CF05BC003FF59C020E0DB
:1027500030E04AEA52E4C201B1010E942B1D181672
:10276000C4F420E030E044EC52E4C201B1010E9424
:10277000901C87FF0EC04424439420E030E04AEFD1
:1027800052E4C501B4010E942B1D18160CF0412C17
:10279000C42C8C2DA8014170552700FF33C0F110C7
:1027A00005C0FA89FF2391F1662081F1942F2A89CF
:1027B000222379F1442309F40BC131E020E0E11038
:1027C00031C030E02FC020E030E040E952E4C201E7
:1027D000B1010E94901C87FF25CE20E030E040E050
:1027E00050E4C201B1010E94241CFF24F394A5010E
:1027F00094010E94901C87FD83CF14CE612C12CED1
:1028000080E0C8CF41E050E06110D0CF4E2D50E0C5
:10281000CDCF31E020E0E11001C030E0911102C0E5
:102820007110D9C090E05093EF044093EE04909360
:10283000ED048093EC043093EA042093EB04452BE1
:1028400009F4CCC05F9A8091EC049091ED04892B3F
:1028500009F4C6C0289A8091EA049091EB04892B70
:1028600009F4C0C02C9A8091E4049091E504A091F1
:10287000E604B091E7048093DA049093DB04A0931C
:10288000DC04B093DD04C090E404D090E504E09053
:10289000E604F090E7048091E0049091E104A091B7
:1028A000E204B091E304A7019601281B390B4A0BFF
:1028B0005B0BCA01B90128EE33E040E050E00E9412
:1028C000581D253131055CF181E090E00E94DA016C
:1028D0008C019093DF048093DE0490E080E00E94FE
:1028E000DA0121E030E00038110514F030E020E09A
:1028F0003093F5042093F40421E030E0803E91050C
:1029000014F030E020E03093F3042093F204C092FE
:10291000E004D092E104E092E204F092E3048091BA
:10292000F5029091F602892B09F448C080911506B2
:1029300090911606A0911706B0911806C81AD90AE8
:10294000EA0AFB0A31EDC31637E0D306BCF18091E9
:102950001306909114068130910509F445C0823028
:10296000910509F462C0892B49F51092F602109284
:10297000F5021F928AE08F931F928DE08F9386E37A
:1029800092E09F938F938AE793E09F938F938CE4D9
:1029900095E09F938F930E94CE1D6BEF70E08CE4C7
:1029A00095E00E94100181E090E0909314068093DE
:1029B00013060FB6F894DEBF0FBECDBF80E090E0E7
:1029C000892B11F40C94D50B0E9400000C94D50BAC
:1029D00031E020E025CF81E090E025CF5F9833CF34
:1029E000289839CF2C983FCF1092F6021092F5021A
:1029F0001F928AE08F931F928DE08F9387E791E07B
:102A00009F938F938AE793E09F938F938CE495E055
:102A10009F938F930E94CE1D6BEF70E08CE495E046
:102A20000E94100182E090E0C0CF20914A053091D1
:102A30004B05ECE3F0E0C901BF010E94301D9F93FC
:102A40008F93CB01BF010E94301D9F938F93C901CB
:102A500060E17EE00E94301D7F936F931F921F9272
:102A600081E893E09F938F938CE495E09F938F93FD
:102A70000E94CE1D0FB6F894DEBF0FBECDBFF12C65
:102A8000E12CECE4AE2EE5E0BE2EF5EBCF2EF3E02C
:102A9000DF2E92E0E916F10409F453C0A3E0EA1630
:102AA000F10409F457C0B1E0EB16F10409F440C099
:102AB00090902E0580902F05709030056090310524
:102AC000F50101900020E9F78F0101501109809173
:102AD0002A056DE973E080FD10C020E030E046EC8F
:102AE00052ECD401F3016B2F782D8F2F962D0E947D
:102AF000901C811138C065EA73E0C8010E949F1DD7
:102B0000FFEFEF1AFF0A24E0E216F10411F68091BC
:102B1000460590914705823A3FEF93070CF444C075
:102B200020E033E0892B09F041C02BEF32E03EC0BA
:102B30009090320580903305709034056090350593
:102B4000BFCF90903E0580903F057090400560900B
:102B50004105B6CF909042058090430570904405A2
:102B600060904505ADCF20E030E044EC52ECD4015C
:102B7000F3016B2F782D8F2F962D0E94901C6DEAFC
:102B800073E0882309F4B9CF6F927F928F929F925E
:102B9000DF92CF921F930F930E94CE1D0FB6F89431
:102BA000DEBF0FBECDBFACCF27EF32E08CE495E0A7
:102BB000DC010D900020E9F7CD013F932F932DEB21
:102BC00033E03F932F9301979F938F930E94CE1DE5
:102BD00080914805909149050F900F900F900F90AC
:102BE0000F900F9027EF32E0823ABFEF9B0734F04F
:102BF00020E033E0892B11F42BEF32E00CE415E0F8
:102C0000F80101900020E9F7CF013F932F932DEBBE
:102C100033E03F932F9301979F938F930E94CE1D94
:102C2000D8010D900020E9F7CD01209129052F93BF
:102C3000209128052F93209127052F932091260579
:102C40002F9351ECE52E53E0F52EFF92EF92019772
:102C50009F938F930E94CE1DF80101900020E9F709
:102C60008F01809125058F93809124058F9380910A
:102C700023058F93809122058F93FF92EF9201504D
:102C800011091F930F930E94CE1D0FB6F894DEBF5B
:102C90000FBECDBFF12CE12C6CE4A62E65E0B62E64
:102CA0007FECC72E73E0D72EF7013197E930F1059D
:102CB00068F4E35AF94E0C94771D52185B186418A7
:102CC0006D1876187F18881891189A189090F60445
:102CD0008090F7047090F8046090F904F501019079
:102CE0000020E9F78F010150110920E030E046ECA7
:102CF00052ECD401F3016B2F782D8F2F962D0E946B
:102D0000901C811120C268EC73E0C8010E949F1DD5
:102D10005FEFE51AF50A6AE0E616F10409F0C4CFA0
:102D20008091F4049091F5042FEF32E0892B11F497
:102D300024E033E08CE495E0DC010D900020E9F71D
:102D4000CD013F932F932DEB33E03F932F930197CA
:102D50009F938F930E94CE1D0F900F900F900F9016
:102D60000F900F908091F2049091F3042FEF32E0D6
:102D7000892B11F424E033E08CE495E0FC01019010
:102D80000020E9F7CF013F932F932DEB33E03F93E2
:102D90002F9301979F938F930E94CE1D8091F004F3
:102DA0000F900F900F900F900F900F902FEF32E039
:102DB00080FD02C024E033E08CE495E0DC010D905E
:102DC0000020E9F7CD013F932F932DEB33E03F93A4
:102DD0002F9301979F938F930E94CE1D8091F004B3
:102DE0000F900F900F900F900F900F902FEF32E0F9
:102DF00081FD02C024E033E08CE495E0FC01019009
:102E00000020E9F7CF013F932F932DEB33E03F9361
:102E10002F9301979F938F930E94CE1D8091F00472
:102E20000F900F900F900F900F900F902FEF32E0B8
:102E300082FD02C024E033E08CE495E0DC010D90DB
:102E40000020E9F7CD013F932F932DEB33E03F9323
:102E50002F9301979F938F930E94CE1D8091F00432
:102E60000F900F900F900F900F900F902FEF32E078
:102E700083FD02C024E033E08CE495E0FC01019086
:102E80000020E9F7CF013F932F932DEB33E03F93E1
:102E90002F9301979F938F930E94CE1D0F900F90B9
:102EA0000F900F900F900F908091EE049091EF048F
:102EB0002FEF32E0892B11F424E033E08CE495E02D
:102EC000DC010D900020E9F7CD013F932F932DEB0E
:102ED00033E03F932F9301979F938F930E94CE1DD2
:102EE0000F900F900F900F900F900F908091EC0427
:102EF0009091ED042FEF32E0892B11F424E033E0C0
:102F00000CE415E0F80101900020E9F7CF013F93B0
:102F10002F934DEBE42E43E0F42EFF92EF920197B6
:102F20009F938F930E94CE1DD8010D900020E9F74A
:102F30008D0184E093E09F938F93FF92EF92015075
:102F400011091F930F930E94CE1D0FB6F894DEBF98
:102F50000FBECDBF8091EA049091EB042FEF32E0D9
:102F6000892B11F424E033E00CE415E0D8010D9036
:102F70000020E9F7CD013F932F932DEBE22E23E0C4
:102F8000F22EFF92EF9201979F938F930E94CE1D96
:102F9000F80101900020E9F7CF0134E0C32E33E0BF
:102FA000D32EDF92CF92FF92EF9201979F938F9350
:102FB0000E94CE1DD8010D900020E9F7CD01DF92CF
:102FC000CF92FF92EF9201979F938F930E94CE1D15
:102FD000F0901E05E0901F05D0902005C0902105BF
:102FE000F80101900020E9F78F01015011090FB697
:102FF000F894DEBF0FBECDBF20E030E046EC52ECCF
:10300000D701F6016B2F7A2F8F2F9E2F0E94901CD5
:103010008111A9C068EC73E0C8010E949F1D8CE477
:1030200095E0DC010D900020E9F7CD011F922AE028
:103030002F931F922DE02F932CE733E03F932F9394
:1030400001979F938F930E94CE1D1092F6021092CB
:10305000F5028091E4049091E504A091E604B0911A
:10306000E7048093150690931606A0931706B09375
:1030700018066BEF70E08CE495E00E9410018091DF
:10308000E8049091E90401960FB6F894DEBF0FBEF4
:10309000CDBF8431910509F478C09093E904809301
:1030A000E8048CCC9090FA048090FB047090FC04AF
:1030B0006090FD0413CE9090FE048090FF04709009
:1030C0000005609001050ACE9090020580900305EE
:1030D000709004056090050501CE909006058090E3
:1030E00007057090080560900905F8CD90900A05D5
:1030F00080900B0570900C0560900D05EFCD9090C1
:103100000E0580900F057090100560901105E6CDBA
:10311000909012058090130570901405609015052D
:10312000DDCD909016058090170570901805609081
:103130001905D4CD90901A0580901B0570901C0540
:1031400060901D05CBCD6F927F928F929F92DF9200
:10315000CF921F930F930E94CE1D0FB6F894DEBF3F
:103160000FBECDBFD5CDCF92DF92EF92FF928FEC05
:1031700093E09F938F931F930F930E94CE1D0FB6E2
:10318000F894DEBF0FBECDBF4ACF1092E904109273
:10319000E804109214061092130610CC2598809023
:1031A000E4049090E504A090E604B090E704C50123
:1031B000B40128EE33E040E050E00E94581DC90100
:1031C00068E770E00E94441D60FF2EC98091D7041B
:1031D00081110C94E20E1092D604109245041092C4
:1031E000D5041092540410924F0410924E0481E0C2
:1031F0008093D70402E011E0E7E1EE2EE1E0FE2E3D
:103200000C94FC10E89409C097FB3EF490958095CF
:10321000709561957F4F8F4F9F4F9923A9F0F92F9C
:1032200096E9BB279395F695879577956795B7951A
:10323000F111F8CFFAF4BB0F11F460FF1BC06F5F00
:103240007F4F8F4F9F4F16C0882311F096E911C012
:10325000772321F09EE8872F762F05C0662371F033
:1032600096E8862F70E060E02AF09A95660F771F47
:10327000881FDAF7880F9695879597F908950E9429
:1032800052190C94C3190E94B51938F00E94BC1948
:1032900020F0952311F00C94AC190C94B219112460
:1032A0000C94F7190E94D41970F3959FC1F3950FF0
:1032B00050E0551F629FF001729FBB27F00DB11DBA
:1032C000639FAA27F00DB11DAA1F649F6627B00D4A
:1032D000A11D661F829F2227B00DA11D621F739F33
:1032E000B00DA11D621F839FA00D611D221F749F41
:1032F0003327A00D611D231F849F600D211D822F88
:10330000762F6A2F11249F5750409AF0F1F08823AE
:103310004AF0EE0FFF1FBB1F661F771F881F9150DB
:103320005040A9F79E3F510580F00C94AC190C94C5
:10333000F7195F3FE4F3983ED4F386957795679548
:10334000B795F795E7959F5FC1F7FE2B880F911D05
:103350009695879597F9089597F99F6780E870E0AB
:1033600060E008959FEF80EC089500240A941616FB
:10337000170618060906089500240A941216130663
:10338000140605060895092E0394000C11F48823F1
:1033900052F0BB0F40F4BF2B11F460FF04C06F5F0D
:1033A0007F4F8F4F9F4F089557FD9058440F551FE3
:1033B00059F05F3F71F04795880F97FB991F61F0B7
:1033C0009F3F79F087950895121613061406551F2E
:1033D000F2CF4695F1DF08C0161617061806991F9A
:1033E000F1CF86957105610508940895E894BB278F
:1033F00066277727CB0197F908952F923F924F9236
:103400005F926F927F928F929F92AF92BF92CF9274
:10341000DF92EF92FF920F931F93CF93DF93CDB77D
:10342000DEB7CA1BDB0B0FB6F894DEBF0FBECDBFF5
:1034300009942A88398848885F846E847D848C84C6
:103440009B84AA84B984C884DF80EE80FD800C81CF
:103450001B81AA81B981CE0FD11D0FB6F894DEBFB2
:103460000FBECDBFED010895283008F027E03327C7
:10347000DA01990F311D87FD916000966105710594
:1034800039F432602E5F3D9330E32A95E1F70895D9
:103490009F3F30F080387105610509F03C5F3C5F6B
:1034A0003D93913008F08068911DDF93CF931F9377
:1034B0000F93FF92EF92192F987F9695E92F96958B
:1034C0009695E90FFF27E653FF4F99273327EE2400
:1034D000FF24A701E70105900894079428F4360F0C
:1034E000E71EF81E491F511D660F771F881F991F81
:1034F0000694A1F70590079428F4E70EF81E491FDB
:10350000561FC11D770F881F991F661F0694A1F7CC
:103510000590079428F4F80E491F561FC71FD11DA8
:10352000880F991F661F771F0694A1F705900794CF
:1035300020F4490F561FC71FD81F990F661F771F0A
:10354000881F0694A9F784911095177041F0D695BD
:10355000C79557954795F794E7941A95C1F7E0E713
:10356000F0E06894159015913591659195910590CD
:103570007FE27395E118F10A430B560BC90BD00992
:10358000C0F7E10CF11E431F561FC91FD01D7EF46A
:10359000703311F48A95E6CFE894015030F0080FAB
:1035A0000AF40027021708F4202F2395022F7A33FC
:1035B00028F079E37D932A95E9F710C07D932A9549
:1035C00089F6069497956795379517951794E1189E
:1035D000F10A430B560BC90BD00998F023957E9145
:1035E00073957A3308F070E37C932013B8F77E91DB
:1035F00070617D9330F0839571E37D9370E32A953C
:10360000E1F71124EF90FF900F911F91CF91DF917F
:10361000992787FD9095089591110C94201C803274
:1036200019F089508550C8F7089591110895815473
:103630008A5108F4805E855A0895FC0105900616AB
:1036400021F00020D9F7C00108953197CF010895E6
:10365000FC010590615070400110D8F7809590955D
:103660008E0F9F1F0895FC01615070400190011062
:10367000D8F7809590958E0F9F1F0895CF93DF9375
:10368000EC012B8120FF1AC026FF0CC02F7B2B835F
:103690008E819F8101969F838E838A8190E0DF9146
:1036A000CF91089522FF18C0E881F9818081082E0A
:1036B000000C990B009729F420622B838FEF9FEF6A
:1036C000EECF3196F983E8832E813F812F5F3F4F04
:1036D0003F832E839927E3CFEA85FB85099597FFE2
:1036E000F3CF2B81019621F080E2822B8B83E6CFF2
:1036F00080E1FBCF0F931F93CF93DF93182F092FF8
:10370000EB018B8181FD09C01FEF0FEF812F902FFF
:10371000DF91CF911F910F91089582FF14C02E81E8
:103720003F818C819D81281739073CF4E881F9811C
:10373000CF0101969983888310838E819F810196A2
:103740009F838E83E3CFE885F985812F0995892BA7
:10375000A1F3DACFFB01238120FF11C026FD0FC0AA
:103760008F3F980771F082832F7D20642383268109
:1037700037812150310937832683992708958FEFA8
:103780009FEF0895FA01AA27283051F1203181F1E5
:10379000E8946F936E7F6E5F7F4F8F4F9F4FAF4F59
:1037A000B1E03ED0B4E03CD0670F781F891F9A1F6C
:1037B000A11D680F791F8A1F911DA11D6A0F711D20
:1037C000811D911DA11D20D009F468943F912AE02C
:1037D000269F11243019305D3193DEF6CF01089514
:1037E000462F4770405D4193B3E00FD0C9F7F6CF45
:1037F000462F4F70405D4A3318F0495D31FD40520D
:10380000419302D0A9F7EACFB4E0A69597958795A2
:1038100077956795BA95C9F7009761057105089581
:103820009B01AC010A2E069457954795379527952D
:10383000BA95C9F7620F731F841F951FA01D0895C5
:103840009927882708955058BB27AA270E943B1C18
:103850000C94C3190E94B51938F00E94BC1920F0CD
:1038600039F49F3F19F426F40C94B2190EF4E09544
:10387000E7FB0C94AC19E92F0E94D41958F3BA173E
:10388000620773078407950720F079F4A6F50C9476
:10389000F6190EF4E0950B2EBA2FA02D0B01B901ED
:1038A00090010C01CA01A0011124FF27591B99F0B6
:1038B000593F50F4503E68F11A16F040A22F232FC2
:1038C000342F4427585FF3CF469537952795A79512
:1038D000F0405395C9F77EF41F16BA0B620B730BB9
:1038E000840BBAF09150A1F0FF0FBB1F661F771F2A
:1038F000881FC2F70EC0BA0F621F731F841F48F4DF
:10390000879577956795B795F7959E3F08F0B0CF67
:103910009395880F08F09927EE0F9795879508954E
:103920000E94071D08F481E008950E94A91C0C94D0
:10393000C3190E94BC1958F00E94B51940F029F42F
:103940005F3F29F00C94AC1951110C94F7190C94A9
:10395000B2190E94D41968F39923B1F3552391F356
:10396000951B550BBB27AA2762177307840738F0EE
:103970009F5F5F4F220F331F441FAA1FA9F335D04B
:103980000E2E3AF0E0E832D091505040E695001CFF
:10399000CAF72BD0FE2F29D0660F771F881FBB1FB9
:1039A000261737074807AB07B0E809F0BB0B802D97
:1039B000BF01FF2793585F4F3AF09E3F510578F0C3
:1039C0000C94AC190C94F7195F3FE4F3983ED4F3D0
:1039D000869577956795B795F7959F5FC9F7880F97
:1039E000911D9695879597F90895E1E0660F771FE9
:1039F000881FBB1F621773078407BA0720F0621B7A
:103A0000730B840BBA0BEE1F88F7E0950895990F9E
:103A10000008550FAA0BE0E8FEEF16161706E80798
:103A2000F907C0F012161306E407F50798F0621BB9
:103A3000730B840B950B39F40A2661F0232B242B8E
:103A4000252B21F408950A2609F4A140A6958FEFAD
:103A5000811D811D08950E94071D08F48FEF0895B0
:103A6000AA1BBB1B51E107C0AA1FBB1FA617B707A4
:103A700010F0A61BB70B881F991F5A95A9F78095C0
:103A80009095BC01CD01089597FB072E16F4009484
:103A900007D077FD09D00E94301D07FC05D03EF409
:103AA000909581959F4F0895709561957F4F0895EA
:103AB000052E97FB1EF400940E946F1D57FD07D042
:103AC0000E947D1D07FC03D04EF40C946F1D509591
:103AD0004095309521953F4F4F4F5F4F08959095FA
:103AE0008095709561957F4F8F4F9F4F0895EE0F92
:103AF000FF1F0590F491E02D0994A1E21A2EAA1B54
:103B0000BB1BFD010DC0AA1FBB1FEE1FFF1FA2178D
:103B1000B307E407F50720F0A21BB30BE40BF50B8A
:103B2000661F771F881F991F1A9469F76095709513
:103B3000809590959B01AC01BD01CF010895FB01DB
:103B4000DC0101900D920020E1F70895FB01DC01FA
:103B50004150504030F08D910190801919F40020AF
:103B6000B9F7881B990B0895FB0151915523A9F0D2
:103B7000BF01DC014D9145174111E1F759F4CD0129
:103B80000190002049F04D9140154111C9F3FB010E
:103B90004111EFCF81E090E001970895AEE0B0E0F1
:103BA000E4EDFDE10C940B1A0D891E8986E08C83EF
:103BB0001A8309838FEF9FE79E838D83AE01475E53
:103BC0005F4F6F89788DCE0101960E94C4032F81CB
:103BD0003885020F131FF80110822E96E4E00C9432
:103BE000271AAEE0B0E0E7EFFDE10C940D1A85E096
:103BF0008C838B899C899A838983AE01495E5F4F50
:103C00006D897E89CE0101960E94E9092E96E2E037
:083C10000C94291AF894FFCF6F
:103C18000100000001000000000100020000000097
:103C28000A000300000000020028F926EC02000048
:103C38008A010A030028922BEC0200005D010A04A5
:103C48000028C237EC0200002E010A050028E81CF3
:103C5800EC020000DF010A060022B78C24000000F5
:103C680083010A0700282E38EC02000015010A0813
:103C780000284004EC02000060010A090028C53F42
:103C8800EC02000095010A723A202F2F20643A684E
:103C98003A6D3A7320202020436F6C6C54202053D7
:103CA800746F725420204175783154202041757802
:103CB800325420506D702055704C2020566163207E
:103CC800205670762054317374202054326E64204C
:103CD80020546261732020546F75742020545863F7
:103CE800684920545863684D20545863684F2054DD
:103CF800486F744F205452616452205448546252A1
:103D080020483173742048326E64204177617920ED
:103D1800485475622053773320205377342020523B
:103D28006164742048547562204175784620464481
:103D38006D7020423173742042326E6420205472B8
:103D48006F6F74202000723A202F2F2055707469ED
:103D58006D65202020207C20202020546865726D0D
:103D6800616C20436F6E74726F6C6C6572204F7556
:103D78007470757473202020207C2020202020203F
:103D8800202020202020202020202020202020202B
:103D98002020202052616469616E7420436F6E7424
:103DA800726F6C6C657220496E7075747320202078
:103DB80020202020202020202020202020202020FB
:103DC8002020202020202020207C2020202020535C
:103DD800776974636865732020202020207C202068
:103DE800202020436F6E74726F6C6C6572204F7563
:103DF80074707574732020202020207C20457874EE
:103E08007261207C000100203F2000202E2000202D
:103E18004F4E2000202E202000643A20494E49545D
:103E280020444F4E450A00643A20746865726D61FB
:103E38006C2072656376200052554E54494D4500FA
:103E480025643A2564004F50454E005348525400AB
:103E5800256C66004F4E004F464600643A20746851
:103E680065726D616C2074696D656F75740A0064A4
:103E78003A20746865726D616C206D6178206661A6
:103E8800696C20636F756E740A002573256325635A
:103E980000723A2025332E33643A25322E32643AA2
:103EA80025322E32643A25322E326420002020201A
:103EB8003F20202000204F50454E2020002053480E
:103EC8004F525420002520362E31662000257320BD
:103ED8000025342E316620002020203F2020002598
:063EE800352E31662000BA
:00000001FF
