:100000000C94DC000C94F9000C94F9000C94F900A9
:100010000C94F9000C94F9000C94F9000C94F9007C
:100020000C94F9000C9445030C94F9000C94F9001D
:100030000C94F9000C94F9000C94F9000C94F9005C
:100040000C9440020C94F9000C948A020C94060360
:100050000C94F9000C94F9000C94F9000C94F9003C
:100060000C94F9000C94F9006E616E00696E6600E4
:1000700000407A10F35A00A0724E18090010A5D45F
:10008000E80000E87648170000E40B54020000CABC
:100090009A3B000000E1F505000080969800000002
:1000A00040420F000000A086010000001027000061
:1000B0000000E803000000006400000000000A00E7
:1000C000000000000100000000002C76D888DC67EA
:1000D0004F0823DFC1DFAE59E1B1B796E5E3E45342
:1000E000C63AE651997696E8E6C28426EB898C9B5F
:1000F00062ED407C6FFCEFBC9C9F40F2BAA56FA5FF
:10010000F490055A2AF75C936B6CF9676DC11BFC80
:10011000E0E40D47FEF520E6B500D0ED902E03009B
:10012000943577050080841E080000204E0A0000E8
:1001300000C80C333333330F986E12831141EF8DA7
:100140002114893BE65516CFFEE6DB18D1844B38E7
:100150001BF77C1D901DA4BBE424203284725E2218
:100160008100C9F124ECA1E53D276364696E6F70DD
:10017000737578585B65666745464700616E006E2B
:1001800066696E69747900CDCCCC3D0AD7233C17E3
:10019000B7D13877CC2B329595E6241FB14F0A00A2
:1001A0000020410000C84200401C4620BCBE4CCA92
:1001B0001B0E5AAEC59D740011241FBECFEFD8E0B0
:1001C000DEBFCDBF15E0A0E0B1E0E2ECF6E302C097
:1001D00005900D92A830B107D9F726E0A8E0B5E068
:1001E00001C01D92A73BB207E1F70E94BA0A0C9426
:1001F0005F1B0C94000081E090E09093E1028093FB
:10020000E002089581E090E0909376058093750573
:10021000089581E090E09093110580931005089572
:1002200020910E0530910F05232B81F490930F053B
:1002300080930E0570930D0560930C058091C100AD
:1002400080628093C10090E080E0089581E090E0BA
:1002500008954091120550911305CA01FA012081B9
:100260004F5F5F4F2032C9F39093130580931205BF
:10027000211102C090E080E00895E0911205F09114
:100280001305009731F090931305809312050C9499
:1002900029019E2F8F2F2191222339F02032C9F777
:1002A0009093120580931305F2CF909312058093DB
:1002B000130590E080E00895E2E0F1E040E050E0D6
:1002C00066EC72EC81E0E236F80709F40895838564
:1002D0008F5F83878B3068F0A081B181AA0FBB1F2D
:1002E000AA0FBB1FA557BA4F4D935D936D937C9397
:1002F00013973C96E7CF5A985E980895CF93DF9373
:10030000EC01109209051092080563EA71E0CE0134
:100310000E941001892BC9F7809108059091090569
:10032000892BD1F3DF91CF9108955A985E9A4D9918
:1003300007C082EE92E00E947E0190E080E0089586
:1003400081E090E0089581E090E09093090580932A
:1003500008050895806680937C0087EC80937A007E
:1003600080917A0086FDFCCF8091790090E008951D
:1003700029E030E041E050E02150310909F40895CE
:10038000F894BA01682379235E985A98672B79F01C
:1003900065E36A95F1F700005E9AEBEDF0E03197C6
:1003A000F1F700C000007894440F551FE5CFE3E05B
:1003B000F1E03197F1F700C000005E9AFAE1FA959A
:1003C000F1F700C0F0CFCF93DF935A9A8DE790E01A
:1003D000019759F481E093E00E947E01D0E0C0E0F3
:1003E0008D2F9C2FDF91CF9108952AE02A95F1F768
:1003F00000C04D9BEDCF5E985A988FEC97E0019727
:10040000F1F700C000004D9B04C082E293E00E941F
:100410007E015A9AEFE3F1E03197F1F700C0000056
:1004200089B1D1E0C0E0982F907285FDD0E0EFE86F
:10043000F6E03197F1F700C00000992389F282E4D9
:1004400093E00E947E01CCCF0E945C015598569AA1
:10045000529A0E949501892B81F08FE39CE90197C4
:10046000F1F700C000000E94E30131E020E0892B99
:1004700009F030E0832F922F089581E090E00895F5
:100480001F920F920FB60F9211242F933F938F93C9
:100490009F93AF93BF938091B3069091B406A091C0
:1004A000B506B091B6063091B20623E0230F2D3782
:1004B00058F50196A11DB11D2093B2068093B30695
:1004C0009093B406A093B506B093B6068091AE069D
:1004D0009091AF06A091B006B091B1060196A11D12
:1004E000B11D8093AE069093AF06A093B006B09373
:1004F000B106BF91AF919F918F913F912F910F9036
:100500000FBE0F901F90189526E8230F0296A11D8D
:10051000B11DD2CF1F920F920FB60F9211242F93BD
:100520003F934F935F936F937F938F939F93AF937B
:10053000BF93CF93EF93FF938091C00084FD4BC096
:100540008091C00083FD47C08091C00082FB2227BC
:1005500020F930E0C091C6008091160590911705F2
:10056000BC016F5F7F4FE0911C05F0911D056E1778
:100570007F07B4F440910B054A3011F0009781F0E9
:1005800040911A0550911B0570931705609316054D
:10059000840F951FDC01CC93460F571FDA011C9284
:1005A000232BE1F01092170510921605C0E0C093BE
:1005B0000B05FF91EF91CF91BF91AF919F918F91DB
:1005C0007F916F915F914F913F912F910F900FBE4F
:1005D0000F901F90189521E030E0BCCFEF2B39F33E
:1005E000CA3029F710921D0510921C05609116055E
:1005F00070911705E0911805F091190550E040E061
:1006000080911A0590911B050995D1CF1F920F92E9
:100610000FB60F9211242F933F934F935F936F93D5
:100620007F938F939F93AF93BF93EF93FF93E0914B
:100630000E05F0910F0580818823C1F03196F0936B
:100640000F05E0930E058093C600FF91EF91BF91D7
:10065000AF919F918F917F916F915F914F913F915A
:100660002F910F900FBE0F901F9018958091C10091
:100670008F7D8093C10010920F0510920E05E091BE
:100680000C05F0910D050995E0CF1F920F920FB662
:100690000F9211248F939F93AF93BF9380910A057C
:1006A0008F5F80930A0599B18A30A9F410920A05E8
:1006B00080917D0590917E05A0917F05B091800588
:1006C0000196A11DB11D80937D0590937E05A09399
:1006D0007F05B0938005BF91AF919F918F910F904F
:1006E0000FBE0F901F901895AFE0B0E0EAE7F3E07F
:1006F0000C9466176C011B015A01FC0117821682CB
:10070000838181FF48C39E012F5F3F4F4901F6015E
:100710009381F10193FD859193FF81911F018823BE
:1007200009F4E7C2853239F493FD859193FF8191F5
:100730001F01853239F4B60190E00E94E3183501BB
:100740005301E5CFF12C512C00E0003238F48B320C
:1007500009F190F48032F9F0833209F107FD34C0D9
:1007600020ED280F2A3020F506FF1BC0FAE0FF9E7F
:10077000200D1124F22E05C08D3279F0803371F7EF
:100780000160F10193FD859193FF81911F0181111A
:10079000DCCF1AC002600460F4CF0860F2CF0061C1
:1007A000F0CF3AE0539E200D1124522E0062E9CF83
:1007B0008E3221F406FD9DC20064E3CF8C3611F425
:1007C0000068DFCF8836E9F29BEB980F933008F092
:1007D0005FC00061805E06FD02C046E0F42E102F6F
:1007E0001F73853609F05BC0106417FF61C08F2D41
:1007F0009BE39F1508F48BE344244394480E27E0C1
:100800003501F4E06F0E711CF50160817181828108
:100810009381042DA4010E949D175C01F981FC873E
:10082000F0FF03C00DE2F3FF07C00BE211FD04C0AF
:10083000012F047012FD00E22C852C70E22E09F4C9
:1008400057C00111ABC2F3E0E12CF515A0F483E031
:10085000E52CE81A13FD08C0B60180E290E00E9482
:10086000E318EA94E110F8CF002329F0B601802FB5
:1008700090E00E94E3183C8528E6A22E20E0B22EEC
:1008800033FD04C09CE6A92E90E0B92E107122C061
:100890009BE9980F933008F033C10F7E9CCF8636CA
:1008A00011F41068A2CFFF2009F49FCFFA949DCFD6
:1008B000E7E02F2DEF1518F427E037E0F32E412C59
:1008C0009FCF11118052B60190E00E94E3188FEF84
:1008D000A81AB80AF50184918111F3CFEE2009F42A
:1008E0002FCFB60180E290E00E94E318EA94F6CFA1
:1008F00017FF6FC04A0CFC85F4FF04C08A81813366
:1009000009F44A9414140CF086C028E0241510F45D
:1009100088E0482E85E090E017FF06C0C501B7FECD
:1009200002C090E080E0019601110196FF2031F0B5
:100930002F2D30E02F5F3F4F820F931F581619065F
:1009400019F014F0E52CE81A812F897011F4E110E8
:1009500067C0002329F0B601802F90E00E94E318C1
:1009600013FD02C0E11063C017FF7CC08501B7FE14
:1009700002C010E000E0C501841991092C016F2D1F
:1009800070E0EE27FF27E61BF70BFF87EE870F3F90
:10099000100729F4B6018EE290E00E94E318A01639
:1009A000B1060CF44BC0401651060CF047C0F501DF
:1009B000E01BF10BE80DF91D8181015011092E8515
:1009C0003F8502171307E4F1B60190E00E94E31897
:1009D000DECF16FD9FCFEF2DF0E0EA15FB0534F0DA
:1009E0003CEFA3163FEFB3060CF010683296E80D0B
:1009F000F91D01C0FA94FF2019F082918033D1F3E0
:100A000017FF88CF442443944F0CFA141B0431F091
:100A10002CF0FA187FCF442443947CCFF12C7ACF6A
:100A2000B60180E290E00E94E318EA9490CFB6010C
:100A300080E390E00E94E318EA9494CF80E3BDCF76
:100A4000A016B10641F49A81963350F4953319F407
:100A50003C8534FF05C0B60190E00E94E3183ECF0C
:100A600081E3F9CF8A81813319F09C859F7E9C8731
:100A7000B60190E00E94E318FF20A9F0B6018EE2D3
:100A800090E00E94E318F394F394E2E001E00E0F8B
:100A9000E80DF92DF11D8081B60190E00E94E31868
:100AA000E02F0F11F3CF85E690E014FF02C085E43C
:100AB00090E0B6010E94E318B7FC06C0A114B1048F
:100AC000C1F4EC85E4FF15C0B194A194B1088DE2A6
:100AD000B60190E00E94E31880E32AE0A216B10478
:100AE00054F4B60190E00E94E318B601C501C09627
:100AF000B4CF8BE2EDCF8F5FFAE0AF1AB108EDCF44
:100B00008336C9F0833771F1833509F05BC0350155
:100B1000F2E06F0E711CF501A080B1806F2D70E0C6
:100B200006FD02C06FEF7FEFC5010E9491189D87FF
:100B30008C8700680DC0350132E0630E711CF50131
:100B40008081898321E030E03D872C8754010F7735
:100B500003FD06C02C853D855216130609F0A8F446
:100B6000E52C2BC0350132E0630E711CF501A0802D
:100B7000B1806F2D70E006FD02C06FEF7FEFC50101
:100B80000E949C189D878C87E2CFB60180E290E09E
:100B90000E94E3185A94DECFF50107FD859107FF07
:100BA00081915F01B60190E00E94E318E110EA94A0
:100BB0008C859D8501979D878C87EC85FD85EF2B26
:100BC00059F78CCE843619F0893609F074C0350196
:100BD00007FF66C0F4E06F0E711CF5016081718142
:100BE00082819381102F1F7697FF08C09095809582
:100BF000709561957F4F8F4F9F4F10682AE030E0CE
:100C0000A4010E942B19A82EA818BA2C012F16FF98
:100C10000AC00E7FAF1438F414FF04C012FD02C0E6
:100C2000012F0E7EBF2C04FF8EC0FE01EA0DF11DC8
:100C30008081803309F080C0097EF02FF870EF2E9C
:100C400003FD90C000FF8AC0FA2CB51410F4F50C17
:100C5000FB1804FF8DC0B60180E390E00E94E3180A
:100C600002FF09C088E790E001FF02C088E590E03C
:100C7000B6010E94E318AF1408F486C0AA940A2DA6
:100C800010E00F5F1F4F080D191DF80182918F01B1
:100C9000B60190E00E94E31880169106B1F71ECECF
:100CA000F2E06F0E711CF50160817181072E000C5E
:100CB000880B990B97CF102F8537A9F41F7E2AE058
:100CC00030E0350117FF2FC0F4E06F0E711CF50105
:100CD0006081718182819381A4010E942B19A82EC9
:100CE000A8181F7792CF197F8F36D1F048F4883536
:100CF00091F0F601868197812F96E2E10C9482179C
:100D0000803739F08837A9F714FD146020E130E00E
:100D1000D8CF1061F9CF04FD166020E132E0D1CFC9
:100D200028E030E0CECFF2E06F0E711CF50160815B
:100D3000718190E080E0D0CF02FD02C0B3947DCFFE
:100D4000B394B3947ACF802F867809F476CFF6CF18
:100D5000B60180E290E00E94E318B394B514C0F3AA
:100D6000E12C77CFE52CEB18B51408F472CFF8CF4F
:100D7000802F867809F47FCF8BE201FF80E207FDA8
:100D80008DE2B60190E075CFB60180E390E00E945D
:100D9000E318FA9470CF8FEF9FEFAECF24E0E12CF1
:100DA000251508F063CD84E053CD20FD09C0FC017A
:100DB00023FD05C022FF02C07383628351834083F9
:100DC000089544FD17C046FD1DC0DB01FC01AA0FBC
:100DD000BB1FEE1FFF1F1094D1F76A0F7B1F8E1FE2
:100DE0009F1F660F771F881F991F620F711D811D3E
:100DF000911D089533E0660F771F881F991F3150AA
:100E0000D1F7F3CF34E0F7CF0F931F93CF93DF9356
:100E10008C01C8010E94A718EC0197FD08C00E9430
:100E20007518892BB1F7B801CE010E941319CE01B4
:100E3000DF91CF911F910F910895B0E0A0E0E3E220
:100E4000F7E00C946C177C018B016A01D22F0E9491
:100E5000A7189C0133272B32310521F02D323105A3
:100E600079F4D0680150110931F480E0CDB7DEB7D4
:100E7000ECE00C948817C7010E94A71897FDF5CFE6
:100E8000CD2FCD7F2D2F207309F58033F9F4580134
:100E900081E0A81AB10891F0C7010E94A71897FD38
:100EA0000DC0282F2F7D283569F4C2640250110926
:100EB00029F0C7010E94A71897FF08C0812C912C28
:100EC00054011BC0D6FF2BC0C2608501812C912C20
:100ED000540120ED280F283028F1C4FD09C02A3024
:100EE00008F1C6FF05C02F7D3FEE320F3630C8F047
:100EF000B7010E941319C1FFB8CFC7FF08C0B09453
:100F0000A09490948094811C911CA11CB11C2C2F46
:100F1000B501A401C6010E94D50681E0A7CFC26138
:100F2000D4CF27504C2FC501B4010E94E1064B01DC
:100F30005C01C2600150110901F3C7010E94A718AA
:100F400097FFC7CFD8CFA0E2B0E0E9EAF7E00C9472
:100F50006A175C014B017A01CE0101966C0180E2B7
:100F6000F60111928A95E9F7F501B381890130E024
:100F700020E0612C712CA0E041E050E0F801B3FDCD
:100F80008591B3FF8191982F8F01811107C010E0E7
:100F900000E0C801A096EEE00C9486178E3519F497
:100FA0002115310541F1A21713064CF48D3549F195
:100FB0008D3229F4711006C0772473941DC07720F8
:100FC00009F465C0E92FE695E695E695EC0DFD2D53
:100FD000F11D892F8770BA0101C0660F8A95EAF763
:100FE0008081682B6083691651F0961510F49F5F1D
:100FF000E9CF9150E7CFA1E02F5F3F4FBFCF712CDA
:10100000FBCF772019F08E8180628E83AA2359F05E
:10101000F6019E012F5D3F4F808180958083319640
:10102000E217F307C9F777247394C5010E94A71844
:1010300097FD16C0E82FE695E695E695EC0DFD2D9B
:10104000F11D208130E0AC014770552702C0359575
:1010500027954A95E2F720FD06C0B5010E941319B5
:10106000772071F094CFE114F10429F0F701808327
:10107000C70101967C0191E0891A9108712CA9F6AB
:10108000E114F10409F485CFF701108282CFE82F33
:10109000E695E695E695EC0DFD2DF11D982F9770E0
:1010A000BA0101C0660F9A95EAF79081692B6083B7
:1010B000682EA2CF2F923F924F925F926F927F92B3
:1010C0009F92AF92BF92CF92DF92EF92FF920F93D7
:1010D0001F93CF93DF936C018B011A010E94A71815
:1010E000EC0199278B32910521F08D97C9F0B12C35
:1010F00020C0B12C01501109B1F480E0DF91CF91F3
:101100001F910F91FF90EF90DF90CF90BF90AF9025
:101110009F907F906F905F904F903F902F90089599
:1011200030E8B32EE7CFC6010E94A718EC0197FD67
:10113000E4CFCE010E947E188936910509F4C0C023
:101140008E36910509F4ACC0412C512C3201F12CA2
:10115000E12C2C2F20539B2C2A3008F0CFC0689410
:1011600091F88B2D8870B2FEB0C0811103C0EFEFF3
:10117000EE1AFE0A0150110931F0C6010E94A718AB
:10118000EC0197FFA0C091FEB8CF8C2F8F7D8534E6
:1011900009F042C05801E1E0AE1AB10809F4ADCF40
:1011A000C6010E94A718EC0197FDA7CF99278B32A3
:1011B000910521F08D9761F4689494F85801F2E05C
:1011C000AF1AB10809F499CFC6010E94A718EC0123
:1011D000CE01C0970A9708F090CF10E000E0B80168
:1011E000110F880B990B2C2F205340E20E94E1062F
:1011F0008B0121E0A21AB10839F0C6010E94A7189C
:10120000EC01C0970A9758F394FE03C0119501951D
:101210001109E00EF11E8501012B31F0D7FD04C04C
:10122000B601CE010E941319C301B2010E946B16D0
:10123000C3EBD1E0F7FE05C0F194E194F108CBE9EE
:10124000D1E06E01E8E1CE1AD10800E210E067C0FB
:101250000150110971F0C6010E94A7183C0197FDC9
:1012600008C00E947E18F816E9F0B601C3010E947A
:101270001319C258D14009F040CF80E090E0A0E8B7
:10128000BFE7BC01CD019B2C97FC90582114310481
:1012900029F0F101608371838283938381E02ECFF3
:1012A000CCE7D1E02196FE013197F490F110D0CF38
:1012B000CF57D14011F780E090E0A0ECBFE7E1CF3D
:1012C000CFE7D1E0EFCFB92C44CF882319F0F1E07C
:1012D000EF1AF10840E2C301B2010E94E1062B01BE
:1012E0003C0128E9421629E95206620629E1720604
:1012F00008F440CF8B2D8660982E3CCF2E3F09F00E
:1013000042CFB3FC40CF689493F834CFFE012591CF
:101310003591459154910E94A816E01AF10AE01601
:10132000F106A0F7249716950795CC15DD05B9F7BA
:10133000ABCFB0E0A0E0EFE9F9E00C946A175C01F4
:10134000EB014A01FC0117821682612CF501038131
:10135000FE0103FD859103FF8191182FEF01882382
:10136000E9F090E00E947518892B21F0C5010E94D8
:101370000407ECCF153241F4FE0103FD159103FF84
:101380001191EF01153269F4C5010E94A71897FD6C
:1013900096C01817D9F2B5010E941319862D90E056
:1013A00092C0712C1A3239F403FD159103FF11918B
:1013B000EF0177247394F12CE12C20ED210F2A30DA
:1013C00050F171FE38C0E114F10441F31836B9F15F
:1013D0001C3609F43FC0112309F3612F70E08AE63F
:1013E00091E00E948618892BC9F2D12CC12C70FC87
:1013F00006C0F401C080D180C40102964C011E36A3
:1014000091F5F5014681578170E060E0272DC60116
:101410000E94D5069BCF689471F8B70190E080E0F8
:1014200040E20E94E1067B01FE0103FD159103FFEE
:101430001191EF01C2CFEE24EA94FE2CC7CFFE013A
:1014400003FD159103FF1191EF01183609F0C3CF89
:10145000689473F8689472F8FE0103FD159103FF18
:101460001191EF01B8CF1336D1F471FC03C0EE2413
:10147000E394F12CC5010E94A71897FD20C0C11468
:10148000D10429F0F6018083C60101966C0191E038
:10149000E91AF10879F770FC59CF639457CF1B35DF
:1014A000B9F49E01A601B701C5010E94A307EC0192
:1014B000892B89F7F5018381807309F46FCF8FEF52
:1014C0009FEF61106BCFCDB7DEB7EEE00C948617BF
:1014D000C5010E94040797FDF2CF1F3609F447C0EB
:1014E00090F4143609F440C0193621F0183581F40F
:1014F000689476F8272DA601B701C5010E941D0743
:101500008111C9CFD7CF1337D1F040F4103781F311
:10151000A601B701C5010E945A08F2CF153721F183
:10152000183731F3F5CFC114D10429F0F601008347
:10153000C60101966C0191E0E91AF10871F0C5014C
:101540000E94A7188C0197FD08C00E947518892B6E
:1015500051F3B501C8010E941319C114D10409F453
:101560009ACFF601108297CF689475F8C3CF68942C
:1015700074F8C0CFCF93DF93CDB7DEB7C455D10990
:101580000FB6F894DEBF0FBECDBF789484B58260ED
:1015900084BD84B5816084BD85B5826085BD85B517
:1015A000816085BD80916E00816080936E00109295
:1015B0008100809181008260809381008091810010
:1015C00081608093810080918000816080938000A1
:1015D0008091B10084608093B1008091B0008160FF
:1015E0008093B00080917A00846080937A0080912B
:1015F0007A00826080937A0080917A008160809383
:101600007A0080917A00806880937A001092C100FD
:1016100010921B0510921A051092190510921805C8
:1016200010921D0510921C0510920F0510920E05C8
:1016300010920D0510920C058FE98093C40081E093
:101640008093C50098E99093C10099E19093B3000D
:101650008093700083E08093B0008BE08093B100B2
:101660005F9828982998579A209A219A2A982B9817
:101670002C98229A239A249A80E680937C0087E80B
:1016800080937A005C9A2D9A0E94240280E090E078
:10169000A6ECB2EC80938B0590938C05A0938D05FE
:1016A000B0938E0580938F0590939005A09391053C
:1016B000B09392058093B3059093B405A093B505BC
:1016C000B093B605109211051092100569E071E013
:1016D0008BE793E00E941001892BC1F780911005E0
:1016E00090911105892BD1F39E012F5B3F4F2E96D0
:1016F0003FAF2EAF2E97009100011091010101150F
:10170000110509F0C8C08091750590917605892B67
:1017100009F48CC21092C0051092BF0584E295E0D6
:1017200090931305809312050E9429016C01009784
:1017300009F4A7C069E873E00E94091B892B09F02E
:10174000A0C02E963FAD2E973F932D964FAD2D976F
:101750004F937E015AE4E50EF11CFF92EF9281E96E
:1017600093E09F938F93DF92CF920E94461B0FB618
:10177000F894DEBF0FBECDBF029709F440C180913F
:10178000BF059091C00580619093C0058093BF050F
:10179000A1EACA2EA3E0DA2E90E080E00E943D018B
:1017A0007C01009709F03FC18091140590911505C7
:1017B000019690931505809314050B970CF0AEC11C
:1017C0000330110509F4E4C10CF0ADC1013011057D
:1017D00009F4C0C10230110509F4CBC162966CADA9
:1017E0007DAD8EAD9FAD62976093C3057093C405C8
:1017F0008093C5059093C6050F5F1F4F06301105F6
:1018000059F690E080E00E943D018C01009779F04C
:1018100042E050E065EA73E00E94FB1A892B09F070
:10182000D5C181E090E09093DC058093DB0590E0EA
:1018300080E00E943D018C01009779F042E050E089
:1018400065EA73E00E94FB1A892B09F0D7C181E099
:1018500090E09093DE058093DD058091BF05909127
:10186000C00581719927892B21F4109215051092DA
:101870001405A0911405B09115056596BFAFAEAFE4
:1018800065976596EEADFFAD6597EF2B21F410924D
:10189000230510922205109201011092000110926E
:1018A00076051092750580917D0590917E05A09139
:1018B0007F05B091800580931E0590931F05A0932E
:1018C0002005B093210580911C0590911D05892B61
:1018D000B1F484E295E090931B0580931A0582E0B1
:1018E00091E09093190580931805109217051092B6
:1018F000160581E590E090931D0580931C0580916D
:10190000BF059091C00581719927892B09F417C2F1
:10191000549886E090E00E94AA01BC01990F880BC0
:10192000990B0E946D1620E030E04FE753E40E94CF
:10193000FE1920E030E040EA50E40E94A81626E6B6
:1019400036E646E950E40E94A8166093BB05709302
:10195000BC058093BD059093BE0582E090E00E9497
:10196000AA01BC01990F880B990B0E946D1620E00B
:1019700030E04FE753E40E94FE1920E030E040EAF7
:1019800050E40E94A81626E636E646E950E40E9496
:10199000A8166093B7057093B8058093B905909326
:1019A000BA0560917D0570917E0580917F059091CB
:1019B000800528EE33E040E050E00E94AD1A3093FD
:1019C000E0052093DF050BE815E0F7EBEF2EF5E0DF
:1019D000FF2ED8016D917D918D919D918D0120E01B
:1019E00030E046EC52EC0E94F919882311F40C9473
:1019F0003F15E016F10669F7259A0C944015D701BA
:101A00002D913C914CE3429FC001439F900D1124C6
:101A100023962EAD3FAD2397820F931F9093C2055F
:101A20008093C105B5CE44E050E067E973E00E94C1
:101A3000FB1A0097E9F42091BF053091C005A80179
:101A4000445051094230510510F084E090E0822B5F
:101A5000932B9093C0058093BF0520E030E046ECC7
:101A600052EC62962CAF3DAF4EAF5FAF6297A8CEFF
:101A700044E050E06CE973E0C7010E94FB1A892B37
:101A8000A1F48091BF059091C00588609093C00536
:101A90008093BF0540E050E064EC72EC62964CAF7E
:101AA0005DAF6EAF7FAF62978BCE61E070E06C0F81
:101AB0007D1F7F936F93DF92CF92FF92EF920E94F0
:101AC000461B0F900F900F900F900F900F90019763
:101AD000D1F08091BF059091C00580619093C005C1
:101AE0008093BF0580911405909115050196909300
:101AF0001505809314050B970CF462CE40E050E07E
:101B000062EC72ECCBCF89819A81AB81BC81629609
:101B10008CAF9DAFAEAFBFAF629752CE20E030E04A
:101B200040EC52EC9ECF0430110509F440C0053062
:101B3000110509F053CE62968CAD9DADAEADBFAD33
:101B400062978093D7059093D805A093D905B09359
:101B5000DA0552CE62968CAD9DADAEADBFAD62974B
:101B60008093C7059093C805A093C905B093CA0593
:101B700043CE62962CAD3DAD4EAD5FAD62972093E6
:101B8000CB053093CC054093CD055093CE0534CE94
:101B900062964CAD5DAD6EAD7FAD62974093CF0563
:101BA0005093D0056093D1057093D20525CE6296EF
:101BB0006CAD7DAD8EAD9FAD62976093D305709394
:101BC000D4058093D5059093D60516CE43E050E01A
:101BD00068EA73E0C8010E94FB1A892B29F410926D
:101BE000DC051092DB0523CE8091BF059091C005E6
:101BF00080619093C0058093BF0519CE43E050E00B
:101C000068EA73E0C8010E94FB1A892B29F410923C
:101C1000DE051092DD0521CE8091BF059091C005B3
:101C200080619093C0058093BF0517CEC0907D055D
:101C3000D0907E05E0907F05F090800580911E0594
:101C400090911F05A0912005B0912105A701960153
:101C5000281B390B4A0B5B0BCA01B90128EE33E094
:101C600040E050E00E94AD1A253131050CF447CE1A
:101C7000C0921E05D0921F05E0922005F09221052A
:101C80000091220510912305053011050CF037CE87
:101C90000F5F1F4F10932305009322058CEA93E0FA
:101CA0000E947E010530110509F029CE80EC93E0F9
:101CB0000E947E0181E090E09093C0058093BF0573
:101CC00040E050E06EEB72EC4093C3055093C405C6
:101CD0006093C5057093C6054093C7055093C8052A
:101CE0006093C9057093CA054093CB055093CC050A
:101CF0006093CD057093CE054093CF055093D005EA
:101D00006093D1057093D2054093D3055093D405C9
:101D10006093D5057093D6054093D7055093D805A9
:101D20006093D9057093DA0581EA9FEF9093DC0503
:101D30008093DB059093DE058093DD05E0CD549A1A
:101D4000E8CD81E090E090937805809377050E943C
:101D5000E301892BA9F482E394E00E947E010E94B2
:101D60007B010E945C01A0C60E949501892B09F4A9
:101D70009BC6EFE3FCE93197F1F700C00000E7CF25
:101D80008CEC90E00E94B80184E490E00E94B801DD
:101D9000FFEF23ED30E3F15020403040E1F700C089
:101DA000000083E594E00E947E0102E011E072E60B
:101DB000872E71E0972EE7E62E2EE4E03E2E801669
:101DC000910619F40E947B016FC6D8011A968C9176
:101DD000882309F489C00E94E301892B09F4BBCF51
:101DE00085E590E00E94B8016801B2E0CB0ED11CFD
:101DF0007801EAE0EE0EF11CD6018D916D0190E0C4
:101E00000E94B801EC14FD04B9F78EEB90E00E943B
:101E1000B801FE01EF5BFF4F5F01B9E0AB0EB11CF3
:101E20003F017F0150E040E029E030E081E090E0B8
:101E300019C0F8945A985E9860E16A95F1F75A9A39
:101E40007AE47A95F1F700C0D9B0AFEBB0E0119722
:101E5000F1F700C000007894D5FE02C0482B592B42
:101E6000880F991F2150310921F7D3014D933D016E
:101E7000AA16BB06B9F660859F01285F3F4F40E078
:101E80002E173F07A1F5641709F442C0F8018385B6
:101E90008A30D8F10190F081E02DEE0FFF1FEE0F98
:101EA000FF1FE557FA4F20E030E046EC52EC20836C
:101EB000318342835383F80181818F9380818F9393
:101EC0003F922F9221E030E02C0F3D1F3F932F9344
:101ED0000E94231BCE0101960E947E010F900F905D
:101EE0000F900F900F900F90045F1F4F68CF51918C
:101EF00088E090E0742F7527469570FF02C0BCE81B
:101F00004B2756950197B1F7BBCF8F5F8387D3CF10
:101F1000D70111966C911197862F90E0982F882702
:101F20006C91680F792F711D072E000C880B990B8F
:101F30000E946D1620E030E040E85DE30E94A816A4
:101F400020E030E040E151E40E94A81620E030E0BB
:101F500040EA50E40E94FE1920E030E040E052E404
:101F60000E948D196B017C01F80181818F93808122
:101F70008F932BE834E03F932F9361E070E06C0F78
:101F80007D1F7F936F930E94231BCE0101960E94B9
:101F90007E01D801AD90BC90AA0CBB1CAA0CBB1C46
:101FA000F501E557FA4F40805180628073800F90B1
:101FB0000F900F900F900F900F9020E030E046ECC4
:101FC00052ECC301B2010E94F919882391F120E07B
:101FD00030E040EA50E4C301B2010E948D199B0138
:101FE000AC01C701B6010E94941A181654F420E0FF
:101FF00030E040E05FE3C701B6010E948D196B013C
:102000007C0120E030E040EA50E4C301B2010E94CC
:102010008C19A70196010E94941A181654F420E016
:1020200030E040E05FE3C701B6010E948C196B010C
:102030007C01F501E557FA4FC082D182E282F3823A
:10204000F801138651CF8337910514F004604DC514
:102050000C604BC581E0AAC563961FAE6397C9C5E6
:1020600063961FAE6397E12CEBC5C501B4010E94D6
:10207000F91918160CF095C002FD93C0FF24F394D3
:1020800020E030E04CE852E4C501B4010E94941A0B
:1020900018160CF0F12C612C680122E0C222DD241C
:1020A00081E001FD43C02090D3053090D4054090DD
:1020B000D5055090D60520E030E04EEB52ECC20141
:1020C000B1010E94F91918160CF06DC020E030E043
:1020D0004EEB52ECC501B4010E94F91918160CF030
:1020E00062C003FF60C020E030E04AEA52E4C2016F
:1020F000B1010E94941A1816C4F420E030E044ECB8
:1021000052E4C201B1010E94F91987FF0EC04424B4
:10211000439420E030E04AEF52E4C501B4010E944C
:10212000941A18160CF0412CC42C8C2DA801417067
:10213000552700FF3AC0F11007C063963FAD639783
:102140003323B9F16620A9F1942F63966FAD63979D
:10215000662391F1442309F4C6C031E020E0E11088
:1021600034C030E032C020E030E040E952E4C20147
:10217000B1010E94F91987FFACC520E030E040E0D2
:1021800050E4C201B1010E948D199B01AC01FF24F2
:10219000F394C501B4010E94941A18160CF47CCF74
:1021A00098C5612C96C580E0C1CF41E050E0611038
:1021B000CBCF4E2D50E0C8CF31E020E0E11001C080
:1021C00030E0911102C0711091C090E050938805E9
:1021D000409387059093860580938505309383050A
:1021E00020938405452B09F484C05F9A809185056E
:1021F00090918605892B09F47EC0289A80918305E9
:1022000090918405892B09F478C02C9A80917D05E2
:1022100090917E05A0917F05B0918005809379050E
:1022200090937A05A0937B05B0937C058091E002A2
:102230009091E102892B09F44EC080917D05909127
:102240007E05A0917F05B09180054091AA0650912E
:10225000AB066091AC067091AD06841B950BA60B86
:10226000B70B813D9740BCF18091A8069091A906DB
:102270008130910509F443C08230910509F460C0B2
:10228000892B49F51092E1021092E0021F928AE038
:102290008F931F928DE08F9381E292E09F938F93B3
:1022A0008CEA94E09F938F9381EE95E09F938F93B8
:1022B0000E94231B6BEF70E081EE95E00E941001FD
:1022C00081E090E09093A9068093A8060FB6F89459
:1022D000DEBF0FBECDBF80E090E0892B09F40BCAB2
:1022E0000E94000008CA31E020E06DCF81E090E05C
:1022F0006DCF5F987BCF289881CF2C9887CF109295
:10230000E1021092E0021F928AE08F931F928DE00B
:102310008F9382E691E09F938F938CEA94E09F9352
:102320008F9381EE95E09F938F930E94231B6BEF19
:1023300070E081EE95E00E94100182E090E0C2CF53
:102340002091DF053091E005ECE3F0E0C901BF0129
:102350000E94991A9F938F93CB01BF010E94991AF3
:102360009F938F93C90160E17EE00E94991A7F9349
:102370006F931F921F9283EB94E09F938F9381EE54
:1023800095E09F938F930E94231B0FB6F894DEBFB6
:102390000FBECDBFF12CE12CA1EE6A2EA5E07A2E66
:1023A000B7EECB2EB4E0DB2EF2E0EF16F10409F429
:1023B000E3C023E0E216F10409F4E7C031E0E316DC
:1023C000F10409F4D0C0B090C305A090C40590906A
:1023D000C5058090C605F30101900020E9F78F0143
:1023E000015011098091BF056FEC74E080FD10C0B1
:1023F00020E030E046EC52ECD501F4016B2F7A2D51
:102400008F2F982D0E94F9198111C8C067ED74E0D3
:10241000C8010E94F41A5FEFE51AF50A64E0E616B7
:10242000F10411F68091DB059091DC0529E633E09B
:10243000823A7FEF970734F022E733E0892B11F4DB
:102440002DE633E081EE95E0DC010D900020E9F708
:10245000CD013F932F932FEE34E03F932F930197BD
:102460009F938F930E94231B8091DD059091DE0541
:102470000F900F900F900F900F900F9029E633E080
:10248000823ABFEF9B0734F022E733E0892B11F447
:102490002DE633E001EE15E0F80101900020E9F7A8
:1024A000CF013F932F932FEE34E03F932F9301976B
:1024B0009F938F930E94231BD8010D900020E9F772
:1024C000CD012091BE052F932091BD052F93209122
:1024D000BC052F932091BB052F9373EFE72E74E07B
:1024E000F72EFF92EF9201979F938F930E94231BE9
:1024F000F80101900020E9F78F018091BA058F93D0
:102500008091B9058F938091B8058F938091B7051D
:102510008F93FF92EF92015011091F930F930E9426
:10252000231B0FB6F894DEBF0FBECDBFF12CE12CFC
:10253000E1EEAE2EE5E0BE2EF1E0CF2EF5E0DF2E8F
:10254000F7013197E930F10508F049C0E655FD4E35
:102550000C94CC1AC314CC14D514DE14E714F01464
:10256000F91402150B15B090C705A090C8059090FE
:10257000C9058090CA052FCFB090D305A090D4058F
:102580009090D5058090D60526CFB090D705A09025
:10259000D8059090D9058090DA051DCF20E030E075
:1025A00044EC52ECD501F4016B2F7A2D8F2F982D2E
:1025B0000E94F9196FED74E0882309F429CF8F92F6
:1025C0009F92AF92BF92DF92CF921F930F930E9480
:1025D000231B0FB6F894DEBF0FBECDBF1CCF90906B
:1025E0008B0580908C0570908D0560908E05F501AF
:1025F00001900020E9F78F010150110920E030E03F
:1026000046EC52ECD401F3016B2F782D8F2F962DD1
:102610000E94F919811108C26AEF74E0C8010E9492
:10262000F41A5FEFE51AF50A6AE0E616F10409F01C
:1026300087CF01EE15E0D8010D900020E9F7CD011C
:1026400056E7C52E53E0D52EDF92CF926FEEE62EE1
:1026500064E0F62EFF92EF9201979F938F930E9472
:10266000231BF80101900020E9F78F01DF92CF9240
:10267000FF92EF92015011091F930F930E94231BA9
:10268000809189050FB6F894DEBF0FBECDBF21E75C
:1026900033E080FD02C026E733E081EE95E0DC0107
:1026A0000D900020E9F7CD013F932F932FEE34E0FA
:1026B0003F932F9301979F938F930E94231B8091A9
:1026C00089050F900F900F900F900F900F9021E7BA
:1026D00033E081FD02C026E733E081EE95E0FC01A6
:1026E00001900020E9F7CF013F932F932FEE34E0C4
:1026F0003F932F9301979F938F930E94231B809169
:1027000089050F900F900F900F900F900F9021E779
:1027100033E082FD02C026E733E081EE95E0DC0184
:102720000D900020E9F7CD013F932F932FEE34E079
:102730003F932F9301979F938F930E94231B809128
:1027400089050F900F900F900F900F900F9021E739
:1027500033E083FD02C026E733E081EE95E0FC0123
:1027600001900020E9F7CF013F932F932FEE34E043
:102770003F932F9301979F938F930E94231B0F905A
:102780000F900F900F900F900F9080918705909170
:10279000880521E733E0892B11F426E733E081EE49
:1027A00095E0DC010D900020E9F7CD013F932F93D8
:1027B0002FEE34E03F932F9301979F938F930E94C6
:1027C000231B0F900F900F900F900F900F90809100
:1027D00085059091860521E733E0892B11F426E7E2
:1027E00033E001EE15E0F80101900020E9F7CF0198
:1027F0003F932F934FEEE42E44E0F42EFF92EF929E
:1028000001979F938F930E94231BD8010D90002066
:10281000E9F78D0186E793E09F938F93FF92EF9204
:10282000015011091F930F930E94231B0FB6F894B8
:10283000DEBF0FBECDBF809183059091840521E757
:1028400033E0892B11F426E733E001EE15E0D801DF
:102850000D900020E9F7CD013F932F932FEEE22E4C
:1028600024E0F22EFF92EF9201979F938F930E94A4
:10287000231BF80101900020E9F7CF0136E7C32EB2
:1028800033E0D32EDF92CF92FF92EF9201979F9386
:102890008F930E94231BD8010D900020E9F7CD01F2
:1028A000DF92CF92FF92EF9201979F938F930E94B6
:1028B000231BF090B305E090B405D090B505C0900F
:1028C000B605F80101900020E9F78F0101501109C8
:1028D0000FB6F894DEBF0FBECDBF20E030E046EC6F
:1028E00052ECD701F6016B2F7A2F8F2F9E2F0E946B
:1028F000F9198111A9C06AEF74E0C8010E94F41AA5
:1029000081EE95E0DC010D900020E9F7CD011F92EA
:102910002AE02F931F922DE02F932EEA34E03F936D
:102920002F9301979F938F930E94231B1092E10294
:102930001092E00280917D0590917E05A0917F0527
:10294000B09180058093AA069093AB06A093AC0645
:10295000B093AD066BEF70E081EE95E00E94100140
:10296000809181059091820501960FB6F894DEBFA3
:102970000FBECDBF8431910509F478C090938205D4
:1029800080938105A8CC90908F05809090057090E1
:102990009105609092052BCE9090930580909405C0
:1029A000709095056090960522CE90909705809046
:1029B00098057090990560909A0519CE90909B05A6
:1029C00080909C0570909D0560909E0510CE909023
:1029D0009F058090A0057090A1056090A20507CE8C
:1029E0009090A3058090A4057090A5056090A60521
:1029F000FECD9090A7058090A8057090A9056090E5
:102A0000AA05F5CD9090AB058090AC057090AD0512
:102A10006090AE05ECCD9090AF058090B0057090C1
:102A2000B1056090B205E3CD6F927F928F929F9235
:102A3000DF92CF921F930F930E94231B0FB6F8943F
:102A4000DEBF0FBECDBFEDCDCF92DF92EF92FF92F2
:102A500081E095E09F938F931F930F930E94231B18
:102A60000FB6F894DEBF0FBECDBF4ACF10928205DD
:102A7000109281051092A9061092A8062CCC2598D8
:102A80008BED93E00E947E0180917705909178050F
:102A9000892B09F069C90E942402892B09F451C9C4
:102AA00086E094E00E947E0183E090E00E94AA010B
:102AB00010E000E0853D910564F402E010E0853906
:102AC00091053CF401E010E08337910514F403E034
:102AD00010E087E090E00E94AA01853D91052CF46A
:102AE000853991050CF4AFCA086010938A050093EC
:102AF000890560917D0570917E0580917F0590919B
:102B00008005C0907905D0907A05E0907B05F09023
:102B10007C056C197D098E099F0928EE33E040E0A1
:102B200050E00E94AD1A253131050CF47FCB209086
:102B3000C3053090C4054090C5055090C6058090EF
:102B4000C7059090C805A090C905B090CA0520E0BF
:102B500030E04EEB52ECC201B1010E94F919181697
:102B60000CF07ECA20E030E04EEB52ECC501B4011F
:102B70000E94F91918160CF06FCA20E030E043E407
:102B800053E4C201B1010E94941A18160CF462CAEF
:102B9000FF24F39420E030E045E253E4C501B401A2
:102BA0000E94941A18160CF0F12C8F2D63968FAF9B
:102BB000639720E030E04EEB52ECC501B4010E9477
:102BC000F9191816B4F420E030E04DE453E4C201E2
:102BD000B1010E94941AEE24E39418165CF020E0F0
:102BE00030E04AE253E4C501B4010E94941A181679
:102BF0000CF0E12C20E030E04EEB52ECC201B101D0
:102C00000E94F9191816E4F420E030E04EEB52EC83
:102C1000C501B4010E94F919181694F420E030E0BF
:102C200040E251E4C501B4010E948D199B01AC0141
:102C300077247394C201B1010E94941A18160CF003
:102C4000712C20908B0530908C0540908D05509014
:102C50008E0520E030E046EC52ECC201B1010E944A
:102C6000F91920E030E04EEB52EC882309F4FDC95D
:102C7000C501B4010E94F91918160CF092CA680136
:102C8000F4E0CF22DD2402FD8CCA20E030E040E9F0
:102C900052E4C201B1010E94F91987FF0EC06624F7
:102CA000639420E030E04AEF52E4C501B4010E9491
:102CB000941A18160CF0612CC62C6C2C20E030E015
:102CC0004EEB52ECC501B4010E94F91918160CF430
:102CD0004ACAF12CE1C9E89409C097FB3EF49095EB
:102CE0008095709561957F4F8F4F9F4F9923A9F0E5
:102CF000F92F96E9BB279395F69587957795679574
:102D0000B795F111F8CFFAF4BB0F11F460FF1BC0B7
:102D10006F5F7F4F8F4F9F4F16C0882311F096E94A
:102D200011C0772321F09EE8872F762F05C06623F8
:102D300071F096E8862F70E060E02AF09A95660FB1
:102D4000771F881FDAF7880F9695879597F908956A
:102D50000E94BB160C942C170E941E1738F00E947C
:102D6000251720F0952311F00C9415170C941B17C0
:102D700011240C9460170E943D1770F3959FC1F3C6
:102D8000950F50E0551F629FF001729FBB27F00D19
:102D9000B11D639FAA27F00DB11DAA1F649F66276E
:102DA000B00DA11D661F829F2227B00DA11D621FBD
:102DB000739FB00DA11D621F839FA00D611D221F77
:102DC000749F3327A00D611D231F849F600D211D5B
:102DD000822F762F6A2F11249F5750409AF0F1F0DE
:102DE00088234AF0EE0FFF1FBB1F661F771F881F47
:102DF00091505040A9F79E3F510580F00C94151753
:102E00000C9460175F3FE4F3983ED4F38695779572
:102E10006795B795F795E7959F5FC1F7FE2B880FEC
:102E2000911D9695879597F9089597F99F6780E882
:102E300070E060E008959FEF80EC089500240A940C
:102E40001616170618060906089500240A94121685
:102E50001306140605060895092E0394000C11F4B8
:102E6000882352F0BB0F40F4BF2B11F460FF04C065
:102E70006F5F7F4F8F4F9F4F089557FD9058440FBE
:102E8000551F59F05F3F71F04795880F97FB991FC9
:102E900061F09F3F79F08795089512161306140686
:102EA000551FF2CF4695F1DF08C016161706180613
:102EB000991FF1CF86957105610508940895E894EE
:102EC000BB2766277727CB0197F908952F923F926A
:102ED0004F925F926F927F928F929F92AF92BF922A
:102EE000CF92DF92EF92FF920F931F93CF93DF93D6
:102EF000CDB7DEB7CA1BDB0B0FB6F894DEBF0FBE33
:102F0000CDBF09942A88398848885F846E847D847F
:102F10008C849B84AA84B984C884DF80EE80FD8081
:102F20000C811B81AA81B981CE0FD11D0FB6F894F7
:102F3000DEBF0FBECDBFED010895283008F027E0B9
:102F40003327DA01990F311D87FD916000966105E5
:102F5000710539F432602E5F3D9330E32A95E1F735
:102F600008959F3F30F080387105610509F03C5F9E
:102F70003C5F3D93913008F08068911DDF93CF93C3
:102F80001F930F93FF92EF92192F987F9695E92F39
:102F900096959695E90FFF27E653FF4F992733271C
:102FA000EE24FF24A701E70105900894079428F474
:102FB000360FE71EF81E491F511D660F771F881F29
:102FC000991F0694A1F70590079428F4E70EF81EC0
:102FD000491F561FC11D770F881F991F661F069432
:102FE000A1F70590079428F4F80E491F561FC71F34
:102FF000D11D880F991F661F771F0694A1F70590B2
:10300000079420F4490F561FC71FD81F990F661F3A
:10301000771F881F0694A9F784911095177041F0C7
:10302000D695C79557954795F794E7941A95C1F7A4
:10303000E0E7F0E0689415901591359165919591D0
:1030400005907FE27395E118F10A430B560BC90B0B
:10305000D009C0F7E10CF11E431F561FC91FD01D38
:103060007EF4703311F48A95E6CFE894015030F085
:10307000080F0AF40027021708F4202F2395022FC7
:103080007A3328F079E37D932A95E9F710C07D9390
:103090002A9589F60694979567953795179517940D
:1030A000E118F10A430B560BC90BD00998F0239590
:1030B0007E9173957A3308F070E37C932013B8F710
:1030C0007E9170617D9330F0839571E37D9370E321
:1030D0002A95E1F71124EF90FF900F911F91CF9166
:1030E000DF91992787FD9095089591110C94891986
:1030F000803219F089508550C8F7089591110895CC
:1031000081548A5108F4805E855A0895FC01059027
:10311000061621F00020D9F7C00108953197CF019C
:103120000895FC010590615070400110D8F780951A
:1031300090958E0F9F1F0895FC0161507040019083
:103140000110D8F7809590958E0F9F1F0895CF930B
:10315000DF93EC012B8120FF1AC026FF0CC02F7BD0
:103160002B838E819F8101969F838E838A8190E03D
:10317000DF91CF91089522FF18C0E881F981808105
:10318000082E000C990B009729F420622B838FEFF7
:103190009FEFEECF3196F983E8832E813F812F5F39
:1031A0003F4F3F832E839927E3CFEA85FB8509951F
:1031B00097FFF3CF2B81019621F080E2822B8B8346
:1031C000E6CF80E1FBCF0F931F93CF93DF93182FB0
:1031D000092FEB018B8181FD09C01FEF0FEF812FBC
:1031E000902FDF91CF911F910F91089582FF14C00E
:1031F0002E813F818C819D81281739073CF4E8811D
:10320000F981CF0101969983888310838E819F81F4
:1032100001969F838E83E3CFE885F985812F0995F9
:10322000892BA1F3DACFFB01238120FF11C026FDFA
:103230000FC08F3F980771F082832F7D2064238316
:1032400026813781215031093783268399270895B4
:103250008FEF9FEF0895FA01AA27283051F120310E
:1032600081F1E8946F936E7F6E5F7F4F8F4F9F4F1A
:10327000AF4FB1E03ED0B4E03CD0670F781F891F5C
:103280009A1FA11D680F791F8A1F911DA11D6A0F2A
:10329000711D811D911DA11D20D009F468943F91DD
:1032A0002AE0269F11243019305D3193DEF6CF01DC
:1032B0000895462F4770405D4193B3E00FD0C9F7A2
:1032C000F6CF462F4F70405D4A3318F0495D31FD0F
:1032D0004052419302D0A9F7EACFB4E0A695979562
:1032E000879577956795BA95C9F700976105710538
:1032F00008959B01AC010A2E069457954795379582
:103300002795BA95C9F7620F731F841F951FA01DDB
:1033100008959927882708955058BB27AA270E9407
:10332000A4190C942C170E941E1738F00E94251720
:1033300020F039F49F3F19F426F40C941B170EF477
:10334000E095E7FB0C941517E92F0E943D1758F301
:10335000BA17620773078407950720F079F4A6F57A
:103360000C945F170EF4E0950B2EBA2FA02D0B01D5
:10337000B90190010C01CA01A0011124FF27591BBA
:1033800099F0593F50F4503E68F11A16F040A22FC0
:10339000232F342F4427585FF3CF46953795279531
:1033A000A795F0405395C9F77EF41F16BA0B620B30
:1033B000730B840BBAF09150A1F0FF0FBB1F661F77
:1033C000771F881FC2F70EC0BA0F621F731F841FBA
:1033D00048F4879577956795B795F7959E3F08F0E0
:1033E000B0CF9395880F08F09927EE0F97958795A2
:1033F00008950E94701A08F481E008950E94121A3C
:103400000C942C170E94251758F00E941E1740F0AC
:1034100029F45F3F29F00C94151751110C94601793
:103420000C941B170E943D1768F39923B1F35523A1
:1034300091F3951B550BBB27AA27621773078407C7
:1034400038F09F5F5F4F220F331F441FAA1FA9F35D
:1034500035D00E2E3AF0E0E832D091505040E6954B
:10346000001CCAF72BD0FE2F29D0660F771F881FAC
:10347000BB1F261737074807AB07B0E809F0BB0B9F
:10348000802DBF01FF2793585F4F3AF09E3F5105B3
:1034900078F00C9415170C9460175F3FE4F3983E96
:1034A000D4F3869577956795B795F7959F5FC9F79C
:1034B000880F911D9695879597F90895E1E0660F1D
:1034C000771F881FBB1F621773078407BA0720F096
:1034D000621B730B840BBA0BEE1F88F7E0950895FF
:1034E000990F0008550FAA0BE0E8FEEF1616170615
:1034F000E807F907C0F012161306E407F50798F07D
:10350000621B730B840B950B39F40A2661F0232B95
:10351000242B252B21F408950A2609F4A140A69511
:103520008FEF811D811D08950E94701A08F48FEF9E
:103530000895AA1BBB1B51E107C0AA1FBB1FA617FA
:10354000B70710F0A61BB70B881F991F5A95A9F74C
:1035500080959095BC01CD010895052E97FB1EF432
:1035600000940E94C41A57FD07D00E94D21A07FC8B
:1035700003D04EF40C94C41A509540953095219583
:103580003F4F4F4F5F4F089590958095709561958F
:103590007F4F8F4F9F4F0895EE0FFF1F0590F491BF
:1035A000E02D0994A1E21A2EAA1BBB1BFD010DC040
:1035B000AA1FBB1FEE1FFF1FA217B307E407F507E3
:1035C00020F0A21BB30BE40BF50B661F771F881FBF
:1035D000991F1A9469F760957095809590959B0155
:1035E000AC01BD01CF010895FB01DC0101900D92FA
:1035F0000020E1F70895FB01DC014150504030F01C
:103600008D910190801919F40020B9F7881B990B4E
:103610000895FB0151915523A9F0BF01DC014D91A3
:1036200045174111E1F759F4CD010190002049F00F
:103630004D9140154111C9F3FB014111EFCF81E0DC
:1036400090E001970895AEE0B0E0E9E2FBE10C9470
:1036500074170D891E8986E08C831A8309838FEF86
:103660009FE79E838D83AE01475E5F4F6F89788DA4
:10367000CE0101960E9474032F813885020F131F1B
:10368000F80110822E96E4E00C949017AEE0B0E0C2
:10369000ECE4FBE10C94761785E08C838B899C89A4
:1036A0009A838983AE01495E5F4F6D897E89CE0121
:1036B00001960E9499092E96E2E00C949217F894D4
:0236C000FFCF3A
:1036C2000100020028F926EC0200008A010A030028
:1036D20028922BEC0200005D010A040028C237EC9C
:1036E2000200002E010A050028E81CEC020000DF9F
:1036F200010A060022B78C2400000083010A070099
:10370200282E38EC02000015010A0800284004ECBB
:1037120002000060010A090028C53FEC0200009582
:10372200010A723A202F2F20643A683A6D3A7320C8
:10373200202020436F6C6C54202053746F725420ED
:103742002041757831542020417578325420506DD3
:10375200702055704C2020566163202056707620D0
:1037620054317374202054326E6420205462617389
:103772002020546F7574202054586368492054588F
:1037820063684D20545863684F2054486F744F202B
:103792005452616452205448546252204831737426
:1037A2002048326E64204177617920485475622046
:1037B2005377332020537734202052616474204899
:1037C20054756220417578462046446D702042311E
:1037D20073742042326E64202054726F6F74202002
:1037E20000723A202F2F20557074696D65202020B9
:1037F200207C20202020546865726D616C20436F0C
:103802006E74726F6C6C6572204F75747075747320
:10381200202020207C20202020202020202020204A
:103822002020202020202020202020202020205264
:10383200616469616E7420436F6E74726F6C6C6543
:103842007220496E70757473202020202020202061
:103852002020202020202020202020202020202066
:10386200202020207C202020202053776974636848
:1038720065732020202020207C2020202020436FE0
:103882006E74726F6C6C6572204F757470757473A0
:103892002020202020207C204578747261207C002A
:1038A2000100643A206F6E65776972655F706F77A9
:1038B200657255702829206E6F7420686967680ADE
:1038C20000643A206F6E65776972655F7265736531
:1038D20074282920627573206E6F74206869676886
:1038E2000A00643A206F6E65776972655F7265736C
:1038F2006574282920627573206E6F74206C6F774F
:103902000A00643A206F6E65776972655F7265734B
:1039120065742829206E6F2064657669636573205B
:1039220070726573656E740A00203F2000202E209D
:1039320000204F4E2000202E202000643A20494EC5
:10394200495420444F4E450A0052554E54494D4564
:103952000025643A2564004F50454E0053485254A6
:1039620000256C66004F4E004F464600643A2074B4
:103972006865726D616C2074696D656F75740A009B
:10398200643A20746865726D616C206D617820669E
:1039920061696C20636F756E740A00643A20746505
:1039A2006D70657261747572655F6F6E657769724D
:1039B200655F55706461746554656D70657261749C
:1039C200757265730A00643A20202063616C6C2072
:1039D200746F2074656D70657261747572655F6F66
:1039E2006E65776972655F496E6974206661696C9C
:1039F2000A00643A20202063616C6C20746F206F8F
:103A02006E65776972655F72657365742066616958
:103A12006C0A00643A20202074656D7065726174CE
:103A2200757265733A0A00643A2020206F6E6577DA
:103A320069726520637263206572726F72206C6FA7
:103A4200636174696F6E2025640A00643A20202045
:103A52006F6E65776972652025352E313166206C6F
:103A62006F636174696F6E2025640A002573256394
:103A7200256300723A2025332E33643A25322E32E2
:103A8200643A25322E32643A25322E3264200020E6
:103A920020203F20202000204F50454E2020002093
:103AA20053484F525420002520362E3166200025DF
:103AB20073200025342E316620002020203F202054
:083AC2000025352E31662000BD
:00000001FF
