:020000040000FA
:100000000C94DC000C94F9000C94F9000C94F900A9
:100010000C94F9000C94F9000C94F9000C94F9007C
:100020000C94F9000C9440030C94F9000C94F90022
:100030000C94F9000C94F9000C94F9000C94F9005C
:100040000C943B020C94F9000C9485020C9401036F
:100050000C94F9000C94F9000C94F9000C94F9003C
:100060000C94F9000C94F9006E616E00696E6600E4
:1000700000407A10F35A00A0724E18090010A5D45F
:10008000E80000E87648170000E40B54020000CABC
:100090009A3B000000E1F505000080969800000002
:1000A00040420F000000A086010000001027000061
:1000B0000000E803000000006400000000000A00E7
:1000C000000000000100000000002C76D888DC67EA
:1000D0004F0823DFC1DFAE59E1B1B796E5E3E45342
:1000E000C63AE651997696E8E6C28426EB898C9B5F
:1000F00062ED407C6FFCEFBC9C9F40F2BAA56FA5FF
:10010000F490055A2AF75C936B6CF9676DC11BFC80
:10011000E0E40D47FEF520E6B500D0ED902E03009B
:10012000943577050080841E080000204E0A0000E8
:1001300000C80C333333330F986E12831141EF8DA7
:100140002114893BE65516CFFEE6DB18D1844B38E7
:100150001BF77C1D901DA4BBE424203284725E2218
:100160008100C9F124ECA1E53D276364696E6F70DD
:10017000737578585B65666745464700616E006E2B
:1001800066696E69747900CDCCCC3D0AD7233C17E3
:10019000B7D13877CC2B329595E6241FB14F0A00A2
:1001A0000020410000C84200401C4620BCBE4CCA92
:1001B0001B0E5AAEC59D740011241FBECFEFD8E0B0
:1001C000DEBFCDBF14E0A0E0B1E0ECE2FCE302C092
:1001D00005900D92A238B107D9F726E0A2E8B4E065
:1001E00001C01D92A43CB207E1F70E94EA0A0C94F8
:1001F000141E0C94000081E090E09093F60280932E
:10020000F502089581E090E09093F0048093EF046C
:10021000089581E090E090938B0480938A04089580
:100220002091880430918904232B81F490938904D0
:100230008093880470938704609386048091C10042
:1002400080628093C10090E080E0089581E090E0BA
:10025000089540918C0450918D04CA01FA012081C7
:100260004F5F5F4F2032C9F390938D0480938C04CD
:10027000211102C090E080E00895E0918C04F0919B
:100280008D04009731F090938D0480938C040C942E
:1002900029019E2F8F2F2191222339F02032C9F777
:1002A00090938C0480938D04F2CF90938C04809370
:1002B0008D0490E080E00895E7E1F1E040E050E057
:1002C00066EC72EC81E0E737F80709F4089583855E
:1002D0008F5F83878B3068F0A081B181AA0FBB1F2D
:1002E000AA0FBB1FA856BA4F4D935D936D937C9395
:1002F00013973C96E7CF5A985E9808955598569A6A
:10030000529A08954091FC045091FD046091FE04BE
:100310007091FF0404C076956795579547958A9527
:10032000D2F788E040FF88EF41FF14C0885F42FFAA
:1003300013C0885F43FF12C0885F44FF11C088501C
:1003400045FF10C0885046FF0FC0885047FF0EC0C1
:10035000885008958850EBCF8850ECCF8850EDCF6F
:10036000885FEECF885FEFCF885FF0CF885F08951A
:10037000CF93DF93EC0110928304109282046FEC10
:1003800071E0CE010E941001892BC9F7809182048F
:1003900090918304892BD1F3DF91CF91089581E06F
:1003A00090E0909383048093820408958066809304
:1003B0007C0087EC80937A0080917A0086FDFCCFE8
:1003C0008091790090E0089529E030E041E050E02C
:1003D0002150310909F40895F894BA01682379236A
:1003E0005E985A98672B79F065E36A95F1F70000FB
:1003F0005E9AEBEDF0E03197F1F700C000007894E1
:10040000440F551FE5CFE3E0F1E03197F1F700C06D
:1004100000005E9AFAE1FA95F1F700C0F0CF5A9A1F
:100420008DE790E0019721F12AE02A95F1F700C0CD
:100430004D9BF8CF5E985A988FEC97E00197F1F7B3
:1004400000C000005A9AEFE3F1E03197F1F700C0E5
:10045000000089B182958695877091E08927817027
:1004600090E0EFE8F6E03197F1F700C00000089562
:1004700080E090E008951F920F920FB60F92112422
:100480002F933F938F939F93AF93BF938091C00619
:100490009091C106A091C206B091C3063091BF06EB
:1004A00023E0230F2D3758F50196A11DB11D209390
:1004B000BF068093C0069093C106A093C206B09376
:1004C000C3068091BB069091BC06A091BD06B09179
:1004D000BE060196A11DB11D8093BB069093BC067C
:1004E000A093BD06B093BE06BF91AF919F918F912F
:1004F0003F912F910F900FBE0F901F90189526E8F7
:10050000230F0296A11DB11DD2CF1F920F920FB6DD
:100510000F9211242F933F934F935F936F937F9389
:100520008F939F93AF93BF93CF93EF93FF9380915C
:10053000C00084FD4BC08091C00083FD47C0809106
:10054000C00082FB222720F930E0C091C6008091D4
:10055000900490919104BC016F5F7F4FE0919604ED
:10056000F09197046E177F07B4F4409185044A30E8
:1005700011F0009781F0409194045091950470938C
:10058000910460939004840F951FDC01CC93460F77
:10059000571FDA011C92232BE1F010929104109264
:1005A0009004C0E0C0938504FF91EF91CF91BF917B
:1005B000AF919F918F917F916F915F914F913F91FB
:1005C0002F910F900FBE0F901F90189521E030E0F3
:1005D000BCCFEF2B39F3CA3029F710929704109251
:1005E00096046091900470919104E0919204F091CE
:1005F000930450E040E08091940490919504099513
:10060000D1CF1F920F920FB60F9211242F933F93C9
:100610004F935F936F937F938F939F93AF93BF930A
:10062000EF93FF93E0918804F091890480818823FF
:10063000C1F03196F0938904E09388048093C6005A
:10064000FF91EF91BF91AF919F918F917F916F91AA
:100650005F914F913F912F910F900FBE0F901F9080
:1006600018958091C1008F7D8093C10010928904FC
:1006700010928804E0918604F09187040995E0CFF8
:100680001F920F920FB60F9211242F933F934F9307
:100690005F936F938F939F93AF93BF93EF93FF936A
:1006A000309184043F5F3093840469B18091830565
:1006B0008823D1F040918205E42FEF77F0E0EF5FDF
:1006C000FA4F50812091F10481E090E0022E01C0A8
:1006D000880F0A94EAF763FF2EC0852B80832F5F73
:1006E000283061F12093F1043A30A9F41092840487
:1006F00080918A0590918B05A0918C05B0918D0514
:100700000196A11DB11D80938A0590938B05A0933E
:100710008C05B0938D05FF91EF91BF91AF919F91A3
:100720008F916F915F914F913F912F910F900FBEDD
:100730000F901F90189580958523D0CF1092F104CB
:100740004F5F40938205D0CFAFE0B0E0EAEAF3E03C
:100750000C94071A6C011B015A01FC0117821682C6
:10076000838181FF48C39E012F5F3F4F4901F601FE
:100770009381F10193FD859193FF81911F0188235E
:1007800009F4E7C2853239F493FD859193FF819195
:100790001F01853239F4B60190E00E94841B3501B7
:1007A0005301E5CFF12C512C00E0003238F48B32AC
:1007B00009F190F48032F9F0833209F107FD34C079
:1007C00020ED280F2A3020F506FF1BC0FAE0FF9E1F
:1007D000200D1124F22E05C08D3279F0803371F78F
:1007E0000160F10193FD859193FF81911F018111BA
:1007F000DCCF1AC002600460F4CF0860F2CF006161
:10080000F0CF3AE0539E200D1124522E0062E9CF22
:100810008E3221F406FD9DC20064E3CF8C3611F4C4
:100820000068DFCF8836E9F29BEB980F933008F031
:100830005FC00061805E06FD02C046E0F42E102F0E
:100840001F73853609F05BC0106417FF61C08F2DE0
:100850009BE39F1508F48BE344244394480E27E060
:100860003501F4E06F0E711CF501608171818281A8
:100870009381042DA4010E943E1A5C01F981FC873A
:10088000F0FF03C00DE2F3FF07C00BE211FD04C04F
:10089000012F047012FD00E22C852C70E22E09F469
:1008A00057C00111ABC2F3E0E12CF515A0F483E0D1
:1008B000E52CE81A13FD08C0B60180E290E00E9422
:1008C000841BEA94E110F8CF002329F0B601802FB1
:1008D00090E00E94841B3C8528E6A22E20E0B22EE8
:1008E00033FD04C09CE6A92E90E0B92E107122C001
:1008F0009BE9980F933008F033C10F7E9CCF86366A
:1009000011F41068A2CFFF2009F49FCFFA949DCF75
:10091000E7E02F2DEF1518F427E037E0F32E412CF8
:100920009FCF11118052B60190E00E94841B8FEF7F
:10093000A81AB80AF50184918111F3CFEE2009F4C9
:100940002FCFB60180E290E00E94841BEA94F6CF9C
:1009500017FF6FC04A0CFC85F4FF04C08A81813305
:1009600009F44A9414140CF086C028E0241510F4FD
:1009700088E0482E85E090E017FF06C0C501B7FE6D
:1009800002C090E080E0019601110196FF2031F055
:100990002F2D30E02F5F3F4F820F931F58161906FF
:1009A00019F014F0E52CE81A812F897011F4E11088
:1009B00067C0002329F0B601802F90E00E94841BBD
:1009C00013FD02C0E11063C017FF7CC08501B7FEB4
:1009D00002C010E000E0C501841991092C016F2DBF
:1009E00070E0EE27FF27E61BF70BFF87EE870F3F30
:1009F000100729F4B6018EE290E00E94841BA01635
:100A0000B1060CF44BC0401651060CF047C0F5017E
:100A1000E01BF10BE80DF91D8181015011092E85B4
:100A20003F8502171307E4F1B60190E00E94841B92
:100A3000DECF16FD9FCFEF2DF0E0EA15FB0534F079
:100A40003CEFA3163FEFB3060CF010683296E80DAA
:100A5000F91D01C0FA94FF2019F082918033D1F37F
:100A600017FF88CF442443944F0CFA141B0431F031
:100A70002CF0FA187FCF442443947CCFF12C7ACF0A
:100A8000B60180E290E00E94841BEA9490CFB60108
:100A900080E390E00E94841BEA9494CF80E3BDCF72
:100AA000A016B10641F49A81963350F4953319F4A7
:100AB0003C8534FF05C0B60190E00E94841B3ECF08
:100AC00081E3F9CF8A81813319F09C859F7E9C87D1
:100AD000B60190E00E94841BFF20A9F0B6018EE2CF
:100AE00090E00E94841BF394F394E2E001E00E0F87
:100AF000E80DF92DF11D8081B60190E00E94841B64
:100B0000E02F0F11F3CF85E690E014FF02C085E4DB
:100B100090E0B6010E94841BB7FC06C0A114B1048A
:100B2000C1F4EC85E4FF15C0B194A194B1088DE245
:100B3000B60190E00E94841B80E32AE0A216B10473
:100B400054F4B60190E00E94841BB601C501C09622
:100B5000B4CF8BE2EDCF8F5FFAE0AF1AB108EDCFE3
:100B60008336C9F0833771F1833509F05BC03501F5
:100B7000F2E06F0E711CF501A080B1806F2D70E066
:100B800006FD02C06FEF7FEFC5010E94321B9D87FB
:100B90008C8700680DC0350132E0630E711CF501D1
:100BA0008081898321E030E03D872C8754010F77D5
:100BB00003FD06C02C853D855216130609F0A8F4E6
:100BC000E52C2BC0350132E0630E711CF501A080CD
:100BD000B1806F2D70E006FD02C06FEF7FEFC501A1
:100BE0000E943D1B9D878C87E2CFB60180E290E09A
:100BF0000E94841B5A94DECFF50107FD859107FF03
:100C000081915F01B60190E00E94841BE110EA949B
:100C10008C859D8501979D878C87EC85FD85EF2BC5
:100C200059F78CCE843619F0893609F074C0350135
:100C300007FF66C0F4E06F0E711CF50160817181E1
:100C400082819381102F1F7697FF08C09095809521
:100C5000709561957F4F8F4F9F4F10682AE030E06D
:100C6000A4010E94CC1BA82EA818BA2C012F16FF95
:100C70000AC00E7FAF1438F414FF04C012FD02C086
:100C8000012F0E7EBF2C04FF8EC0FE01EA0DF11D68
:100C90008081803309F080C0097EF02FF870EF2E3C
:100CA00003FD90C000FF8AC0FA2CB51410F4F50CB7
:100CB000FB1804FF8DC0B60180E390E00E94841B06
:100CC00002FF09C088E790E001FF02C088E590E0DC
:100CD000B6010E94841BAF1408F486C0AA940A2DA2
:100CE00010E00F5F1F4F080D191DF80182918F0151
:100CF000B60190E00E94841B80169106B1F71ECECB
:100D0000F2E06F0E711CF50160817181072E000CFD
:100D1000880B990B97CF102F8537A9F41F7E2AE0F7
:100D200030E0350117FF2FC0F4E06F0E711CF501A4
:100D30006081718182819381A4010E94CC1BA82EC5
:100D4000A8181F7792CF197F8F36D1F048F48835D5
:100D500091F0F601868197812F96E2E10C94231A97
:100D6000803739F08837A9F714FD146020E130E0AE
:100D7000D8CF1061F9CF04FD166020E132E0D1CF69
:100D800028E030E0CECFF2E06F0E711CF5016081FB
:100D9000718190E080E0D0CF02FD02C0B3947DCF9E
:100DA000B394B3947ACF802F867809F476CFF6CFB8
:100DB000B60180E290E00E94841BB394B514C0F3A6
:100DC000E12C77CFE52CEB18B51408F472CFF8CFEF
:100DD000802F867809F47FCF8BE201FF80E207FD48
:100DE0008DE2B60190E075CFB60180E390E00E94FD
:100DF000841BFA9470CF8FEF9FEFAECF24E0E12CED
:100E0000251508F063CD84E053CD20FD09C0FC0119
:100E100023FD05C022FF02C0738362835183408398
:100E2000089544FD17C046FD1DC0DB01FC01AA0F5B
:100E3000BB1FEE1FFF1F1094D1F76A0F7B1F8E1F81
:100E40009F1F660F771F881F991F620F711D811DDD
:100E5000911D089533E0660F771F881F991F315049
:100E6000D1F7F3CF34E0F7CF0F931F93CF93DF93F6
:100E70008C01C8010E94481BEC0197FD08C00E942C
:100E8000161B892BB1F7B801CE010E94B41BCE010D
:100E9000DF91CF911F910F910895B0E0A0E0E3E5BD
:100EA000F7E00C940D1A7C018B016A01D22F0E948D
:100EB000481B9C0133272B32310521F02D3231059F
:100EC00079F4D0680150110931F480E0CDB7DEB774
:100ED000ECE00C94291AC7010E94481B97FDF5CF3E
:100EE000CD2FCD7F2D2F207309F58033F9F45801D4
:100EF00081E0A81AB10891F0C7010E94481B97FD34
:100F00000DC0282F2F7D283569F4C26402501109C5
:100F100029F0C7010E94481B97FF08C0812C912C23
:100F200054011BC0D6FF2BC0C2608501812C912CBF
:100F3000540120ED280F283028F1C4FD09C02A30C3
:100F400008F1C6FF05C02F7D3FEE320F3630C8F0E6
:100F5000B7010E94B41BC1FFB8CFC7FF08C0B0944F
:100F6000A09490948094811C911CA11CB11C2C2FE6
:100F7000B501A401C6010E94050781E0A7CFC261A7
:100F8000D4CF27504C2FC501B4010E9411074B014B
:100F90005C01C2600150110901F3C7010E94481BA6
:100FA00097FFC7CFD8CFA0E2B0E0E9EDF7E00C940F
:100FB0000B1A5C014B017A01CE0101966C0180E2B3
:100FC000F60111928A95E9F7F501B381890130E0C4
:100FD00020E0612C712CA0E041E050E0F801B3FD6D
:100FE0008591B3FF8191982F8F01811107C010E087
:100FF00000E0C801A096EEE00C94271A8E3519F493
:101000002115310541F1A21713064CF48D3549F134
:101010008D3229F4711006C0772473941DC0772097
:1010200009F465C0E92FE695E695E695EC0DFD2DF2
:10103000F11D892F8770BA0101C0660F8A95EAF702
:101040008081682B6083691651F0961510F49F5FBC
:10105000E9CF9150E7CFA1E02F5F3F4FBFCF712C79
:10106000FBCF772019F08E8180628E83AA2359F0FE
:10107000F6019E012F5D3F4F8081809580833196E0
:10108000E217F307C9F777247394C5010E94481B40
:1010900097FD16C0E82FE695E695E695EC0DFD2D3B
:1010A000F11D208130E0AC014770552702C0359515
:1010B00027954A95E2F720FD06C0B5010E94B41BB2
:1010C000772071F094CFE114F10429F0F7018083C7
:1010D000C70101967C0191E0891A9108712CA9F64B
:1010E000E114F10409F485CFF701108282CFE82FD3
:1010F000E695E695E695EC0DFD2DF11D982F977080
:10110000BA0101C0660F9A95EAF79081692B608356
:10111000682EA2CF2F923F924F925F926F927F9252
:101120009F92AF92BF92CF92DF92EF92FF920F9376
:101130001F93CF93DF936C018B011A010E94481B10
:10114000EC0199278B32910521F08D97C9F0B12CD4
:1011500020C0B12C01501109B1F480E0DF91CF9192
:101160001F910F91FF90EF90DF90CF90BF90AF90C5
:101170009F907F906F905F904F903F902F90089539
:1011800030E8B32EE7CFC6010E94481BEC0197FD63
:10119000E4CFCE010E941F1B8936910509F4C0C01F
:1011A0008E36910509F4ACC0412C512C3201F12C42
:1011B000E12C2C2F20539B2C2A3008F0CFC06894B0
:1011C00091F88B2D8870B2FEB0C0811103C0EFEF93
:1011D000EE1AFE0A0150110931F0C6010E94481BA7
:1011E000EC0197FFA0C091FEB8CF8C2F8F7D853486
:1011F00009F042C05801E1E0AE1AB10809F4ADCFE0
:10120000C6010E94481BEC0197FDA7CF99278B329E
:10121000910521F08D9761F4689494F85801F2E0FB
:10122000AF1AB10809F499CFC6010E94481BEC011E
:10123000CE01C0970A9708F090CF10E000E0B80107
:10124000110F880B990B2C2F205340E20E9411079D
:101250008B0121E0A21AB10839F0C6010E94481B97
:10126000EC01C0970A9758F394FE03C011950195BD
:101270001109E00EF11E8501012B31F0D7FD04C0EC
:10128000B601CE010E94B41BC301B2010E940C1929
:10129000C3EBD1E0F7FE05C0F194E194F108CBE98E
:1012A000D1E06E01E8E1CE1AD10800E210E067C09B
:1012B0000150110971F0C6010E94481B3C0197FDC5
:1012C00008C00E941F1BF816E9F0B601C3010E9476
:1012D000B41BC258D14009F040CF80E090E0A0E8B4
:1012E000BFE7BC01CD019B2C97FC90582114310421
:1012F00029F0F101608371838283938381E02ECF93
:10130000CCE7D1E02196FE013197F490F110D0CFD7
:10131000CF57D14011F780E090E0A0ECBFE7E1CFDC
:10132000CFE7D1E0EFCFB92C44CF882319F0F1E01B
:10133000EF1AF10840E2C301B2010E9411072B012C
:101340003C0128E9421629E95206620629E17206A3
:1013500008F440CF8B2D8660982E3CCF2E3F09F0AD
:1013600042CFB3FC40CF689493F834CFFE0125916F
:101370003591459154910E944919E01AF10AE016FD
:10138000F106A0F7249716950795CC15DD05B9F75A
:10139000ABCFB0E0A0E0EFECF9E00C940B1A5C01ED
:1013A000EB014A01FC0117821682612CF5010381D1
:1013B000FE0103FD859103FF8191182FEF01882322
:1013C000E9F090E00E94161B892B21F0C5010E94D4
:1013D0003407ECCF153241F4FE0103FD159103FFF4
:1013E0001191EF01153269F4C5010E94481B97FD68
:1013F00096C01817D9F2B5010E94B41B862D90E053
:1014000092C0712C1A3239F403FD159103FF11912A
:10141000EF0177247394F12CE12C20ED210F2A3079
:1014200050F171FE38C0E114F10441F31836B9F1FE
:101430001C3609F43FC0112309F3612F70E08AE6DE
:1014400091E00E94271B892BC9F2D12CC12C70FC82
:1014500006C0F401C080D180C40102964C011E3642
:1014600091F5F5014681578170E060E0272DC601B6
:101470000E9405079BCF689471F8B70190E080E067
:1014800040E20E9411077B01FE0103FD159103FF5D
:101490001191EF01C2CFEE24EA94FE2CC7CFFE01DA
:1014A00003FD159103FF1191EF01183609F0C3CF29
:1014B000689473F8689472F8FE0103FD159103FFB8
:1014C0001191EF01B8CF1336D1F471FC03C0EE24B3
:1014D000E394F12CC5010E94481B97FD20C0C11464
:1014E000D10429F0F6018083C60101966C0191E0D8
:1014F000E91AF10879F770FC59CF639457CF1B357F
:10150000B9F49E01A601B701C5010E94D307EC0101
:10151000892B89F7F5018381807309F46FCF8FEFF1
:101520009FEF61106BCFCDB7DEB7EEE00C94271ABA
:10153000C5010E94340797FDF2CF1F3609F447C05A
:1015400090F4143609F440C0193621F0183581F4AE
:10155000689476F8272DA601B701C5010E944D07B2
:101560008111C9CFD7CF1337D1F040F4103781F3B1
:10157000A601B701C5010E948A08F2CF153721F1F3
:10158000183731F3F5CFC114D10429F0F6010083E7
:10159000C60101966C0191E0E91AF10871F0C501EC
:1015A0000E94481B8C0197FD08C00E94161B892BC6
:1015B00051F3B501C8010E94B41BC114D10409F450
:1015C0009ACFF601108297CF689475F8C3CF6894CC
:1015D00074F8C0CFCF93DF93CDB7DEB7C255D10932
:1015E0000FB6F894DEBF0FBECDBF789484B582608D
:1015F00084BD84B5816084BD85B5826085BD85B5B7
:10160000816085BD80916E00816080936E00109234
:1016100081008091810082608093810080918100AF
:101620008160809381008091800081608093800040
:101630008091B10084608093B1008091B00081609E
:101640008093B00080917A00846080937A008091CA
:101650007A00826080937A0080917A008160809322
:101660007A0080917A00806880937A001092C1009D
:101670001092950410929404109293041092920484
:101680001092970410929604109289041092880484
:1016900010928704109286048FE98093C40081E041
:1016A0008093C50098E99093C10099E19093B300AD
:1016B0008093700083E08093B0008BE08093B10052
:1016C0005F9828982998579A209A219A2A982B98B7
:1016D0002C98229A239A249A80E680937C0087E8AB
:1016E00080937A005C9A2D9A0E945C010E947E0190
:1016F0000E940F02E0910201F0910301EE0FFF1F23
:10170000EE0FFF1FE856FA4F80E090E0A6ECB2EC37
:1017100080839183A283B383E0910901F0910A0150
:10172000EE0FFF1FEE0FFF1FE856FA4F80839183E5
:10173000A283B383E0911001F0911101EE0FFF1F1E
:10174000EE0FFF1FE856FA4F80839183A283B38385
:1017500010928B0410928A0469E071E089E093E0B2
:101760000E941001892BC1F780918A0490918B040B
:10177000892BD1F300910001109101010115110590
:1017800009F0C6C08091EF049091F004892B09F410
:1017900089C21092CD051092CC058EE994E0909309
:1017A0008D0480938C040E9429017C01009709F428
:1017B000A5C067E173E00E94BE1D892B09F09EC0A1
:1017C0006E0121E4C20ED11CDF92CF925E013AE499
:1017D000A30EB11CBF92AF928FE193E09F938F93C2
:1017E000FF92EF920E94FB1D0FB6F894DEBF0FBE72
:1017F000CDBF029709F440C18091CC059091CD05F1
:1018000080619093CD058093CC05AFE2CA2EA3E012
:10181000DA2E90E080E00E943D017C01009709F003
:101820003EC180918E0490918F04019690938F0415
:1018300080938E040B970CF0ADC10330110509F4B1
:10184000E3C10CF0ACC10130110509F4BFC1023095
:10185000110509F4CAC160966CAD7DAD8EAD9FAD2A
:1018600060976093D0057093D1058093D2059093D3
:10187000D3050F5F1F4F0630110559F690E080E049
:101880000E943D018C01009779F042E050E063E353
:1018900073E00E94B01D892B09F0D4C181E090E073
:1018A0009093E9058093E80590E080E00E943D0177
:1018B0008C01009779F042E050E063E373E00E940E
:1018C000B01D892B09F0D6C181E090E09093EB0523
:1018D0008093EA058091CC059091CD05817199277F
:1018E000892B21F410928F0410928E04A0918E0403
:1018F000B0918F046396BFAFAEAF63976396EEADC2
:10190000FFAD6397EF2B21F410929D0410929C047D
:1019100010920101109200011092F0041092EF0455
:1019200080918A0590918B05A0918C05B0918D05D1
:101930008093980490939904A0939A04B0939B0485
:101940008091960490919704892BB1F48EE994E0EC
:10195000909395048093940482E091E09093930493
:1019600080939204109291041092900481E590E08B
:1019700090939704809396048091CC059091CD0527
:1019800081719927892B09F416C2549886E090E05A
:101990000E94D601BC01990F880B990B0E940E1969
:1019A00020E030E04FE753E40E949F1C20E030E04D
:1019B00040EA50E40E94491926E636E646E950E43A
:1019C0000E9449196093C8057093C9058093CA05A0
:1019D0009093CB0582E090E00E94D601BC01990F64
:1019E000880B990B0E940E1920E030E04FE753E47A
:1019F0000E949F1C20E030E040EA50E40E94491918
:101A000026E636E646E950E40E9449196093C4058B
:101A10007093C5058093C6059093C70560918A05AC
:101A200070918B0580918C0590918D0528EE33E0A7
:101A300040E050E00E94621D3093ED052093EC05DC
:101A400008E915E0F4ECEF2EF5E0FF2ED8016D91DA
:101A50007D918D919D918D0120E030E046EC52EC1E
:101A60000E949A1C882311F40C94CC18E016F106FD
:101A700069F7259A0C94CD18D5012D913C914CE332
:101A8000429FC001439F900D1124F60120813181B6
:101A9000820F931F9093CF058093CE05B6CE44E07E
:101AA00050E065E273E00E94B01D0097E9F42091D8
:101AB000CC053091CD05A801445051094230510563
:101AC00010F084E090E0822B932B9093CD058093CF
:101AD000CC0520E030E046EC52EC60962CAF3DAFF8
:101AE0004EAF5FAF6097A9CE44E050E06AE273E08A
:101AF000C7010E94B01D892BA1F48091CC05909163
:101B0000CD0588609093CD058093CC0540E050E0F2
:101B100064EC72EC60964CAF5DAF6EAF7FAF6097D8
:101B20008CCE61E070E06C0F7D1F7F936F93DF922E
:101B3000CF92FF92EF920E94FB1D0F900F900F909B
:101B40000F900F900F900197D1F08091CC0590915C
:101B5000CD0580619093CD058093CC0580918E0456
:101B600090918F04019690938F0480938E040B972D
:101B70000CF463CE40E050E062EC72ECCBCF898194
:101B80009A81AB81BC8160968CAF9DAFAEAFBFAF89
:101B9000609753CE20E030E040EC52EC9ECF043012
:101BA000110509F440C00530110509F054CE6096C6
:101BB0008CAD9DADAEADBFAD60978093E4059093C5
:101BC000E505A093E605B093E70553CE60968CAD8E
:101BD0009DADAEADBFAD60978093D4059093D50514
:101BE000A093D605B093D70544CE60962CAD3DADFD
:101BF0004EAD5FAD60972093D8053093D9054093E3
:101C0000DA055093DB0535CE60964CAD5DAD6EAD1B
:101C10007FAD60974093DC055093DD056093DE0552
:101C20007093DF0526CE60966CAD7DAD8EAD9FAD19
:101C300060976093E0057093E1058093E2059093CF
:101C4000E30517CE43E050E066E373E0C8010E946D
:101C5000B01D892B29F41092E9051092E80524CED5
:101C60008091CC059091CD0580619093CD058093B6
:101C7000CC051ACE43E050E066E373E0C8010E9451
:101C8000B01D892B29F41092EB051092EA0522CEA3
:101C90008091CC059091CD0580619093CD05809386
:101CA000CC0518CEC0908A05D0908B05E0908C05AD
:101CB000F0908D058091980490919904A0919A04D8
:101CC000B0919B04A7019601281B390B4A0B5B0BB3
:101CD000CA01B90128EE33E040E050E00E94621DE5
:101CE000253131050CF448CEC0929804D092990465
:101CF000E0929A04F0929B0400919C0410919D0440
:101D0000053011050CF038CE0F5F1F4F10939D0466
:101D100000939C048AE393E00E94B801053011050A
:101D200009F02ACE8EE493E00E94B80181E090E0B1
:101D30009093CD058093CC0580E090E0AEEBB2ECC3
:101D40008093D0059093D105A093D205B093D3058D
:101D50008093D4059093D505A093D605B093D7056D
:101D60008093D8059093D905A093DA05B093DB054D
:101D70008093DC059093DD05A093DE05B093DF052D
:101D80008093E0059093E105A093E205B093E3050D
:101D90008093E4059093E505A093E605B093E705ED
:101DA00081EA9FEF9093E9058093E8059093EB0516
:101DB0008093EA05E1CD549AE9CD10918205809196
:101DC0008105181B3090040120900B01B091120185
:101DD0006196BFAF6197112311F40C94FC18009128
:101DE0008105E02FEF77F0E0EF5FFA4F80812091DF
:101DF0000005422F022E000C550B90E027FF25C056
:101E000051954195510902C0959587954A95E2F7FC
:101E1000092E000CAA0BBB0B8093FC049093FD04CD
:101E2000A093FE04B093FF04285F20930005D09098
:101E30000005E090FA04F090FB04F3E1FD15E4F0F6
:101E40000F5F009381051150C6CFB0E0A0E0022ED5
:101E500004C0880F991FAA1FBB1F0A94D2F7409194
:101E6000FC045091FD046091FE047091FF04842BEA
:101E7000952BA62BB72BD0CFE114F10409F45EC04B
:101E8000E3E0EE16F104C8F680E00E948201C82E5D
:101E900081E00E948201782E82E00E948201672DFB
:101EA000072C000C770B77FF03C0719561957109C2
:101EB0002C2D0C2C000C330B37FF03C031952195D2
:101EC0003109482F082E000C550B57FF03C05195C0
:101ED00041955109621773070CF474C064177507B4
:101EE0000CF476C0872D91E052E0E516F10409F478
:101EF000A1C089320CF46EC08091F9048F5F809389
:101F0000F90489E0890F4091FC045091FD0460912F
:101F1000FE047091FF0404C0769567955795479528
:101F20008A95D2F74093FC045093FD046093FE041D
:101F30007093FF0467EFD60ED91A41C08091FC045C
:101F40009091FD04A091FE04B091FF04AC01BD018D
:101F500076956795579547952A013B01FEE74F22F5
:101F60005524662477242EE042165104610471043E
:101F7000E9F431E03093F9044AE0B695A7959795D6
:101F800087954A95D1F78093FC049093FD04A09324
:101F9000FE04B093FF0486EF8D0D8093000541E0B1
:101FA00050E05093FB044093FA0441CF4093FC046B
:101FB0005093FD046093FE047093FF04DA94D09272
:101FC000000535CF241735071CF08C2D90E08CCF01
:101FD00092E08ACF883D0CF0E1C08091F9048B300B
:101FE00008F4DCC07FEF7093F80489E0890F40911A
:101FF000FC045091FD046091FE047091FF0404C044
:1020000076956795579547958A95D2F74093FC0446
:102010005093FD046093FE047093FF0487EFD80E85
:10202000D91AD0920005A2E0B0E0B093FB04A093CF
:10203000FA04FDCE28E2280F213508F4AFC0209124
:10204000F80427FD13C0E22FE595E595E5950E2EE2
:10205000000CFF0BEE50FB4F408150E0440F551F2A
:1020600031E018160CF030E0432B40832F5F2093B3
:10207000F80489E0890F4091FC045091FD046091BF
:10208000FE047091FF0404C07695679557954795B7
:102090008A95D2F74093FC045093FD046093FE04AC
:1020A0007093FF04B7EFDB0ED91AD09200052033EE
:1020B00009F0BDCE4091F704E2EFF4E094E68CE73E
:1020C000319128E0582F517080FB879587F955236F
:1020D00011F058E1852737FD9827330F215091F7EC
:1020E00067EF74E06E177F0759F7491357C0809167
:1020F000F204853409F052C08091F604853608F068
:102100004DC08091F404682F677070E0762F6627C9
:102110009091F504690F711D9B01285C31092937E5
:102120003540E0F5807782958F708F5F8315D9F108
:102130008215E1F16196AFAD61978A132FC082E0FD
:1021400090E0B7E0B89F9001B99F300D1124F901DC
:10215000EE5FFE4F6F01E080F180EE0CFF1CEE0C95
:10216000FF1C970128563A4F790160597140072E9C
:10217000000C880B990B0E940E1920E030E040E221
:1021800051E40E949F1CD7016D937D938D939C9386
:102190001397F60183829482A582B6821092FB0483
:1021A0001092FA0444CE90E080E0CBCF81E090E042
:1021B000C8CFF80183819481A581B681A5019401DE
:1021C000281B390B4A0B5B0BCA01B90128EE33E01F
:1021D00040E050E00E94621D293532408CF0D80169
:1021E000ED91FC91EE0FFF1FEE0FFF1FE856FA4F27
:1021F00020E030E046EC52EC20833183428353836D
:10220000095F1F4FE016F106A1F683E090E00E94FF
:10221000D60110E000E0853D910564F402E010E095
:10222000853991053CF401E010E08337910514F401
:1022300003E010E087E090E00E94D601853D910523
:102240002CF4853991050CF489C208601093970528
:102250000093960560918A0570918B0580918C059D
:1022600090918D05C0908605D0908705E0908805F7
:10227000F09089056C197D098E099F0928EE33E0DD
:1022800040E050E00E94621D253131050CF459C335
:102290002090D0053090D1054090D2055090D305C4
:1022A0008090D4059090D505A090D605B090D70524
:1022B00020E030E04EEB52ECC201B1010E949A1CCA
:1022C00018160CF058C220E030E04EEB52ECC5017D
:1022D000B4010E949A1C18160CF049C220E030E0AC
:1022E00043E453E4C201B1010E94351D18160CF4F9
:1022F0003CC2FF24F39420E030E045E253E4C50102
:10230000B4010E94351D18160CF0F12C8F2D61962A
:102310008FAF619720E030E04EEB52ECC501B40185
:102320000E949A1C1816B4F420E030E04DE453E407
:10233000C201B1010E94351DEE24E39418165CF031
:1023400020E030E04AE253E4C501B4010E94351DAB
:1023500018160CF0E12C20E030E04EEB52ECC201FC
:10236000B1010E949A1C1816E4F420E030E04EEB14
:1023700052ECC501B4010E949A1C181694F420E096
:1023800030E040E251E4C501B4010E942E1C9B01E3
:10239000AC0177247394C201B1010E94351D181657
:1023A0000CF0712C209098053090990540909A057A
:1023B00050909B0520E030E046EC52ECC201B101A8
:1023C0000E949A1C20E030E04EEB52EC882309F486
:1023D000D7C1C501B4010E949A1C18160CF06CC23A
:1023E0006801F4E0CF22DD2402FD66C220E030E087
:1023F00040E952E4C201B1010E949A1C87FF0EC05D
:102400006624639420E030E04AEF52E4C501B40151
:102410000E94351D18160CF0612CC62C6C2C20E087
:1024200030E04EEB52ECC501B4010E949A1C181624
:102430000CF424C2F12CBBC188E893E00E94B801DF
:102440005A985E9A8FE39CE90197F1F700C000006B
:102450008091840590918505892BA9F40E945C01E7
:102460000E947E010E940F02892B39F488EA93E0D2
:102470000E94B8010E947B01C8CE81E090E0909359
:102480008505809384050E940F02892B49F48EEB09
:1024900093E00E94B8010E947B010E945C01B5CECE
:1024A0008CEC90E00E94E40184E490E00E94E4015E
:1024B0009FEFA3EDB0E39150A040B040E1F700C022
:1024C000000085ED93E00E94B80107E111E077E795
:1024D000872E71E0972EE4EE2E2EE3E03E2E80163E
:1024E000910641F2F8018285882309F488C00E9490
:1024F0000F02892B61F285E590E00E94E4016801FA
:10250000F2E0CF0ED11C78012AE0E20EF11CD601D8
:102510008D916D0190E00E94E401EC14FD04B9F787
:102520008EEB90E00E94E401FE01EF5BFF4F5F0144
:10253000B9E0AB0EB11C3F017F0150E040E029E063
:1025400030E081E090E019C0F8945A985E9860E11C
:102550006A95F1F75A9A7AE47A95F1F700C0D9B002
:10256000AFEBB0E01197F1F700C000007894D5FE12
:1025700002C0482B592B880F991F2150310921F790
:10258000D3014D933D01AA16BB06B9F660859F01A4
:10259000285F3F4F40E02E173F07A1F5641709F46D
:1025A00042C0F80183858A30D8F10190F081E02D96
:1025B000EE0FFF1FEE0FFF1FE856FA4F20E030E04E
:1025C00046EC52EC2083318342835383F8018181AE
:1025D0008F9380818F933F922F9221E030E02C0FD8
:1025E0003D1F3F932F930E94D81DCE0101960E945C
:1025F000B8010F900F900F900F900F900F90045F05
:102600001F4F6DCF519188E090E0742F752746954C
:1026100070FF02C0BCE84B2756950197B1F7BBCFBE
:102620008F5F8387D3CFD70111966C911197862F37
:1026300090E0982F88276C91680F792F711D072ED5
:10264000000C880B990B0E940E1920E030E040E846
:102650005DE30E94491920E030E040E151E40E942E
:10266000491920E030E040EA50E40E949F1C20E03D
:1026700030E040E052E40E942E1C6B017C01F80126
:1026800081818F9380818F9326E034E03F932F9355
:1026900061E070E06C0F7D1F7F936F930E94D81DE7
:1026A000CE0101960E94B801D801AD90BC90AA0C51
:1026B000BB1CAA0CBB1CF501E856FA4F40805180A8
:1026C000628073800F900F900F900F900F900F907B
:1026D00020E030E046EC52ECC301B2010E949A1CAB
:1026E000882391F120E030E040EA50E4C301B201D8
:1026F0000E942E1C9B01AC01C701B6010E94351D32
:10270000181654F420E030E040E05FE3C701B60162
:102710000E942E1C6B017C0120E030E040EA50E476
:10272000C301B2010E942D1CA70196010E94351D14
:10273000181654F420E030E040E05FE3C701B60132
:102740000E942D1C6B017C01F501E856FA4FC082F6
:10275000D182E282F382F801138651CF833791054B
:1027600014F0046073CD0C6071CD81E0D0CD619622
:102770001FAE6197EFCD61961FAE6197E12C11CE30
:10278000C501B4010E949A1C18160CF095C002FDF8
:1027900093C0FF24F39420E030E04CE852E4C501FC
:1027A000B4010E94351D18160CF0F12C612C680143
:1027B00022E0C222DD2481E001FD43C02090E0053B
:1027C0003090E1054090E2055090E30520E030E0D4
:1027D0004EEB52ECC201B1010E949A1C18160CF08B
:1027E0006DC020E030E04EEB52ECC501B4010E9418
:1027F0009A1C18160CF062C003FF60C020E030E0A5
:102800004AEA52E4C201B1010E94351D1816C4F40F
:1028100020E030E044EC52E4C201B1010E949A1C75
:1028200087FF0EC04424439420E030E04AEF52E496
:10283000C501B4010E94351D18160CF0412CC42CA2
:102840008C2DA8014170552700FF3AC0F11007C038
:1028500061963FAD61973323B9F16620A9F1942FBA
:1028600061966FAD6197662391F1442309F4C8C066
:1028700031E020E0E11034C030E032C020E030E050
:1028800040E952E4C201B1010E949A1C87FFD2CDF7
:1028900020E030E040E050E4C201B1010E942E1C73
:1028A0009B01AC01FF24F394C501B4010E94351DC6
:1028B00018160CF47CCFBECD612CBCCD80E0C1CF0E
:1028C00041E050E06110CBCF4E2D50E0C8CF31E059
:1028D00020E0E11001C030E0911102C0711093C0FE
:1028E00090E05093950540939405909393058093C1
:1028F00092053093900520939105452B09F486C0ED
:102900005F9A8091920590919305892B09F480C07C
:10291000289A8091900590919105892B09F47AC0AD
:102920002C9A80918A0590918B05A0918C05B0918D
:102930008D058093860590938705A0938805B093B5
:1029400089058091F5029091F602892B09F44EC019
:1029500080918A0590918B05A0918C05B0918D0591
:102960004091B7065091B8066091B9067091BA06C9
:10297000841B950BA60BB70B813D9740BCF1809152
:10298000B5069091B6068130910509F445C08230B4
:10299000910509F462C0892B49F51092F602109254
:1029A000F5021F928AE08F931F928DE08F9386E34A
:1029B00092E09F938F9385E294E09F938F938EEEA6
:1029C00095E09F938F930E94D81D6BEF70E08EEE81
:1029D00095E00E94100181E090E09093B60680930C
:1029E000B5060FB6F894DEBF0FBECDBF80E090E015
:1029F000892B11F40C94BA0B0E9400000C94BA0BB2
:102A000031E020E06BCF81E090E06BCF5F9879CF31
:102A100028987FCF2C9885CF1092F6021092F5025D
:102A20001F928AE08F931F928DE08F9387E791E04A
:102A30009F938F9385E294E09F938F938EEE95E022
:102A40009F938F930E94D81D6BEF70E08EEE95E000
:102A50000E94100182E090E0C0CF2091EC053091FF
:102A6000ED05ECE3F0E0C901BF010E943A1D9F9320
:102A70008F93CB01BF010E943A1D9F938F93C90191
:102A800060E17EE00E943A1D7F936F931F921F9238
:102A90008CE294E09F938F938EEE95E09F938F93BB
:102AA0000E94D81D0FB6F894DEBF0FBECDBFF12C2B
:102AB000E12CAEEEAA2EA5E0BA2EB0E6CB2EB4E005
:102AC000DB2EF2E0EF16F10409F4E3C023E0E21696
:102AD000F10409F4E7C031E0E316F10409F4D0C0D1
:102AE0009090D0058090D1057090D2056090D3056C
:102AF000F50101900020E9F78F0101501109809143
:102B0000CC0568E474E080FD10C020E030E046ECC5
:102B100052ECD401F3016B2F782D8F2F962D0E944C
:102B20009A1C8111C8C060E574E0C8010E94A91D0B
:102B30005FEFE51AF50A64E0E616F10411F68091FC
:102B4000E8059091E90527EF32E0823A7FEF970799
:102B500034F020E033E0892B11F42BEF32E08EEEDD
:102B600095E0DC010D900020E9F7CD013F932F9314
:102B700028E634E03F932F9301979F938F930E9411
:102B8000D81D8091EA059091EB050F900F900F9062
:102B90000F900F900F9027EF32E0823ABFEF9B0724
:102BA00034F020E033E0892B11F42BEF32E00EEE0D
:102BB00015E0F80101900020E9F7CF013F932F9332
:102BC00028E634E03F932F9301979F938F930E94C1
:102BD000D81DD8010D900020E9F7CD012091CB053B
:102BE0002F932091CA052F932091C9052F932091EF
:102BF000C8052F937CE6E72E74E0F72EFF92EF9244
:102C000001979F938F930E94D81DF8010190002097
:102C1000E9F78F018091C7058F938091C6058F9347
:102C20008091C5058F938091C4058F93FF92EF9299
:102C3000015011091F930F930E94D81D0FB6F894ED
:102C4000DEBF0FBECDBFF12CE12CEEEEAE2EE5E0E7
:102C5000BE2EFAE7CF2EF4E0DF2EF7013197E930F0
:102C6000F10508F049C0E95CF94E0C94811D50183B
:102C7000591862186B1874187D1886188F189818D0
:102C80009090D4058090D5057090D6056090D705BA
:102C90002FCF9090E0058090E1057090E205609064
:102CA000E30526CF9090E4058090E5057090E60559
:102CB0006090E7051DCF20E030E044EC52ECD401F9
:102CC000F3016B2F782D8F2F962D0E949A1C68E5AB
:102CD00074E0882309F429CF6F927F928F929F929C
:102CE000DF92CF921F930F930E94D81D0FB6F894D6
:102CF000DEBF0FBECDBF1CCF909098058090990588
:102D000070909A0560909B05F50101900020E9F70D
:102D10008F010150110920E030E046EC52ECD40163
:102D2000F3016B2F782D8F2F962D0E949A1C811105
:102D300008C263E774E0C8010E94A91D5FEFE51AAD
:102D4000F50A6AE0E616F10409F087CF0EEE15E009
:102D5000D8010D900020E9F7CD0154E0C52E53E0D5
:102D6000D52EDF92CF9268E6E62E64E0F62EFF9233
:102D7000EF9201979F938F930E94D81DF8010190C5
:102D80000020E9F78F01DF92CF92FF92EF9201507E
:102D900011091F930F930E94D81D809196050FB6BD
:102DA000F894DEBF0FBECDBF2FEF32E080FD02C032
:102DB00024E033E08EEE95E0DC010D900020E9F791
:102DC000CD013F932F9328E634E03F932F93019753
:102DD0009F938F930E94D81D809196050F900F901E
:102DE0000F900F900F900F902FEF32E081FD02C0F7
:102DF00024E033E08EEE95E0FC0101900020E9F73D
:102E0000CF013F932F9328E634E03F932F93019710
:102E10009F938F930E94D81D809196050F900F90DD
:102E20000F900F900F900F902FEF32E082FD02C0B5
:102E300024E033E08EEE95E0DC010D900020E9F710
:102E4000CD013F932F9328E634E03F932F930197D2
:102E50009F938F930E94D81D809196050F900F909D
:102E60000F900F900F900F902FEF32E083FD02C074
:102E700024E033E08EEE95E0FC0101900020E9F7BC
:102E8000CF013F932F9328E634E03F932F93019790
:102E90009F938F930E94D81D0F900F900F900F90CB
:102EA0000F900F9080919405909195052FEF32E04F
:102EB000892B11F424E033E08EEE95E0DC010D90D7
:102EC0000020E9F7CD013F932F9328E634E03F93AC
:102ED0002F9301979F938F930E94D81D0F900F906F
:102EE0000F900F900F900F90809192059091930505
:102EF0002FEF32E0892B11F424E033E00EEE15E0E1
:102F0000F80101900020E9F7CF013F932F9348E6A5
:102F1000E42E44E0F42EFF92EF9201979F938F935B
:102F20000E94D81DD8010D900020E9F78D0184E0A2
:102F300093E09F938F93FF92EF92015011091F939B
:102F40000F930E94D81D0FB6F894DEBF0FBECDBF01
:102F500080919005909191052FEF32E0892B11F42B
:102F600024E033E00EEE15E0D8010D900020E9F7E3
:102F7000CD013F932F9328E6E22E24E0F22EFF921C
:102F8000EF9201979F938F930E94D81DF8010190B3
:102F90000020E9F7CF0134E0C32E33E0D32EDF92D7
:102FA000CF92FF92EF9201979F938F930E94D81D2B
:102FB000D8010D900020E9F7CD01DF92CF92FF926A
:102FC000EF9201979F938F930E94D81DF090C005B8
:102FD000E090C105D090C205C090C305F8010190F2
:102FE0000020E9F78F01015011090FB6F894DEBFF8
:102FF0000FBECDBF20E030E046EC52ECD701F60129
:103000006B2F7A2F8F2F9E2F0E949A1C8111A9C09F
:1030100063E774E0C8010E94A91D8EEE95E0DC0113
:103020000D900020E9F7CD011F922AE02F931F9207
:103030002DE02F9327E234E03F932F9301979F9346
:103040008F930E94D81D1092F6021092F502809183
:103050008A0590918B05A0918C05B0918D05809388
:10306000B7069093B806A093B906B093BA066BEF73
:1030700070E08EEE95E00E94100180918E05909197
:103080008F0501960FB6F894DEBF0FBECDBF843119
:10309000910509F478C090938F0580938E05A6CC96
:1030A00090909C0580909D0570909E0560909F0576
:1030B0002BCE9090A0058090A1057090A205609005
:1030C000A30522CE9090A4058090A5057090A6053A
:1030D0006090A70519CE9090A8058090A9057090E2
:1030E000AA056090AB0510CE9090AC058090AD0520
:1030F0007090AE056090AF0507CE9090B0058090BF
:10310000B1057090B2056090B305FECD9090B40506
:103110008090B5057090B6056090B705F5CD90909C
:10312000B8058090B9057090BA056090BB05ECCDEC
:103130009090BC058090BD057090BE056090BF0565
:10314000E3CD6F927F928F929F92DF92CF921F93E7
:103150000F930E94D81D0FB6F894DEBF0FBECDBFEF
:10316000EDCDCF92DF92EF92FF928AE794E09F93AA
:103170008F931F930F930E94D81D0FB6F894DEBF54
:103180000FBECDBF4ACF10928F0510928E051092C0
:10319000B6061092B5062ACC259880908A059090A4
:1031A0008B05A0908C05B0908D05C501B40128EE6B
:1031B00033E040E050E00E94621DC90168E770E022
:1031C0000E944E1D60FF38C989E693E00E94B80155
:1031D0008091830581110C94DD0E1092820510926E
:1031E000F10410928105109200051092FB041092D8
:1031F000FA0481E08093830580908A0590908B0586
:10320000A0908C05B0908D0502E011E0F7E1EF2E63
:10321000F1E0FF2E0C940211E89409C097FB3EF4F4
:1032200090958095709561957F4F8F4F9F4F992313
:10323000A9F0F92F96E9BB279395F6958795779591
:103240006795B795F111F8CFFAF4BB0F11F460FF51
:103250001BC06F5F7F4F8F4F9F4F16C0882311F0A9
:1032600096E911C0772321F09EE8872F762F05C0BD
:10327000662371F096E8862F70E060E02AF09A9558
:10328000660F771F881FDAF7880F9695879597F94D
:1032900008950E945C190C94CD190E94BF1938F052
:1032A0000E94C61920F0952311F00C94B6190C94C5
:1032B000BC1911240C94011A0E94DE1970F3959F19
:1032C000C1F3950F50E0551F629FF001729FBB271D
:1032D000F00DB11D639FAA27F00DB11DAA1F649FB9
:1032E0006627B00DA11D661F829F2227B00DA11D6C
:1032F000621F739FB00DA11D621F839FA00D611DF2
:10330000221F749F3327A00D611D231F849F600D12
:10331000211D822F762F6A2F11249F5750409AF03B
:10332000F1F088234AF0EE0FFF1FBB1F661F771FC7
:10333000881F91505040A9F79E3F510580F00C9492
:10334000B6190C94011A5F3FE4F3983ED4F38695C6
:1033500077956795B795F795E7959F5FC1F7FE2B32
:10336000880F911D9695879597F9089597F99F670E
:1033700080E870E060E008959FEF80EC08950024FD
:103380000A941616170618060906089500240A94CA
:1033900012161306140605060895092E0394000C50
:1033A00011F4882352F0BB0F40F4BF2B11F460FFDF
:1033B00004C06F5F7F4F8F4F9F4F089557FD905808
:1033C000440F551F59F05F3F71F04795880F97FBE9
:1033D000991F61F09F3F79F08795089512161306A3
:1033E0001406551FF2CF4695F1DF08C016161706D2
:1033F0001806991FF1CF8695710561050894089507
:10340000E894BB2766277727CB0197F908952F9279
:103410003F924F925F926F927F928F929F92AF9264
:10342000BF92CF92DF92EF92FF920F931F93CF93B1
:10343000DF93CDB7DEB7CA1BDB0B0FB6F894DEBF48
:103440000FBECDBF09942A88398848885F846E846E
:103450007D848C849B84AA84B984C884DF80EE80B8
:10346000FD800C811B81AA81B981CE0FD11D0FB6C1
:10347000F894DEBF0FBECDBFED010895283008F0EF
:1034800027E03327DA01990F311D87FD91600096FF
:103490006105710539F432602E5F3D9330E32A9562
:1034A000E1F708959F3F30F080387105610509F01C
:1034B0003C5F3C5F3D93913008F08068911DDF9345
:1034C000CF931F930F93FF92EF92192F987F9695AA
:1034D000E92F96959695E90FFF27E653FF4F992719
:1034E0003327EE24FF24A701E701059008940794F1
:1034F00028F4360FE71EF81E491F511D660F771F6F
:10350000881F991F0694A1F70590079428F4E70EE9
:10351000F81E491F561FC11D770F881F991F661F70
:103520000694A1F70590079428F4F80E491F561F3A
:10353000C71FD11D880F991F661F771F0694A1F71B
:103540000590079420F4490F561FC71FD81F990FE5
:10355000661F771F881F0694A9F78491109517702E
:1035600041F0D695C79557954795F794E7941A95E6
:10357000C1F7E0E7F0E068941590159135916591F9
:10358000959105907FE27395E118F10A430B560B74
:10359000C90BD009C0F7E10CF11E431F561FC91F0C
:1035A000D01D7EF4703311F48A95E6CFE894015073
:1035B00030F0080F0AF40027021708F4202F239593
:1035C000022F7A3328F079E37D932A95E9F710C02A
:1035D0007D932A9589F60694979567953795179563
:1035E0001794E118F10A430B560BC90BD00998F058
:1035F00023957E9173957A3308F070E37C932013C2
:10360000B8F77E9170617D9330F0839571E37D937F
:1036100070E32A95E1F71124EF90FF900F911F912D
:10362000CF91DF91992787FD9095089591110C9482
:103630002A1C803219F089508550C8F708959111DD
:10364000089581548A5108F4805E855A0895FC01DA
:103650000590061621F00020D9F7C0010895319792
:10366000CF010895FC010590615070400110D8F71A
:10367000809590958E0F9F1F0895FC0161507040BA
:1036800001900110D8F7809590958E0F9F1F089597
:10369000CF93DF93EC012B8120FF1AC026FF0CC0D3
:1036A0002F7B2B838E819F8101969F838E838A81BE
:1036B00090E0DF91CF91089522FF18C0E881F98151
:1036C0008081082E000C990B009729F420622B832F
:1036D0008FEF9FEFEECF3196F983E8832E813F8104
:1036E0002F5F3F4F3F832E839927E3CFEA85FB85EA
:1036F000099597FFF3CF2B81019621F080E2822B71
:103700008B83E6CF80E1FBCF0F931F93CF93DF93A3
:10371000182F092FEB018B8181FD09C01FEF0FEFDF
:10372000812F902FDF91CF911F910F91089582FFEC
:1037300014C02E813F818C819D81281739073CF46C
:10374000E881F981CF0101969983888310838E8166
:103750009F8101969F838E83E3CFE885F985812F32
:103760000995892BA1F3DACFFB01238120FF11C03A
:1037700026FD0FC08F3F980771F082832F7D206454
:103780002383268137812150310937832683992766
:1037900008958FEF9FEF0895FA01AA27283051F17D
:1037A000203181F1E8946F936E7F6E5F7F4F8F4F72
:1037B0009F4FAF4FB1E03ED0B4E03CD0670F781FD1
:1037C000891F9A1FA11D680F791F8A1F911DA11DB6
:1037D0006A0F711D811D911DA11D20D009F46894EF
:1037E0003F912AE0269F11243019305D3193DEF697
:1037F000CF010895462F4770405D4193B3E00FD04D
:10380000C9F7F6CF462F4F70405D4A3318F0495D37
:1038100031FD4052419302D0A9F7EACFB4E0A6951A
:103820009795879577956795BA95C9F7009761053C
:10383000710508959B01AC010A2E06945795479592
:1038400037952795BA95C9F7620F731F841F951F87
:10385000A01D08959927882708955058BB27AA27A7
:103860000E94451C0C94CD190E94BF1938F00E948B
:10387000C61920F039F49F3F19F426F40C94BC19B2
:103880000EF4E095E7FB0C94B619E92F0E94DE19BF
:1038900058F3BA17620773078407950720F079F485
:1038A000A6F50C94001A0EF4E0950B2EBA2FA02D5D
:1038B0000B01B90190010C01CA01A0011124FF27DD
:1038C000591B99F0593F50F4503E68F11A16F040D8
:1038D000A22F232F342F4427585FF3CF46953795D7
:1038E0002795A795F0405395C9F77EF41F16BA0B9C
:1038F000620B730B840BBAF09150A1F0FF0FBB1F4A
:10390000661F771F881FC2F70EC0BA0F621F731F92
:10391000841F48F4879577956795B795F7959E3FEF
:1039200008F0B0CF9395880F08F09927EE0F979580
:10393000879508950E94111D08F481E008950E9462
:10394000B31C0C94CD190E94C61958F00E94BF19DF
:1039500040F029F45F3F29F00C94B61951110C94F2
:10396000011A0C94BC190E94DE1968F39923B1F373
:10397000552391F3951B550BBB27AA276217730795
:10398000840738F09F5F5F4F220F331F441FAA1F29
:10399000A9F335D00E2E3AF0E0E832D091505040E5
:1039A000E695001CCAF72BD0FE2F29D0660F771F93
:1039B000881FBB1F261737074807AB07B0E809F079
:1039C000BB0B802DBF01FF2793585F4F3AF09E3FFE
:1039D000510578F00C94B6190C94011A5F3FE4F38A
:1039E000983ED4F3869577956795B795F7959F5F41
:1039F000C9F7880F911D9695879597F90895E1E08D
:103A0000660F771F881FBB1F621773078407BA07EB
:103A100020F0621B730B840BBA0BEE1F88F7E09546
:103A20000895990F0008550FAA0BE0E8FEEF16164F
:103A30001706E807F907C0F012161306E407F507A2
:103A400098F0621B730B840B950B39F40A2661F016
:103A5000232B242B252B21F408950A2609F4A140B9
:103A6000A6958FEF811D811D08950E94111D08F4F8
:103A70008FEF0895AA1BBB1B51E107C0AA1FBB1FF4
:103A8000A617B70710F0A61BB70B881F991F5A95EA
:103A9000A9F780959095BC01CD01089597FB072E5D
:103AA00016F4009407D077FD09D00E943A1D07FC58
:103AB00005D03EF4909581959F4F0895709561953E
:103AC0007F4F0895052E97FB1EF400940E94791DE8
:103AD00057FD07D00E94871D07FC03D04EF40C94BD
:103AE000791D50954095309521953F4F4F4F5F4F31
:103AF000089590958095709561957F4F8F4F9F4F5A
:103B00000895EE0FFF1F0590F491E02D0994A1E2B6
:103B10001A2EAA1BBB1BFD010DC0AA1FBB1FEE1F47
:103B2000FF1FA217B307E407F50720F0A21BB30B92
:103B3000E40BF50B661F771F881F991F1A9469F70E
:103B400060957095809590959B01AC01BD01CF016A
:103B50000895FB01DC0101900D920020E1F708952A
:103B6000FB01DC014150504030F08D9101908019F3
:103B700019F40020B9F7881B990B0895FB015191A6
:103B80005523A9F0BF01DC014D9145174111E1F723
:103B900059F4CD010190002049F04D91401541119B
:103BA000C9F3FB014111EFCF81E090E00197089547
:103BB000AEE0B0E0EEEDFDE10C94151A0D891E8922
:103BC00086E08C831A8309838FEF9FE79E838D8322
:103BD000AE01475E5F4F6F89788DCE0101960E94DE
:103BE000A4032F813885020F131FF80110822E962F
:103BF000E4E00C94311AAEE0B0E0E1E0FEE10C94B8
:103C0000171A85E08C838B899C899A838983AE01FE
:103C1000495E5F4F6D897E89CE0101960E94C90978
:103C20002E96E2E00C94331AF894FFCF01000000C6
:103C30000100000000010002000000000A00030073
:103C4000000000020028F926EC0200008A010A03A5
:103C50000028922BEC0200005D010A040028C23704
:103C6000EC0200002E010A050028E81CEC0200000E
:103C7000DF010A060022B78C2400000083010A0736
:103C800000282E38EC02000015010A080028400424
:103C9000EC02000060010A090028C53FEC020000A8
:103CA00095010A723A202F2F20643A683A6D3A73D0
:103CB00020202020436F6C6C54202053746F72546A
:103CC000202041757831542020417578325420509D
:103CD0006D702055704C2020566163202056707600
:103CE0002054317374202054326E64202054626159
:103CF000732020546F7574202054586368492054F1
:103D00005863684D20545863684F2054486F744F6F
:103D100020545261645220544854625220483173F6
:103D2000742048326E64204177617920485475626E
:103D3000205377332020537734202052616474203D
:103D40004854756220417578462046446D70204283
:103D50003173742042326E64202054726F6F74206D
:103D60002000723A202F2F20557074696D65202035
:103D700020207C20202020546865726D616C2043D7
:103D80006F6E74726F6C6C6572204F7574707574A1
:103D900073202020207C2020202020202020202074
:103DA0002020202020202020202020202020202013
:103DB00052616469616E7420436F6E74726F6C6CD3
:103DC000657220496E707574732020202020202099
:103DD00020202020202020202020202020202020E3
:103DE00020202020207C202020202053776974630D
:103DF0006865732020202020207C20202020204364
:103E00006F6E74726F6C6C6572204F757470757420
:103E1000732020202020207C204578747261207C33
:103E2000000100203F2000202E2000204F4E2000C7
:103E3000202E202000643A20494E495420444F4E01
:103E4000450A0052554E54494D450025643A2564B3
:103E5000004F50454E005348525400256C66004FA9
:103E60004E004F464600643A20746865726D616C7E
:103E70002074696D656F75740A00643A2074686512
:103E8000726D616C206D6178206661696C20636F72
:103E9000756E740A00643A20663030377468207595
:103EA00070646174652074656D706572617475729B
:103EB00065730A00643A206F6E65776972652075D4
:103EC00070646174652074656D706572617475727B
:103ED00065730A00643A206F6E65776972655F6981
:103EE0006E6974206661696C0A00643A206F6E65C1
:103EF000776972655F7265736574206661696C0AC3
:103F00000074656D7065726174757265733A0A004C
:103F1000643A206F6E65776972652063726320650D
:103F200072726F72206C6F636174696F6E202564AA
:103F30000A00643A206F6E65776972652025352E18
:103F4000313166206C6F636174696F6E2025640A7D
:103F50000025732563256300723A2025332E3364D0
:103F60003A25322E32643A25322E32643A25322EE8
:103F7000326420002020203F20202000204F504588
:103F80004E2020002053484F525420002520362E2A
:103F9000316620002573200025342E316620002054
:0E3FA00020203F20200025352E316620000015
:107800000C94343C0C94513C0C94513C0C94513CE1
:107810000C94513C0C94513C0C94513C0C94513CB4
:107820000C94513C0C94513C0C94513C0C94513CA4
:107830000C94513C0C94513C0C94513C0C94513C94
:107840000C94513C0C94513C0C94513C0C94513C84
:107850000C94513C0C94513C0C94513C0C94513C74
:107860000C94513C0C94513C11241FBECFEFD8E036
:10787000DEBFCDBF11E0A0E0B1E0ECE9FFE702C060
:1078800005900D92A230B107D9F712E0A2E0B1E065
:1078900001C01D92AD30B107E1F70E942D3D0C945F
:1078A000CC3F0C94003C982F959595959595959582
:1078B000905D8F708A307CF0282F295A8091C0000B
:1078C00085FFFCCF9093C6008091C00085FFFCCF60
:1078D0002093C6000895282F205DF0CF982F809127
:1078E000C00085FFFCCF9093C6000895EF92FF92F1
:1078F0000F931F93EE24FF2487018091C00087FD22
:1079000017C00894E11CF11C011D111D81E4E8164B
:1079100082E4F8068FE0080780E0180770F3E09132
:107920000401F091050109958091C00087FFE9CF1E
:107930008091C6001F910F91FF90EF9008950E94D3
:10794000763C982F8091C00085FFFCCF9093C600B5
:1079500091362CF490330CF09053892F089597555D
:10796000892F08951F930E949F3C182F0E949F3CCF
:107970001295107F810F1F9108951F93182F882350
:1079800021F00E94763C1150E1F71F9108951F935A
:10799000182F0E94763C803249F0809103018F5F5E
:1079A000809303018530C1F01F9108958091C0003C
:1079B00085FFFCCF84E18093C6008091C00085FFE5
:1079C000FCCF1093C6008091C00085FFFCCF80E102
:1079D0008093C6001F910895E0910401F091050184
:1079E00009951F9108950E94763C803241F0809164
:1079F00003018F5F80930301853081F008958091AA
:107A0000C00085FFFCCF84E18093C6008091C00058
:107A100085FFFCCF80E18093C6000895E0910401CA
:107A2000F09105010995089540E951E08823A1F0FE
:107A30002D9A28EE33E0FA013197F1F721503040CA
:107A4000D1F72D9828EE33E0FA013197F1F7215064
:107A50003040D1F7815061F708953F924F925F9285
:107A60006F927F928F929F92AF92BF92CF92DF924E
:107A7000EF92FF920F931F93CF93DF93000080E16B
:107A80008093C4001092C50088E18093C10086E015
:107A90008093C2005098589A259A81E00E94143D24
:107AA00024E1F22E9EE1E92E85E9D82E0FE0C02ECA
:107AB00010E1B12EAA24A394B1E49B2EA6E58A2E50
:107AC000F2E57F2EE0E26E2E79E4572E63E5462E36
:107AD00050E5352E0E94763C8033B1F18133B9F107
:107AE000803409F46FC0813409F476C0823409F41B
:107AF00085C0853409F488C0803531F1823521F1A3
:107B0000813511F1853509F485C0863509F48DC0BC
:107B1000843609F496C0843709F403C1853709F423
:107B200072C1863709F466C0809103018F5F80932C
:107B30000301853079F6E0910401F0910501099582
:107B40000E94763C803351F60E94F33CC3CF0E94E2
:107B5000763C803249F78091C00085FFFCCFF092DF
:107B6000C6008091C00085FFFCCF9092C600809136
:107B7000C00085FFFCCF8092C6008091C00085FFC9
:107B8000FCCF7092C6008091C00085FFFCCF609250
:107B9000C6008091C00085FFFCCF5092C600809146
:107BA000C00085FFFCCF4092C6008091C00085FFD9
:107BB000FCCF3092C6008091C00085FFFCCFB09210
:107BC000C60088CF0E94763C863808F4BDCF0E945C
:107BD000763C0E94F33C7ECF0E94763C803809F4CC
:107BE0009CC0813809F40BC1823809F43CC1883942
:107BF00009F48FC080E00E94C73C6CCF84E10E94F2
:107C0000BD3C0E94F33C66CF85E00E94BD3C0E94D3
:107C1000F33C60CF0E94763C809306010E94763C44
:107C2000809307010E94F33C55CF0E94763C80333D
:107C300009F41DC183E00E94BD3C80E00E94C73C66
:107C400049CF0E94763C809309020E94763C809343
:107C5000080280910C028E7F80930C020E94763C79
:107C6000853409F415C18091080290910902892B8D
:107C700089F000E010E00E94763CF801E85FFE4FDA
:107C800080830F5F1F4F80910802909109020817AF
:107C9000190788F30E94763C803209F045CF809125
:107CA0000C0280FF01C16091060170910701660F0F
:107CB000771F7093070160930601A0910802B091AD
:107CC00009021097C9F0E8E0F1E09B01AD014E0F09
:107CD0005F1FF999FECF32BD21BD819180BDFA9A17
:107CE000F99A2F5F3F4FE417F50799F76A0F7B1F4B
:107CF00070930701609306018091C00085FFFCCF5F
:107D0000F092C6008091C00085FFFCCFB092C60003
:107D1000E1CE83E00E94C73CDDCE82E00E94C73CFA
:107D2000D9CE0E94763C809309020E94763C8093D3
:107D300008028091060190910701880F991F909386
:107D40000701809306010E94763C853409F4A6C0A1
:107D500080910C028E7F80930C020E94763C8032D0
:107D600009F0B8CE8091C00085FFFCCFF092C6002C
:107D7000609108027091090261157105B9F140E046
:107D800050E080910C02A82FA170B82FB27011C0E2
:107D9000BB2309F45CC0E0910601F0910701319624
:107DA000F0930701E09306014F5F5F4F46175707B7
:107DB000E8F4AA2369F3F999FECF209106013091E6
:107DC000070132BD21BDF89A90B58091C00085FFB2
:107DD000FCCF9093C6002F5F3F4F30930701209355
:107DE00006014F5F5F4F4617570718F38091C00099
:107DF00085FDE5CE8091C00085FFF8CFE0CE81E023
:107E00000E94C73C67CE0E94763C803209F08CCE3F
:107E10008091C00085FFFCCFF092C6008091C00029
:107E200085FFFCCFE092C6008091C00085FFFCCFAB
:107E3000D092C6008091C00085FFFCCFC092C600E2
:107E40008091C00085FFFCCFB092C60043CEE09188
:107E50000601F091070194918091C00085FFFCCF4D
:107E60009093C6009CCF80E10E94C73C33CE0E9415
:107E7000763C0E94763C182F0E94763C112309F430
:107E800083C0113009F484C08FE00E94C73C22CE29
:107E900080910C02816080930C02E5CE80910C02EF
:107EA000816080930C0259CF809107018823880F4D
:107EB000880B8A2180930B02809106019091070123
:107EC000880F991F90930701809306018091080203
:107ED00080FF09C080910802909109020196909359
:107EE000090280930802F894F999FECF1127E091D6
:107EF0000601F0910701C8E0D1E08091080290915D
:107F00000902103091F40091570001700130D9F34B
:107F100003E000935700E89500915700017001308D
:107F2000D9F301E100935700E89509901990009169
:107F3000570001700130D9F301E000935700E89534
:107F40001395103498F011270091570001700130FB
:107F5000D9F305E000935700E895009157000170B0
:107F60000130D9F301E100935700E895329602976A
:107F700009F0C7CF103011F00296E5CF112480919F
:107F8000C00085FFB9CEBCCE8EE10E94C73CA2CD19
:0E7F900085E90E94C73C9ECDF894FFCF80008B
:00000001FF
