:020000040000FA
:100000000C94DC000C94F9000C94F9000C94F900A9
:100010000C94F9000C94F9000C94F9000C94F9007C
:100020000C94F9000C9460030C94F9000C94F90002
:100030000C94F9000C94F9000C94F9000C94F9005C
:100040000C945B020C94F9000C94A5020C9421030F
:100050000C94F9000C94F9000C94F9000C94F9003C
:100060000C94F9000C94F9006E616E00696E6600E4
:1000700000407A10F35A00A0724E18090010A5D45F
:10008000E80000E87648170000E40B54020000CABC
:100090009A3B000000E1F505000080969800000002
:1000A00040420F000000A086010000001027000061
:1000B0000000E803000000006400000000000A00E7
:1000C000000000000100000000002C76D888DC67EA
:1000D0004F0823DFC1DFAE59E1B1B796E5E3E45342
:1000E000C63AE651997696E8E6C28426EB898C9B5F
:1000F00062ED407C6FFCEFBC9C9F40F2BAA56FA5FF
:10010000F490055A2AF75C936B6CF9676DC11BFC80
:10011000E0E40D47FEF520E6B500D0ED902E03009B
:10012000943577050080841E080000204E0A0000E8
:1001300000C80C333333330F986E12831141EF8DA7
:100140002114893BE65516CFFEE6DB18D1844B38E7
:100150001BF77C1D901DA4BBE424203284725E2218
:100160008100C9F124ECA1E53D276364696E6F70DD
:10017000737578585B65666745464700616E006E2B
:1001800066696E69747900CDCCCC3D0AD7233C17E3
:10019000B7D13877CC2B329595E6241FB14F0A00A2
:1001A0000020410000C84200401C4620BCBE4CCA92
:1001B0001B0E5AAEC59D740011241FBECFEFD8E0B0
:1001C000DEBFCDBF14E0A0E0B1E0EEE5FEE302C08B
:1001D00005900D92A235B107D9F726E0A2E5B4E06B
:1001E00001C01D92A43AB207E1F70E940A0B0C94D9
:1001F0002D1F0C94000081E090E09093F602809314
:10020000F502089581E090E09093C0048093BF04CC
:10021000089581E090E090935B0480935A040895E0
:100220002091580430915904232B81F49093590460
:100230008093580470935704609356048091C100D2
:1002400080628093C10090E080E0089581E090E0BA
:10025000089540915C0450915D04CA01FA01208127
:100260004F5F5F4F2032C9F390935D0480935C042D
:10027000211102C090E080E00895E0915C04F091CB
:100280005D04009731F090935D0480935C040C94BE
:1002900029019E2F8F2F2191222339F02032C9F777
:1002A00090935C0480935D04F2CF90935C04809300
:1002B0005D0490E080E00895E7E1F1E040E050E087
:1002C00066EC72EC81E0E737F80709F4089583855E
:1002D0008F5F83878B3068F0A081B181AA0FBB1F2D
:1002E000AA0FBB1FA858BA4F4D935D936D937C9393
:1002F00013973C96E7CF5A985E9808955A985E9A5D
:1003000089B185FB882780F990E008954091CC045D
:100310005091CD046091CE047091CF0404C07695C5
:100320006795579547958A95D2F788E040FF88EF03
:1003300041FF14C0885F42FF13C0885F43FF12C0B3
:10034000885F44FF11C0885045FF10C0885046FFA9
:100350000FC0885047FF0EC0885008958850EBCFDB
:100360008850ECCF8850EDCF885FEECF885FEFCF1D
:10037000885FF0CF885F0895CF93DF93EC011092F0
:1003800053041092520463ED71E0CE010E941001FB
:10039000892BC9F78091520490915304892BD1F392
:1003A000DF91CF91089581E090E090935304809382
:1003B00052040895806680937C0087EC80937A00D5
:1003C00080917A0086FDFCCF8091790090E00895BD
:1003D00029E030E041E050E02150310909F408956E
:1003E000F894BA01682379235E985A98672B79F0BC
:1003F00065E36A95F1F700005E9AEBEDF0E0319766
:10040000F1F700C000007894440F551FE5CFE3E0FA
:10041000F1E03197F1F700C000005E9AFAE1FA9539
:10042000F1F700C0F0CF5A9A8DE790E0019721F1E3
:100430002AE02A95F1F700C04D9BF8CF5E985A98B4
:100440008FEC97E00197F1F700C000005A9AEFE3B4
:10045000F1E03197F1F700C0000089B182958695EF
:10046000877091E08927817090E0EFE8F6E031979E
:10047000F1F700C00000089580E090E008950E9428
:100480005C015598569A529A0E947E01892B81F000
:100490008FE39CE90197F1F700C000000E9413026E
:1004A00031E020E0892B09F030E0832F922F08956E
:1004B00081E090E008951F920F920FB60F921124E1
:1004C0002F933F938F939F93AF93BF938091A006F9
:1004D0009091A106A091A206B091A30630919F062B
:1004E00023E0230F2D3758F50196A11DB11D209350
:1004F0009F068093A0069093A106A093A206B093B6
:10050000A30680919B0690919C06A0919D06B091B8
:100510009E060196A11DB11D80939B0690939C069B
:10052000A0939D06B0939E06BF91AF919F918F912E
:100530003F912F910F900FBE0F901F90189526E8B6
:10054000230F0296A11DB11DD2CF1F920F920FB69D
:100550000F9211242F933F934F935F936F937F9349
:100560008F939F93AF93BF93CF93EF93FF9380911C
:10057000C00084FD4BC08091C00083FD47C08091C6
:10058000C00082FB222720F930E0C091C600809194
:10059000600490916104BC016F5F7F4FE09166043D
:1005A000F09167046E177F07B4F4409155044A3008
:1005B00011F0009781F040916404509165047093AC
:1005C000610460936004840F951FDC01CC93460F97
:1005D000571FDA011C92232BE1F010926104109254
:1005E0006004C0E0C0935504FF91EF91CF91BF919B
:1005F000AF919F918F917F916F915F914F913F91BB
:100600002F910F900FBE0F901F90189521E030E0B2
:10061000BCCFEF2B39F3CA3029F710926704109240
:1006200066046091600470916104E0916204F0914D
:10063000630450E040E08091640490916504099562
:10064000D1CF1F920F920FB60F9211242F933F9389
:100650004F935F936F937F938F939F93AF93BF93CA
:10066000EF93FF93E0915804F0915904808188231F
:10067000C1F03196F0935904E09358048093C6007A
:10068000FF91EF91BF91AF919F918F917F916F916A
:100690005F914F913F912F910F900FBE0F901F9040
:1006A00018958091C1008F7D8093C10010925904EC
:1006B00010925804E0915604F09157040995E0CF48
:1006C0001F920F920FB60F9211242F933F934F93C7
:1006D0005F936F938F939F93AF93BF93EF93FF932A
:1006E000309154043F5F3093540469B180915305B5
:1006F0008823D1F040915205E42FEF77F0E0EF52DC
:10070000FB4F50812091C10481E090E0022E01C096
:10071000880F0A94EAF763FF2EC0852B80832F5F32
:10072000283061F12093C1043A30A9F410925404A6
:100730008091660590916705A0916805B091690563
:100740000196A11DB11D8093660590936705A09346
:100750006805B0936905FF91EF91BF91AF919F91AB
:100760008F916F915F914F913F912F910F900FBE9D
:100770000F901F90189580958523D0CF1092C104BB
:100780004F5F40935205D0CFAFE0B0E0EAECF3E02A
:100790000C94201B6C011B015A01FC01178216826C
:1007A000838181FF48C39E012F5F3F4F4901F601BE
:1007B0009381F10193FD859193FF81911F0188231E
:1007C00009F4E7C2853239F493FD859193FF819155
:1007D0001F01853239F4B60190E00E949D1C35015D
:1007E0005301E5CFF12C512C00E0003238F48B326C
:1007F00009F190F48032F9F0833209F107FD34C039
:1008000020ED280F2A3020F506FF1BC0FAE0FF9EDE
:10081000200D1124F22E05C08D3279F0803371F74E
:100820000160F10193FD859193FF81911F01811179
:10083000DCCF1AC002600460F4CF0860F2CF006120
:10084000F0CF3AE0539E200D1124522E0062E9CFE2
:100850008E3221F406FD9DC20064E3CF8C3611F484
:100860000068DFCF8836E9F29BEB980F933008F0F1
:100870005FC00061805E06FD02C046E0F42E102FCE
:100880001F73853609F05BC0106417FF61C08F2DA0
:100890009BE39F1508F48BE344244394480E27E020
:1008A0003501F4E06F0E711CF50160817181828168
:1008B0009381042DA4010E94571B5C01F981FC87E0
:1008C000F0FF03C00DE2F3FF07C00BE211FD04C00F
:1008D000012F047012FD00E22C852C70E22E09F429
:1008E00057C00111ABC2F3E0E12CF515A0F483E091
:1008F000E52CE81A13FD08C0B60180E290E00E94E2
:100900009D1CEA94E110F8CF002329F0B601802F56
:1009100090E00E949D1C3C8528E6A22E20E0B22E8D
:1009200033FD04C09CE6A92E90E0B92E107122C0C0
:100930009BE9980F933008F033C10F7E9CCF863629
:1009400011F41068A2CFFF2009F49FCFFA949DCF35
:10095000E7E02F2DEF1518F427E037E0F32E412CB8
:100960009FCF11118052B60190E00E949D1C8FEF25
:10097000A81AB80AF50184918111F3CFEE2009F489
:100980002FCFB60180E290E00E949D1CEA94F6CF42
:1009900017FF6FC04A0CFC85F4FF04C08A818133C5
:1009A00009F44A9414140CF086C028E0241510F4BD
:1009B00088E0482E85E090E017FF06C0C501B7FE2D
:1009C00002C090E080E0019601110196FF2031F015
:1009D0002F2D30E02F5F3F4F820F931F58161906BF
:1009E00019F014F0E52CE81A812F897011F4E11048
:1009F00067C0002329F0B601802F90E00E949D1C63
:100A000013FD02C0E11063C017FF7CC08501B7FE73
:100A100002C010E000E0C501841991092C016F2D7E
:100A200070E0EE27FF27E61BF70BFF87EE870F3FEF
:100A3000100729F4B6018EE290E00E949D1CA016DA
:100A4000B1060CF44BC0401651060CF047C0F5013E
:100A5000E01BF10BE80DF91D8181015011092E8574
:100A60003F8502171307E4F1B60190E00E949D1C38
:100A7000DECF16FD9FCFEF2DF0E0EA15FB0534F039
:100A80003CEFA3163FEFB3060CF010683296E80D6A
:100A9000F91D01C0FA94FF2019F082918033D1F33F
:100AA00017FF88CF442443944F0CFA141B0431F0F1
:100AB0002CF0FA187FCF442443947CCFF12C7ACFCA
:100AC000B60180E290E00E949D1CEA9490CFB601AE
:100AD00080E390E00E949D1CEA9494CF80E3BDCF18
:100AE000A016B10641F49A81963350F4953319F467
:100AF0003C8534FF05C0B60190E00E949D1C3ECFAE
:100B000081E3F9CF8A81813319F09C859F7E9C8790
:100B1000B60190E00E949D1CFF20A9F0B6018EE274
:100B200090E00E949D1CF394F394E2E001E00E0F2C
:100B3000E80DF92DF11D8081B60190E00E949D1C09
:100B4000E02F0F11F3CF85E690E014FF02C085E49B
:100B500090E0B6010E949D1CB7FC06C0A114B10430
:100B6000C1F4EC85E4FF15C0B194A194B1088DE205
:100B7000B60190E00E949D1C80E32AE0A216B10419
:100B800054F4B60190E00E949D1CB601C501C096C8
:100B9000B4CF8BE2EDCF8F5FFAE0AF1AB108EDCFA3
:100BA0008336C9F0833771F1833509F05BC03501B5
:100BB000F2E06F0E711CF501A080B1806F2D70E026
:100BC00006FD02C06FEF7FEFC5010E944B1C9D87A1
:100BD0008C8700680DC0350132E0630E711CF50191
:100BE0008081898321E030E03D872C8754010F7795
:100BF00003FD06C02C853D855216130609F0A8F4A6
:100C0000E52C2BC0350132E0630E711CF501A0808C
:100C1000B1806F2D70E006FD02C06FEF7FEFC50160
:100C20000E94561C9D878C87E2CFB60180E290E03F
:100C30000E949D1C5A94DECFF50107FD859107FFA8
:100C400081915F01B60190E00E949D1CE110EA9441
:100C50008C859D8501979D878C87EC85FD85EF2B85
:100C600059F78CCE843619F0893609F074C03501F5
:100C700007FF66C0F4E06F0E711CF50160817181A1
:100C800082819381102F1F7697FF08C090958095E1
:100C9000709561957F4F8F4F9F4F10682AE030E02D
:100CA000A4010E94E51CA82EA818BA2C012F16FF3B
:100CB0000AC00E7FAF1438F414FF04C012FD02C046
:100CC000012F0E7EBF2C04FF8EC0FE01EA0DF11D28
:100CD0008081803309F080C0097EF02FF870EF2EFC
:100CE00003FD90C000FF8AC0FA2CB51410F4F50C77
:100CF000FB1804FF8DC0B60180E390E00E949D1CAC
:100D000002FF09C088E790E001FF02C088E590E09B
:100D1000B6010E949D1CAF1408F486C0AA940A2D47
:100D200010E00F5F1F4F080D191DF80182918F0110
:100D3000B60190E00E949D1C80169106B1F71ECE70
:100D4000F2E06F0E711CF50160817181072E000CBD
:100D5000880B990B97CF102F8537A9F41F7E2AE0B7
:100D600030E0350117FF2FC0F4E06F0E711CF50164
:100D70006081718182819381A4010E94E51CA82E6B
:100D8000A8181F7792CF197F8F36D1F048F4883595
:100D900091F0F601868197812F96E2E10C943C1B3D
:100DA000803739F08837A9F714FD146020E130E06E
:100DB000D8CF1061F9CF04FD166020E132E0D1CF29
:100DC00028E030E0CECFF2E06F0E711CF5016081BB
:100DD000718190E080E0D0CF02FD02C0B3947DCF5E
:100DE000B394B3947ACF802F867809F476CFF6CF78
:100DF000B60180E290E00E949D1CB394B514C0F34C
:100E0000E12C77CFE52CEB18B51408F472CFF8CFAE
:100E1000802F867809F47FCF8BE201FF80E207FD07
:100E20008DE2B60190E075CFB60180E390E00E94BC
:100E30009D1CFA9470CF8FEF9FEFAECF24E0E12C92
:100E4000251508F063CD84E053CD20FD09C0FC01D9
:100E500023FD05C022FF02C0738362835183408358
:100E6000089544FD17C046FD1DC0DB01FC01AA0F1B
:100E7000BB1FEE1FFF1F1094D1F76A0F7B1F8E1F41
:100E80009F1F660F771F881F991F620F711D811D9D
:100E9000911D089533E0660F771F881F991F315009
:100EA000D1F7F3CF34E0F7CF0F931F93CF93DF93B6
:100EB0008C01C8010E94611CEC0197FD08C00E94D2
:100EC0002F1C892BB1F7B801CE010E94CD1CCE0199
:100ED000DF91CF911F910F910895B0E0A0E0E3E77B
:100EE000F7E00C94261B7C018B016A01D22F0E9433
:100EF000611C9C0133272B32310521F02D32310545
:100F000079F4D0680150110931F480E0CDB7DEB733
:100F1000ECE00C94421BC7010E94611C97FDF5CFC9
:100F2000CD2FCD7F2D2F207309F58033F9F4580193
:100F300081E0A81AB10891F0C7010E94611C97FDD9
:100F40000DC0282F2F7D283569F4C2640250110985
:100F500029F0C7010E94611C97FF08C0812C912CC9
:100F600054011BC0D6FF2BC0C2608501812C912C7F
:100F7000540120ED280F283028F1C4FD09C02A3083
:100F800008F1C6FF05C02F7D3FEE320F3630C8F0A6
:100F9000B7010E94CD1CC1FFB8CFC7FF08C0B094F5
:100FA000A09490948094811C911CA11CB11C2C2FA6
:100FB000B501A401C6010E94250781E0A7CFC26147
:100FC000D4CF27504C2FC501B4010E9431074B01EB
:100FD0005C01C2600150110901F3C7010E94611C4C
:100FE00097FFC7CFD8CFA0E2B0E0E9EFF7E00C94CD
:100FF000241B5C014B017A01CE0101966C0180E259
:10100000F60111928A95E9F7F501B381890130E083
:1010100020E0612C712CA0E041E050E0F801B3FD2C
:101020008591B3FF8191982F8F01811107C010E046
:1010300000E0C801A096EEE00C94401B8E3519F438
:101040002115310541F1A21713064CF48D3549F1F4
:101050008D3229F4711006C0772473941DC0772057
:1010600009F465C0E92FE695E695E695EC0DFD2DB2
:10107000F11D892F8770BA0101C0660F8A95EAF7C2
:101080008081682B6083691651F0961510F49F5F7C
:10109000E9CF9150E7CFA1E02F5F3F4FBFCF712C39
:1010A000FBCF772019F08E8180628E83AA2359F0BE
:1010B000F6019E012F5D3F4F8081809580833196A0
:1010C000E217F307C9F777247394C5010E94611CE6
:1010D00097FD16C0E82FE695E695E695EC0DFD2DFB
:1010E000F11D208130E0AC014770552702C03595D5
:1010F00027954A95E2F720FD06C0B5010E94CD1C58
:10110000772071F094CFE114F10429F0F701808386
:10111000C70101967C0191E0891A9108712CA9F60A
:10112000E114F10409F485CFF701108282CFE82F92
:10113000E695E695E695EC0DFD2DF11D982F97703F
:10114000BA0101C0660F9A95EAF79081692B608316
:10115000682EA2CF2F923F924F925F926F927F9212
:101160009F92AF92BF92CF92DF92EF92FF920F9336
:101170001F93CF93DF936C018B011A010E94611CB6
:10118000EC0199278B32910521F08D97C9F0B12C94
:1011900020C0B12C01501109B1F480E0DF91CF9152
:1011A0001F910F91FF90EF90DF90CF90BF90AF9085
:1011B0009F907F906F905F904F903F902F900895F9
:1011C00030E8B32EE7CFC6010E94611CEC0197FD09
:1011D000E4CFCE010E94381C8936910509F4C0C0C5
:1011E0008E36910509F4ACC0412C512C3201F12C02
:1011F000E12C2C2F20539B2C2A3008F0CFC0689470
:1012000091F88B2D8870B2FEB0C0811103C0EFEF52
:10121000EE1AFE0A0150110931F0C6010E94611C4C
:10122000EC0197FFA0C091FEB8CF8C2F8F7D853445
:1012300009F042C05801E1E0AE1AB10809F4ADCF9F
:10124000C6010E94611CEC0197FDA7CF99278B3244
:10125000910521F08D9761F4689494F85801F2E0BB
:10126000AF1AB10809F499CFC6010E94611CEC01C4
:10127000CE01C0970A9708F090CF10E000E0B801C7
:10128000110F880B990B2C2F205340E20E9431073D
:101290008B0121E0A21AB10839F0C6010E94611C3D
:1012A000EC01C0970A9758F394FE03C0119501957D
:1012B0001109E00EF11E8501012B31F0D7FD04C0AC
:1012C000B601CE010E94CD1CC301B2010E94251AB5
:1012D000C3EBD1E0F7FE05C0F194E194F108CBE94E
:1012E000D1E06E01E8E1CE1AD10800E210E067C05B
:1012F0000150110971F0C6010E94611C3C0197FD6B
:1013000008C00E94381CF816E9F0B601C3010E941B
:10131000CD1CC258D14009F040CF80E090E0A0E859
:10132000BFE7BC01CD019B2C97FC905821143104E0
:1013300029F0F101608371838283938381E02ECF52
:10134000CCE7D1E02196FE013197F490F110D0CF97
:10135000CF57D14011F780E090E0A0ECBFE7E1CF9C
:10136000CFE7D1E0EFCFB92C44CF882319F0F1E0DB
:10137000EF1AF10840E2C301B2010E9431072B01CC
:101380003C0128E9421629E95206620629E1720663
:1013900008F440CF8B2D8660982E3CCF2E3F09F06D
:1013A00042CFB3FC40CF689493F834CFFE0125912F
:1013B0003591459154910E94621AE01AF10AE016A3
:1013C000F106A0F7249716950795CC15DD05B9F71A
:1013D000ABCFB0E0A0E0EFEEF9E00C94241B5C0191
:1013E000EB014A01FC0117821682612CF501038191
:1013F000FE0103FD859103FF8191182FEF018823E2
:10140000E9F090E00E942F1C892B21F0C5010E9479
:101410005407ECCF153241F4FE0103FD159103FF93
:101420001191EF01153269F4C5010E94611C97FD0D
:1014300096C01817D9F2B5010E94CD1C862D90E0F8
:1014400092C0712C1A3239F403FD159103FF1191EA
:10145000EF0177247394F12CE12C20ED210F2A3039
:1014600050F171FE38C0E114F10441F31836B9F1BE
:101470001C3609F43FC0112309F3612F70E08AE69E
:1014800091E00E94401C892BC9F2D12CC12C70FC28
:1014900006C0F401C080D180C40102964C011E3602
:1014A00091F5F5014681578170E060E0272DC60176
:1014B0000E9425079BCF689471F8B70190E080E007
:1014C00040E20E9431077B01FE0103FD159103FFFD
:1014D0001191EF01C2CFEE24EA94FE2CC7CFFE019A
:1014E00003FD159103FF1191EF01183609F0C3CFE9
:1014F000689473F8689472F8FE0103FD159103FF78
:101500001191EF01B8CF1336D1F471FC03C0EE2472
:10151000E394F12CC5010E94611C97FD20C0C11409
:10152000D10429F0F6018083C60101966C0191E097
:10153000E91AF10879F770FC59CF639457CF1B353E
:10154000B9F49E01A601B701C5010E94F307EC01A1
:10155000892B89F7F5018381807309F46FCF8FEFB1
:101560009FEF61106BCFCDB7DEB7EEE00C94401B60
:10157000C5010E94540797FDF2CF1F3609F447C0FA
:1015800090F4143609F440C0193621F0183581F46E
:10159000689476F8272DA601B701C5010E946D0752
:1015A0008111C9CFD7CF1337D1F040F4103781F371
:1015B000A601B701C5010E94AA08F2CF153721F193
:1015C000183731F3F5CFC114D10429F0F6010083A7
:1015D000C60101966C0191E0E91AF10871F0C501AC
:1015E0000E94611C8C0197FD08C00E942F1C892B52
:1015F00051F3B501C8010E94CD1CC114D10409F4F6
:101600009ACFF601108297CF689475F8C3CF68948B
:1016100074F8C0CFCF93DF93CDB7DEB76B970FB61B
:10162000F894DEBF0FBECDBF789484B5826084BDD0
:1016300084B5816084BD85B5826085BD85B58160D6
:1016400085BD80916E00816080936E001092810054
:10165000809181008260809381008091810081600F
:1016600080938100809180008160809380008091D0
:10167000B10084608093B1008091B000816080935C
:10168000B00080917A00846080937A0080917A0023
:10169000826080937A0080917A00816080937A00E2
:1016A00080917A00806880937A001092C100109235
:1016B0006504109264041092630410926204109204
:1016C0006704109266041092590410925804109204
:1016D0005704109256048FE98093C40081E08093F0
:1016E000C50098E99093C10092E39093B300809372
:1016F000700083E08093B0008BE08093B1005F982E
:1017000028982998579A209A219A2A982B982C98A9
:10171000229A239A249A80E680937C0087E880931B
:101720007A005C9A2D9A0E943F02E0910201F091AA
:101730000301EE0FFF1FEE0FFF1FE858FA4F80E086
:1017400090E0A6ECB2EC80839183A283B383E09116
:101750000901F0910A01EE0FFF1FEE0FFF1FE8587D
:10176000FA4F80839183A283B383E0911001F091BB
:101770001101EE0FFF1FEE0FFF1FE858FA4F808395
:101780009183A283B38310925B0410925A0469E0A0
:1017900071E089E093E00E941001892BC1F78091EC
:1017A0005A0490915B04892BD1F3009100011091B0
:1017B00001010115110509F0C3C08091BF0490918A
:1017C000C004892B09F473C287E193E00E94BC0135
:1017D0008EE694E00E94BC011092AD051092AC051B
:1017E0008EE694E090935D0480935C040E9429014E
:1017F0007C01009709F49CC068E273E00E94D71E48
:10180000892B09F095C0CE010A969F938F9302967B
:101810009F938F9380E393E09F938F93FF92EF9238
:101820000E94141F0FB6F894DEBF0FBECDBF029703
:1018300009F43AC18091AC059091AD058061909317
:10184000AD058093AC0570E4C72E73E0D72E90E011
:1018500080E00E943D017C01009709F036C1809133
:101860005E0490915F04019690935F0480935E0400
:101870000B970CF09FC10330110509F4CEC10CF099
:101880009EC10130110509F4AEC10230110509F401
:10189000B7C18E859F85A889B9898093B00590933B
:1018A000B105A093B205B093B3050F5F1F4F06308B
:1018B000110569F690E080E00E943D018C010097DF
:1018C00079F042E050E064E473E00E94C91E892B85
:1018D00009F0BDC181E090E09093C9058093C805EF
:1018E00090E080E00E943D018C01009779F042E099
:1018F00050E064E473E00E94C91E892B09F0BFC167
:1019000081E090E09093CB058093CA058091AC056F
:101910009091AD0581719927892B21F410925F0474
:1019200010925E0440915E0450915F045B8F4A8F79
:101930006A8D7B8D672B21F410926D0410926C04DC
:1019400010920101109200011092C0041092BF0485
:101950008091660590916705A0916805B091690531
:101960008093680490936904A0936A04B0936B0415
:101970008091660490916704892BB1F48EE694E01F
:10198000909365048093640482E091E090936304F3
:1019900080936204109261041092600481E590E0EB
:1019A00090936704809366048091AC059091AD0597
:1019B00081719927892B09F403C2549886E090E03D
:1019C0000E94DA01BC01990F880B990B0E94271A1B
:1019D00020E030E04FE753E40E94B81D20E030E003
:1019E00040EA50E40E94621A26E636E646EB50E4EE
:1019F0000E94621A6093A8057093A9058093AA05B6
:101A00009093AB0582E090E00E94DA01BC01990F4F
:101A1000880B990B0E94271A20E030E04FE753E42F
:101A20000E94B81D20E030E040EA50E40E94621AB3
:101A300026E636E646EB50E40E94621A6093A4055F
:101A40007093A5058093A6059093A7056091660500
:101A500070916705809168059091690528EE33E0E3
:101A600040E050E00E947B1E3093CD052093CC05D2
:101A700008E715E064EAE62E65E0F62ED8016D91E0
:101A80007D918D919D918D0120E030E046EC52ECEE
:101A90000E94B31D882311F40C94EF19E016F1068F
:101AA00069F7259A0C94F0192C853D854CE3429FEB
:101AB000C001439F900D11242A853B85820F931FFF
:101AC0009093AF058093AE05BECE44E050E066E350
:101AD00073E00E94C91E0097D9F42091AC053091A3
:101AE000AD05A801445051094230510510F084E081
:101AF00090E0822B932B9093AD058093AC0540E052
:101B000050E066EC72EC4E875F87688B798BB3CEC2
:101B100044E050E06BE373E0C7010E94C91E892BCB
:101B200091F48091AC059091AD0588609093AD05DE
:101B30008093AC0560E070E084EC92EC6E877F8768
:101B4000888B998B98CE81E090E08C0F9D1F9F939E
:101B50008F93DF92CF92FF92EF920E94141F0F900B
:101B60000F900F900F900F900F900197D1F08091F0
:101B7000AC059091AD0580619093AD058093AC0567
:101B800080915E0490915F04019690935F0480932E
:101B90005E040B970CF46FCE60E070E082EC92EC88
:101BA000CDCF29813A814B815C812E873F87488B3D
:101BB000598B61CE40E050E060EC72ECA4CF043071
:101BC0001105C1F10530110509F063CE2E853F8561
:101BD000488959892093C4053093C5054093C605AB
:101BE0005093C70562CE2E853F8548895989209339
:101BF000B4053093B5054093B6055093B70555CE5F
:101C00004E855F85688979894093B8055093B905F9
:101C10006093BA057093BB0548CE6E857F85888931
:101C200099896093BC057093BD058093BE05909320
:101C3000BF053BCE8E859F85A889B9898093C00555
:101C40009093C105A093C205B093C3052ECE43E087
:101C500050E067E473E0C8010E94C91E892B29F493
:101C60001092C9051092C8053BCE8091AC059091A9
:101C7000AD0580619093AD058093AC0531CE43E016
:101C800050E067E473E0C8010E94C91E892B29F463
:101C90001092CB051092CA0539CE8091AC05909177
:101CA000AD0580619093AD058093AC052FCEC090BB
:101CB0006605D0906705E0906805F0906905809111
:101CC000680490916904A0916A04B0916B04A70123
:101CD0009601281B390B4A0B5B0BCA01B90128EE90
:101CE00033E040E050E00E947B1E253131050CF4CA
:101CF0005BCEC0926804D0926904E0926A04F092CC
:101D00006B0400916C0410916D04053011050CF00A
:101D10004BCE0F5F1F4F10936D0400936C048BE448
:101D200093E00E94BC010530110509F03DCE8FE51E
:101D300093E00E94BC0181E090E09093AD05809318
:101D4000AC0580E090E0AEEBB2EC8093B0059093F0
:101D5000B105A093B205B093B3058093B4059093F9
:101D6000B505A093B605B093B7058093B8059093D9
:101D7000B905A093BA05B093BB058093BC059093B9
:101D8000BD05A093BE05B093BF058093C005909399
:101D9000C105A093C205B093C3058093C405909379
:101DA000C505A093C605B093C70581EA9FEF909340
:101DB000C9058093C8059093CB058093CA05F4CDDF
:101DC000549AFCCDC090520580915105C81A60907C
:101DD000040150900B012090120148E1342E57E08D
:101DE000452ECC2011F40C941D1A70905105E72D4E
:101DF000EF77F0E0EF52FB4F80812091D004422F2B
:101E0000022E000C550B90E027FF25C051954195FF
:101E1000510902C0959587954A95E2F7092E000C65
:101E2000AA0BBB0B8093CC049093CD04A093CE045B
:101E3000B093CF04285F2093D004F090D004009199
:101E4000CA041091CB04F3E1FF15E4F0739470928F
:101E50005105CA94C6CFB0E0A0E0022E04C0880F9E
:101E6000991FAA1FBB1F0A94D2F74091CC0450912E
:101E7000CD046091CE047091CF04842B952BA62BBA
:101E8000B72BD0CF0115110509F45CC00330110543
:101E9000D0F680E00E948601E82E81E00E94860153
:101EA000D82E82E00E9486016D2D0D2C000C770B40
:101EB00077FF03C07195619571094E2D0E2C000CB2
:101EC000550B57FF03C0519541955109282F082EF6
:101ED000000C330B37FF03C031952195310964178E
:101EE00075070CF471C0621773070CF473C08D2D65
:101EF00091E00230110509F49FC089320CF46CC0E6
:101F00008091C9048F5F8093C90489E0890F409153
:101F1000CC045091CD046091CE047091CF0404C0E4
:101F200076956795579547958A95D2F74093CC0457
:101F30005093CD046093CE047093CF0437EFF30E2B
:101F4000F91A3FC08091CC049091CD04A091CE04A9
:101F5000B091CF04AC01BD01769567955795479533
:101F60008A019B010E771127222733270E30110596
:101F700021053105E9F4E1E0E093C9042AE0B695D2
:101F8000A795979587952A95D1F78093CC04909340
:101F9000CD04A093CE04B093CF0486EF8F0D809331
:101FA000D00421E030E03093CB042093CA0445CF25
:101FB0004093CC045093CD046093CE047093CF042F
:101FC000FA94F092D00439CF421753071CF08E2DAB
:101FD00090E08FCF92E08DCF883D0CF0D9C08091FA
:101FE000C9048B3008F4D4C04FEF4093C80489E093
:101FF000890F4091CC045091CD046091CE04709132
:10200000CF0404C076956795579547958A95D2F782
:102010004093CC045093CD046093CE047093CF04CE
:1020200057EFF50EF91AF092D00462E070E0709369
:10203000CB046093CA0401CF28E2280F213508F4AD
:10204000A7C02091C80427FD13C0E22FE595E595B0
:10205000E5950E2E000CFF0BEE53FB4F408150E038
:10206000440F551F31E018160CF030E0432B40832D
:102070002F5F2093C80489E0890F4091CC045091D0
:10208000CD046091CE047091CF0404C0769567951D
:10209000579547958A95D2F74093CC045093CD0439
:1020A0006093CE047093CF0477EFF70EF91AF09295
:1020B000D004203309F0C1CE4091C704E2ECF4E033
:1020C00094E68CE7319128E0582F517080FB87957A
:1020D00087F95111832537FD9827330F2150A1F738
:1020E000A7ECB4E0AE17BF0769F7491351C0809160
:1020F000C204853409F04CC08091C604853608F0CE
:1021000047C08091C404682F677070E0762F6627FF
:102110009091C504690F711D9B01285C3109293715
:102120003540B0F5807782958F708F5F8615A9F165
:102130008515B1F182112CC082E090E0489E90019B
:10214000499E300D1124F901EE5FFE4F7F010081A1
:102150001181000F111F000F111F08581A4F6059ED
:102160007140072E000C880B990B0E94271A20E063
:1021700030E040E251E40E94B81DD8016D937D9398
:102180008D939C931397F70183829482A582B682E4
:102190001092CB041092CA0450CE90E080E0CECFD3
:1021A00081E090E0CBCFF80183819481A581B68155
:1021B000A5019401281B390B4A0B5B0BCA01B9011D
:1021C00028EE33E040E050E00E947B1E293532408B
:1021D0008CF0D801ED91FC91EE0FFF1FEE0FFF1F69
:1021E000E858FA4F20E030E046EC52EC208331838F
:1021F00042835383095F1F4FE016F106A1F683E087
:1022000090E00E94DA0110E000E0853D910564F461
:1022100002E010E0853991053CF401E010E08337DD
:10222000910514F403E010E087E090E00E94DA01E9
:10223000853D91052CF4853991050CF43CC208606C
:1022400010937305009372056091660570916705A0
:102250008091680590916905C0905605D09057050A
:10226000E0905805F09059056C197D098E099F0979
:1022700028EE33E040E050E00E947B1E253131051E
:102280000CF401C32090B0053090B1054090B20528
:102290005090B3058090B4059090B505A090B60518
:1022A000B090B70520E030E04EEB52ECC201B10136
:1022B0000E94B31D18160CF009C220E030E04EEB6E
:1022C00052ECC501B4010E94B31D18160CF0FCC1FC
:1022D00020E030E043E453E4C201B1010E944E1E0D
:1022E00018160CF4EFC1FF24F39420E030E045E22F
:1022F00053E4C501B4010E944E1E18160CF0F12CD7
:102300008F2D8A8B20E030E04EEB52ECC501B401FA
:102310000E94B31D1816B4F420E030E04DE453E4FD
:10232000C201B1010E944E1EEE24E39418165CF027
:1023300020E030E04AE253E4C501B4010E944E1EA1
:1023400018160CF0E12C20E030E04EEB52ECC2010C
:10235000B1010E94B31D1816E4F420E030E04EEB0A
:1023600052ECC501B4010E94B31D181694F420E08C
:1023700030E040E251E4C501B4010E94471D9B01D9
:10238000AC0177247394C201B1010E944E1E18164D
:102390000CF0712C209078053090790540907A05EA
:1023A00050907B0520E030E046EC52ECC201B101D8
:1023B0000E94B31D20E030E04EEB52EC882309F47C
:1023C00088C1C501B4010E94B31D18160CF016C2D5
:1023D0006801B4E0CB22DD2402FD10C220E030E031
:1023E00040E952E4C201B1010E94B31D87FF0EC053
:1023F0006624639420E030E04AEF52E4C501B40162
:102400000E944E1E18160CF0612CC62C6C2C20E07D
:1024100030E04EEB52ECC501B4010E94B31D18161A
:102420000CF4D1C1F12C6CC18091540590915505EB
:10243000892BB1F40E943F02892B19F00E947B0185
:10244000DECE81E090E090935505809354050E9484
:102450001302892B89F40E947B010E945C01CFCE7C
:102460000E947E01892B09F4CACE8FE39CE9019773
:10247000F1F700C00000EBCF8CEC90E00E94E80187
:1024800084E490E00E94E8019FEFA3EDB0E3915057
:10249000A040B040E1F700C0000007E111E077E79D
:1024A000872E71E0972E1E01EAE02E0E311C801659
:1024B000910621F2D8011A968C91882309F468C0FC
:1024C0000E941302892B39F285E590E00E94E80111
:1024D0007801B2E0EB0EF11C6801EAE0CE0ED11CEF
:1024E000D7018D917D0190E00E94E801CE14DF04B8
:1024F000B9F78EEB90E00E94E801FE0131967F0172
:1025000050E040E029E030E081E090E019C0F8942C
:102510005A985E98B0E1BA95F1F75A9A6AE46A95CA
:10252000F1F700C069B1AFEBB0E01197F1F700C06F
:102530000000789465FF02C0482B592B880F991F23
:102540002150310921F7D7014D937D012A163B0611
:10255000B9F66985AF01485F5F4F80E04E175F07AE
:10256000D1F4681751F1F80183858A3018F1019090
:10257000F081E02DEE0FFF1FEE0FFF1FE858FA4F1E
:1025800020E030E046EC52EC2083318342835383D9
:10259000045F1F4F8CCF919128E030E0782F79278E
:1025A000869570FF02C0BCE88B27969521503109B3
:1025B000A9F7D4CF8F5F8387EBCF6A81862F90E016
:1025C000982F88276981680F792F711D072E000CBD
:1025D000880B990B0E94271A20E030E040E85DE369
:1025E0000E94621A20E030E040E151E40E94621A49
:1025F00020E030E040EA50E40E94B81D20E030E0E6
:1026000040E052E40E94471D6B017C01F801A0806C
:10261000B180AA0CBB1CAA0CBB1CF501E858FA4FF0
:10262000408051806280738020E030E046EC52ECC4
:10263000C301B2010E94B31D882391F120E030E074
:1026400040EA50E4C301B2010E94471D9B01AC0166
:10265000C701B6010E944E1E181654F420E030E067
:1026600040E05FE3C701B6010E94471D6B017C019A
:1026700020E030E040EA50E4C301B2010E94461D70
:10268000A70196010E944E1E181654F420E030E077
:1026900040E05FE3C701B6010E94461D6B017C016B
:1026A000F501E858FA4FC082D182E282F382D80164
:1026B0001B961C926DCF8337910514F00460C0CD3A
:1026C0000C60BECD81E01DCE1A8A3CCE1A8AE12C68
:1026D00060CEC501B4010E94B31D18160CF08EC067
:1026E00002FD8CC0FF24F39420E030E04CE852E47B
:1026F000C501B4010E944E1E18160CF0F12C612C7D
:102700006801E2E0CE22DD2481E001FD43C020909B
:10271000C0053090C1054090C2055090C30520E02F
:1027200030E04EEB52ECC201B1010E94B31D18160D
:102730000CF066C020E030E04EEB52ECC501B40175
:102740000E94B31D18160CF05BC003FF59C020E0B7
:1027500030E04AEA52E4C201B1010E944E1E18164E
:10276000C4F420E030E044EC52E4C201B1010E9424
:10277000B31D87FF0EC04424439420E030E04AEFAD
:1027800052E4C501B4010E944E1E18160CF0412CF3
:10279000C42C8C2DA8014170552700FF33C0F110C7
:1027A00005C0FA89FF2391F1662081F1942F2A89CF
:1027B000222379F1442309F411C231E020E0E11031
:1027C00031C030E02FC020E030E04CE952E4C201DB
:1027D000B1010E94B31D87FF25CE20E030E040E02C
:1027E00050E4C201B1010E94471DFF24F394A501EA
:1027F00094010E94B31D87FD83CF14CE612C12CEAD
:1028000080E0C8CF41E050E06110D0CF4E2D50E0C5
:10281000CDCF31E020E0E11001C030E0911102C0E5
:102820007110DFC190E05093710540937005909353
:102830006F0580936E0530936C0520936D05452BD5
:1028400009F4D2C1299A80916E0590916F05892B68
:1028500009F4CCC1289A80916C0590916D05892B63
:1028600009F4C6C12A9A8091660590916705A091E6
:102870006805B09169058093560590935705A0931C
:102880005805B0935905C0906605D0906705E09053
:102890006805F090690580915C0590915D05A091B7
:1028A0005E05B0915F05A7019601281B390B4A0B05
:1028B0005B0BCA01B90128EE33E040E050E00E9412
:1028C0007B1E253131055CF181E090E00E94DA0148
:1028D0008C0190935B0580935A0590E080E00E9404
:1028E000DA0121E030E00038110514F030E020E09A
:1028F000309377052093760521E030E0803E910506
:1029000014F030E020E03093750520937405C092F8
:102910005C05D0925D05E0925E05F0925F058091C6
:10292000640590916505892B11F180916005909166
:102930006105A0916205B0916305A7019601281B6E
:10294000390B4A0B5B0BCA01B90128EE33E040E0BA
:1029500050E00E947B1E2B3031054CF08AE793E05B
:102960000E94BC0110926505109264055F98609109
:1029700066057091670580916805909169050091E1
:102980006005109161052091620530916305601B1F
:10299000710B820B930B28EE33E040E050E00E9475
:1029A0007B1E293532400CF4BAC04090B0055090DF
:1029B000B1056090B2057090B30520E030E04EEBB9
:1029C00052ECC301B2010E94B31D18160CF012C1E3
:1029D0008091B4059091B505A091B605B091B70569
:1029E0008A8B9B8BAC8BBD8B20E030E04EEB52ECA6
:1029F000BC01CD010E94B31D18160CF0FBC0209144
:102A000088053091890540918A0550918B052E8B60
:102A10003F8B488F598F20E030E046EC52EC6E89B6
:102A20007F89888D998D0E94B31D882309F4E2C0A7
:102A3000C0908C05D0908D05E0908E05F0908F05AC
:102A400020E030E046EC52ECC701B6010E94B31D15
:102A5000882309F4CFC08090800590908105A090D4
:102A60008205B090830520E030E046EC52ECC501D1
:102A7000B4010E94B31D882309F4BCC020E030E0FB
:102A800040EA51E4C301B2010E94471D9B01AC0121
:102A90006A897B898C899D890E944E1E18160CF0CC
:102AA000A9C020E030E040E251E4C501B4010E9439
:102AB000471D9B01AC01C701B6010E94B31D87FFF2
:102AC00099C020E030E040E251E4C701B6010E9425
:102AD000471D9B01AC016E897F89888D998D0E946D
:102AE0004E1E18160CF086C086E993E00E94BC01C9
:102AF00081E090E090936505809364055F9A8091F2
:102B0000660590916705A0916805B091690580936D
:102B1000600590936105A0936205B0936305809171
:102B2000F5029091F602892B09F44EC0809166055A
:102B300090916705A0916805B0916905409197064D
:102B4000509198066091990670919A06841B950B96
:102B5000A60BB70B89389341BCF1809195069091F3
:102B600096068130910509F460C08230910509F420
:102B70007DC0892B49F51092F6021092F5021F9242
:102B80008AE08F931F928DE08F9386E392E09F936C
:102B90008F9385EF93E09F938F938EEC95E09F93B7
:102BA0008F930E94F11E6BEF70E08EEC95E00E9417
:102BB000100181E090E090939606809395060FB601
:102BC000F894DEBF0FBECDBF80E090E0892B11F4FA
:102BD0000C94D50B0E9400000C94D50B31E020E042
:102BE0001FCE81E090E01FCE29982DCE289833CEBD
:102BF0002A9839CE8091C8059091C905892B09F092
:102C00008ECF20E030E040EC50E46091A40570915C
:102C1000A5058091A6059091A7050E944E1E181645
:102C20000CF07DCF8FEB93E061CF1092F602109203
:102C3000F5021F928AE08F931F928DE08F9387E7B2
:102C400091E09F938F9385EF93E09F938F938EEC0A
:102C500095E09F938F930E94F11E6BEF70E08EECD6
:102C600095E00E94100182E090E0A5CF2091CC0574
:102C70003091CD05ECE3F0E0C901BF010E94531E85
:102C80009F938F93CB01BF010E94531E9F938F93FD
:102C9000C90160E17EE00E94531E7F936F931F92F3
:102CA0001F928CEF93E09F938F938EEC95E09F9310
:102CB0008F930E94F11E0FB6F894DEBF0FBECDBFFA
:102CC000F12CE12CEEECAE2EE5E0BE2EF0E3CF2EA3
:102CD000F4E0DF2E92E0E916F10409F453C0A3E01A
:102CE000EA16F10409F457C0B1E0EB16F10409F457
:102CF00040C09090B0058090B1057090B205609092
:102D0000B305F50101900020E9F78F010150110989
:102D10008091AC0568E174E080FD10C020E030E0F7
:102D200046EC52ECD401F3016B2F782D8F2F962DAA
:102D30000E94B31D811138C060E274E0C8010E9496
:102D4000C21EFFEFEF1AFF0A24E0E216F10411F6AB
:102D50008091C8059091C905823A3FEF93070CF422
:102D600044C020E033E0892B09F041C02BEF32E072
:102D70003EC09090B4058090B5057090B605609007
:102D8000B705BFCF9090C0058090C1057090C20577
:102D90006090C305B6CF9090C4058090C505709033
:102DA000C6056090C705ADCF20E030E044EC52ECA2
:102DB000D401F3016B2F782D8F2F962D0E94B31D18
:102DC00068E274E0882309F4B9CF6F927F928F9202
:102DD0009F92DF92CF921F930F930E94F11E0FB626
:102DE000F894DEBF0FBECDBFACCF27EF32E08EEC44
:102DF00095E0DC010D900020E9F7CD013F932F9382
:102E000028E334E03F932F9301979F938F930E9481
:102E1000F11E8091CA059091CB050F900F900F90F5
:102E20000F900F900F9027EF32E0823ABFEF9B0791
:102E300034F020E033E0892B11F42BEF32E00EEC7C
:102E400015E0F80101900020E9F7CF013F932F939F
:102E500028E334E03F932F9301979F938F930E9431
:102E6000F11ED8010D900020E9F7CD012091AB05AE
:102E70002F932091AA052F932091A9052F9320919C
:102E8000A8052F935CE3E52E54E0F52EFF92EF9218
:102E900001979F938F930E94F11EF80101900020EB
:102EA000E9F78F018091A7058F938091A6058F93F5
:102EB0008091A5058F938091A4058F93FF92EF9247
:102EC000015011091F930F930E94F11E0FB6F89441
:102ED000DEBF0FBECDBFF12CE12C6EECA62E65E05F
:102EE000B62E7AE4C72E74E0D72EF7013197E93079
:102EF000F10568F4E258F84E0C949A1E73197C1987
:102F000085198E199719A019A919B219BB19909092
:102F100078058090790570907A0560907B05F501C1
:102F200001900020E9F78F010150110920E030E005
:102F300046EC52ECD401F3016B2F782D8F2F962D98
:102F40000E94B31D811120C263E474E0C8010E9495
:102F5000C21E5FEFE51AF50A6AE0E616F10409F011
:102F6000C4CF80917605909177052FEF32E0892BC1
:102F700011F424E033E08EEC95E0DC010D900020AC
:102F8000E9F7CD013F932F9328E334E03F932F934C
:102F900001979F938F930E94F11E0F900F900F90B7
:102FA0000F900F900F9080917405909175052FEF01
:102FB00032E0892B11F424E033E08EEC95E0FC0143
:102FC00001900020E9F7CF013F932F9328E334E0ED
:102FD0003F932F9301979F938F930E94F11E8091AF
:102FE00072050F900F900F900F900F900F902FEF92
:102FF00032E080FD02C024E033E08EEC95E0DC019D
:103000000D900020E9F7CD013F932F9328E334E0A2
:103010003F932F9301979F938F930E94F11E80916E
:1030200072050F900F900F900F900F900F902FEF51
:1030300032E081FD02C024E033E08EEC95E0FC013B
:1030400001900020E9F7CF013F932F9328E334E06C
:103050003F932F9301979F938F930E94F11E80912E
:1030600072050F900F900F900F900F900F902FEF11
:1030700032E082FD02C024E033E08EEC95E0DC011A
:103080000D900020E9F7CD013F932F9328E334E022
:103090003F932F9301979F938F930E94F11E8091EE
:1030A00072050F900F900F900F900F900F902FEFD1
:1030B00032E083FD02C024E033E08EEC95E0FC01B9
:1030C00001900020E9F7CF013F932F9328E334E0EC
:1030D0003F932F9301979F938F930E94F11E0F9020
:1030E0000F900F900F900F900F908091700590911E
:1030F00071052FEF32E0892B11F424E033E08EECE0
:1031000095E0DC010D900020E9F7CD013F932F936E
:1031100028E334E03F932F9301979F938F930E946E
:10312000F11E0F900F900F900F900F900F908091C5
:103130006E0590916F052FEF32E0892B11F424E09A
:1031400033E00EEC15E0F80101900020E9F7CF0123
:103150003F932F9348E3E42E44E0F42EFF92EF9246
:1031600001979F938F930E94F11ED8010D9000202C
:10317000E9F78D0184E093E09F938F93FF92EF92A4
:10318000015011091F930F930E94F11E0FB6F8947E
:10319000DEBF0FBECDBF80916C0590916D052FEF06
:1031A00032E0892B11F424E033E00EEC15E0D80175
:1031B0000D900020E9F7CD013F932F9328E3E22EF5
:1031C00024E0F22EFF92EF9201979F938F930E943B
:1031D000F11EF80101900020E9F7CF0134E0C32E81
:1031E00033E0D32EDF92CF92FF92EF9201979F931D
:1031F0008F930E94F11ED8010D900020E9F7CD01B8
:10320000DF92CF92FF92EF9201979F938F930E944C
:10321000F11EF090A005E090A105D090A205C0900D
:10322000A305F80101900020E9F78F010150110971
:103230000FB6F894DEBF0FBECDBF20E030E046EC05
:1032400052ECD701F6016B2F7A2F8F2F9E2F0E9401
:10325000B31D8111A9C063E474E0C8010E94C21EBD
:103260008EEC95E0DC010D900020E9F7CD011F9276
:103270002AE02F931F922DE02F9327EF33E03F9307
:103280002F9301979F938F930E94F11E1092F60245
:103290001092F5028091660590916705A0916805EE
:1032A000B09169058093970690939806A09399062C
:1032B000B0939A066BEF70E08EEC95E00E941001DF
:1032C00080916A0590916B0501960FB6F894DEBF68
:1032D0000FBECDBF8431910509F478C090936B0582
:1032E00080936A0571CC90907C0580907D057090EC
:1032F0007E0560907F0513CE9090800580908105BB
:1033000070908205609083050ACE9090840580902D
:103310008505709086056090870501CE90908805A0
:103320008090890570908A0560908B05F8CD90900B
:103330008C0580908D0570908E0560908F05EFCD87
:103340009090900580909105709092056090930503
:10335000E6CD9090940580909505709096056090CC
:103360009705DDCD909098058090990570909A050D
:1033700060909B05D4CD90909C0580909D057090A9
:103380009E0560909F05CBCD6F927F928F929F920A
:10339000DF92CF921F930F930E94F11E0FB6F89405
:1033A000DEBF0FBECDBFD5CDCF92DF92EF92FF92A1
:1033B0008AE494E09F938F931F930F930E94F11ED2
:1033C0000FB6F894DEBF0FBECDBF4ACF10926B058B
:1033D00010926A051092960610929506F5CB2598E4
:1033E0008090660590906705A0906805B09069058B
:1033F000C501B40128EE33E040E050E00E947B1E9E
:10340000C90168E770E00E94671E60FD02C00C946D
:1034100014128091530581110C94E20E1092520502
:103420001092C104109251051092D0041092CB0456
:103430001092CA0481E08093530502E011E0E7E1B5
:10344000EE2EE1E0FE2E0C94FC10E89409C097FBF0
:103450003EF490958095709561957F4F8F4F9F4F6B
:103460009923A9F0F92F96E9BB279395F6958795AF
:1034700077956795B795F111F8CFFAF4BB0F11F472
:1034800060FF1BC06F5F7F4F8F4F9F4F16C0882319
:1034900011F096E911C0772321F09EE8872F762F4F
:1034A00005C0662371F096E8862F70E060E02AF090
:1034B0009A95660F771F881FDAF7880F969587957C
:1034C00097F908950E94751A0C94E61A0E94D81A6A
:1034D00038F00E94DF1A20F0952311F00C94CF1AD7
:1034E0000C94D51A11240C941A1B0E94F71A70F32D
:1034F000959FC1F3950F50E0551F629FF001729F99
:10350000BB27F00DB11D639FAA27F00DB11DAA1FA7
:10351000649F6627B00DA11D661F829F2227B00DF4
:10352000A11D621F739FB00DA11D621F839FA00D7F
:10353000611D221F749F3327A00D611D231F849FCF
:10354000600D211D822F762F6A2F11249F57504026
:103550009AF0F1F088234AF0EE0FFF1FBB1F661FA1
:10356000771F881F91505040A9F79E3F510580F06A
:103570000C94CF1A0C941A1B5F3FE4F3983ED4F3DB
:10358000869577956795B795F795E7959F5FC1F70E
:10359000FE2B880F911D9695879597F9089597F9B9
:1035A0009F6780E870E060E008959FEF80EC0895E9
:1035B00000240A9416161706180609060895002412
:1035C0000A9412161306140605060895092E03948C
:1035D000000C11F4882352F0BB0F40F4BF2B11F400
:1035E00060FF04C06F5F7F4F8F4F9F4F089557FD5F
:1035F0009058440F551F59F05F3F71F04795880F61
:1036000097FB991F61F09F3F79F0879508951216F7
:1036100013061406551FF2CF4695F1DF08C01616A3
:1036200017061806991FF1CF869571056105089454
:103630000895E894BB2766277727CB0197F908956B
:103640002F923F924F925F926F927F928F929F92B2
:10365000AF92BF92CF92DF92EF92FF920F931F93A0
:10366000CF93DF93CDB7DEB7CA1BDB0B0FB6F89451
:10367000DEBF0FBECDBF09942A88398848885F8491
:103680006E847D848C849B84AA84B984C884DF8002
:10369000EE80FD800C811B81AA81B981CE0FD11DE6
:1036A0000FB6F894DEBF0FBECDBFED0108952830F0
:1036B00008F027E03327DA01990F311D87FD91606B
:1036C00000966105710539F432602E5F3D9330E359
:1036D0002A95E1F708959F3F30F080387105610524
:1036E00009F03C5F3C5F3D93913008F08068911D8C
:1036F000DF93CF931F930F93FF92EF92192F987F31
:103700009695E92F96959695E90FFF27E653FF4F7B
:1037100099273327EE24FF24A701E7010590089499
:10372000079428F4360FE71EF81E491F511D660F37
:10373000771F881F991F0694A1F70590079428F416
:10374000E70EF81E491F561FC11D770F881F991FCE
:10375000661F0694A1F70590079428F4F80E491FF8
:10376000561FC71FD11D880F991F661F771F06940C
:10377000A1F70590079420F4490F561FC71FD81FC3
:10378000990F661F771F881F0694A9F784911095DB
:10379000177041F0D695C79557954795F794E794DC
:1037A0001A95C1F7E0E7F0E068941590159135910E
:1037B0006591959105907FE27395E118F10A430BAD
:1037C000560BC90BD009C0F7E10CF11E431F561F61
:1037D000C91FD01D7EF4703311F48A95E6CFE894AA
:1037E000015030F0080F0AF40027021708F4202FC8
:1037F0002395022F7A3328F079E37D932A95E9F710
:1038000010C07D932A9589F606949795679537950C
:1038100017951794E118F10A430B560BC90BD00901
:1038200098F023957E9173957A3308F070E37C933A
:103830002013B8F77E9170617D9330F0839571E32A
:103840007D9370E32A95E1F71124EF90FF900F919B
:103850001F91CF91DF91992787FD90950895911140
:103860000C94431D803219F089508550C8F7089593
:103870009111089581548A5108F4805E855A089503
:10388000FC010590061621F00020D9F7C00108952B
:103890003197CF010895FC010590615070400110EF
:1038A000D8F7809590958E0F9F1F0895FC01615069
:1038B000704001900110D8F7809590958E0F9F1F52
:1038C0000895CF93DF93EC012B8120FF1AC026FFD0
:1038D0000CC02F7B2B838E819F8101969F838E83CB
:1038E0008A8190E0DF91CF91089522FF18C0E8818E
:1038F000F9818081082E000C990B009729F4206231
:103900002B838FEF9FEFEECF3196F983E8832E81E3
:103910003F812F5F3F4F3F832E839927E3CFEA8577
:10392000FB85099597FFF3CF2B81019621F080E26B
:10393000822B8B83E6CF80E1FBCF0F931F93CF9336
:10394000DF93182F092FEB018B8181FD09C01FEF39
:103950000FEF812F902FDF91CF911F910F9108953D
:1039600082FF14C02E813F818C819D8128173907E9
:103970003CF4E881F981CF01019699838883108313
:103980008E819F8101969F838E83E3CFE885F985A1
:10399000812F0995892BA1F3DACFFB01238120FF29
:1039A00011C026FD0FC08F3F980771F082832F7DD5
:1039B0002064238326813781215031093783268370
:1039C000992708958FEF9FEF0895FA01AA272830CD
:1039D00051F1203181F1E8946F936E7F6E5F7F4FDC
:1039E0008F4F9F4FAF4FB1E03ED0B4E03CD0670F58
:1039F000781F891F9A1FA11D680F791F8A1F911DAB
:103A0000A11D6A0F711D811D911DA11D20D009F4FA
:103A100068943F912AE0269F11243019305D31933C
:103A2000DEF6CF010895462F4770405D4193B3E025
:103A30000FD0C9F7F6CF462F4F70405D4A3318F0CC
:103A4000495D31FD4052419302D0A9F7EACFB4E07D
:103A5000A6959795879577956795BA95C9F7009735
:103A60006105710508959B01AC010A2E06945795D6
:103A7000479537952795BA95C9F7620F731F841F2D
:103A8000951FA01D08959927882708955058BB2792
:103A9000AA270E945E1D0C94E61A0E94D81A38F0DC
:103AA0000E94DF1A20F039F49F3F19F426F40C9499
:103AB000D51A0EF4E095E7FB0C94CF1AE92F0E947B
:103AC000F71A58F3BA17620773078407950720F0AF
:103AD00079F4A6F50C94191B0EF4E0950B2EBA2F71
:103AE000A02D0B01B90190010C01CA01A001112404
:103AF000FF27591B99F0593F50F4503E68F11A16B0
:103B0000F040A22F232F342F4427585FF3CF469540
:103B100037952795A795F0405395C9F77EF41F1662
:103B2000BA0B620B730B840BBAF09150A1F0FF0F2C
:103B3000BB1F661F771F881FC2F70EC0BA0F621F18
:103B4000731F841F48F4879577956795B795F79508
:103B50009E3F08F0B0CF9395880F08F09927EE0F9D
:103B60009795879508950E942A1E08F481E008958C
:103B70000E94CC1D0C94E61A0E94DF1A58F00E9495
:103B8000D81A40F029F45F3F29F00C94CF1A511154
:103B90000C941A1B0C94D51A0E94F71A68F39923F7
:103BA000B1F3552391F3951B550BBB27AA27621739
:103BB0007307840738F09F5F5F4F220F331F441F46
:103BC000AA1FA9F335D00E2E3AF0E0E832D091507A
:103BD0005040E695001CCAF72BD0FE2F29D0660F67
:103BE000771F881FBB1F261737074807AB07B0E8AA
:103BF00009F0BB0B802DBF01FF2793585F4F3AF0B0
:103C00009E3F510578F00C94CF1A0C941A1B5F3F1D
:103C1000E4F3983ED4F3869577956795B795F79535
:103C20009F5FC9F7880F911D9695879597F908951D
:103C3000E1E0660F771F881FBB1F621773078407B9
:103C4000BA0720F0621B730B840BBA0BEE1F88F7C8
:103C5000E0950895990F0008550FAA0BE0E8FEEFD4
:103C600016161706E807F907C0F012161306E40740
:103C7000F50798F0621B730B840B950B39F40A2639
:103C800061F0232B242B252B21F408950A2609F417
:103C9000A140A6958FEF811D811D08950E942A1EC7
:103CA00008F48FEF0895AA1BBB1B51E107C0AA1FA0
:103CB000BB1FA617B70710F0A61BB70B881F991FCD
:103CC0005A95A9F780959095BC01CD01089597FB71
:103CD000072E16F4009407D077FD09D00E94531EDA
:103CE00007FC05D03EF4909581959F4F08957095FF
:103CF00061957F4F0895052E97FB1EF400940E9456
:103D0000921E57FD07D00E94A01E07FC03D04EF460
:103D10000C94921E50954095309521953F4F4F4FF2
:103D20005F4F089590958095709561957F4F8F4F67
:103D30009F4F0895EE0FFF1F0590F491E02D099419
:103D4000A1E21A2EAA1BBB1BFD010DC0AA1FBB1F9F
:103D5000EE1FFF1FA217B307E407F50720F0A21B11
:103D6000B30BE40BF50B661F771F881F991F1A947E
:103D700069F760957095809590959B01AC01BD01A8
:103D8000CF010895FB01DC0101900D920020E1F7C5
:103D90000895FB01DC014150504030F08D910190BD
:103DA000801919F40020B9F7881B990B0895FB01BD
:103DB00051915523A9F0BF01DC014D9145174111E7
:103DC000E1F759F4CD010190002049F04D914015E3
:103DD0004111C9F3FB014111EFCF81E090E0019760
:103DE0000895AEE0B0E0E7EFFEE10C942E1B0D89E4
:103DF0001E8986E08C831A8309838FEF9FE79E8359
:103E00008D83AE01475E5F4F6F89788DCE0101963D
:103E10000E94C4032F813885020F131FF8011082FE
:103E20002E96E4E00C944A1BAEE0B0E0EAE1FFE13C
:103E30000C94301B85E08C838B899C899A838983C1
:103E4000AE01495E5F4F6D897E89CE0101960E9469
:103E5000E9092E96E2E00C944C1BF894FFCF010088
:103E600000000100000000010002000000000A0044
:103E70000300000000020028F926EC0200008A017D
:103E80000A030028922BEC0200005D010A040022C4
:103E9000548024000000D2010A050028E81CEC022E
:103EA0000000DF010A060022B78C24000000830115
:103EB0000A0700282E38EC02000015010A08002825
:103EC0004004EC02000060010A090028C53FEC0232
:103ED000000095010A723A202F2F20643A683A6D4B
:103EE0003A7320202020436F6C6C54202053746F51
:103EF0007254202041757831542020417578325415
:103F000020506D702055704C202056616320205643
:103F100070762054317374202054326E6420205403
:103F20006261732020546F7574202054586368496F
:103F300020545863684D20545863684F2054486F8C
:103F4000744F2054526164522054485462522048A5
:103F50003173742048326E6420417761792048546F
:103F600075622053773320205377342020526164C8
:103F700074204854756220417578462046446D701F
:103F800020423173742042326E64202054726F6F6D
:103F900074202000723A202F2F20557074696D65AF
:103FA000202020207C20202020546865726D616CC8
:103FB00020436F6E74726F6C6C6572204F757470F5
:103FC000757473202020207C202020202020202099
:103FD00020202020202020202020202020202020E1
:103FE000202052616469616E7420436F6E74726F39
:103FF0006C6C657220496E707574732020202020CF
:1040000020202020202020202020202020202020B0
:10401000202020202020207C202020202053776971
:1040200074636865732020202020207C20202020BD
:1040300020436F6E74726F6C6C6572204F75747074
:104040007574732020202020207C204578747261B4
:10405000207C000100203F2000202E2000204F4E19
:104060002000202E202000643A20494E495420444C
:104070004F4E450A00643A20746865726D616C2089
:1040800072656376200052554E54494D45002564B3
:104090003A2564004F50454E005348525400256C59
:1040A00066004F4E004F464600643A2074686572C1
:1040B0006D616C2074696D656F75740A00643A20D7
:1040C000746865726D616C206D6178206661696CE1
:1040D00020636F756E740A00643A20616E74692DF6
:1040E000736970686F6E2063697263536F6C61727D
:1040F0003D300A00643A20616E74692D73697068FE
:104100006F6E2063697263536F6C61723D3120641E
:10411000756520746F2074656D70730A00643A20B1
:10412000616E74692D736970686F6E206369726364
:10413000536F6C61723D312064756520746F20701F
:10414000756D70206F666620616E642073756E6E8B
:10415000790A0025732563256300723A2025332EE2
:1041600033643A25322E32643A25322E32643A25AF
:10417000322E326420002020203F20202000204FBB
:1041800050454E2020002053484F525420002520F7
:10419000362E316620002573200025342E3166200E
:1041A000002020203F20200025352E3166200000F1
:107800000C94343C0C94513C0C94513C0C94513CE1
:107810000C94513C0C94513C0C94513C0C94513CB4
:107820000C94513C0C94513C0C94513C0C94513CA4
:107830000C94513C0C94513C0C94513C0C94513C94
:107840000C94513C0C94513C0C94513C0C94513C84
:107850000C94513C0C94513C0C94513C0C94513C74
:107860000C94513C0C94513C11241FBECFEFD8E036
:10787000DEBFCDBF11E0A0E0B1E0ECE9FFE702C060
:1078800005900D92A230B107D9F712E0A2E0B1E065
:1078900001C01D92AD30B107E1F70E942D3D0C945F
:1078A000CC3F0C94003C982F959595959595959582
:1078B000905D8F708A307CF0282F295A8091C0000B
:1078C00085FFFCCF9093C6008091C00085FFFCCF60
:1078D0002093C6000895282F205DF0CF982F809127
:1078E000C00085FFFCCF9093C6000895EF92FF92F1
:1078F0000F931F93EE24FF2487018091C00087FD22
:1079000017C00894E11CF11C011D111D81E4E8164B
:1079100082E4F8068FE0080780E0180770F3E09132
:107920000401F091050109958091C00087FFE9CF1E
:107930008091C6001F910F91FF90EF9008950E94D3
:10794000763C982F8091C00085FFFCCF9093C600B5
:1079500091362CF490330CF09053892F089597555D
:10796000892F08951F930E949F3C182F0E949F3CCF
:107970001295107F810F1F9108951F93182F882350
:1079800021F00E94763C1150E1F71F9108951F935A
:10799000182F0E94763C803249F0809103018F5F5E
:1079A000809303018530C1F01F9108958091C0003C
:1079B00085FFFCCF84E18093C6008091C00085FFE5
:1079C000FCCF1093C6008091C00085FFFCCF80E102
:1079D0008093C6001F910895E0910401F091050184
:1079E00009951F9108950E94763C803241F0809164
:1079F00003018F5F80930301853081F008958091AA
:107A0000C00085FFFCCF84E18093C6008091C00058
:107A100085FFFCCF80E18093C6000895E0910401CA
:107A2000F09105010995089540E951E08823A1F0FE
:107A30002D9A28EE33E0FA013197F1F721503040CA
:107A4000D1F72D9828EE33E0FA013197F1F7215064
:107A50003040D1F7815061F708953F924F925F9285
:107A60006F927F928F929F92AF92BF92CF92DF924E
:107A7000EF92FF920F931F93CF93DF93000080E16B
:107A80008093C4001092C50088E18093C10086E015
:107A90008093C2005098589A259A81E00E94143D24
:107AA00024E1F22E9EE1E92E85E9D82E0FE0C02ECA
:107AB00010E1B12EAA24A394B1E49B2EA6E58A2E50
:107AC000F2E57F2EE0E26E2E79E4572E63E5462E36
:107AD00050E5352E0E94763C8033B1F18133B9F107
:107AE000803409F46FC0813409F476C0823409F41B
:107AF00085C0853409F488C0803531F1823521F1A3
:107B0000813511F1853509F485C0863509F48DC0BC
:107B1000843609F496C0843709F403C1853709F423
:107B200072C1863709F466C0809103018F5F80932C
:107B30000301853079F6E0910401F0910501099582
:107B40000E94763C803351F60E94F33CC3CF0E94E2
:107B5000763C803249F78091C00085FFFCCFF092DF
:107B6000C6008091C00085FFFCCF9092C600809136
:107B7000C00085FFFCCF8092C6008091C00085FFC9
:107B8000FCCF7092C6008091C00085FFFCCF609250
:107B9000C6008091C00085FFFCCF5092C600809146
:107BA000C00085FFFCCF4092C6008091C00085FFD9
:107BB000FCCF3092C6008091C00085FFFCCFB09210
:107BC000C60088CF0E94763C863808F4BDCF0E945C
:107BD000763C0E94F33C7ECF0E94763C803809F4CC
:107BE0009CC0813809F40BC1823809F43CC1883942
:107BF00009F48FC080E00E94C73C6CCF84E10E94F2
:107C0000BD3C0E94F33C66CF85E00E94BD3C0E94D3
:107C1000F33C60CF0E94763C809306010E94763C44
:107C2000809307010E94F33C55CF0E94763C80333D
:107C300009F41DC183E00E94BD3C80E00E94C73C66
:107C400049CF0E94763C809309020E94763C809343
:107C5000080280910C028E7F80930C020E94763C79
:107C6000853409F415C18091080290910902892B8D
:107C700089F000E010E00E94763CF801E85FFE4FDA
:107C800080830F5F1F4F80910802909109020817AF
:107C9000190788F30E94763C803209F045CF809125
:107CA0000C0280FF01C16091060170910701660F0F
:107CB000771F7093070160930601A0910802B091AD
:107CC00009021097C9F0E8E0F1E09B01AD014E0F09
:107CD0005F1FF999FECF32BD21BD819180BDFA9A17
:107CE000F99A2F5F3F4FE417F50799F76A0F7B1F4B
:107CF00070930701609306018091C00085FFFCCF5F
:107D0000F092C6008091C00085FFFCCFB092C60003
:107D1000E1CE83E00E94C73CDDCE82E00E94C73CFA
:107D2000D9CE0E94763C809309020E94763C8093D3
:107D300008028091060190910701880F991F909386
:107D40000701809306010E94763C853409F4A6C0A1
:107D500080910C028E7F80930C020E94763C8032D0
:107D600009F0B8CE8091C00085FFFCCFF092C6002C
:107D7000609108027091090261157105B9F140E046
:107D800050E080910C02A82FA170B82FB27011C0E2
:107D9000BB2309F45CC0E0910601F0910701319624
:107DA000F0930701E09306014F5F5F4F46175707B7
:107DB000E8F4AA2369F3F999FECF209106013091E6
:107DC000070132BD21BDF89A90B58091C00085FFB2
:107DD000FCCF9093C6002F5F3F4F30930701209355
:107DE00006014F5F5F4F4617570718F38091C00099
:107DF00085FDE5CE8091C00085FFF8CFE0CE81E023
:107E00000E94C73C67CE0E94763C803209F08CCE3F
:107E10008091C00085FFFCCFF092C6008091C00029
:107E200085FFFCCFE092C6008091C00085FFFCCFAB
:107E3000D092C6008091C00085FFFCCFC092C600E2
:107E40008091C00085FFFCCFB092C60043CEE09188
:107E50000601F091070194918091C00085FFFCCF4D
:107E60009093C6009CCF80E10E94C73C33CE0E9415
:107E7000763C0E94763C182F0E94763C112309F430
:107E800083C0113009F484C08FE00E94C73C22CE29
:107E900080910C02816080930C02E5CE80910C02EF
:107EA000816080930C0259CF809107018823880F4D
:107EB000880B8A2180930B02809106019091070123
:107EC000880F991F90930701809306018091080203
:107ED00080FF09C080910802909109020196909359
:107EE000090280930802F894F999FECF1127E091D6
:107EF0000601F0910701C8E0D1E08091080290915D
:107F00000902103091F40091570001700130D9F34B
:107F100003E000935700E89500915700017001308D
:107F2000D9F301E100935700E89509901990009169
:107F3000570001700130D9F301E000935700E89534
:107F40001395103498F011270091570001700130FB
:107F5000D9F305E000935700E895009157000170B0
:107F60000130D9F301E100935700E895329602976A
:107F700009F0C7CF103011F00296E5CF112480919F
:107F8000C00085FFB9CEBCCE8EE10E94C73CA2CD19
:0E7F900085E90E94C73C9ECDF894FFCF80008B
:00000001FF
